{
  "contracts/wonderchamps/Wonderchamps.sol": {
    "Wonderchamps": {
      "abi": [
        {
          "inputs": [],
          "stateMutability": "nonpayable",
          "type": "constructor"
        },
        {
          "inputs": [],
          "name": "AccessControlBadConfirmation",
          "type": "error"
        },
        {
          "inputs": [
            {
              "internalType": "address",
              "name": "account",
              "type": "address"
            },
            {
              "internalType": "bytes32",
              "name": "neededRole",
              "type": "bytes32"
            }
          ],
          "name": "AccessControlUnauthorizedAccount",
          "type": "error"
        },
        {
          "inputs": [],
          "name": "ECDSAInvalidSignature",
          "type": "error"
        },
        {
          "inputs": [
            {
              "internalType": "uint256",
              "name": "length",
              "type": "uint256"
            }
          ],
          "name": "ECDSAInvalidSignatureLength",
          "type": "error"
        },
        {
          "inputs": [
            {
              "internalType": "bytes32",
              "name": "s",
              "type": "bytes32"
            }
          ],
          "name": "ECDSAInvalidSignatureS",
          "type": "error"
        },
        {
          "inputs": [],
          "name": "InvalidAdminSignature",
          "type": "error"
        },
        {
          "inputs": [],
          "name": "InvalidPlayerSignature",
          "type": "error"
        },
        {
          "inputs": [
            {
              "internalType": "uint256",
              "name": "itemId",
              "type": "uint256"
            }
          ],
          "name": "ItemAlreadyOwned",
          "type": "error"
        },
        {
          "inputs": [
            {
              "internalType": "uint256",
              "name": "fragmentId",
              "type": "uint256"
            }
          ],
          "name": "ItemFragmentAlreadyOwned",
          "type": "error"
        },
        {
          "inputs": [
            {
              "internalType": "uint256",
              "name": "fragmentId",
              "type": "uint256"
            }
          ],
          "name": "ItemFragmentNotOwned",
          "type": "error"
        },
        {
          "inputs": [
            {
              "internalType": "uint256",
              "name": "itemId",
              "type": "uint256"
            }
          ],
          "name": "ItemNotOwned",
          "type": "error"
        },
        {
          "inputs": [
            {
              "internalType": "uint256",
              "name": "season",
              "type": "uint256"
            }
          ],
          "name": "LeagueDataAlreadyExists",
          "type": "error"
        },
        {
          "inputs": [],
          "name": "NotSelfOrAdmin",
          "type": "error"
        },
        {
          "inputs": [],
          "name": "PlayerAlreadyExists",
          "type": "error"
        },
        {
          "anonymous": false,
          "inputs": [
            {
              "indexed": true,
              "internalType": "bytes32",
              "name": "role",
              "type": "bytes32"
            },
            {
              "indexed": true,
              "internalType": "bytes32",
              "name": "previousAdminRole",
              "type": "bytes32"
            },
            {
              "indexed": true,
              "internalType": "bytes32",
              "name": "newAdminRole",
              "type": "bytes32"
            }
          ],
          "name": "RoleAdminChanged",
          "type": "event"
        },
        {
          "anonymous": false,
          "inputs": [
            {
              "indexed": true,
              "internalType": "bytes32",
              "name": "role",
              "type": "bytes32"
            },
            {
              "indexed": true,
              "internalType": "address",
              "name": "account",
              "type": "address"
            },
            {
              "indexed": true,
              "internalType": "address",
              "name": "sender",
              "type": "address"
            }
          ],
          "name": "RoleGranted",
          "type": "event"
        },
        {
          "anonymous": false,
          "inputs": [
            {
              "indexed": true,
              "internalType": "bytes32",
              "name": "role",
              "type": "bytes32"
            },
            {
              "indexed": true,
              "internalType": "address",
              "name": "account",
              "type": "address"
            },
            {
              "indexed": true,
              "internalType": "address",
              "name": "sender",
              "type": "address"
            }
          ],
          "name": "RoleRevoked",
          "type": "event"
        },
        {
          "inputs": [],
          "name": "DEFAULT_ADMIN_ROLE",
          "outputs": [
            {
              "internalType": "bytes32",
              "name": "",
              "type": "bytes32"
            }
          ],
          "stateMutability": "view",
          "type": "function"
        },
        {
          "inputs": [
            {
              "internalType": "address",
              "name": "player",
              "type": "address"
            },
            {
              "components": [
                {
                  "internalType": "bool",
                  "name": "owned",
                  "type": "bool"
                },
                {
                  "internalType": "uint256",
                  "name": "numData",
                  "type": "uint256"
                }
              ],
              "internalType": "struct IItemFragment.OwnedItemFragment",
              "name": "fragment",
              "type": "tuple"
            },
            {
              "internalType": "bytes[2]",
              "name": "sigData",
              "type": "bytes[2]"
            }
          ],
          "name": "addItemFragmentToInventory",
          "outputs": [],
          "stateMutability": "nonpayable",
          "type": "function"
        },
        {
          "inputs": [
            {
              "internalType": "address",
              "name": "player",
              "type": "address"
            },
            {
              "components": [
                {
                  "internalType": "bool",
                  "name": "owned",
                  "type": "bool"
                },
                {
                  "internalType": "uint256",
                  "name": "numData",
                  "type": "uint256"
                },
                {
                  "internalType": "bytes[]",
                  "name": "additionalData",
                  "type": "bytes[]"
                }
              ],
              "internalType": "struct IItem.OwnedItem",
              "name": "item",
              "type": "tuple"
            },
            {
              "internalType": "bytes[2]",
              "name": "sigData",
              "type": "bytes[2]"
            }
          ],
          "name": "addItemToInventory",
          "outputs": [],
          "stateMutability": "nonpayable",
          "type": "function"
        },
        {
          "inputs": [
            {
              "internalType": "address",
              "name": "player",
              "type": "address"
            },
            {
              "components": [
                {
                  "internalType": "uint256",
                  "name": "stats",
                  "type": "uint256"
                },
                {
                  "internalType": "bytes",
                  "name": "battleHistory",
                  "type": "bytes"
                }
              ],
              "internalType": "struct ILeagueData.LeagueData",
              "name": "data",
              "type": "tuple"
            },
            {
              "internalType": "bytes[2]",
              "name": "sigData",
              "type": "bytes[2]"
            }
          ],
          "name": "addLeagueData",
          "outputs": [],
          "stateMutability": "nonpayable",
          "type": "function"
        },
        {
          "inputs": [
            {
              "internalType": "address",
              "name": "player",
              "type": "address"
            },
            {
              "internalType": "bytes32",
              "name": "salt",
              "type": "bytes32"
            },
            {
              "internalType": "uint256",
              "name": "timestamp",
              "type": "uint256"
            },
            {
              "internalType": "bytes",
              "name": "adminSig",
              "type": "bytes"
            }
          ],
          "name": "createPlayer",
          "outputs": [],
          "stateMutability": "nonpayable",
          "type": "function"
        },
        {
          "inputs": [
            {
              "internalType": "address",
              "name": "player",
              "type": "address"
            },
            {
              "internalType": "bytes",
              "name": "salt",
              "type": "bytes"
            }
          ],
          "name": "dataHash",
          "outputs": [
            {
              "internalType": "bytes32",
              "name": "",
              "type": "bytes32"
            }
          ],
          "stateMutability": "pure",
          "type": "function"
        },
        {
          "inputs": [
            {
              "internalType": "address",
              "name": "player",
              "type": "address"
            },
            {
              "internalType": "uint256[]",
              "name": "ownedItemIDs",
              "type": "uint256[]"
            },
            {
              "internalType": "uint256[]",
              "name": "ownedItemFragmentIDs",
              "type": "uint256[]"
            },
            {
              "internalType": "uint256[]",
              "name": "leagueSeasons",
              "type": "uint256[]"
            },
            {
              "internalType": "bytes32",
              "name": "salt",
              "type": "bytes32"
            },
            {
              "internalType": "uint256",
              "name": "timestamp",
              "type": "uint256"
            },
            {
              "internalType": "bytes[2]",
              "name": "sigs",
              "type": "bytes[2]"
            }
          ],
          "name": "deletePlayer",
          "outputs": [],
          "stateMutability": "nonpayable",
          "type": "function"
        },
        {
          "inputs": [
            {
              "internalType": "address",
              "name": "player",
              "type": "address"
            },
            {
              "internalType": "uint256[]",
              "name": "fragmentIds",
              "type": "uint256[]"
            }
          ],
          "name": "getItemFragments",
          "outputs": [
            {
              "components": [
                {
                  "internalType": "bool",
                  "name": "owned",
                  "type": "bool"
                },
                {
                  "internalType": "uint256",
                  "name": "numData",
                  "type": "uint256"
                }
              ],
              "internalType": "struct IItemFragment.OwnedItemFragment[]",
              "name": "",
              "type": "tuple[]"
            }
          ],
          "stateMutability": "view",
          "type": "function"
        },
        {
          "inputs": [
            {
              "internalType": "address",
              "name": "player",
              "type": "address"
            },
            {
              "internalType": "uint256[]",
              "name": "itemIds",
              "type": "uint256[]"
            }
          ],
          "name": "getItems",
          "outputs": [
            {
              "components": [
                {
                  "internalType": "bool",
                  "name": "owned",
                  "type": "bool"
                },
                {
                  "internalType": "uint256",
                  "name": "numData",
                  "type": "uint256"
                },
                {
                  "internalType": "bytes[]",
                  "name": "additionalData",
                  "type": "bytes[]"
                }
              ],
              "internalType": "struct IItem.OwnedItem[]",
              "name": "",
              "type": "tuple[]"
            }
          ],
          "stateMutability": "view",
          "type": "function"
        },
        {
          "inputs": [
            {
              "internalType": "address",
              "name": "player",
              "type": "address"
            },
            {
              "internalType": "uint256[]",
              "name": "seasons",
              "type": "uint256[]"
            }
          ],
          "name": "getLeagueData",
          "outputs": [
            {
              "components": [
                {
                  "internalType": "uint256",
                  "name": "stats",
                  "type": "uint256"
                },
                {
                  "internalType": "bytes",
                  "name": "battleHistory",
                  "type": "bytes"
                }
              ],
              "internalType": "struct ILeagueData.LeagueData[]",
              "name": "",
              "type": "tuple[]"
            }
          ],
          "stateMutability": "view",
          "type": "function"
        },
        {
          "inputs": [
            {
              "internalType": "address",
              "name": "player",
              "type": "address"
            }
          ],
          "name": "getOwnedIGC",
          "outputs": [
            {
              "internalType": "uint256",
              "name": "",
              "type": "uint256"
            }
          ],
          "stateMutability": "view",
          "type": "function"
        },
        {
          "inputs": [
            {
              "internalType": "address",
              "name": "player",
              "type": "address"
            },
            {
              "internalType": "uint256[]",
              "name": "itemIDs",
              "type": "uint256[]"
            },
            {
              "internalType": "uint256[]",
              "name": "fragmentIDs",
              "type": "uint256[]"
            },
            {
              "internalType": "uint256[]",
              "name": "leagueSeasons",
              "type": "uint256[]"
            }
          ],
          "name": "getPlayer",
          "outputs": [
            {
              "components": [
                {
                  "internalType": "uint256",
                  "name": "ownedIGC",
                  "type": "uint256"
                },
                {
                  "components": [
                    {
                      "internalType": "bool",
                      "name": "owned",
                      "type": "bool"
                    },
                    {
                      "internalType": "uint256",
                      "name": "numData",
                      "type": "uint256"
                    },
                    {
                      "internalType": "bytes[]",
                      "name": "additionalData",
                      "type": "bytes[]"
                    }
                  ],
                  "internalType": "struct IItem.OwnedItem[]",
                  "name": "items",
                  "type": "tuple[]"
                },
                {
                  "components": [
                    {
                      "internalType": "bool",
                      "name": "owned",
                      "type": "bool"
                    },
                    {
                      "internalType": "uint256",
                      "name": "numData",
                      "type": "uint256"
                    }
                  ],
                  "internalType": "struct IItemFragment.OwnedItemFragment[]",
                  "name": "fragments",
                  "type": "tuple[]"
                },
                {
                  "internalType": "uint256",
                  "name": "drawingStats",
                  "type": "uint256"
                },
                {
                  "components": [
                    {
                      "internalType": "uint256",
                      "name": "stats",
                      "type": "uint256"
                    },
                    {
                      "internalType": "bytes",
                      "name": "battleHistory",
                      "type": "bytes"
                    }
                  ],
                  "internalType": "struct ILeagueData.LeagueData[]",
                  "name": "leagueData",
                  "type": "tuple[]"
                }
              ],
              "internalType": "struct IPlayer.Player",
              "name": "",
              "type": "tuple"
            }
          ],
          "stateMutability": "view",
          "type": "function"
        },
        {
          "inputs": [
            {
              "internalType": "bytes32",
              "name": "role",
              "type": "bytes32"
            }
          ],
          "name": "getRoleAdmin",
          "outputs": [
            {
              "internalType": "bytes32",
              "name": "",
              "type": "bytes32"
            }
          ],
          "stateMutability": "view",
          "type": "function"
        },
        {
          "inputs": [
            {
              "internalType": "bytes32",
              "name": "role",
              "type": "bytes32"
            },
            {
              "internalType": "address",
              "name": "account",
              "type": "address"
            }
          ],
          "name": "grantRole",
          "outputs": [],
          "stateMutability": "nonpayable",
          "type": "function"
        },
        {
          "inputs": [
            {
              "internalType": "bytes32",
              "name": "role",
              "type": "bytes32"
            },
            {
              "internalType": "address",
              "name": "account",
              "type": "address"
            }
          ],
          "name": "hasRole",
          "outputs": [
            {
              "internalType": "bool",
              "name": "",
              "type": "bool"
            }
          ],
          "stateMutability": "view",
          "type": "function"
        },
        {
          "inputs": [
            {
              "internalType": "address",
              "name": "player",
              "type": "address"
            },
            {
              "internalType": "bytes32",
              "name": "salt",
              "type": "bytes32"
            },
            {
              "internalType": "uint256",
              "name": "timestamp",
              "type": "uint256"
            }
          ],
          "name": "playerDataHash",
          "outputs": [
            {
              "internalType": "bytes32",
              "name": "",
              "type": "bytes32"
            }
          ],
          "stateMutability": "pure",
          "type": "function"
        },
        {
          "inputs": [
            {
              "internalType": "address",
              "name": "player",
              "type": "address"
            }
          ],
          "name": "playerExists",
          "outputs": [
            {
              "internalType": "bool",
              "name": "",
              "type": "bool"
            }
          ],
          "stateMutability": "view",
          "type": "function"
        },
        {
          "inputs": [
            {
              "internalType": "address",
              "name": "player",
              "type": "address"
            },
            {
              "internalType": "uint256",
              "name": "fragmentId",
              "type": "uint256"
            },
            {
              "internalType": "bytes[3]",
              "name": "sigData",
              "type": "bytes[3]"
            }
          ],
          "name": "removeItemFragmentFromInventory",
          "outputs": [],
          "stateMutability": "nonpayable",
          "type": "function"
        },
        {
          "inputs": [
            {
              "internalType": "address",
              "name": "player",
              "type": "address"
            },
            {
              "internalType": "uint256",
              "name": "itemId",
              "type": "uint256"
            },
            {
              "internalType": "bytes[3]",
              "name": "sigData",
              "type": "bytes[3]"
            }
          ],
          "name": "removeItemFromInventory",
          "outputs": [],
          "stateMutability": "nonpayable",
          "type": "function"
        },
        {
          "inputs": [
            {
              "internalType": "bytes32",
              "name": "role",
              "type": "bytes32"
            },
            {
              "internalType": "address",
              "name": "callerConfirmation",
              "type": "address"
            }
          ],
          "name": "renounceRole",
          "outputs": [],
          "stateMutability": "nonpayable",
          "type": "function"
        },
        {
          "inputs": [
            {
              "internalType": "bytes32",
              "name": "role",
              "type": "bytes32"
            },
            {
              "internalType": "address",
              "name": "account",
              "type": "address"
            }
          ],
          "name": "revokeRole",
          "outputs": [],
          "stateMutability": "nonpayable",
          "type": "function"
        },
        {
          "inputs": [
            {
              "internalType": "bytes4",
              "name": "interfaceId",
              "type": "bytes4"
            }
          ],
          "name": "supportsInterface",
          "outputs": [
            {
              "internalType": "bool",
              "name": "",
              "type": "bool"
            }
          ],
          "stateMutability": "view",
          "type": "function"
        },
        {
          "inputs": [
            {
              "internalType": "address",
              "name": "player",
              "type": "address"
            },
            {
              "internalType": "uint256[2]",
              "name": "data",
              "type": "uint256[2]"
            },
            {
              "internalType": "bytes[2]",
              "name": "sigData",
              "type": "bytes[2]"
            }
          ],
          "name": "updateItemFragmentNumData",
          "outputs": [],
          "stateMutability": "nonpayable",
          "type": "function"
        },
        {
          "inputs": [
            {
              "internalType": "address",
              "name": "player",
              "type": "address"
            },
            {
              "internalType": "uint256",
              "name": "itemId",
              "type": "uint256"
            },
            {
              "internalType": "bytes[]",
              "name": "_additionalData",
              "type": "bytes[]"
            },
            {
              "internalType": "bytes[]",
              "name": "sigData",
              "type": "bytes[]"
            }
          ],
          "name": "updateOwnedItemAdditionalData",
          "outputs": [],
          "stateMutability": "nonpayable",
          "type": "function"
        },
        {
          "inputs": [
            {
              "internalType": "address",
              "name": "player",
              "type": "address"
            },
            {
              "internalType": "uint256[2]",
              "name": "data",
              "type": "uint256[2]"
            },
            {
              "internalType": "bytes[2]",
              "name": "sigData",
              "type": "bytes[2]"
            }
          ],
          "name": "updateOwnedItemNumData",
          "outputs": [],
          "stateMutability": "nonpayable",
          "type": "function"
        }
      ],
      "evm": {
        "bytecode": {
          "linkReferences": {},
          "object": "608060405234601f57600f336024565b506040516124d890816100b28239f35b600080fd5b6001600160a01b038116600090815260008051602061258a833981519152602052604090205460ff1660ab576001600160a01b0316600081815260008051602061258a83398151915260205260408120805460ff191660011790553391907f2f8788117e7eff1d82e926ec794901d17c78024a50270940304540a733656f0d8180a4600190565b5060009056fe6080604052600436101561001257600080fd5b60003560e01c806301ffc9a7146101a757806302ee63ea146101a2578063036a6c641461019d578063110ddd951461019857806313348d7c14610193578063176f46eb1461018e578063182e47de14610189578063248a9ca3146101845780632f2ff15d1461017f57806336568abe1461017a57806338ff768e146101755780633ddaf5f51461017057806345ce41741461016b57806356a99ed3146101665780635f1129b81461016157806374667dba1461015c5780637840f045146101575780637dff20911461015257806391d148541461014d578063a217fddf14610148578063bbe5230014610143578063d547741f1461013e578063d7302cf914610139578063dc2a5c0e146101345763f9a2e0ec1461012f57600080fd5b611384565b6111fd565b6111b9565b61114c565b61110d565b6110f1565b61109e565b610f8b565b610e40565b610dfe565b610dd4565b610d61565b610ca3565b610bad565b610b02565b610abc565b610a75565b610a40565b61095d565b610848565b610780565b610529565b61047a565b610287565b346101fd5760203660031901126101fd5760043563ffffffff60e01b81168091036101fd57602090637965db0b60e01b81149081156101ec575b506040519015158152f35b6301ffc9a760e01b149050386101e1565b600080fd5b600435906001600160a01b03821682036101fd57565b602435906001600160a01b03821682036101fd57565b919060408301116101fd57565b60806003198201126101fd576004356001600160a01b03811681036101fd5791816064116101fd57602491606435906001600160401b0382116101fd576102849160040161022e565b90565b346101fd5760206102973661023b565b92906103028135946102a98686611f79565b6102fc6102f26102c36102bc8480611437565b9089611d81565b7f19457468657265756d205369676e6564204d6573736167653a0a333200000000600052601c52603c60002090565b9185810190611437565b91611ffc565b6001600160a01b038316600090815260036020526040902091013590836000526020526001604060002001557fc36605e3afc7883a4162fc7d6ad90a5c08b78a73d0bd1bea0288b746046ecfef600080a3005b9181601f840112156101fd578235916001600160401b0383116101fd576020808501948460051b0101116101fd57565b9060406003198301126101fd576004356001600160a01b03811681036101fd5791602435906001600160401b0382116101fd576103c491600401610355565b9091565b919082519283825260005b8481106103f4575050826000602080949584010152601f8019910116010190565b806020809284010151828286010152016103d3565b602081016020825282518091526040820191602060408360051b8301019401926000915b83831061043c57505050505090565b909192939460208061046b600193603f198682030187526040838b5180518452015191818582015201906103c8565b9701930193019193929061042d565b346101fd5761048836610385565b919061049382612074565b61049c8361150c565b926001600160a01b039092169160005b8181106104c557604051806104c18782610409565b0390f35b60019084600052600660205260406000206104e182858761156a565b35600052602052604060002061050883604051926104fe8461148d565b80548452016115c8565b6020820152610517828861157a565b52610522818761157a565b50016104ac565b346101fd5760803660031901126101fd57610542610202565b602435906044356001600160401b0381116101fd57610565903690600401610355565b6064356001600160401b0381116101fd57610584903690600401610355565b61058e8686611f79565b8015610728576105ab6102c36105a48480611437565b9088611d81565b9060011015610728576102fc8260206105c5940190611437565b60018060a01b038316600052600360205260406000208460005260205260026040600020016105f48282611706565b60009081526020812092805b8383106106305786867fc36605e3afc7883a4162fc7d6ad90a5c08b78a73d0bd1bea0288b746046ecfef600080a3005b61063a8183611437565b906001600160401b0382116107235761065d82610657895461158e565b89611754565b600090601f83116001146106b05792610696836001959460209487966000926106a5575b50508160011b916000199060031b1c19161790565b88555b01950192019193610600565b013590503880610681565b601f198316916106c589600052602060002090565b92815b81811061070b57509360209360019693879693838895106106f1575b505050811b018855610699565b0135600019600384901b60f8161c191690553880806106e4565b919360206001819287870135815501950192016106c8565b611477565b611421565b906020808351928381520192019060005b81811061074b5750505090565b8251805115158552602090810151818601526040909401939092019160010161073e565b90602061028492818152019061072d565b346101fd5761078e36610385565b919061079982612074565b6107a283611799565b926001600160a01b039092169160005b8181106107c757604051806104c1878261076f565b60019084600052600460205260406000206107e382858761156a565b35600052602052604060002082604051916107fd8361148d565b60ff8154161515835201546020820152610817828861157a565b52610822818761157a565b50016107b2565b60409060231901126101fd57602490565b908160409103126101fd5790565b346101fd5760603660031901126101fd57610861610202565b6024356001600160401b0381116101fd5761088090369060040161083a565b906044356001600160401b0381116101fd576108a090369060040161022e565b6001600160a01b03821660008181526006602090815260408083206001600160e81b038835168085529252909120549094919061094857610903836102fc6108f86102c36108f18461092199611437565b908a611d81565b916020810190611437565b6000526006602052604060002084600052602052604060002061181a565b7fe1a3b98a9976c6d2ea620746c483905be7679b691bd423620d828fc4c7128a3e600080a3005b84636191037360e11b60005260045260246000fd5b346101fd5760603660031901126101fd57610976610202565b602435906001600160401b0382116101fd57606060031983360301126101fd576044356001600160401b0381116101fd576109b8610a1991369060040161022e565b926109e86001600160801b03602483013516946109d58686611fba565b6102fc6108f86102c36102bc8480611437565b60018060a01b0383166000526003602052600401610a1484604060002090600052602052604060002090565b611900565b7f253f6b1995c330c2910a1fc84688341255a45574abc14d9c8deadaa3f45457a2600080a3005b346101fd5760203660031901126101fd576020610a6d600435600052600060205260016040600020015490565b604051908152f35b346101fd5760403660031901126101fd57610aba600435610a94610218565b90610ab5610ab082600052600060205260016040600020015490565b6120d6565b612111565b005b346101fd5760403660031901126101fd57600435610ad8610218565b336001600160a01b03821603610af157610aba916121a1565b63334bd91960e11b60005260046000fd5b346101fd5760e03660031901126101fd57610b1b610202565b6024356001600160401b0381116101fd57610b3a903690600401610355565b6044929192356001600160401b0381116101fd57610b5c903690600401610355565b6064356001600160401b0381116101fd57610b7b903690600401610355565b916084359360a4359560c435986001600160401b038a116101fd57610ba7610aba9a369060040161022e565b98611ac1565b346101fd5760803660031901126101fd57610bc6610202565b610bcf36610829565b906064356001600160401b0381116101fd57610bf2610c3791369060040161022e565b92610c0f6001600160801b03602083013516946109d58686612267565b6001600160a01b03831660009081526004602090815260408083208784529091529020611c32565b7f461d12aa98a20b4fabc02b04b95f8efbbdd00699d6826cd244814cd862fe08fb600080a3005b60606003198201126101fd576004356001600160a01b03811681036101fd579160243591604435906001600160401b0382116101fd5760648201116101fd5760040190565b346101fd57610d0e610cb436610c5e565b8290610cc383839694966122a9565b610cea610cdd6102c3610cd68480611437565b9086611d81565b6102fc6020840184611437565b610d08610cfd6102c3610cd68480611437565b916040810190611437565b91612228565b6001600160a01b038116600090815260046020526040902082600052602052600060016040822082815501557fab2ac95583fd8c7a6ed44777780607d32a472d5da94d68a60b2dc51db28dccd7600080a3005b346101fd57610d81610d7236610c5e565b8290610cc38383969496611f79565b6001600160a01b038116600090815260036020526040902082600052602052610dad6040600020611a68565b7f678419c073b2eba6e89e003798c3e19e378b27373fa408a4dd0347e052487bda600080a3005b346101fd5760603660031901126101fd576020610a6d610df2610202565b60243560443591611c5d565b346101fd5760203660031901126101fd57610e17610202565b610e2081612074565b60018060a01b031660005260026020526020604060002054604051908152f35b346101fd576020610e503661023b565b9290610e628135946102a986866122a9565b6001600160a01b038316600090815260046020526040902091013590836000526020526001604060002001557f2d52772a1b0b9560e4b017c0f93dcb1257ab0c2ba6ff79c4bdc289137b8e0ff2600080a3005b9080602083519182815201916020808360051b8301019401926000915b838310610ee157505050505090565b9091929394601f1982820301835285519060406060820192805115158352602081015160208401520151916060604083015282518091526080820190602060808260051b85010194019260005b828110610f4f57505050505060208060019297019301930191939290610ed2565b9091929394602080610f6d600193607f1987820301895289516103c8565b9701950193929101610f2e565b906020610284928181520190610eb5565b346101fd57610f9936610385565b610fa283612074565b610fab81611c9b565b60009390926001600160a01b03909116915b808510610fd257604051806104c18682610f7a565b8260005260036020526040600020610feb86838561156a565b35600052602052604060002094600260405196611007886114a8565b60ff815416151588526001810154602089015201958654611027816114f5565b9061103560405192836114c3565b80825260208201986000526020600020986000905b828210611081575050506001939495969750604082015261106b828861157a565b52611076818761157a565b500193929190610fbd565b6001602081926110908e6115c8565b8152019b019101909961104a565b346101fd5760403660031901126101fd57602060ff6110e56004356110c1610218565b906000526000845260406000209060018060a01b0316600052602052604060002090565b54166040519015158152f35b346101fd5760003660031901126101fd57602060405160008152f35b346101fd5760203660031901126101fd576001600160a01b0361112e610202565b166000526001602052602060ff604060002054166040519015158152f35b346101fd5760403660031901126101fd57610aba60043561116b610218565b90611187610ab082600052600060205260016040600020015490565b6121a1565b9181601f840112156101fd578235916001600160401b0383116101fd57602083818601950101116101fd57565b346101fd5760403660031901126101fd576111d2610202565b6024356001600160401b0381116101fd576020916111f7610a6d92369060040161118c565b91611d81565b346101fd5760803660031901126101fd57611216610202565b6044356024356064356001600160401b0381116101fd5761123b90369060040161118c565b9060018060a01b0385169384600052600160205260ff60406000205416156112b2576102c361126e916112739588611c5d565b611ffc565b60005260016020526040600020600160ff198254161790557fb4cca19a27ce42915c3cee0cee28fc5d90969ee49f09ec71659546a63b5f7bc0600080a2005b637722b8a160e11b60005260046000fd5b90602082528051602083015260806113036112ed602084015160a0604087015260c0860190610eb5565b6040840151858203601f1901606087015261072d565b9160608101518285015201519160a0601f1982840301910152815180825260208201916020808360051b8301019401926000915b83831061134657505050505090565b9091929394602080611375600193601f198682030187526040838b5180518452015191818582015201906103c8565b97019301930191939290611337565b346101fd5760803660031901126101fd5761139d610202565b6024356001600160401b0381116101fd576113bc903690600401610355565b91906044356001600160401b0381116101fd576113dd903690600401610355565b60643593916001600160401b0385116101fd576104c195611405611415963690600401610355565b959094611410611dc5565b611e01565b604051918291826112c3565b634e487b7160e01b600052603260045260246000fd5b903590601e19813603018212156101fd57018035906001600160401b0382116101fd576020019181360383136101fd57565b6103c4906020810190611437565b634e487b7160e01b600052604160045260246000fd5b604081019081106001600160401b0382111761072357604052565b606081019081106001600160401b0382111761072357604052565b90601f801991011681019081106001600160401b0382111761072357604052565b604051906114f360a0836114c3565b565b6001600160401b0381116107235760051b60200190565b90611516826114f5565b61152360405191826114c3565b8281528092611534601f19916114f5565b019060005b82811061154557505050565b6020906040516115548161148d565b6000815260608382015282828501015201611539565b91908110156107285760051b0190565b80518210156107285760209160051b010190565b90600182811c921680156115be575b60208310146115a857565b634e487b7160e01b600052602260045260246000fd5b91607f169161159d565b90604051918260008254926115dc8461158e565b80845293600181169081156116485750600114611601575b506114f3925003836114c3565b90506000929192526020600020906000915b81831061162c5750509060206114f392820101386115f4565b6020919350806001915483858901015201910190918492611613565b9050602092506114f394915060ff191682840152151560051b820101386115f4565b906040516116778161148d565b602061168a6001839580548552016115c8565b910152565b81811061169a575050565b6000815560010161168f565b6116b0815461158e565b90816116ba575050565b81601f600093116001146116cc575055565b818352602083206116e891601f0160051c81019060010161168f565b808252602082209081548360011b9084198560031b1c191617905555565b906801000000000000000081116107235781549181815582821061172957505050565b600052602060002091820191015b818110611742575050565b8061174e6001926116a6565b01611737565b9190601f811161176357505050565b6114f3926000526020600020906020601f840160051c8301931061178f575b601f0160051c019061168f565b9091508190611782565b906117a3826114f5565b6117b060405191826114c3565b82815280926117c1601f19916114f5565b019060005b8281106117d257505050565b6020906040516117e18161148d565b60008152600083820152828285010152016117c6565b906040516118048161148d565b60206001829460ff815416151584520154910152565b813581556001019190611831906020810190611437565b6001600160401b0381949294116107235761185681611850845461158e565b84611754565b6000601f821160011461188b5781906118879394956000926106a55750508160011b916000199060031b1c19161790565b9055565b601f198216946118a084600052602060002090565b91805b8781106118db5750836001959697106118c1575b505050811b019055565b0135600019600384901b60f8161c191690553880806118b7565b909260206001819286860135815501940191016118a3565b3580151581036101fd5790565b60029061192161190f846118f3565b829060ff801983541691151516179055565b602083013560018201550190604081013590601e19813603018212156101fd57018035906001600160401b0382116101fd576020018160051b360381136101fd579161196d8282611706565b60009081526020812092805b838310611987575050505050565b6119918183611437565b906001600160401b038211610723576119ae82610657895461158e565b600090601f83116001146119f557926119e6836001959460209487966000926106a55750508160011b916000199060031b1c19161790565b88555b01950192019193611979565b601f19831691611a0a89600052602060002090565b92815b818110611a505750936020936001969387969383889510611a36575b505050811b0188556119e9565b0135600019600384901b60f8161c19169055388080611a29565b91936020600181928787013581550195019201611a0d565b6002906000815560006001820155018054906000815581611a87575050565b6000526020600020908101905b818110611a9f575050565b80611aab6001926116a6565b01611a94565b60016114f39160008155016116a6565b98610d08611af86102c3611afe9597999b8d9597999b611af2611ae86102c384848b611c5d565b6102fc8880611437565b86611c5d565b91611469565b6001600160a01b0387166000908152600160209081526040808320805460ff1916905560028252808320839055600590915281208190555b828110611c025750505060005b828110611bcb5750505060005b828110611b81575050507fc9fb99cf86984520d29d72f3a41fe637cc23cddff11a003f0b9e27c1652d1718600080a2565b600190611bc5611bc0611ba68760018060a01b03166000526006602052604060002090565b611bb184888861156a565b35600052602052604060002090565b611ab1565b01611b50565b600190611bfc611bf0611ba68960018060a01b03166000526004602052604060002090565b60016000918281550155565b01611b43565b600190611c2c611c27611ba68b60018060a01b03166000526003602052604060002090565b611a68565b01611b36565b906020600191611c56611c44826118f3565b859060ff801983541691151516179055565b0135910155565b916040519160208301936bffffffffffffffffffffffff199060601b1684526034830152605482015260548152611c956074826114c3565b51902090565b90611ca5826114f5565b611cb260405191826114c3565b8281528092611cc3601f19916114f5565b019060005b828110611cd457505050565b602090604051611ce3816114a8565b600081526000838201526060604082015282828501015201611cc8565b90604051611d0d816114a8565b6002819360ff815416151583526001810154602084015201908154611d31816114f5565b92611d3f60405194856114c3565b818452602084019060005260206000206000915b838310611d64575050505060400152565b600160208192611d73856115c8565b815201920192019190611d53565b91906034611c95918360405194859260208401976bffffffffffffffffffffffff199060601b1688528484013781016000838201520301601f1981018352826114c3565b6040519060a082018281106001600160401b03821117610723576040526060608083600081528260208201528260408201526000838201520152565b5095919293949094611e1287612074565b611e1b84611c9b565b94611e2582611799565b94611e2f8561150c565b978960005b838110611f32575050505060005b828110611eec5750505060005b828110611ea6575050506001600160a01b039390931660009081526002602090815260408083205460059092529091209093905491611e8c6114e4565b948552602085015260408401526060830152608082015290565b600190611ed0611ecb611ba68a60018060a01b03166000526006602052604060002090565b61166a565b611eda828961157a565b52611ee5818861157a565b5001611e4f565b600190611f16611f11611ba68c60018060a01b03166000526004602052604060002090565b6117f7565b611f20828961157a565b52611f2b818861157a565b5001611e42565b611f5b611f56611ba660019460018060a01b03166000526003602052604060002090565b611d00565b611f65828c61157a565b52611f70818b61157a565b50018a90611e34565b60018060a01b0316600052600360205260406000208160005260205260ff6040600020541615611fa65750565b63d354013760e01b60005260045260246000fd5b6001600160a01b031660009081526003602052604090208160005260205260ff60406000205416611fe85750565b63090ed99360e11b60005260045260246000fd5b6120186120219161201260ff9561205a956122ea565b9061232f565b9092919261238b565b6001600160a01b031660009081527fad3228b676f7d3cd4284a5443f17f1962b36e491b30a40b2405849e597ba5fb56020526040902090565b54161561206357565b633b95b10160e21b60005260046000fd5b6001600160a01b03163314158061209d575b61208c57565b634638b61d60e01b60005260046000fd5b503360009081527fad3228b676f7d3cd4284a5443f17f1962b36e491b30a40b2405849e597ba5fb5602052604090205460ff1615612086565b60008181526020818152604080832033845290915290205460ff16156120f95750565b63e2517d3f60e01b6000523360045260245260446000fd5b6000818152602081815260408083206001600160a01b038616845290915290205460ff1661219a576000818152602081815260408083206001600160a01b03861684529091529020805460ff1916600117905533916001600160a01b0316907f2f8788117e7eff1d82e926ec794901d17c78024a50270940304540a733656f0d600080a4600190565b5050600090565b6000818152602081815260408083206001600160a01b038616845290915290205460ff161561219a576000818152602081815260408083206001600160a01b03861684529091529020805460ff1916905533916001600160a01b0316907ff6391f5c32d9c69d2a47ea670b442974b53935d1edc7fd64eb21e047a839171b600080a4600190565b6120126122429493612239936122ea565b9093919361238b565b6001600160a01b0390811691160361225657565b6335e02e4160e01b60005260046000fd5b6001600160a01b031660009081526004602052604090208160005260205260ff604060002054166122955750565b630ddeb9d960e31b60005260045260246000fd5b60018060a01b0316600052600460205260406000208160005260205260ff60406000205416156122d65750565b630f66726360e01b60005260045260246000fd5b906001600160401b0381116107235760405191612311601f8301601f1916602001846114c3565b81835236828201116101fd5781600092602092838601378301015290565b81519190604183036123605761235992506020820151906060604084015193015160001a9061240d565b9192909190565b505060009160029190565b6004111561237557565b634e487b7160e01b600052602160045260246000fd5b6123948161236b565b8061239d575050565b6123a68161236b565b600181036123bf5763f645eedf60e01b60005260046000fd5b6123c88161236b565b600281036123e5575063fce698f760e01b60005260045260246000fd5b806123f160039261236b565b146123f95750565b6335e2f38360e21b60005260045260246000fd5b91907f7fffffffffffffffffffffffffffffff5d576e7357a4501ddfe92f46681b20a08411612496579160209360809260ff60009560405194855216868401526040830152606082015282805260015afa1561248a576000516001600160a01b0381161561247e5790600090600090565b50600090600190600090565b6040513d6000823e3d90fd5b5050506000916003919056fea2646970667358221220121e7c79bdb6362633dfb2b59decea5befba1d164f0536825b7020201739ffc064736f6c634300081a0033ad3228b676f7d3cd4284a5443f17f1962b36e491b30a40b2405849e597ba5fb5",
          "opcodes": "PUSH1 0x80 PUSH1 0x40 MSTORE CALLVALUE PUSH1 0x1F JUMPI PUSH1 0xF CALLER PUSH1 0x24 JUMP JUMPDEST POP PUSH1 0x40 MLOAD PUSH2 0x24D8 SWAP1 DUP2 PUSH2 0xB2 DUP3 CODECOPY RETURN JUMPDEST PUSH1 0x0 DUP1 REVERT JUMPDEST PUSH1 0x1 PUSH1 0x1 PUSH1 0xA0 SHL SUB DUP2 AND PUSH1 0x0 SWAP1 DUP2 MSTORE PUSH1 0x0 DUP1 MLOAD PUSH1 0x20 PUSH2 0x258A DUP4 CODECOPY DUP2 MLOAD SWAP2 MSTORE PUSH1 0x20 MSTORE PUSH1 0x40 SWAP1 KECCAK256 SLOAD PUSH1 0xFF AND PUSH1 0xAB JUMPI PUSH1 0x1 PUSH1 0x1 PUSH1 0xA0 SHL SUB AND PUSH1 0x0 DUP2 DUP2 MSTORE PUSH1 0x0 DUP1 MLOAD PUSH1 0x20 PUSH2 0x258A DUP4 CODECOPY DUP2 MLOAD SWAP2 MSTORE PUSH1 0x20 MSTORE PUSH1 0x40 DUP2 KECCAK256 DUP1 SLOAD PUSH1 0xFF NOT AND PUSH1 0x1 OR SWAP1 SSTORE CALLER SWAP2 SWAP1 PUSH32 0x2F8788117E7EFF1D82E926EC794901D17C78024A50270940304540A733656F0D DUP2 DUP1 LOG4 PUSH1 0x1 SWAP1 JUMP JUMPDEST POP PUSH1 0x0 SWAP1 JUMP INVALID PUSH1 0x80 PUSH1 0x40 MSTORE PUSH1 0x4 CALLDATASIZE LT ISZERO PUSH2 0x12 JUMPI PUSH1 0x0 DUP1 REVERT JUMPDEST PUSH1 0x0 CALLDATALOAD PUSH1 0xE0 SHR DUP1 PUSH4 0x1FFC9A7 EQ PUSH2 0x1A7 JUMPI DUP1 PUSH4 0x2EE63EA EQ PUSH2 0x1A2 JUMPI DUP1 PUSH4 0x36A6C64 EQ PUSH2 0x19D JUMPI DUP1 PUSH4 0x110DDD95 EQ PUSH2 0x198 JUMPI DUP1 PUSH4 0x13348D7C EQ PUSH2 0x193 JUMPI DUP1 PUSH4 0x176F46EB EQ PUSH2 0x18E JUMPI DUP1 PUSH4 0x182E47DE EQ PUSH2 0x189 JUMPI DUP1 PUSH4 0x248A9CA3 EQ PUSH2 0x184 JUMPI DUP1 PUSH4 0x2F2FF15D EQ PUSH2 0x17F JUMPI DUP1 PUSH4 0x36568ABE EQ PUSH2 0x17A JUMPI DUP1 PUSH4 0x38FF768E EQ PUSH2 0x175 JUMPI DUP1 PUSH4 0x3DDAF5F5 EQ PUSH2 0x170 JUMPI DUP1 PUSH4 0x45CE4174 EQ PUSH2 0x16B JUMPI DUP1 PUSH4 0x56A99ED3 EQ PUSH2 0x166 JUMPI DUP1 PUSH4 0x5F1129B8 EQ PUSH2 0x161 JUMPI DUP1 PUSH4 0x74667DBA EQ PUSH2 0x15C JUMPI DUP1 PUSH4 0x7840F045 EQ PUSH2 0x157 JUMPI DUP1 PUSH4 0x7DFF2091 EQ PUSH2 0x152 JUMPI DUP1 PUSH4 0x91D14854 EQ PUSH2 0x14D JUMPI DUP1 PUSH4 0xA217FDDF EQ PUSH2 0x148 JUMPI DUP1 PUSH4 0xBBE52300 EQ PUSH2 0x143 JUMPI DUP1 PUSH4 0xD547741F EQ PUSH2 0x13E JUMPI DUP1 PUSH4 0xD7302CF9 EQ PUSH2 0x139 JUMPI DUP1 PUSH4 0xDC2A5C0E EQ PUSH2 0x134 JUMPI PUSH4 0xF9A2E0EC EQ PUSH2 0x12F JUMPI PUSH1 0x0 DUP1 REVERT JUMPDEST PUSH2 0x1384 JUMP JUMPDEST PUSH2 0x11FD JUMP JUMPDEST PUSH2 0x11B9 JUMP JUMPDEST PUSH2 0x114C JUMP JUMPDEST PUSH2 0x110D JUMP JUMPDEST PUSH2 0x10F1 JUMP JUMPDEST PUSH2 0x109E JUMP JUMPDEST PUSH2 0xF8B JUMP JUMPDEST PUSH2 0xE40 JUMP JUMPDEST PUSH2 0xDFE JUMP JUMPDEST PUSH2 0xDD4 JUMP JUMPDEST PUSH2 0xD61 JUMP JUMPDEST PUSH2 0xCA3 JUMP JUMPDEST PUSH2 0xBAD JUMP JUMPDEST PUSH2 0xB02 JUMP JUMPDEST PUSH2 0xABC JUMP JUMPDEST PUSH2 0xA75 JUMP JUMPDEST PUSH2 0xA40 JUMP JUMPDEST PUSH2 0x95D JUMP JUMPDEST PUSH2 0x848 JUMP JUMPDEST PUSH2 0x780 JUMP JUMPDEST PUSH2 0x529 JUMP JUMPDEST PUSH2 0x47A JUMP JUMPDEST PUSH2 0x287 JUMP JUMPDEST CALLVALUE PUSH2 0x1FD JUMPI PUSH1 0x20 CALLDATASIZE PUSH1 0x3 NOT ADD SLT PUSH2 0x1FD JUMPI PUSH1 0x4 CALLDATALOAD PUSH4 0xFFFFFFFF PUSH1 0xE0 SHL DUP2 AND DUP1 SWAP2 SUB PUSH2 0x1FD JUMPI PUSH1 0x20 SWAP1 PUSH4 0x7965DB0B PUSH1 0xE0 SHL DUP2 EQ SWAP1 DUP2 ISZERO PUSH2 0x1EC JUMPI JUMPDEST POP PUSH1 0x40 MLOAD SWAP1 ISZERO ISZERO DUP2 MSTORE RETURN JUMPDEST PUSH4 0x1FFC9A7 PUSH1 0xE0 SHL EQ SWAP1 POP CODESIZE PUSH2 0x1E1 JUMP JUMPDEST PUSH1 0x0 DUP1 REVERT JUMPDEST PUSH1 0x4 CALLDATALOAD SWAP1 PUSH1 0x1 PUSH1 0x1 PUSH1 0xA0 SHL SUB DUP3 AND DUP3 SUB PUSH2 0x1FD JUMPI JUMP JUMPDEST PUSH1 0x24 CALLDATALOAD SWAP1 PUSH1 0x1 PUSH1 0x1 PUSH1 0xA0 SHL SUB DUP3 AND DUP3 SUB PUSH2 0x1FD JUMPI JUMP JUMPDEST SWAP2 SWAP1 PUSH1 0x40 DUP4 ADD GT PUSH2 0x1FD JUMPI JUMP JUMPDEST PUSH1 0x80 PUSH1 0x3 NOT DUP3 ADD SLT PUSH2 0x1FD JUMPI PUSH1 0x4 CALLDATALOAD PUSH1 0x1 PUSH1 0x1 PUSH1 0xA0 SHL SUB DUP2 AND DUP2 SUB PUSH2 0x1FD JUMPI SWAP2 DUP2 PUSH1 0x64 GT PUSH2 0x1FD JUMPI PUSH1 0x24 SWAP2 PUSH1 0x64 CALLDATALOAD SWAP1 PUSH1 0x1 PUSH1 0x1 PUSH1 0x40 SHL SUB DUP3 GT PUSH2 0x1FD JUMPI PUSH2 0x284 SWAP2 PUSH1 0x4 ADD PUSH2 0x22E JUMP JUMPDEST SWAP1 JUMP JUMPDEST CALLVALUE PUSH2 0x1FD JUMPI PUSH1 0x20 PUSH2 0x297 CALLDATASIZE PUSH2 0x23B JUMP JUMPDEST SWAP3 SWAP1 PUSH2 0x302 DUP2 CALLDATALOAD SWAP5 PUSH2 0x2A9 DUP7 DUP7 PUSH2 0x1F79 JUMP JUMPDEST PUSH2 0x2FC PUSH2 0x2F2 PUSH2 0x2C3 PUSH2 0x2BC DUP5 DUP1 PUSH2 0x1437 JUMP JUMPDEST SWAP1 DUP10 PUSH2 0x1D81 JUMP JUMPDEST PUSH32 0x19457468657265756D205369676E6564204D6573736167653A0A333200000000 PUSH1 0x0 MSTORE PUSH1 0x1C MSTORE PUSH1 0x3C PUSH1 0x0 KECCAK256 SWAP1 JUMP JUMPDEST SWAP2 DUP6 DUP2 ADD SWAP1 PUSH2 0x1437 JUMP JUMPDEST SWAP2 PUSH2 0x1FFC JUMP JUMPDEST PUSH1 0x1 PUSH1 0x1 PUSH1 0xA0 SHL SUB DUP4 AND PUSH1 0x0 SWAP1 DUP2 MSTORE PUSH1 0x3 PUSH1 0x20 MSTORE PUSH1 0x40 SWAP1 KECCAK256 SWAP2 ADD CALLDATALOAD SWAP1 DUP4 PUSH1 0x0 MSTORE PUSH1 0x20 MSTORE PUSH1 0x1 PUSH1 0x40 PUSH1 0x0 KECCAK256 ADD SSTORE PUSH32 0xC36605E3AFC7883A4162FC7D6AD90A5C08B78A73D0BD1BEA0288B746046ECFEF PUSH1 0x0 DUP1 LOG3 STOP JUMPDEST SWAP2 DUP2 PUSH1 0x1F DUP5 ADD SLT ISZERO PUSH2 0x1FD JUMPI DUP3 CALLDATALOAD SWAP2 PUSH1 0x1 PUSH1 0x1 PUSH1 0x40 SHL SUB DUP4 GT PUSH2 0x1FD JUMPI PUSH1 0x20 DUP1 DUP6 ADD SWAP5 DUP5 PUSH1 0x5 SHL ADD ADD GT PUSH2 0x1FD JUMPI JUMP JUMPDEST SWAP1 PUSH1 0x40 PUSH1 0x3 NOT DUP4 ADD SLT PUSH2 0x1FD JUMPI PUSH1 0x4 CALLDATALOAD PUSH1 0x1 PUSH1 0x1 PUSH1 0xA0 SHL SUB DUP2 AND DUP2 SUB PUSH2 0x1FD JUMPI SWAP2 PUSH1 0x24 CALLDATALOAD SWAP1 PUSH1 0x1 PUSH1 0x1 PUSH1 0x40 SHL SUB DUP3 GT PUSH2 0x1FD JUMPI PUSH2 0x3C4 SWAP2 PUSH1 0x4 ADD PUSH2 0x355 JUMP JUMPDEST SWAP1 SWAP2 JUMP JUMPDEST SWAP2 SWAP1 DUP3 MLOAD SWAP3 DUP4 DUP3 MSTORE PUSH1 0x0 JUMPDEST DUP5 DUP2 LT PUSH2 0x3F4 JUMPI POP POP DUP3 PUSH1 0x0 PUSH1 0x20 DUP1 SWAP5 SWAP6 DUP5 ADD ADD MSTORE PUSH1 0x1F DUP1 NOT SWAP2 ADD AND ADD ADD SWAP1 JUMP JUMPDEST DUP1 PUSH1 0x20 DUP1 SWAP3 DUP5 ADD ADD MLOAD DUP3 DUP3 DUP7 ADD ADD MSTORE ADD PUSH2 0x3D3 JUMP JUMPDEST PUSH1 0x20 DUP2 ADD PUSH1 0x20 DUP3 MSTORE DUP3 MLOAD DUP1 SWAP2 MSTORE PUSH1 0x40 DUP3 ADD SWAP2 PUSH1 0x20 PUSH1 0x40 DUP4 PUSH1 0x5 SHL DUP4 ADD ADD SWAP5 ADD SWAP3 PUSH1 0x0 SWAP2 JUMPDEST DUP4 DUP4 LT PUSH2 0x43C JUMPI POP POP POP POP POP SWAP1 JUMP JUMPDEST SWAP1 SWAP2 SWAP3 SWAP4 SWAP5 PUSH1 0x20 DUP1 PUSH2 0x46B PUSH1 0x1 SWAP4 PUSH1 0x3F NOT DUP7 DUP3 SUB ADD DUP8 MSTORE PUSH1 0x40 DUP4 DUP12 MLOAD DUP1 MLOAD DUP5 MSTORE ADD MLOAD SWAP2 DUP2 DUP6 DUP3 ADD MSTORE ADD SWAP1 PUSH2 0x3C8 JUMP JUMPDEST SWAP8 ADD SWAP4 ADD SWAP4 ADD SWAP2 SWAP4 SWAP3 SWAP1 PUSH2 0x42D JUMP JUMPDEST CALLVALUE PUSH2 0x1FD JUMPI PUSH2 0x488 CALLDATASIZE PUSH2 0x385 JUMP JUMPDEST SWAP2 SWAP1 PUSH2 0x493 DUP3 PUSH2 0x2074 JUMP JUMPDEST PUSH2 0x49C DUP4 PUSH2 0x150C JUMP JUMPDEST SWAP3 PUSH1 0x1 PUSH1 0x1 PUSH1 0xA0 SHL SUB SWAP1 SWAP3 AND SWAP2 PUSH1 0x0 JUMPDEST DUP2 DUP2 LT PUSH2 0x4C5 JUMPI PUSH1 0x40 MLOAD DUP1 PUSH2 0x4C1 DUP8 DUP3 PUSH2 0x409 JUMP JUMPDEST SUB SWAP1 RETURN JUMPDEST PUSH1 0x1 SWAP1 DUP5 PUSH1 0x0 MSTORE PUSH1 0x6 PUSH1 0x20 MSTORE PUSH1 0x40 PUSH1 0x0 KECCAK256 PUSH2 0x4E1 DUP3 DUP6 DUP8 PUSH2 0x156A JUMP JUMPDEST CALLDATALOAD PUSH1 0x0 MSTORE PUSH1 0x20 MSTORE PUSH1 0x40 PUSH1 0x0 KECCAK256 PUSH2 0x508 DUP4 PUSH1 0x40 MLOAD SWAP3 PUSH2 0x4FE DUP5 PUSH2 0x148D JUMP JUMPDEST DUP1 SLOAD DUP5 MSTORE ADD PUSH2 0x15C8 JUMP JUMPDEST PUSH1 0x20 DUP3 ADD MSTORE PUSH2 0x517 DUP3 DUP9 PUSH2 0x157A JUMP JUMPDEST MSTORE PUSH2 0x522 DUP2 DUP8 PUSH2 0x157A JUMP JUMPDEST POP ADD PUSH2 0x4AC JUMP JUMPDEST CALLVALUE PUSH2 0x1FD JUMPI PUSH1 0x80 CALLDATASIZE PUSH1 0x3 NOT ADD SLT PUSH2 0x1FD JUMPI PUSH2 0x542 PUSH2 0x202 JUMP JUMPDEST PUSH1 0x24 CALLDATALOAD SWAP1 PUSH1 0x44 CALLDATALOAD PUSH1 0x1 PUSH1 0x1 PUSH1 0x40 SHL SUB DUP2 GT PUSH2 0x1FD JUMPI PUSH2 0x565 SWAP1 CALLDATASIZE SWAP1 PUSH1 0x4 ADD PUSH2 0x355 JUMP JUMPDEST PUSH1 0x64 CALLDATALOAD PUSH1 0x1 PUSH1 0x1 PUSH1 0x40 SHL SUB DUP2 GT PUSH2 0x1FD JUMPI PUSH2 0x584 SWAP1 CALLDATASIZE SWAP1 PUSH1 0x4 ADD PUSH2 0x355 JUMP JUMPDEST PUSH2 0x58E DUP7 DUP7 PUSH2 0x1F79 JUMP JUMPDEST DUP1 ISZERO PUSH2 0x728 JUMPI PUSH2 0x5AB PUSH2 0x2C3 PUSH2 0x5A4 DUP5 DUP1 PUSH2 0x1437 JUMP JUMPDEST SWAP1 DUP9 PUSH2 0x1D81 JUMP JUMPDEST SWAP1 PUSH1 0x1 LT ISZERO PUSH2 0x728 JUMPI PUSH2 0x2FC DUP3 PUSH1 0x20 PUSH2 0x5C5 SWAP5 ADD SWAP1 PUSH2 0x1437 JUMP JUMPDEST PUSH1 0x1 DUP1 PUSH1 0xA0 SHL SUB DUP4 AND PUSH1 0x0 MSTORE PUSH1 0x3 PUSH1 0x20 MSTORE PUSH1 0x40 PUSH1 0x0 KECCAK256 DUP5 PUSH1 0x0 MSTORE PUSH1 0x20 MSTORE PUSH1 0x2 PUSH1 0x40 PUSH1 0x0 KECCAK256 ADD PUSH2 0x5F4 DUP3 DUP3 PUSH2 0x1706 JUMP JUMPDEST PUSH1 0x0 SWAP1 DUP2 MSTORE PUSH1 0x20 DUP2 KECCAK256 SWAP3 DUP1 JUMPDEST DUP4 DUP4 LT PUSH2 0x630 JUMPI DUP7 DUP7 PUSH32 0xC36605E3AFC7883A4162FC7D6AD90A5C08B78A73D0BD1BEA0288B746046ECFEF PUSH1 0x0 DUP1 LOG3 STOP JUMPDEST PUSH2 0x63A DUP2 DUP4 PUSH2 0x1437 JUMP JUMPDEST SWAP1 PUSH1 0x1 PUSH1 0x1 PUSH1 0x40 SHL SUB DUP3 GT PUSH2 0x723 JUMPI PUSH2 0x65D DUP3 PUSH2 0x657 DUP10 SLOAD PUSH2 0x158E JUMP JUMPDEST DUP10 PUSH2 0x1754 JUMP JUMPDEST PUSH1 0x0 SWAP1 PUSH1 0x1F DUP4 GT PUSH1 0x1 EQ PUSH2 0x6B0 JUMPI SWAP3 PUSH2 0x696 DUP4 PUSH1 0x1 SWAP6 SWAP5 PUSH1 0x20 SWAP5 DUP8 SWAP7 PUSH1 0x0 SWAP3 PUSH2 0x6A5 JUMPI JUMPDEST POP POP DUP2 PUSH1 0x1 SHL SWAP2 PUSH1 0x0 NOT SWAP1 PUSH1 0x3 SHL SHR NOT AND OR SWAP1 JUMP JUMPDEST DUP9 SSTORE JUMPDEST ADD SWAP6 ADD SWAP3 ADD SWAP2 SWAP4 PUSH2 0x600 JUMP JUMPDEST ADD CALLDATALOAD SWAP1 POP CODESIZE DUP1 PUSH2 0x681 JUMP JUMPDEST PUSH1 0x1F NOT DUP4 AND SWAP2 PUSH2 0x6C5 DUP10 PUSH1 0x0 MSTORE PUSH1 0x20 PUSH1 0x0 KECCAK256 SWAP1 JUMP JUMPDEST SWAP3 DUP2 JUMPDEST DUP2 DUP2 LT PUSH2 0x70B JUMPI POP SWAP4 PUSH1 0x20 SWAP4 PUSH1 0x1 SWAP7 SWAP4 DUP8 SWAP7 SWAP4 DUP4 DUP9 SWAP6 LT PUSH2 0x6F1 JUMPI JUMPDEST POP POP POP DUP2 SHL ADD DUP9 SSTORE PUSH2 0x699 JUMP JUMPDEST ADD CALLDATALOAD PUSH1 0x0 NOT PUSH1 0x3 DUP5 SWAP1 SHL PUSH1 0xF8 AND SHR NOT AND SWAP1 SSTORE CODESIZE DUP1 DUP1 PUSH2 0x6E4 JUMP JUMPDEST SWAP2 SWAP4 PUSH1 0x20 PUSH1 0x1 DUP2 SWAP3 DUP8 DUP8 ADD CALLDATALOAD DUP2 SSTORE ADD SWAP6 ADD SWAP3 ADD PUSH2 0x6C8 JUMP JUMPDEST PUSH2 0x1477 JUMP JUMPDEST PUSH2 0x1421 JUMP JUMPDEST SWAP1 PUSH1 0x20 DUP1 DUP4 MLOAD SWAP3 DUP4 DUP2 MSTORE ADD SWAP3 ADD SWAP1 PUSH1 0x0 JUMPDEST DUP2 DUP2 LT PUSH2 0x74B JUMPI POP POP POP SWAP1 JUMP JUMPDEST DUP3 MLOAD DUP1 MLOAD ISZERO ISZERO DUP6 MSTORE PUSH1 0x20 SWAP1 DUP2 ADD MLOAD DUP2 DUP7 ADD MSTORE PUSH1 0x40 SWAP1 SWAP5 ADD SWAP4 SWAP1 SWAP3 ADD SWAP2 PUSH1 0x1 ADD PUSH2 0x73E JUMP JUMPDEST SWAP1 PUSH1 0x20 PUSH2 0x284 SWAP3 DUP2 DUP2 MSTORE ADD SWAP1 PUSH2 0x72D JUMP JUMPDEST CALLVALUE PUSH2 0x1FD JUMPI PUSH2 0x78E CALLDATASIZE PUSH2 0x385 JUMP JUMPDEST SWAP2 SWAP1 PUSH2 0x799 DUP3 PUSH2 0x2074 JUMP JUMPDEST PUSH2 0x7A2 DUP4 PUSH2 0x1799 JUMP JUMPDEST SWAP3 PUSH1 0x1 PUSH1 0x1 PUSH1 0xA0 SHL SUB SWAP1 SWAP3 AND SWAP2 PUSH1 0x0 JUMPDEST DUP2 DUP2 LT PUSH2 0x7C7 JUMPI PUSH1 0x40 MLOAD DUP1 PUSH2 0x4C1 DUP8 DUP3 PUSH2 0x76F JUMP JUMPDEST PUSH1 0x1 SWAP1 DUP5 PUSH1 0x0 MSTORE PUSH1 0x4 PUSH1 0x20 MSTORE PUSH1 0x40 PUSH1 0x0 KECCAK256 PUSH2 0x7E3 DUP3 DUP6 DUP8 PUSH2 0x156A JUMP JUMPDEST CALLDATALOAD PUSH1 0x0 MSTORE PUSH1 0x20 MSTORE PUSH1 0x40 PUSH1 0x0 KECCAK256 DUP3 PUSH1 0x40 MLOAD SWAP2 PUSH2 0x7FD DUP4 PUSH2 0x148D JUMP JUMPDEST PUSH1 0xFF DUP2 SLOAD AND ISZERO ISZERO DUP4 MSTORE ADD SLOAD PUSH1 0x20 DUP3 ADD MSTORE PUSH2 0x817 DUP3 DUP9 PUSH2 0x157A JUMP JUMPDEST MSTORE PUSH2 0x822 DUP2 DUP8 PUSH2 0x157A JUMP JUMPDEST POP ADD PUSH2 0x7B2 JUMP JUMPDEST PUSH1 0x40 SWAP1 PUSH1 0x23 NOT ADD SLT PUSH2 0x1FD JUMPI PUSH1 0x24 SWAP1 JUMP JUMPDEST SWAP1 DUP2 PUSH1 0x40 SWAP2 SUB SLT PUSH2 0x1FD JUMPI SWAP1 JUMP JUMPDEST CALLVALUE PUSH2 0x1FD JUMPI PUSH1 0x60 CALLDATASIZE PUSH1 0x3 NOT ADD SLT PUSH2 0x1FD JUMPI PUSH2 0x861 PUSH2 0x202 JUMP JUMPDEST PUSH1 0x24 CALLDATALOAD PUSH1 0x1 PUSH1 0x1 PUSH1 0x40 SHL SUB DUP2 GT PUSH2 0x1FD JUMPI PUSH2 0x880 SWAP1 CALLDATASIZE SWAP1 PUSH1 0x4 ADD PUSH2 0x83A JUMP JUMPDEST SWAP1 PUSH1 0x44 CALLDATALOAD PUSH1 0x1 PUSH1 0x1 PUSH1 0x40 SHL SUB DUP2 GT PUSH2 0x1FD JUMPI PUSH2 0x8A0 SWAP1 CALLDATASIZE SWAP1 PUSH1 0x4 ADD PUSH2 0x22E JUMP JUMPDEST PUSH1 0x1 PUSH1 0x1 PUSH1 0xA0 SHL SUB DUP3 AND PUSH1 0x0 DUP2 DUP2 MSTORE PUSH1 0x6 PUSH1 0x20 SWAP1 DUP2 MSTORE PUSH1 0x40 DUP1 DUP4 KECCAK256 PUSH1 0x1 PUSH1 0x1 PUSH1 0xE8 SHL SUB DUP9 CALLDATALOAD AND DUP1 DUP6 MSTORE SWAP3 MSTORE SWAP1 SWAP2 KECCAK256 SLOAD SWAP1 SWAP5 SWAP2 SWAP1 PUSH2 0x948 JUMPI PUSH2 0x903 DUP4 PUSH2 0x2FC PUSH2 0x8F8 PUSH2 0x2C3 PUSH2 0x8F1 DUP5 PUSH2 0x921 SWAP10 PUSH2 0x1437 JUMP JUMPDEST SWAP1 DUP11 PUSH2 0x1D81 JUMP JUMPDEST SWAP2 PUSH1 0x20 DUP2 ADD SWAP1 PUSH2 0x1437 JUMP JUMPDEST PUSH1 0x0 MSTORE PUSH1 0x6 PUSH1 0x20 MSTORE PUSH1 0x40 PUSH1 0x0 KECCAK256 DUP5 PUSH1 0x0 MSTORE PUSH1 0x20 MSTORE PUSH1 0x40 PUSH1 0x0 KECCAK256 PUSH2 0x181A JUMP JUMPDEST PUSH32 0xE1A3B98A9976C6D2EA620746C483905BE7679B691BD423620D828FC4C7128A3E PUSH1 0x0 DUP1 LOG3 STOP JUMPDEST DUP5 PUSH4 0x61910373 PUSH1 0xE1 SHL PUSH1 0x0 MSTORE PUSH1 0x4 MSTORE PUSH1 0x24 PUSH1 0x0 REVERT JUMPDEST CALLVALUE PUSH2 0x1FD JUMPI PUSH1 0x60 CALLDATASIZE PUSH1 0x3 NOT ADD SLT PUSH2 0x1FD JUMPI PUSH2 0x976 PUSH2 0x202 JUMP JUMPDEST PUSH1 0x24 CALLDATALOAD SWAP1 PUSH1 0x1 PUSH1 0x1 PUSH1 0x40 SHL SUB DUP3 GT PUSH2 0x1FD JUMPI PUSH1 0x60 PUSH1 0x3 NOT DUP4 CALLDATASIZE SUB ADD SLT PUSH2 0x1FD JUMPI PUSH1 0x44 CALLDATALOAD PUSH1 0x1 PUSH1 0x1 PUSH1 0x40 SHL SUB DUP2 GT PUSH2 0x1FD JUMPI PUSH2 0x9B8 PUSH2 0xA19 SWAP2 CALLDATASIZE SWAP1 PUSH1 0x4 ADD PUSH2 0x22E JUMP JUMPDEST SWAP3 PUSH2 0x9E8 PUSH1 0x1 PUSH1 0x1 PUSH1 0x80 SHL SUB PUSH1 0x24 DUP4 ADD CALLDATALOAD AND SWAP5 PUSH2 0x9D5 DUP7 DUP7 PUSH2 0x1FBA JUMP JUMPDEST PUSH2 0x2FC PUSH2 0x8F8 PUSH2 0x2C3 PUSH2 0x2BC DUP5 DUP1 PUSH2 0x1437 JUMP JUMPDEST PUSH1 0x1 DUP1 PUSH1 0xA0 SHL SUB DUP4 AND PUSH1 0x0 MSTORE PUSH1 0x3 PUSH1 0x20 MSTORE PUSH1 0x4 ADD PUSH2 0xA14 DUP5 PUSH1 0x40 PUSH1 0x0 KECCAK256 SWAP1 PUSH1 0x0 MSTORE PUSH1 0x20 MSTORE PUSH1 0x40 PUSH1 0x0 KECCAK256 SWAP1 JUMP JUMPDEST PUSH2 0x1900 JUMP JUMPDEST PUSH32 0x253F6B1995C330C2910A1FC84688341255A45574ABC14D9C8DEADAA3F45457A2 PUSH1 0x0 DUP1 LOG3 STOP JUMPDEST CALLVALUE PUSH2 0x1FD JUMPI PUSH1 0x20 CALLDATASIZE PUSH1 0x3 NOT ADD SLT PUSH2 0x1FD JUMPI PUSH1 0x20 PUSH2 0xA6D PUSH1 0x4 CALLDATALOAD PUSH1 0x0 MSTORE PUSH1 0x0 PUSH1 0x20 MSTORE PUSH1 0x1 PUSH1 0x40 PUSH1 0x0 KECCAK256 ADD SLOAD SWAP1 JUMP JUMPDEST PUSH1 0x40 MLOAD SWAP1 DUP2 MSTORE RETURN JUMPDEST CALLVALUE PUSH2 0x1FD JUMPI PUSH1 0x40 CALLDATASIZE PUSH1 0x3 NOT ADD SLT PUSH2 0x1FD JUMPI PUSH2 0xABA PUSH1 0x4 CALLDATALOAD PUSH2 0xA94 PUSH2 0x218 JUMP JUMPDEST SWAP1 PUSH2 0xAB5 PUSH2 0xAB0 DUP3 PUSH1 0x0 MSTORE PUSH1 0x0 PUSH1 0x20 MSTORE PUSH1 0x1 PUSH1 0x40 PUSH1 0x0 KECCAK256 ADD SLOAD SWAP1 JUMP JUMPDEST PUSH2 0x20D6 JUMP JUMPDEST PUSH2 0x2111 JUMP JUMPDEST STOP JUMPDEST CALLVALUE PUSH2 0x1FD JUMPI PUSH1 0x40 CALLDATASIZE PUSH1 0x3 NOT ADD SLT PUSH2 0x1FD JUMPI PUSH1 0x4 CALLDATALOAD PUSH2 0xAD8 PUSH2 0x218 JUMP JUMPDEST CALLER PUSH1 0x1 PUSH1 0x1 PUSH1 0xA0 SHL SUB DUP3 AND SUB PUSH2 0xAF1 JUMPI PUSH2 0xABA SWAP2 PUSH2 0x21A1 JUMP JUMPDEST PUSH4 0x334BD919 PUSH1 0xE1 SHL PUSH1 0x0 MSTORE PUSH1 0x4 PUSH1 0x0 REVERT JUMPDEST CALLVALUE PUSH2 0x1FD JUMPI PUSH1 0xE0 CALLDATASIZE PUSH1 0x3 NOT ADD SLT PUSH2 0x1FD JUMPI PUSH2 0xB1B PUSH2 0x202 JUMP JUMPDEST PUSH1 0x24 CALLDATALOAD PUSH1 0x1 PUSH1 0x1 PUSH1 0x40 SHL SUB DUP2 GT PUSH2 0x1FD JUMPI PUSH2 0xB3A SWAP1 CALLDATASIZE SWAP1 PUSH1 0x4 ADD PUSH2 0x355 JUMP JUMPDEST PUSH1 0x44 SWAP3 SWAP2 SWAP3 CALLDATALOAD PUSH1 0x1 PUSH1 0x1 PUSH1 0x40 SHL SUB DUP2 GT PUSH2 0x1FD JUMPI PUSH2 0xB5C SWAP1 CALLDATASIZE SWAP1 PUSH1 0x4 ADD PUSH2 0x355 JUMP JUMPDEST PUSH1 0x64 CALLDATALOAD PUSH1 0x1 PUSH1 0x1 PUSH1 0x40 SHL SUB DUP2 GT PUSH2 0x1FD JUMPI PUSH2 0xB7B SWAP1 CALLDATASIZE SWAP1 PUSH1 0x4 ADD PUSH2 0x355 JUMP JUMPDEST SWAP2 PUSH1 0x84 CALLDATALOAD SWAP4 PUSH1 0xA4 CALLDATALOAD SWAP6 PUSH1 0xC4 CALLDATALOAD SWAP9 PUSH1 0x1 PUSH1 0x1 PUSH1 0x40 SHL SUB DUP11 GT PUSH2 0x1FD JUMPI PUSH2 0xBA7 PUSH2 0xABA SWAP11 CALLDATASIZE SWAP1 PUSH1 0x4 ADD PUSH2 0x22E JUMP JUMPDEST SWAP9 PUSH2 0x1AC1 JUMP JUMPDEST CALLVALUE PUSH2 0x1FD JUMPI PUSH1 0x80 CALLDATASIZE PUSH1 0x3 NOT ADD SLT PUSH2 0x1FD JUMPI PUSH2 0xBC6 PUSH2 0x202 JUMP JUMPDEST PUSH2 0xBCF CALLDATASIZE PUSH2 0x829 JUMP JUMPDEST SWAP1 PUSH1 0x64 CALLDATALOAD PUSH1 0x1 PUSH1 0x1 PUSH1 0x40 SHL SUB DUP2 GT PUSH2 0x1FD JUMPI PUSH2 0xBF2 PUSH2 0xC37 SWAP2 CALLDATASIZE SWAP1 PUSH1 0x4 ADD PUSH2 0x22E JUMP JUMPDEST SWAP3 PUSH2 0xC0F PUSH1 0x1 PUSH1 0x1 PUSH1 0x80 SHL SUB PUSH1 0x20 DUP4 ADD CALLDATALOAD AND SWAP5 PUSH2 0x9D5 DUP7 DUP7 PUSH2 0x2267 JUMP JUMPDEST PUSH1 0x1 PUSH1 0x1 PUSH1 0xA0 SHL SUB DUP4 AND PUSH1 0x0 SWAP1 DUP2 MSTORE PUSH1 0x4 PUSH1 0x20 SWAP1 DUP2 MSTORE PUSH1 0x40 DUP1 DUP4 KECCAK256 DUP8 DUP5 MSTORE SWAP1 SWAP2 MSTORE SWAP1 KECCAK256 PUSH2 0x1C32 JUMP JUMPDEST PUSH32 0x461D12AA98A20B4FABC02B04B95F8EFBBDD00699D6826CD244814CD862FE08FB PUSH1 0x0 DUP1 LOG3 STOP JUMPDEST PUSH1 0x60 PUSH1 0x3 NOT DUP3 ADD SLT PUSH2 0x1FD JUMPI PUSH1 0x4 CALLDATALOAD PUSH1 0x1 PUSH1 0x1 PUSH1 0xA0 SHL SUB DUP2 AND DUP2 SUB PUSH2 0x1FD JUMPI SWAP2 PUSH1 0x24 CALLDATALOAD SWAP2 PUSH1 0x44 CALLDATALOAD SWAP1 PUSH1 0x1 PUSH1 0x1 PUSH1 0x40 SHL SUB DUP3 GT PUSH2 0x1FD JUMPI PUSH1 0x64 DUP3 ADD GT PUSH2 0x1FD JUMPI PUSH1 0x4 ADD SWAP1 JUMP JUMPDEST CALLVALUE PUSH2 0x1FD JUMPI PUSH2 0xD0E PUSH2 0xCB4 CALLDATASIZE PUSH2 0xC5E JUMP JUMPDEST DUP3 SWAP1 PUSH2 0xCC3 DUP4 DUP4 SWAP7 SWAP5 SWAP7 PUSH2 0x22A9 JUMP JUMPDEST PUSH2 0xCEA PUSH2 0xCDD PUSH2 0x2C3 PUSH2 0xCD6 DUP5 DUP1 PUSH2 0x1437 JUMP JUMPDEST SWAP1 DUP7 PUSH2 0x1D81 JUMP JUMPDEST PUSH2 0x2FC PUSH1 0x20 DUP5 ADD DUP5 PUSH2 0x1437 JUMP JUMPDEST PUSH2 0xD08 PUSH2 0xCFD PUSH2 0x2C3 PUSH2 0xCD6 DUP5 DUP1 PUSH2 0x1437 JUMP JUMPDEST SWAP2 PUSH1 0x40 DUP2 ADD SWAP1 PUSH2 0x1437 JUMP JUMPDEST SWAP2 PUSH2 0x2228 JUMP JUMPDEST PUSH1 0x1 PUSH1 0x1 PUSH1 0xA0 SHL SUB DUP2 AND PUSH1 0x0 SWAP1 DUP2 MSTORE PUSH1 0x4 PUSH1 0x20 MSTORE PUSH1 0x40 SWAP1 KECCAK256 DUP3 PUSH1 0x0 MSTORE PUSH1 0x20 MSTORE PUSH1 0x0 PUSH1 0x1 PUSH1 0x40 DUP3 KECCAK256 DUP3 DUP2 SSTORE ADD SSTORE PUSH32 0xAB2AC95583FD8C7A6ED44777780607D32A472D5DA94D68A60B2DC51DB28DCCD7 PUSH1 0x0 DUP1 LOG3 STOP JUMPDEST CALLVALUE PUSH2 0x1FD JUMPI PUSH2 0xD81 PUSH2 0xD72 CALLDATASIZE PUSH2 0xC5E JUMP JUMPDEST DUP3 SWAP1 PUSH2 0xCC3 DUP4 DUP4 SWAP7 SWAP5 SWAP7 PUSH2 0x1F79 JUMP JUMPDEST PUSH1 0x1 PUSH1 0x1 PUSH1 0xA0 SHL SUB DUP2 AND PUSH1 0x0 SWAP1 DUP2 MSTORE PUSH1 0x3 PUSH1 0x20 MSTORE PUSH1 0x40 SWAP1 KECCAK256 DUP3 PUSH1 0x0 MSTORE PUSH1 0x20 MSTORE PUSH2 0xDAD PUSH1 0x40 PUSH1 0x0 KECCAK256 PUSH2 0x1A68 JUMP JUMPDEST PUSH32 0x678419C073B2EBA6E89E003798C3E19E378B27373FA408A4DD0347E052487BDA PUSH1 0x0 DUP1 LOG3 STOP JUMPDEST CALLVALUE PUSH2 0x1FD JUMPI PUSH1 0x60 CALLDATASIZE PUSH1 0x3 NOT ADD SLT PUSH2 0x1FD JUMPI PUSH1 0x20 PUSH2 0xA6D PUSH2 0xDF2 PUSH2 0x202 JUMP JUMPDEST PUSH1 0x24 CALLDATALOAD PUSH1 0x44 CALLDATALOAD SWAP2 PUSH2 0x1C5D JUMP JUMPDEST CALLVALUE PUSH2 0x1FD JUMPI PUSH1 0x20 CALLDATASIZE PUSH1 0x3 NOT ADD SLT PUSH2 0x1FD JUMPI PUSH2 0xE17 PUSH2 0x202 JUMP JUMPDEST PUSH2 0xE20 DUP2 PUSH2 0x2074 JUMP JUMPDEST PUSH1 0x1 DUP1 PUSH1 0xA0 SHL SUB AND PUSH1 0x0 MSTORE PUSH1 0x2 PUSH1 0x20 MSTORE PUSH1 0x20 PUSH1 0x40 PUSH1 0x0 KECCAK256 SLOAD PUSH1 0x40 MLOAD SWAP1 DUP2 MSTORE RETURN JUMPDEST CALLVALUE PUSH2 0x1FD JUMPI PUSH1 0x20 PUSH2 0xE50 CALLDATASIZE PUSH2 0x23B JUMP JUMPDEST SWAP3 SWAP1 PUSH2 0xE62 DUP2 CALLDATALOAD SWAP5 PUSH2 0x2A9 DUP7 DUP7 PUSH2 0x22A9 JUMP JUMPDEST PUSH1 0x1 PUSH1 0x1 PUSH1 0xA0 SHL SUB DUP4 AND PUSH1 0x0 SWAP1 DUP2 MSTORE PUSH1 0x4 PUSH1 0x20 MSTORE PUSH1 0x40 SWAP1 KECCAK256 SWAP2 ADD CALLDATALOAD SWAP1 DUP4 PUSH1 0x0 MSTORE PUSH1 0x20 MSTORE PUSH1 0x1 PUSH1 0x40 PUSH1 0x0 KECCAK256 ADD SSTORE PUSH32 0x2D52772A1B0B9560E4B017C0F93DCB1257AB0C2BA6FF79C4BDC289137B8E0FF2 PUSH1 0x0 DUP1 LOG3 STOP JUMPDEST SWAP1 DUP1 PUSH1 0x20 DUP4 MLOAD SWAP2 DUP3 DUP2 MSTORE ADD SWAP2 PUSH1 0x20 DUP1 DUP4 PUSH1 0x5 SHL DUP4 ADD ADD SWAP5 ADD SWAP3 PUSH1 0x0 SWAP2 JUMPDEST DUP4 DUP4 LT PUSH2 0xEE1 JUMPI POP POP POP POP POP SWAP1 JUMP JUMPDEST SWAP1 SWAP2 SWAP3 SWAP4 SWAP5 PUSH1 0x1F NOT DUP3 DUP3 SUB ADD DUP4 MSTORE DUP6 MLOAD SWAP1 PUSH1 0x40 PUSH1 0x60 DUP3 ADD SWAP3 DUP1 MLOAD ISZERO ISZERO DUP4 MSTORE PUSH1 0x20 DUP2 ADD MLOAD PUSH1 0x20 DUP5 ADD MSTORE ADD MLOAD SWAP2 PUSH1 0x60 PUSH1 0x40 DUP4 ADD MSTORE DUP3 MLOAD DUP1 SWAP2 MSTORE PUSH1 0x80 DUP3 ADD SWAP1 PUSH1 0x20 PUSH1 0x80 DUP3 PUSH1 0x5 SHL DUP6 ADD ADD SWAP5 ADD SWAP3 PUSH1 0x0 JUMPDEST DUP3 DUP2 LT PUSH2 0xF4F JUMPI POP POP POP POP POP PUSH1 0x20 DUP1 PUSH1 0x1 SWAP3 SWAP8 ADD SWAP4 ADD SWAP4 ADD SWAP2 SWAP4 SWAP3 SWAP1 PUSH2 0xED2 JUMP JUMPDEST SWAP1 SWAP2 SWAP3 SWAP4 SWAP5 PUSH1 0x20 DUP1 PUSH2 0xF6D PUSH1 0x1 SWAP4 PUSH1 0x7F NOT DUP8 DUP3 SUB ADD DUP10 MSTORE DUP10 MLOAD PUSH2 0x3C8 JUMP JUMPDEST SWAP8 ADD SWAP6 ADD SWAP4 SWAP3 SWAP2 ADD PUSH2 0xF2E JUMP JUMPDEST SWAP1 PUSH1 0x20 PUSH2 0x284 SWAP3 DUP2 DUP2 MSTORE ADD SWAP1 PUSH2 0xEB5 JUMP JUMPDEST CALLVALUE PUSH2 0x1FD JUMPI PUSH2 0xF99 CALLDATASIZE PUSH2 0x385 JUMP JUMPDEST PUSH2 0xFA2 DUP4 PUSH2 0x2074 JUMP JUMPDEST PUSH2 0xFAB DUP2 PUSH2 0x1C9B JUMP JUMPDEST PUSH1 0x0 SWAP4 SWAP1 SWAP3 PUSH1 0x1 PUSH1 0x1 PUSH1 0xA0 SHL SUB SWAP1 SWAP2 AND SWAP2 JUMPDEST DUP1 DUP6 LT PUSH2 0xFD2 JUMPI PUSH1 0x40 MLOAD DUP1 PUSH2 0x4C1 DUP7 DUP3 PUSH2 0xF7A JUMP JUMPDEST DUP3 PUSH1 0x0 MSTORE PUSH1 0x3 PUSH1 0x20 MSTORE PUSH1 0x40 PUSH1 0x0 KECCAK256 PUSH2 0xFEB DUP7 DUP4 DUP6 PUSH2 0x156A JUMP JUMPDEST CALLDATALOAD PUSH1 0x0 MSTORE PUSH1 0x20 MSTORE PUSH1 0x40 PUSH1 0x0 KECCAK256 SWAP5 PUSH1 0x2 PUSH1 0x40 MLOAD SWAP7 PUSH2 0x1007 DUP9 PUSH2 0x14A8 JUMP JUMPDEST PUSH1 0xFF DUP2 SLOAD AND ISZERO ISZERO DUP9 MSTORE PUSH1 0x1 DUP2 ADD SLOAD PUSH1 0x20 DUP10 ADD MSTORE ADD SWAP6 DUP7 SLOAD PUSH2 0x1027 DUP2 PUSH2 0x14F5 JUMP JUMPDEST SWAP1 PUSH2 0x1035 PUSH1 0x40 MLOAD SWAP3 DUP4 PUSH2 0x14C3 JUMP JUMPDEST DUP1 DUP3 MSTORE PUSH1 0x20 DUP3 ADD SWAP9 PUSH1 0x0 MSTORE PUSH1 0x20 PUSH1 0x0 KECCAK256 SWAP9 PUSH1 0x0 SWAP1 JUMPDEST DUP3 DUP3 LT PUSH2 0x1081 JUMPI POP POP POP PUSH1 0x1 SWAP4 SWAP5 SWAP6 SWAP7 SWAP8 POP PUSH1 0x40 DUP3 ADD MSTORE PUSH2 0x106B DUP3 DUP9 PUSH2 0x157A JUMP JUMPDEST MSTORE PUSH2 0x1076 DUP2 DUP8 PUSH2 0x157A JUMP JUMPDEST POP ADD SWAP4 SWAP3 SWAP2 SWAP1 PUSH2 0xFBD JUMP JUMPDEST PUSH1 0x1 PUSH1 0x20 DUP2 SWAP3 PUSH2 0x1090 DUP15 PUSH2 0x15C8 JUMP JUMPDEST DUP2 MSTORE ADD SWAP12 ADD SWAP2 ADD SWAP1 SWAP10 PUSH2 0x104A JUMP JUMPDEST CALLVALUE PUSH2 0x1FD JUMPI PUSH1 0x40 CALLDATASIZE PUSH1 0x3 NOT ADD SLT PUSH2 0x1FD JUMPI PUSH1 0x20 PUSH1 0xFF PUSH2 0x10E5 PUSH1 0x4 CALLDATALOAD PUSH2 0x10C1 PUSH2 0x218 JUMP JUMPDEST SWAP1 PUSH1 0x0 MSTORE PUSH1 0x0 DUP5 MSTORE PUSH1 0x40 PUSH1 0x0 KECCAK256 SWAP1 PUSH1 0x1 DUP1 PUSH1 0xA0 SHL SUB AND PUSH1 0x0 MSTORE PUSH1 0x20 MSTORE PUSH1 0x40 PUSH1 0x0 KECCAK256 SWAP1 JUMP JUMPDEST SLOAD AND PUSH1 0x40 MLOAD SWAP1 ISZERO ISZERO DUP2 MSTORE RETURN JUMPDEST CALLVALUE PUSH2 0x1FD JUMPI PUSH1 0x0 CALLDATASIZE PUSH1 0x3 NOT ADD SLT PUSH2 0x1FD JUMPI PUSH1 0x20 PUSH1 0x40 MLOAD PUSH1 0x0 DUP2 MSTORE RETURN JUMPDEST CALLVALUE PUSH2 0x1FD JUMPI PUSH1 0x20 CALLDATASIZE PUSH1 0x3 NOT ADD SLT PUSH2 0x1FD JUMPI PUSH1 0x1 PUSH1 0x1 PUSH1 0xA0 SHL SUB PUSH2 0x112E PUSH2 0x202 JUMP JUMPDEST AND PUSH1 0x0 MSTORE PUSH1 0x1 PUSH1 0x20 MSTORE PUSH1 0x20 PUSH1 0xFF PUSH1 0x40 PUSH1 0x0 KECCAK256 SLOAD AND PUSH1 0x40 MLOAD SWAP1 ISZERO ISZERO DUP2 MSTORE RETURN JUMPDEST CALLVALUE PUSH2 0x1FD JUMPI PUSH1 0x40 CALLDATASIZE PUSH1 0x3 NOT ADD SLT PUSH2 0x1FD JUMPI PUSH2 0xABA PUSH1 0x4 CALLDATALOAD PUSH2 0x116B PUSH2 0x218 JUMP JUMPDEST SWAP1 PUSH2 0x1187 PUSH2 0xAB0 DUP3 PUSH1 0x0 MSTORE PUSH1 0x0 PUSH1 0x20 MSTORE PUSH1 0x1 PUSH1 0x40 PUSH1 0x0 KECCAK256 ADD SLOAD SWAP1 JUMP JUMPDEST PUSH2 0x21A1 JUMP JUMPDEST SWAP2 DUP2 PUSH1 0x1F DUP5 ADD SLT ISZERO PUSH2 0x1FD JUMPI DUP3 CALLDATALOAD SWAP2 PUSH1 0x1 PUSH1 0x1 PUSH1 0x40 SHL SUB DUP4 GT PUSH2 0x1FD JUMPI PUSH1 0x20 DUP4 DUP2 DUP7 ADD SWAP6 ADD ADD GT PUSH2 0x1FD JUMPI JUMP JUMPDEST CALLVALUE PUSH2 0x1FD JUMPI PUSH1 0x40 CALLDATASIZE PUSH1 0x3 NOT ADD SLT PUSH2 0x1FD JUMPI PUSH2 0x11D2 PUSH2 0x202 JUMP JUMPDEST PUSH1 0x24 CALLDATALOAD PUSH1 0x1 PUSH1 0x1 PUSH1 0x40 SHL SUB DUP2 GT PUSH2 0x1FD JUMPI PUSH1 0x20 SWAP2 PUSH2 0x11F7 PUSH2 0xA6D SWAP3 CALLDATASIZE SWAP1 PUSH1 0x4 ADD PUSH2 0x118C JUMP JUMPDEST SWAP2 PUSH2 0x1D81 JUMP JUMPDEST CALLVALUE PUSH2 0x1FD JUMPI PUSH1 0x80 CALLDATASIZE PUSH1 0x3 NOT ADD SLT PUSH2 0x1FD JUMPI PUSH2 0x1216 PUSH2 0x202 JUMP JUMPDEST PUSH1 0x44 CALLDATALOAD PUSH1 0x24 CALLDATALOAD PUSH1 0x64 CALLDATALOAD PUSH1 0x1 PUSH1 0x1 PUSH1 0x40 SHL SUB DUP2 GT PUSH2 0x1FD JUMPI PUSH2 0x123B SWAP1 CALLDATASIZE SWAP1 PUSH1 0x4 ADD PUSH2 0x118C JUMP JUMPDEST SWAP1 PUSH1 0x1 DUP1 PUSH1 0xA0 SHL SUB DUP6 AND SWAP4 DUP5 PUSH1 0x0 MSTORE PUSH1 0x1 PUSH1 0x20 MSTORE PUSH1 0xFF PUSH1 0x40 PUSH1 0x0 KECCAK256 SLOAD AND ISZERO PUSH2 0x12B2 JUMPI PUSH2 0x2C3 PUSH2 0x126E SWAP2 PUSH2 0x1273 SWAP6 DUP9 PUSH2 0x1C5D JUMP JUMPDEST PUSH2 0x1FFC JUMP JUMPDEST PUSH1 0x0 MSTORE PUSH1 0x1 PUSH1 0x20 MSTORE PUSH1 0x40 PUSH1 0x0 KECCAK256 PUSH1 0x1 PUSH1 0xFF NOT DUP3 SLOAD AND OR SWAP1 SSTORE PUSH32 0xB4CCA19A27CE42915C3CEE0CEE28FC5D90969EE49F09EC71659546A63B5F7BC0 PUSH1 0x0 DUP1 LOG2 STOP JUMPDEST PUSH4 0x7722B8A1 PUSH1 0xE1 SHL PUSH1 0x0 MSTORE PUSH1 0x4 PUSH1 0x0 REVERT JUMPDEST SWAP1 PUSH1 0x20 DUP3 MSTORE DUP1 MLOAD PUSH1 0x20 DUP4 ADD MSTORE PUSH1 0x80 PUSH2 0x1303 PUSH2 0x12ED PUSH1 0x20 DUP5 ADD MLOAD PUSH1 0xA0 PUSH1 0x40 DUP8 ADD MSTORE PUSH1 0xC0 DUP7 ADD SWAP1 PUSH2 0xEB5 JUMP JUMPDEST PUSH1 0x40 DUP5 ADD MLOAD DUP6 DUP3 SUB PUSH1 0x1F NOT ADD PUSH1 0x60 DUP8 ADD MSTORE PUSH2 0x72D JUMP JUMPDEST SWAP2 PUSH1 0x60 DUP2 ADD MLOAD DUP3 DUP6 ADD MSTORE ADD MLOAD SWAP2 PUSH1 0xA0 PUSH1 0x1F NOT DUP3 DUP5 SUB ADD SWAP2 ADD MSTORE DUP2 MLOAD DUP1 DUP3 MSTORE PUSH1 0x20 DUP3 ADD SWAP2 PUSH1 0x20 DUP1 DUP4 PUSH1 0x5 SHL DUP4 ADD ADD SWAP5 ADD SWAP3 PUSH1 0x0 SWAP2 JUMPDEST DUP4 DUP4 LT PUSH2 0x1346 JUMPI POP POP POP POP POP SWAP1 JUMP JUMPDEST SWAP1 SWAP2 SWAP3 SWAP4 SWAP5 PUSH1 0x20 DUP1 PUSH2 0x1375 PUSH1 0x1 SWAP4 PUSH1 0x1F NOT DUP7 DUP3 SUB ADD DUP8 MSTORE PUSH1 0x40 DUP4 DUP12 MLOAD DUP1 MLOAD DUP5 MSTORE ADD MLOAD SWAP2 DUP2 DUP6 DUP3 ADD MSTORE ADD SWAP1 PUSH2 0x3C8 JUMP JUMPDEST SWAP8 ADD SWAP4 ADD SWAP4 ADD SWAP2 SWAP4 SWAP3 SWAP1 PUSH2 0x1337 JUMP JUMPDEST CALLVALUE PUSH2 0x1FD JUMPI PUSH1 0x80 CALLDATASIZE PUSH1 0x3 NOT ADD SLT PUSH2 0x1FD JUMPI PUSH2 0x139D PUSH2 0x202 JUMP JUMPDEST PUSH1 0x24 CALLDATALOAD PUSH1 0x1 PUSH1 0x1 PUSH1 0x40 SHL SUB DUP2 GT PUSH2 0x1FD JUMPI PUSH2 0x13BC SWAP1 CALLDATASIZE SWAP1 PUSH1 0x4 ADD PUSH2 0x355 JUMP JUMPDEST SWAP2 SWAP1 PUSH1 0x44 CALLDATALOAD PUSH1 0x1 PUSH1 0x1 PUSH1 0x40 SHL SUB DUP2 GT PUSH2 0x1FD JUMPI PUSH2 0x13DD SWAP1 CALLDATASIZE SWAP1 PUSH1 0x4 ADD PUSH2 0x355 JUMP JUMPDEST PUSH1 0x64 CALLDATALOAD SWAP4 SWAP2 PUSH1 0x1 PUSH1 0x1 PUSH1 0x40 SHL SUB DUP6 GT PUSH2 0x1FD JUMPI PUSH2 0x4C1 SWAP6 PUSH2 0x1405 PUSH2 0x1415 SWAP7 CALLDATASIZE SWAP1 PUSH1 0x4 ADD PUSH2 0x355 JUMP JUMPDEST SWAP6 SWAP1 SWAP5 PUSH2 0x1410 PUSH2 0x1DC5 JUMP JUMPDEST PUSH2 0x1E01 JUMP JUMPDEST PUSH1 0x40 MLOAD SWAP2 DUP3 SWAP2 DUP3 PUSH2 0x12C3 JUMP JUMPDEST PUSH4 0x4E487B71 PUSH1 0xE0 SHL PUSH1 0x0 MSTORE PUSH1 0x32 PUSH1 0x4 MSTORE PUSH1 0x24 PUSH1 0x0 REVERT JUMPDEST SWAP1 CALLDATALOAD SWAP1 PUSH1 0x1E NOT DUP2 CALLDATASIZE SUB ADD DUP3 SLT ISZERO PUSH2 0x1FD JUMPI ADD DUP1 CALLDATALOAD SWAP1 PUSH1 0x1 PUSH1 0x1 PUSH1 0x40 SHL SUB DUP3 GT PUSH2 0x1FD JUMPI PUSH1 0x20 ADD SWAP2 DUP2 CALLDATASIZE SUB DUP4 SGT PUSH2 0x1FD JUMPI JUMP JUMPDEST PUSH2 0x3C4 SWAP1 PUSH1 0x20 DUP2 ADD SWAP1 PUSH2 0x1437 JUMP JUMPDEST PUSH4 0x4E487B71 PUSH1 0xE0 SHL PUSH1 0x0 MSTORE PUSH1 0x41 PUSH1 0x4 MSTORE PUSH1 0x24 PUSH1 0x0 REVERT JUMPDEST PUSH1 0x40 DUP2 ADD SWAP1 DUP2 LT PUSH1 0x1 PUSH1 0x1 PUSH1 0x40 SHL SUB DUP3 GT OR PUSH2 0x723 JUMPI PUSH1 0x40 MSTORE JUMP JUMPDEST PUSH1 0x60 DUP2 ADD SWAP1 DUP2 LT PUSH1 0x1 PUSH1 0x1 PUSH1 0x40 SHL SUB DUP3 GT OR PUSH2 0x723 JUMPI PUSH1 0x40 MSTORE JUMP JUMPDEST SWAP1 PUSH1 0x1F DUP1 NOT SWAP2 ADD AND DUP2 ADD SWAP1 DUP2 LT PUSH1 0x1 PUSH1 0x1 PUSH1 0x40 SHL SUB DUP3 GT OR PUSH2 0x723 JUMPI PUSH1 0x40 MSTORE JUMP JUMPDEST PUSH1 0x40 MLOAD SWAP1 PUSH2 0x14F3 PUSH1 0xA0 DUP4 PUSH2 0x14C3 JUMP JUMPDEST JUMP JUMPDEST PUSH1 0x1 PUSH1 0x1 PUSH1 0x40 SHL SUB DUP2 GT PUSH2 0x723 JUMPI PUSH1 0x5 SHL PUSH1 0x20 ADD SWAP1 JUMP JUMPDEST SWAP1 PUSH2 0x1516 DUP3 PUSH2 0x14F5 JUMP JUMPDEST PUSH2 0x1523 PUSH1 0x40 MLOAD SWAP2 DUP3 PUSH2 0x14C3 JUMP JUMPDEST DUP3 DUP2 MSTORE DUP1 SWAP3 PUSH2 0x1534 PUSH1 0x1F NOT SWAP2 PUSH2 0x14F5 JUMP JUMPDEST ADD SWAP1 PUSH1 0x0 JUMPDEST DUP3 DUP2 LT PUSH2 0x1545 JUMPI POP POP POP JUMP JUMPDEST PUSH1 0x20 SWAP1 PUSH1 0x40 MLOAD PUSH2 0x1554 DUP2 PUSH2 0x148D JUMP JUMPDEST PUSH1 0x0 DUP2 MSTORE PUSH1 0x60 DUP4 DUP3 ADD MSTORE DUP3 DUP3 DUP6 ADD ADD MSTORE ADD PUSH2 0x1539 JUMP JUMPDEST SWAP2 SWAP1 DUP2 LT ISZERO PUSH2 0x728 JUMPI PUSH1 0x5 SHL ADD SWAP1 JUMP JUMPDEST DUP1 MLOAD DUP3 LT ISZERO PUSH2 0x728 JUMPI PUSH1 0x20 SWAP2 PUSH1 0x5 SHL ADD ADD SWAP1 JUMP JUMPDEST SWAP1 PUSH1 0x1 DUP3 DUP2 SHR SWAP3 AND DUP1 ISZERO PUSH2 0x15BE JUMPI JUMPDEST PUSH1 0x20 DUP4 LT EQ PUSH2 0x15A8 JUMPI JUMP JUMPDEST PUSH4 0x4E487B71 PUSH1 0xE0 SHL PUSH1 0x0 MSTORE PUSH1 0x22 PUSH1 0x4 MSTORE PUSH1 0x24 PUSH1 0x0 REVERT JUMPDEST SWAP2 PUSH1 0x7F AND SWAP2 PUSH2 0x159D JUMP JUMPDEST SWAP1 PUSH1 0x40 MLOAD SWAP2 DUP3 PUSH1 0x0 DUP3 SLOAD SWAP3 PUSH2 0x15DC DUP5 PUSH2 0x158E JUMP JUMPDEST DUP1 DUP5 MSTORE SWAP4 PUSH1 0x1 DUP2 AND SWAP1 DUP2 ISZERO PUSH2 0x1648 JUMPI POP PUSH1 0x1 EQ PUSH2 0x1601 JUMPI JUMPDEST POP PUSH2 0x14F3 SWAP3 POP SUB DUP4 PUSH2 0x14C3 JUMP JUMPDEST SWAP1 POP PUSH1 0x0 SWAP3 SWAP2 SWAP3 MSTORE PUSH1 0x20 PUSH1 0x0 KECCAK256 SWAP1 PUSH1 0x0 SWAP2 JUMPDEST DUP2 DUP4 LT PUSH2 0x162C JUMPI POP POP SWAP1 PUSH1 0x20 PUSH2 0x14F3 SWAP3 DUP3 ADD ADD CODESIZE PUSH2 0x15F4 JUMP JUMPDEST PUSH1 0x20 SWAP2 SWAP4 POP DUP1 PUSH1 0x1 SWAP2 SLOAD DUP4 DUP6 DUP10 ADD ADD MSTORE ADD SWAP2 ADD SWAP1 SWAP2 DUP5 SWAP3 PUSH2 0x1613 JUMP JUMPDEST SWAP1 POP PUSH1 0x20 SWAP3 POP PUSH2 0x14F3 SWAP5 SWAP2 POP PUSH1 0xFF NOT AND DUP3 DUP5 ADD MSTORE ISZERO ISZERO PUSH1 0x5 SHL DUP3 ADD ADD CODESIZE PUSH2 0x15F4 JUMP JUMPDEST SWAP1 PUSH1 0x40 MLOAD PUSH2 0x1677 DUP2 PUSH2 0x148D JUMP JUMPDEST PUSH1 0x20 PUSH2 0x168A PUSH1 0x1 DUP4 SWAP6 DUP1 SLOAD DUP6 MSTORE ADD PUSH2 0x15C8 JUMP JUMPDEST SWAP2 ADD MSTORE JUMP JUMPDEST DUP2 DUP2 LT PUSH2 0x169A JUMPI POP POP JUMP JUMPDEST PUSH1 0x0 DUP2 SSTORE PUSH1 0x1 ADD PUSH2 0x168F JUMP JUMPDEST PUSH2 0x16B0 DUP2 SLOAD PUSH2 0x158E JUMP JUMPDEST SWAP1 DUP2 PUSH2 0x16BA JUMPI POP POP JUMP JUMPDEST DUP2 PUSH1 0x1F PUSH1 0x0 SWAP4 GT PUSH1 0x1 EQ PUSH2 0x16CC JUMPI POP SSTORE JUMP JUMPDEST DUP2 DUP4 MSTORE PUSH1 0x20 DUP4 KECCAK256 PUSH2 0x16E8 SWAP2 PUSH1 0x1F ADD PUSH1 0x5 SHR DUP2 ADD SWAP1 PUSH1 0x1 ADD PUSH2 0x168F JUMP JUMPDEST DUP1 DUP3 MSTORE PUSH1 0x20 DUP3 KECCAK256 SWAP1 DUP2 SLOAD DUP4 PUSH1 0x1 SHL SWAP1 DUP5 NOT DUP6 PUSH1 0x3 SHL SHR NOT AND OR SWAP1 SSTORE SSTORE JUMP JUMPDEST SWAP1 PUSH9 0x10000000000000000 DUP2 GT PUSH2 0x723 JUMPI DUP2 SLOAD SWAP2 DUP2 DUP2 SSTORE DUP3 DUP3 LT PUSH2 0x1729 JUMPI POP POP POP JUMP JUMPDEST PUSH1 0x0 MSTORE PUSH1 0x20 PUSH1 0x0 KECCAK256 SWAP2 DUP3 ADD SWAP2 ADD JUMPDEST DUP2 DUP2 LT PUSH2 0x1742 JUMPI POP POP JUMP JUMPDEST DUP1 PUSH2 0x174E PUSH1 0x1 SWAP3 PUSH2 0x16A6 JUMP JUMPDEST ADD PUSH2 0x1737 JUMP JUMPDEST SWAP2 SWAP1 PUSH1 0x1F DUP2 GT PUSH2 0x1763 JUMPI POP POP POP JUMP JUMPDEST PUSH2 0x14F3 SWAP3 PUSH1 0x0 MSTORE PUSH1 0x20 PUSH1 0x0 KECCAK256 SWAP1 PUSH1 0x20 PUSH1 0x1F DUP5 ADD PUSH1 0x5 SHR DUP4 ADD SWAP4 LT PUSH2 0x178F JUMPI JUMPDEST PUSH1 0x1F ADD PUSH1 0x5 SHR ADD SWAP1 PUSH2 0x168F JUMP JUMPDEST SWAP1 SWAP2 POP DUP2 SWAP1 PUSH2 0x1782 JUMP JUMPDEST SWAP1 PUSH2 0x17A3 DUP3 PUSH2 0x14F5 JUMP JUMPDEST PUSH2 0x17B0 PUSH1 0x40 MLOAD SWAP2 DUP3 PUSH2 0x14C3 JUMP JUMPDEST DUP3 DUP2 MSTORE DUP1 SWAP3 PUSH2 0x17C1 PUSH1 0x1F NOT SWAP2 PUSH2 0x14F5 JUMP JUMPDEST ADD SWAP1 PUSH1 0x0 JUMPDEST DUP3 DUP2 LT PUSH2 0x17D2 JUMPI POP POP POP JUMP JUMPDEST PUSH1 0x20 SWAP1 PUSH1 0x40 MLOAD PUSH2 0x17E1 DUP2 PUSH2 0x148D JUMP JUMPDEST PUSH1 0x0 DUP2 MSTORE PUSH1 0x0 DUP4 DUP3 ADD MSTORE DUP3 DUP3 DUP6 ADD ADD MSTORE ADD PUSH2 0x17C6 JUMP JUMPDEST SWAP1 PUSH1 0x40 MLOAD PUSH2 0x1804 DUP2 PUSH2 0x148D JUMP JUMPDEST PUSH1 0x20 PUSH1 0x1 DUP3 SWAP5 PUSH1 0xFF DUP2 SLOAD AND ISZERO ISZERO DUP5 MSTORE ADD SLOAD SWAP2 ADD MSTORE JUMP JUMPDEST DUP2 CALLDATALOAD DUP2 SSTORE PUSH1 0x1 ADD SWAP2 SWAP1 PUSH2 0x1831 SWAP1 PUSH1 0x20 DUP2 ADD SWAP1 PUSH2 0x1437 JUMP JUMPDEST PUSH1 0x1 PUSH1 0x1 PUSH1 0x40 SHL SUB DUP2 SWAP5 SWAP3 SWAP5 GT PUSH2 0x723 JUMPI PUSH2 0x1856 DUP2 PUSH2 0x1850 DUP5 SLOAD PUSH2 0x158E JUMP JUMPDEST DUP5 PUSH2 0x1754 JUMP JUMPDEST PUSH1 0x0 PUSH1 0x1F DUP3 GT PUSH1 0x1 EQ PUSH2 0x188B JUMPI DUP2 SWAP1 PUSH2 0x1887 SWAP4 SWAP5 SWAP6 PUSH1 0x0 SWAP3 PUSH2 0x6A5 JUMPI POP POP DUP2 PUSH1 0x1 SHL SWAP2 PUSH1 0x0 NOT SWAP1 PUSH1 0x3 SHL SHR NOT AND OR SWAP1 JUMP JUMPDEST SWAP1 SSTORE JUMP JUMPDEST PUSH1 0x1F NOT DUP3 AND SWAP5 PUSH2 0x18A0 DUP5 PUSH1 0x0 MSTORE PUSH1 0x20 PUSH1 0x0 KECCAK256 SWAP1 JUMP JUMPDEST SWAP2 DUP1 JUMPDEST DUP8 DUP2 LT PUSH2 0x18DB JUMPI POP DUP4 PUSH1 0x1 SWAP6 SWAP7 SWAP8 LT PUSH2 0x18C1 JUMPI JUMPDEST POP POP POP DUP2 SHL ADD SWAP1 SSTORE JUMP JUMPDEST ADD CALLDATALOAD PUSH1 0x0 NOT PUSH1 0x3 DUP5 SWAP1 SHL PUSH1 0xF8 AND SHR NOT AND SWAP1 SSTORE CODESIZE DUP1 DUP1 PUSH2 0x18B7 JUMP JUMPDEST SWAP1 SWAP3 PUSH1 0x20 PUSH1 0x1 DUP2 SWAP3 DUP7 DUP7 ADD CALLDATALOAD DUP2 SSTORE ADD SWAP5 ADD SWAP2 ADD PUSH2 0x18A3 JUMP JUMPDEST CALLDATALOAD DUP1 ISZERO ISZERO DUP2 SUB PUSH2 0x1FD JUMPI SWAP1 JUMP JUMPDEST PUSH1 0x2 SWAP1 PUSH2 0x1921 PUSH2 0x190F DUP5 PUSH2 0x18F3 JUMP JUMPDEST DUP3 SWAP1 PUSH1 0xFF DUP1 NOT DUP4 SLOAD AND SWAP2 ISZERO ISZERO AND OR SWAP1 SSTORE JUMP JUMPDEST PUSH1 0x20 DUP4 ADD CALLDATALOAD PUSH1 0x1 DUP3 ADD SSTORE ADD SWAP1 PUSH1 0x40 DUP2 ADD CALLDATALOAD SWAP1 PUSH1 0x1E NOT DUP2 CALLDATASIZE SUB ADD DUP3 SLT ISZERO PUSH2 0x1FD JUMPI ADD DUP1 CALLDATALOAD SWAP1 PUSH1 0x1 PUSH1 0x1 PUSH1 0x40 SHL SUB DUP3 GT PUSH2 0x1FD JUMPI PUSH1 0x20 ADD DUP2 PUSH1 0x5 SHL CALLDATASIZE SUB DUP2 SGT PUSH2 0x1FD JUMPI SWAP2 PUSH2 0x196D DUP3 DUP3 PUSH2 0x1706 JUMP JUMPDEST PUSH1 0x0 SWAP1 DUP2 MSTORE PUSH1 0x20 DUP2 KECCAK256 SWAP3 DUP1 JUMPDEST DUP4 DUP4 LT PUSH2 0x1987 JUMPI POP POP POP POP POP JUMP JUMPDEST PUSH2 0x1991 DUP2 DUP4 PUSH2 0x1437 JUMP JUMPDEST SWAP1 PUSH1 0x1 PUSH1 0x1 PUSH1 0x40 SHL SUB DUP3 GT PUSH2 0x723 JUMPI PUSH2 0x19AE DUP3 PUSH2 0x657 DUP10 SLOAD PUSH2 0x158E JUMP JUMPDEST PUSH1 0x0 SWAP1 PUSH1 0x1F DUP4 GT PUSH1 0x1 EQ PUSH2 0x19F5 JUMPI SWAP3 PUSH2 0x19E6 DUP4 PUSH1 0x1 SWAP6 SWAP5 PUSH1 0x20 SWAP5 DUP8 SWAP7 PUSH1 0x0 SWAP3 PUSH2 0x6A5 JUMPI POP POP DUP2 PUSH1 0x1 SHL SWAP2 PUSH1 0x0 NOT SWAP1 PUSH1 0x3 SHL SHR NOT AND OR SWAP1 JUMP JUMPDEST DUP9 SSTORE JUMPDEST ADD SWAP6 ADD SWAP3 ADD SWAP2 SWAP4 PUSH2 0x1979 JUMP JUMPDEST PUSH1 0x1F NOT DUP4 AND SWAP2 PUSH2 0x1A0A DUP10 PUSH1 0x0 MSTORE PUSH1 0x20 PUSH1 0x0 KECCAK256 SWAP1 JUMP JUMPDEST SWAP3 DUP2 JUMPDEST DUP2 DUP2 LT PUSH2 0x1A50 JUMPI POP SWAP4 PUSH1 0x20 SWAP4 PUSH1 0x1 SWAP7 SWAP4 DUP8 SWAP7 SWAP4 DUP4 DUP9 SWAP6 LT PUSH2 0x1A36 JUMPI JUMPDEST POP POP POP DUP2 SHL ADD DUP9 SSTORE PUSH2 0x19E9 JUMP JUMPDEST ADD CALLDATALOAD PUSH1 0x0 NOT PUSH1 0x3 DUP5 SWAP1 SHL PUSH1 0xF8 AND SHR NOT AND SWAP1 SSTORE CODESIZE DUP1 DUP1 PUSH2 0x1A29 JUMP JUMPDEST SWAP2 SWAP4 PUSH1 0x20 PUSH1 0x1 DUP2 SWAP3 DUP8 DUP8 ADD CALLDATALOAD DUP2 SSTORE ADD SWAP6 ADD SWAP3 ADD PUSH2 0x1A0D JUMP JUMPDEST PUSH1 0x2 SWAP1 PUSH1 0x0 DUP2 SSTORE PUSH1 0x0 PUSH1 0x1 DUP3 ADD SSTORE ADD DUP1 SLOAD SWAP1 PUSH1 0x0 DUP2 SSTORE DUP2 PUSH2 0x1A87 JUMPI POP POP JUMP JUMPDEST PUSH1 0x0 MSTORE PUSH1 0x20 PUSH1 0x0 KECCAK256 SWAP1 DUP2 ADD SWAP1 JUMPDEST DUP2 DUP2 LT PUSH2 0x1A9F JUMPI POP POP JUMP JUMPDEST DUP1 PUSH2 0x1AAB PUSH1 0x1 SWAP3 PUSH2 0x16A6 JUMP JUMPDEST ADD PUSH2 0x1A94 JUMP JUMPDEST PUSH1 0x1 PUSH2 0x14F3 SWAP2 PUSH1 0x0 DUP2 SSTORE ADD PUSH2 0x16A6 JUMP JUMPDEST SWAP9 PUSH2 0xD08 PUSH2 0x1AF8 PUSH2 0x2C3 PUSH2 0x1AFE SWAP6 SWAP8 SWAP10 SWAP12 DUP14 SWAP6 SWAP8 SWAP10 SWAP12 PUSH2 0x1AF2 PUSH2 0x1AE8 PUSH2 0x2C3 DUP5 DUP5 DUP12 PUSH2 0x1C5D JUMP JUMPDEST PUSH2 0x2FC DUP9 DUP1 PUSH2 0x1437 JUMP JUMPDEST DUP7 PUSH2 0x1C5D JUMP JUMPDEST SWAP2 PUSH2 0x1469 JUMP JUMPDEST PUSH1 0x1 PUSH1 0x1 PUSH1 0xA0 SHL SUB DUP8 AND PUSH1 0x0 SWAP1 DUP2 MSTORE PUSH1 0x1 PUSH1 0x20 SWAP1 DUP2 MSTORE PUSH1 0x40 DUP1 DUP4 KECCAK256 DUP1 SLOAD PUSH1 0xFF NOT AND SWAP1 SSTORE PUSH1 0x2 DUP3 MSTORE DUP1 DUP4 KECCAK256 DUP4 SWAP1 SSTORE PUSH1 0x5 SWAP1 SWAP2 MSTORE DUP2 KECCAK256 DUP2 SWAP1 SSTORE JUMPDEST DUP3 DUP2 LT PUSH2 0x1C02 JUMPI POP POP POP PUSH1 0x0 JUMPDEST DUP3 DUP2 LT PUSH2 0x1BCB JUMPI POP POP POP PUSH1 0x0 JUMPDEST DUP3 DUP2 LT PUSH2 0x1B81 JUMPI POP POP POP PUSH32 0xC9FB99CF86984520D29D72F3A41FE637CC23CDDFF11A003F0B9E27C1652D1718 PUSH1 0x0 DUP1 LOG2 JUMP JUMPDEST PUSH1 0x1 SWAP1 PUSH2 0x1BC5 PUSH2 0x1BC0 PUSH2 0x1BA6 DUP8 PUSH1 0x1 DUP1 PUSH1 0xA0 SHL SUB AND PUSH1 0x0 MSTORE PUSH1 0x6 PUSH1 0x20 MSTORE PUSH1 0x40 PUSH1 0x0 KECCAK256 SWAP1 JUMP JUMPDEST PUSH2 0x1BB1 DUP5 DUP9 DUP9 PUSH2 0x156A JUMP JUMPDEST CALLDATALOAD PUSH1 0x0 MSTORE PUSH1 0x20 MSTORE PUSH1 0x40 PUSH1 0x0 KECCAK256 SWAP1 JUMP JUMPDEST PUSH2 0x1AB1 JUMP JUMPDEST ADD PUSH2 0x1B50 JUMP JUMPDEST PUSH1 0x1 SWAP1 PUSH2 0x1BFC PUSH2 0x1BF0 PUSH2 0x1BA6 DUP10 PUSH1 0x1 DUP1 PUSH1 0xA0 SHL SUB AND PUSH1 0x0 MSTORE PUSH1 0x4 PUSH1 0x20 MSTORE PUSH1 0x40 PUSH1 0x0 KECCAK256 SWAP1 JUMP JUMPDEST PUSH1 0x1 PUSH1 0x0 SWAP2 DUP3 DUP2 SSTORE ADD SSTORE JUMP JUMPDEST ADD PUSH2 0x1B43 JUMP JUMPDEST PUSH1 0x1 SWAP1 PUSH2 0x1C2C PUSH2 0x1C27 PUSH2 0x1BA6 DUP12 PUSH1 0x1 DUP1 PUSH1 0xA0 SHL SUB AND PUSH1 0x0 MSTORE PUSH1 0x3 PUSH1 0x20 MSTORE PUSH1 0x40 PUSH1 0x0 KECCAK256 SWAP1 JUMP JUMPDEST PUSH2 0x1A68 JUMP JUMPDEST ADD PUSH2 0x1B36 JUMP JUMPDEST SWAP1 PUSH1 0x20 PUSH1 0x1 SWAP2 PUSH2 0x1C56 PUSH2 0x1C44 DUP3 PUSH2 0x18F3 JUMP JUMPDEST DUP6 SWAP1 PUSH1 0xFF DUP1 NOT DUP4 SLOAD AND SWAP2 ISZERO ISZERO AND OR SWAP1 SSTORE JUMP JUMPDEST ADD CALLDATALOAD SWAP2 ADD SSTORE JUMP JUMPDEST SWAP2 PUSH1 0x40 MLOAD SWAP2 PUSH1 0x20 DUP4 ADD SWAP4 PUSH12 0xFFFFFFFFFFFFFFFFFFFFFFFF NOT SWAP1 PUSH1 0x60 SHL AND DUP5 MSTORE PUSH1 0x34 DUP4 ADD MSTORE PUSH1 0x54 DUP3 ADD MSTORE PUSH1 0x54 DUP2 MSTORE PUSH2 0x1C95 PUSH1 0x74 DUP3 PUSH2 0x14C3 JUMP JUMPDEST MLOAD SWAP1 KECCAK256 SWAP1 JUMP JUMPDEST SWAP1 PUSH2 0x1CA5 DUP3 PUSH2 0x14F5 JUMP JUMPDEST PUSH2 0x1CB2 PUSH1 0x40 MLOAD SWAP2 DUP3 PUSH2 0x14C3 JUMP JUMPDEST DUP3 DUP2 MSTORE DUP1 SWAP3 PUSH2 0x1CC3 PUSH1 0x1F NOT SWAP2 PUSH2 0x14F5 JUMP JUMPDEST ADD SWAP1 PUSH1 0x0 JUMPDEST DUP3 DUP2 LT PUSH2 0x1CD4 JUMPI POP POP POP JUMP JUMPDEST PUSH1 0x20 SWAP1 PUSH1 0x40 MLOAD PUSH2 0x1CE3 DUP2 PUSH2 0x14A8 JUMP JUMPDEST PUSH1 0x0 DUP2 MSTORE PUSH1 0x0 DUP4 DUP3 ADD MSTORE PUSH1 0x60 PUSH1 0x40 DUP3 ADD MSTORE DUP3 DUP3 DUP6 ADD ADD MSTORE ADD PUSH2 0x1CC8 JUMP JUMPDEST SWAP1 PUSH1 0x40 MLOAD PUSH2 0x1D0D DUP2 PUSH2 0x14A8 JUMP JUMPDEST PUSH1 0x2 DUP2 SWAP4 PUSH1 0xFF DUP2 SLOAD AND ISZERO ISZERO DUP4 MSTORE PUSH1 0x1 DUP2 ADD SLOAD PUSH1 0x20 DUP5 ADD MSTORE ADD SWAP1 DUP2 SLOAD PUSH2 0x1D31 DUP2 PUSH2 0x14F5 JUMP JUMPDEST SWAP3 PUSH2 0x1D3F PUSH1 0x40 MLOAD SWAP5 DUP6 PUSH2 0x14C3 JUMP JUMPDEST DUP2 DUP5 MSTORE PUSH1 0x20 DUP5 ADD SWAP1 PUSH1 0x0 MSTORE PUSH1 0x20 PUSH1 0x0 KECCAK256 PUSH1 0x0 SWAP2 JUMPDEST DUP4 DUP4 LT PUSH2 0x1D64 JUMPI POP POP POP POP PUSH1 0x40 ADD MSTORE JUMP JUMPDEST PUSH1 0x1 PUSH1 0x20 DUP2 SWAP3 PUSH2 0x1D73 DUP6 PUSH2 0x15C8 JUMP JUMPDEST DUP2 MSTORE ADD SWAP3 ADD SWAP3 ADD SWAP2 SWAP1 PUSH2 0x1D53 JUMP JUMPDEST SWAP2 SWAP1 PUSH1 0x34 PUSH2 0x1C95 SWAP2 DUP4 PUSH1 0x40 MLOAD SWAP5 DUP6 SWAP3 PUSH1 0x20 DUP5 ADD SWAP8 PUSH12 0xFFFFFFFFFFFFFFFFFFFFFFFF NOT SWAP1 PUSH1 0x60 SHL AND DUP9 MSTORE DUP5 DUP5 ADD CALLDATACOPY DUP2 ADD PUSH1 0x0 DUP4 DUP3 ADD MSTORE SUB ADD PUSH1 0x1F NOT DUP2 ADD DUP4 MSTORE DUP3 PUSH2 0x14C3 JUMP JUMPDEST PUSH1 0x40 MLOAD SWAP1 PUSH1 0xA0 DUP3 ADD DUP3 DUP2 LT PUSH1 0x1 PUSH1 0x1 PUSH1 0x40 SHL SUB DUP3 GT OR PUSH2 0x723 JUMPI PUSH1 0x40 MSTORE PUSH1 0x60 PUSH1 0x80 DUP4 PUSH1 0x0 DUP2 MSTORE DUP3 PUSH1 0x20 DUP3 ADD MSTORE DUP3 PUSH1 0x40 DUP3 ADD MSTORE PUSH1 0x0 DUP4 DUP3 ADD MSTORE ADD MSTORE JUMP JUMPDEST POP SWAP6 SWAP2 SWAP3 SWAP4 SWAP5 SWAP1 SWAP5 PUSH2 0x1E12 DUP8 PUSH2 0x2074 JUMP JUMPDEST PUSH2 0x1E1B DUP5 PUSH2 0x1C9B JUMP JUMPDEST SWAP5 PUSH2 0x1E25 DUP3 PUSH2 0x1799 JUMP JUMPDEST SWAP5 PUSH2 0x1E2F DUP6 PUSH2 0x150C JUMP JUMPDEST SWAP8 DUP10 PUSH1 0x0 JUMPDEST DUP4 DUP2 LT PUSH2 0x1F32 JUMPI POP POP POP POP PUSH1 0x0 JUMPDEST DUP3 DUP2 LT PUSH2 0x1EEC JUMPI POP POP POP PUSH1 0x0 JUMPDEST DUP3 DUP2 LT PUSH2 0x1EA6 JUMPI POP POP POP PUSH1 0x1 PUSH1 0x1 PUSH1 0xA0 SHL SUB SWAP4 SWAP1 SWAP4 AND PUSH1 0x0 SWAP1 DUP2 MSTORE PUSH1 0x2 PUSH1 0x20 SWAP1 DUP2 MSTORE PUSH1 0x40 DUP1 DUP4 KECCAK256 SLOAD PUSH1 0x5 SWAP1 SWAP3 MSTORE SWAP1 SWAP2 KECCAK256 SWAP1 SWAP4 SWAP1 SLOAD SWAP2 PUSH2 0x1E8C PUSH2 0x14E4 JUMP JUMPDEST SWAP5 DUP6 MSTORE PUSH1 0x20 DUP6 ADD MSTORE PUSH1 0x40 DUP5 ADD MSTORE PUSH1 0x60 DUP4 ADD MSTORE PUSH1 0x80 DUP3 ADD MSTORE SWAP1 JUMP JUMPDEST PUSH1 0x1 SWAP1 PUSH2 0x1ED0 PUSH2 0x1ECB PUSH2 0x1BA6 DUP11 PUSH1 0x1 DUP1 PUSH1 0xA0 SHL SUB AND PUSH1 0x0 MSTORE PUSH1 0x6 PUSH1 0x20 MSTORE PUSH1 0x40 PUSH1 0x0 KECCAK256 SWAP1 JUMP JUMPDEST PUSH2 0x166A JUMP JUMPDEST PUSH2 0x1EDA DUP3 DUP10 PUSH2 0x157A JUMP JUMPDEST MSTORE PUSH2 0x1EE5 DUP2 DUP9 PUSH2 0x157A JUMP JUMPDEST POP ADD PUSH2 0x1E4F JUMP JUMPDEST PUSH1 0x1 SWAP1 PUSH2 0x1F16 PUSH2 0x1F11 PUSH2 0x1BA6 DUP13 PUSH1 0x1 DUP1 PUSH1 0xA0 SHL SUB AND PUSH1 0x0 MSTORE PUSH1 0x4 PUSH1 0x20 MSTORE PUSH1 0x40 PUSH1 0x0 KECCAK256 SWAP1 JUMP JUMPDEST PUSH2 0x17F7 JUMP JUMPDEST PUSH2 0x1F20 DUP3 DUP10 PUSH2 0x157A JUMP JUMPDEST MSTORE PUSH2 0x1F2B DUP2 DUP9 PUSH2 0x157A JUMP JUMPDEST POP ADD PUSH2 0x1E42 JUMP JUMPDEST PUSH2 0x1F5B PUSH2 0x1F56 PUSH2 0x1BA6 PUSH1 0x1 SWAP5 PUSH1 0x1 DUP1 PUSH1 0xA0 SHL SUB AND PUSH1 0x0 MSTORE PUSH1 0x3 PUSH1 0x20 MSTORE PUSH1 0x40 PUSH1 0x0 KECCAK256 SWAP1 JUMP JUMPDEST PUSH2 0x1D00 JUMP JUMPDEST PUSH2 0x1F65 DUP3 DUP13 PUSH2 0x157A JUMP JUMPDEST MSTORE PUSH2 0x1F70 DUP2 DUP12 PUSH2 0x157A JUMP JUMPDEST POP ADD DUP11 SWAP1 PUSH2 0x1E34 JUMP JUMPDEST PUSH1 0x1 DUP1 PUSH1 0xA0 SHL SUB AND PUSH1 0x0 MSTORE PUSH1 0x3 PUSH1 0x20 MSTORE PUSH1 0x40 PUSH1 0x0 KECCAK256 DUP2 PUSH1 0x0 MSTORE PUSH1 0x20 MSTORE PUSH1 0xFF PUSH1 0x40 PUSH1 0x0 KECCAK256 SLOAD AND ISZERO PUSH2 0x1FA6 JUMPI POP JUMP JUMPDEST PUSH4 0xD3540137 PUSH1 0xE0 SHL PUSH1 0x0 MSTORE PUSH1 0x4 MSTORE PUSH1 0x24 PUSH1 0x0 REVERT JUMPDEST PUSH1 0x1 PUSH1 0x1 PUSH1 0xA0 SHL SUB AND PUSH1 0x0 SWAP1 DUP2 MSTORE PUSH1 0x3 PUSH1 0x20 MSTORE PUSH1 0x40 SWAP1 KECCAK256 DUP2 PUSH1 0x0 MSTORE PUSH1 0x20 MSTORE PUSH1 0xFF PUSH1 0x40 PUSH1 0x0 KECCAK256 SLOAD AND PUSH2 0x1FE8 JUMPI POP JUMP JUMPDEST PUSH4 0x90ED993 PUSH1 0xE1 SHL PUSH1 0x0 MSTORE PUSH1 0x4 MSTORE PUSH1 0x24 PUSH1 0x0 REVERT JUMPDEST PUSH2 0x2018 PUSH2 0x2021 SWAP2 PUSH2 0x2012 PUSH1 0xFF SWAP6 PUSH2 0x205A SWAP6 PUSH2 0x22EA JUMP JUMPDEST SWAP1 PUSH2 0x232F JUMP JUMPDEST SWAP1 SWAP3 SWAP2 SWAP3 PUSH2 0x238B JUMP JUMPDEST PUSH1 0x1 PUSH1 0x1 PUSH1 0xA0 SHL SUB AND PUSH1 0x0 SWAP1 DUP2 MSTORE PUSH32 0xAD3228B676F7D3CD4284A5443F17F1962B36E491B30A40B2405849E597BA5FB5 PUSH1 0x20 MSTORE PUSH1 0x40 SWAP1 KECCAK256 SWAP1 JUMP JUMPDEST SLOAD AND ISZERO PUSH2 0x2063 JUMPI JUMP JUMPDEST PUSH4 0x3B95B101 PUSH1 0xE2 SHL PUSH1 0x0 MSTORE PUSH1 0x4 PUSH1 0x0 REVERT JUMPDEST PUSH1 0x1 PUSH1 0x1 PUSH1 0xA0 SHL SUB AND CALLER EQ ISZERO DUP1 PUSH2 0x209D JUMPI JUMPDEST PUSH2 0x208C JUMPI JUMP JUMPDEST PUSH4 0x4638B61D PUSH1 0xE0 SHL PUSH1 0x0 MSTORE PUSH1 0x4 PUSH1 0x0 REVERT JUMPDEST POP CALLER PUSH1 0x0 SWAP1 DUP2 MSTORE PUSH32 0xAD3228B676F7D3CD4284A5443F17F1962B36E491B30A40B2405849E597BA5FB5 PUSH1 0x20 MSTORE PUSH1 0x40 SWAP1 KECCAK256 SLOAD PUSH1 0xFF AND ISZERO PUSH2 0x2086 JUMP JUMPDEST PUSH1 0x0 DUP2 DUP2 MSTORE PUSH1 0x20 DUP2 DUP2 MSTORE PUSH1 0x40 DUP1 DUP4 KECCAK256 CALLER DUP5 MSTORE SWAP1 SWAP2 MSTORE SWAP1 KECCAK256 SLOAD PUSH1 0xFF AND ISZERO PUSH2 0x20F9 JUMPI POP JUMP JUMPDEST PUSH4 0xE2517D3F PUSH1 0xE0 SHL PUSH1 0x0 MSTORE CALLER PUSH1 0x4 MSTORE PUSH1 0x24 MSTORE PUSH1 0x44 PUSH1 0x0 REVERT JUMPDEST PUSH1 0x0 DUP2 DUP2 MSTORE PUSH1 0x20 DUP2 DUP2 MSTORE PUSH1 0x40 DUP1 DUP4 KECCAK256 PUSH1 0x1 PUSH1 0x1 PUSH1 0xA0 SHL SUB DUP7 AND DUP5 MSTORE SWAP1 SWAP2 MSTORE SWAP1 KECCAK256 SLOAD PUSH1 0xFF AND PUSH2 0x219A JUMPI PUSH1 0x0 DUP2 DUP2 MSTORE PUSH1 0x20 DUP2 DUP2 MSTORE PUSH1 0x40 DUP1 DUP4 KECCAK256 PUSH1 0x1 PUSH1 0x1 PUSH1 0xA0 SHL SUB DUP7 AND DUP5 MSTORE SWAP1 SWAP2 MSTORE SWAP1 KECCAK256 DUP1 SLOAD PUSH1 0xFF NOT AND PUSH1 0x1 OR SWAP1 SSTORE CALLER SWAP2 PUSH1 0x1 PUSH1 0x1 PUSH1 0xA0 SHL SUB AND SWAP1 PUSH32 0x2F8788117E7EFF1D82E926EC794901D17C78024A50270940304540A733656F0D PUSH1 0x0 DUP1 LOG4 PUSH1 0x1 SWAP1 JUMP JUMPDEST POP POP PUSH1 0x0 SWAP1 JUMP JUMPDEST PUSH1 0x0 DUP2 DUP2 MSTORE PUSH1 0x20 DUP2 DUP2 MSTORE PUSH1 0x40 DUP1 DUP4 KECCAK256 PUSH1 0x1 PUSH1 0x1 PUSH1 0xA0 SHL SUB DUP7 AND DUP5 MSTORE SWAP1 SWAP2 MSTORE SWAP1 KECCAK256 SLOAD PUSH1 0xFF AND ISZERO PUSH2 0x219A JUMPI PUSH1 0x0 DUP2 DUP2 MSTORE PUSH1 0x20 DUP2 DUP2 MSTORE PUSH1 0x40 DUP1 DUP4 KECCAK256 PUSH1 0x1 PUSH1 0x1 PUSH1 0xA0 SHL SUB DUP7 AND DUP5 MSTORE SWAP1 SWAP2 MSTORE SWAP1 KECCAK256 DUP1 SLOAD PUSH1 0xFF NOT AND SWAP1 SSTORE CALLER SWAP2 PUSH1 0x1 PUSH1 0x1 PUSH1 0xA0 SHL SUB AND SWAP1 PUSH32 0xF6391F5C32D9C69D2A47EA670B442974B53935D1EDC7FD64EB21E047A839171B PUSH1 0x0 DUP1 LOG4 PUSH1 0x1 SWAP1 JUMP JUMPDEST PUSH2 0x2012 PUSH2 0x2242 SWAP5 SWAP4 PUSH2 0x2239 SWAP4 PUSH2 0x22EA JUMP JUMPDEST SWAP1 SWAP4 SWAP2 SWAP4 PUSH2 0x238B JUMP JUMPDEST PUSH1 0x1 PUSH1 0x1 PUSH1 0xA0 SHL SUB SWAP1 DUP2 AND SWAP2 AND SUB PUSH2 0x2256 JUMPI JUMP JUMPDEST PUSH4 0x35E02E41 PUSH1 0xE0 SHL PUSH1 0x0 MSTORE PUSH1 0x4 PUSH1 0x0 REVERT JUMPDEST PUSH1 0x1 PUSH1 0x1 PUSH1 0xA0 SHL SUB AND PUSH1 0x0 SWAP1 DUP2 MSTORE PUSH1 0x4 PUSH1 0x20 MSTORE PUSH1 0x40 SWAP1 KECCAK256 DUP2 PUSH1 0x0 MSTORE PUSH1 0x20 MSTORE PUSH1 0xFF PUSH1 0x40 PUSH1 0x0 KECCAK256 SLOAD AND PUSH2 0x2295 JUMPI POP JUMP JUMPDEST PUSH4 0xDDEB9D9 PUSH1 0xE3 SHL PUSH1 0x0 MSTORE PUSH1 0x4 MSTORE PUSH1 0x24 PUSH1 0x0 REVERT JUMPDEST PUSH1 0x1 DUP1 PUSH1 0xA0 SHL SUB AND PUSH1 0x0 MSTORE PUSH1 0x4 PUSH1 0x20 MSTORE PUSH1 0x40 PUSH1 0x0 KECCAK256 DUP2 PUSH1 0x0 MSTORE PUSH1 0x20 MSTORE PUSH1 0xFF PUSH1 0x40 PUSH1 0x0 KECCAK256 SLOAD AND ISZERO PUSH2 0x22D6 JUMPI POP JUMP JUMPDEST PUSH4 0xF667263 PUSH1 0xE0 SHL PUSH1 0x0 MSTORE PUSH1 0x4 MSTORE PUSH1 0x24 PUSH1 0x0 REVERT JUMPDEST SWAP1 PUSH1 0x1 PUSH1 0x1 PUSH1 0x40 SHL SUB DUP2 GT PUSH2 0x723 JUMPI PUSH1 0x40 MLOAD SWAP2 PUSH2 0x2311 PUSH1 0x1F DUP4 ADD PUSH1 0x1F NOT AND PUSH1 0x20 ADD DUP5 PUSH2 0x14C3 JUMP JUMPDEST DUP2 DUP4 MSTORE CALLDATASIZE DUP3 DUP3 ADD GT PUSH2 0x1FD JUMPI DUP2 PUSH1 0x0 SWAP3 PUSH1 0x20 SWAP3 DUP4 DUP7 ADD CALLDATACOPY DUP4 ADD ADD MSTORE SWAP1 JUMP JUMPDEST DUP2 MLOAD SWAP2 SWAP1 PUSH1 0x41 DUP4 SUB PUSH2 0x2360 JUMPI PUSH2 0x2359 SWAP3 POP PUSH1 0x20 DUP3 ADD MLOAD SWAP1 PUSH1 0x60 PUSH1 0x40 DUP5 ADD MLOAD SWAP4 ADD MLOAD PUSH1 0x0 BYTE SWAP1 PUSH2 0x240D JUMP JUMPDEST SWAP2 SWAP3 SWAP1 SWAP2 SWAP1 JUMP JUMPDEST POP POP PUSH1 0x0 SWAP2 PUSH1 0x2 SWAP2 SWAP1 JUMP JUMPDEST PUSH1 0x4 GT ISZERO PUSH2 0x2375 JUMPI JUMP JUMPDEST PUSH4 0x4E487B71 PUSH1 0xE0 SHL PUSH1 0x0 MSTORE PUSH1 0x21 PUSH1 0x4 MSTORE PUSH1 0x24 PUSH1 0x0 REVERT JUMPDEST PUSH2 0x2394 DUP2 PUSH2 0x236B JUMP JUMPDEST DUP1 PUSH2 0x239D JUMPI POP POP JUMP JUMPDEST PUSH2 0x23A6 DUP2 PUSH2 0x236B JUMP JUMPDEST PUSH1 0x1 DUP2 SUB PUSH2 0x23BF JUMPI PUSH4 0xF645EEDF PUSH1 0xE0 SHL PUSH1 0x0 MSTORE PUSH1 0x4 PUSH1 0x0 REVERT JUMPDEST PUSH2 0x23C8 DUP2 PUSH2 0x236B JUMP JUMPDEST PUSH1 0x2 DUP2 SUB PUSH2 0x23E5 JUMPI POP PUSH4 0xFCE698F7 PUSH1 0xE0 SHL PUSH1 0x0 MSTORE PUSH1 0x4 MSTORE PUSH1 0x24 PUSH1 0x0 REVERT JUMPDEST DUP1 PUSH2 0x23F1 PUSH1 0x3 SWAP3 PUSH2 0x236B JUMP JUMPDEST EQ PUSH2 0x23F9 JUMPI POP JUMP JUMPDEST PUSH4 0x35E2F383 PUSH1 0xE2 SHL PUSH1 0x0 MSTORE PUSH1 0x4 MSTORE PUSH1 0x24 PUSH1 0x0 REVERT JUMPDEST SWAP2 SWAP1 PUSH32 0x7FFFFFFFFFFFFFFFFFFFFFFFFFFFFFFF5D576E7357A4501DDFE92F46681B20A0 DUP5 GT PUSH2 0x2496 JUMPI SWAP2 PUSH1 0x20 SWAP4 PUSH1 0x80 SWAP3 PUSH1 0xFF PUSH1 0x0 SWAP6 PUSH1 0x40 MLOAD SWAP5 DUP6 MSTORE AND DUP7 DUP5 ADD MSTORE PUSH1 0x40 DUP4 ADD MSTORE PUSH1 0x60 DUP3 ADD MSTORE DUP3 DUP1 MSTORE PUSH1 0x1 GAS STATICCALL ISZERO PUSH2 0x248A JUMPI PUSH1 0x0 MLOAD PUSH1 0x1 PUSH1 0x1 PUSH1 0xA0 SHL SUB DUP2 AND ISZERO PUSH2 0x247E JUMPI SWAP1 PUSH1 0x0 SWAP1 PUSH1 0x0 SWAP1 JUMP JUMPDEST POP PUSH1 0x0 SWAP1 PUSH1 0x1 SWAP1 PUSH1 0x0 SWAP1 JUMP JUMPDEST PUSH1 0x40 MLOAD RETURNDATASIZE PUSH1 0x0 DUP3 RETURNDATACOPY RETURNDATASIZE SWAP1 REVERT JUMPDEST POP POP POP PUSH1 0x0 SWAP2 PUSH1 0x3 SWAP2 SWAP1 JUMP INVALID LOG2 PUSH5 0x6970667358 0x22 SLT KECCAK256 SLT 0x1E PUSH29 0x79BDB6362633DFB2B59DECEA5BEFBA1D164F0536825B7020201739FFC0 PUSH5 0x736F6C6343 STOP ADDMOD BYTE STOP CALLER 0xAD ORIGIN 0x28 0xB6 PUSH23 0xF7D3CD4284A5443F17F1962B36E491B30A40B2405849E5 SWAP8 0xBA PUSH0 0xB5 "
        },
        "methodIdentifiers": {
          "DEFAULT_ADMIN_ROLE()": "a217fddf",
          "addItemFragmentToInventory(address,(bool,uint256),bytes[2])": "3ddaf5f5",
          "addItemToInventory(address,(bool,uint256,bytes[]),bytes[2])": "182e47de",
          "addLeagueData(address,(uint256,bytes),bytes[2])": "176f46eb",
          "createPlayer(address,bytes32,uint256,bytes)": "dc2a5c0e",
          "dataHash(address,bytes)": "d7302cf9",
          "deletePlayer(address,uint256[],uint256[],uint256[],bytes32,uint256,bytes[2])": "38ff768e",
          "getItemFragments(address,uint256[])": "13348d7c",
          "getItems(address,uint256[])": "7dff2091",
          "getLeagueData(address,uint256[])": "036a6c64",
          "getOwnedIGC(address)": "74667dba",
          "getPlayer(address,uint256[],uint256[],uint256[])": "f9a2e0ec",
          "getRoleAdmin(bytes32)": "248a9ca3",
          "grantRole(bytes32,address)": "2f2ff15d",
          "hasRole(bytes32,address)": "91d14854",
          "playerDataHash(address,bytes32,uint256)": "5f1129b8",
          "playerExists(address)": "bbe52300",
          "removeItemFragmentFromInventory(address,uint256,bytes[3])": "45ce4174",
          "removeItemFromInventory(address,uint256,bytes[3])": "56a99ed3",
          "renounceRole(bytes32,address)": "36568abe",
          "revokeRole(bytes32,address)": "d547741f",
          "supportsInterface(bytes4)": "01ffc9a7",
          "updateItemFragmentNumData(address,uint256[2],bytes[2])": "7840f045",
          "updateOwnedItemAdditionalData(address,uint256,bytes[],bytes[])": "110ddd95",
          "updateOwnedItemNumData(address,uint256[2],bytes[2])": "02ee63ea"
        }
      }
    }
  }
}