{
  "_format": "hh-sol-artifact-1",
  "contractName": "BitCosmetics",
  "sourceName": "contracts/wonderbits/impl/nft/BitCosmetics.sol",
  "abi": [
    {
      "inputs": [],
      "stateMutability": "nonpayable",
      "type": "constructor"
    },
    {
      "inputs": [],
      "name": "AccessControlBadConfirmation",
      "type": "error"
    },
    {
      "inputs": [
        {
          "internalType": "address",
          "name": "account",
          "type": "address"
        },
        {
          "internalType": "bytes32",
          "name": "neededRole",
          "type": "bytes32"
        }
      ],
      "name": "AccessControlUnauthorizedAccount",
      "type": "error"
    },
    {
      "inputs": [],
      "name": "ApprovalCallerNotOwnerNorApproved",
      "type": "error"
    },
    {
      "inputs": [],
      "name": "ApprovalQueryForNonexistentToken",
      "type": "error"
    },
    {
      "inputs": [],
      "name": "BalanceQueryForZeroAddress",
      "type": "error"
    },
    {
      "inputs": [],
      "name": "ECDSAInvalidSignature",
      "type": "error"
    },
    {
      "inputs": [
        {
          "internalType": "uint256",
          "name": "length",
          "type": "uint256"
        }
      ],
      "name": "ECDSAInvalidSignatureLength",
      "type": "error"
    },
    {
      "inputs": [
        {
          "internalType": "bytes32",
          "name": "s",
          "type": "bytes32"
        }
      ],
      "name": "ECDSAInvalidSignatureS",
      "type": "error"
    },
    {
      "inputs": [
        {
          "internalType": "address",
          "name": "recovered",
          "type": "address"
        }
      ],
      "name": "InvalidAdminSignature",
      "type": "error"
    },
    {
      "inputs": [],
      "name": "InvalidQueryRange",
      "type": "error"
    },
    {
      "inputs": [],
      "name": "MintERC2309QuantityExceedsLimit",
      "type": "error"
    },
    {
      "inputs": [],
      "name": "MintToZeroAddress",
      "type": "error"
    },
    {
      "inputs": [],
      "name": "MintZeroQuantity",
      "type": "error"
    },
    {
      "inputs": [],
      "name": "NotCompatibleWithSpotMints",
      "type": "error"
    },
    {
      "inputs": [],
      "name": "OwnerQueryForNonexistentToken",
      "type": "error"
    },
    {
      "inputs": [],
      "name": "OwnershipNotInitializedForExtraData",
      "type": "error"
    },
    {
      "inputs": [],
      "name": "SequentialMintExceedsLimit",
      "type": "error"
    },
    {
      "inputs": [],
      "name": "SequentialUpToTooSmall",
      "type": "error"
    },
    {
      "inputs": [],
      "name": "SpotMintTokenIdTooSmall",
      "type": "error"
    },
    {
      "inputs": [],
      "name": "TokenAlreadyExists",
      "type": "error"
    },
    {
      "inputs": [],
      "name": "TransferCallerNotOwnerNorApproved",
      "type": "error"
    },
    {
      "inputs": [],
      "name": "TransferFromIncorrectOwner",
      "type": "error"
    },
    {
      "inputs": [],
      "name": "TransferToNonERC721ReceiverImplementer",
      "type": "error"
    },
    {
      "inputs": [],
      "name": "TransferToZeroAddress",
      "type": "error"
    },
    {
      "inputs": [],
      "name": "URIQueryForNonexistentToken",
      "type": "error"
    },
    {
      "anonymous": false,
      "inputs": [
        {
          "indexed": true,
          "internalType": "address",
          "name": "owner",
          "type": "address"
        },
        {
          "indexed": true,
          "internalType": "address",
          "name": "approved",
          "type": "address"
        },
        {
          "indexed": true,
          "internalType": "uint256",
          "name": "tokenId",
          "type": "uint256"
        }
      ],
      "name": "Approval",
      "type": "event"
    },
    {
      "anonymous": false,
      "inputs": [
        {
          "indexed": true,
          "internalType": "address",
          "name": "owner",
          "type": "address"
        },
        {
          "indexed": true,
          "internalType": "address",
          "name": "operator",
          "type": "address"
        },
        {
          "indexed": false,
          "internalType": "bool",
          "name": "approved",
          "type": "bool"
        }
      ],
      "name": "ApprovalForAll",
      "type": "event"
    },
    {
      "anonymous": false,
      "inputs": [
        {
          "indexed": true,
          "internalType": "uint256",
          "name": "fromTokenId",
          "type": "uint256"
        },
        {
          "indexed": false,
          "internalType": "uint256",
          "name": "toTokenId",
          "type": "uint256"
        },
        {
          "indexed": true,
          "internalType": "address",
          "name": "from",
          "type": "address"
        },
        {
          "indexed": true,
          "internalType": "address",
          "name": "to",
          "type": "address"
        }
      ],
      "name": "ConsecutiveTransfer",
      "type": "event"
    },
    {
      "anonymous": false,
      "inputs": [
        {
          "indexed": true,
          "internalType": "bytes32",
          "name": "role",
          "type": "bytes32"
        },
        {
          "indexed": true,
          "internalType": "bytes32",
          "name": "previousAdminRole",
          "type": "bytes32"
        },
        {
          "indexed": true,
          "internalType": "bytes32",
          "name": "newAdminRole",
          "type": "bytes32"
        }
      ],
      "name": "RoleAdminChanged",
      "type": "event"
    },
    {
      "anonymous": false,
      "inputs": [
        {
          "indexed": true,
          "internalType": "bytes32",
          "name": "role",
          "type": "bytes32"
        },
        {
          "indexed": true,
          "internalType": "address",
          "name": "account",
          "type": "address"
        },
        {
          "indexed": true,
          "internalType": "address",
          "name": "sender",
          "type": "address"
        }
      ],
      "name": "RoleGranted",
      "type": "event"
    },
    {
      "anonymous": false,
      "inputs": [
        {
          "indexed": true,
          "internalType": "bytes32",
          "name": "role",
          "type": "bytes32"
        },
        {
          "indexed": true,
          "internalType": "address",
          "name": "account",
          "type": "address"
        },
        {
          "indexed": true,
          "internalType": "address",
          "name": "sender",
          "type": "address"
        }
      ],
      "name": "RoleRevoked",
      "type": "event"
    },
    {
      "anonymous": false,
      "inputs": [
        {
          "indexed": true,
          "internalType": "address",
          "name": "from",
          "type": "address"
        },
        {
          "indexed": true,
          "internalType": "address",
          "name": "to",
          "type": "address"
        },
        {
          "indexed": true,
          "internalType": "uint256",
          "name": "tokenId",
          "type": "uint256"
        }
      ],
      "name": "Transfer",
      "type": "event"
    },
    {
      "inputs": [],
      "name": "DEFAULT_ADMIN_ROLE",
      "outputs": [
        {
          "internalType": "bytes32",
          "name": "",
          "type": "bytes32"
        }
      ],
      "stateMutability": "view",
      "type": "function"
    },
    {
      "inputs": [
        {
          "internalType": "address",
          "name": "to",
          "type": "address"
        },
        {
          "internalType": "uint256",
          "name": "tokenId",
          "type": "uint256"
        }
      ],
      "name": "approve",
      "outputs": [],
      "stateMutability": "payable",
      "type": "function"
    },
    {
      "inputs": [
        {
          "internalType": "address",
          "name": "owner",
          "type": "address"
        }
      ],
      "name": "balanceOf",
      "outputs": [
        {
          "internalType": "uint256",
          "name": "",
          "type": "uint256"
        }
      ],
      "stateMutability": "view",
      "type": "function"
    },
    {
      "inputs": [
        {
          "internalType": "uint256",
          "name": "tokenId",
          "type": "uint256"
        }
      ],
      "name": "burn",
      "outputs": [],
      "stateMutability": "nonpayable",
      "type": "function"
    },
    {
      "inputs": [
        {
          "internalType": "uint256",
          "name": "tokenId",
          "type": "uint256"
        }
      ],
      "name": "explicitOwnershipOf",
      "outputs": [
        {
          "components": [
            {
              "internalType": "address",
              "name": "addr",
              "type": "address"
            },
            {
              "internalType": "uint64",
              "name": "startTimestamp",
              "type": "uint64"
            },
            {
              "internalType": "bool",
              "name": "burned",
              "type": "bool"
            },
            {
              "internalType": "uint24",
              "name": "extraData",
              "type": "uint24"
            }
          ],
          "internalType": "struct IERC721A.TokenOwnership",
          "name": "ownership",
          "type": "tuple"
        }
      ],
      "stateMutability": "view",
      "type": "function"
    },
    {
      "inputs": [
        {
          "internalType": "uint256[]",
          "name": "tokenIds",
          "type": "uint256[]"
        }
      ],
      "name": "explicitOwnershipsOf",
      "outputs": [
        {
          "components": [
            {
              "internalType": "address",
              "name": "addr",
              "type": "address"
            },
            {
              "internalType": "uint64",
              "name": "startTimestamp",
              "type": "uint64"
            },
            {
              "internalType": "bool",
              "name": "burned",
              "type": "bool"
            },
            {
              "internalType": "uint24",
              "name": "extraData",
              "type": "uint24"
            }
          ],
          "internalType": "struct IERC721A.TokenOwnership[]",
          "name": "",
          "type": "tuple[]"
        }
      ],
      "stateMutability": "view",
      "type": "function"
    },
    {
      "inputs": [
        {
          "internalType": "uint256",
          "name": "tokenId",
          "type": "uint256"
        }
      ],
      "name": "getApproved",
      "outputs": [
        {
          "internalType": "address",
          "name": "",
          "type": "address"
        }
      ],
      "stateMutability": "view",
      "type": "function"
    },
    {
      "inputs": [
        {
          "internalType": "address",
          "name": "_owner",
          "type": "address"
        }
      ],
      "name": "getAux",
      "outputs": [
        {
          "internalType": "uint64",
          "name": "",
          "type": "uint64"
        }
      ],
      "stateMutability": "view",
      "type": "function"
    },
    {
      "inputs": [
        {
          "internalType": "bytes32",
          "name": "role",
          "type": "bytes32"
        }
      ],
      "name": "getRoleAdmin",
      "outputs": [
        {
          "internalType": "bytes32",
          "name": "",
          "type": "bytes32"
        }
      ],
      "stateMutability": "view",
      "type": "function"
    },
    {
      "inputs": [
        {
          "internalType": "bytes32",
          "name": "role",
          "type": "bytes32"
        },
        {
          "internalType": "address",
          "name": "account",
          "type": "address"
        }
      ],
      "name": "grantRole",
      "outputs": [],
      "stateMutability": "nonpayable",
      "type": "function"
    },
    {
      "inputs": [
        {
          "internalType": "bytes32",
          "name": "role",
          "type": "bytes32"
        },
        {
          "internalType": "address",
          "name": "account",
          "type": "address"
        }
      ],
      "name": "hasRole",
      "outputs": [
        {
          "internalType": "bool",
          "name": "",
          "type": "bool"
        }
      ],
      "stateMutability": "view",
      "type": "function"
    },
    {
      "inputs": [
        {
          "internalType": "address",
          "name": "owner",
          "type": "address"
        },
        {
          "internalType": "address",
          "name": "operator",
          "type": "address"
        }
      ],
      "name": "isApprovedForAll",
      "outputs": [
        {
          "internalType": "bool",
          "name": "",
          "type": "bool"
        }
      ],
      "stateMutability": "view",
      "type": "function"
    },
    {
      "inputs": [
        {
          "internalType": "address",
          "name": "to",
          "type": "address"
        },
        {
          "internalType": "bytes[2]",
          "name": "sigData",
          "type": "bytes[2]"
        }
      ],
      "name": "mint",
      "outputs": [],
      "stateMutability": "nonpayable",
      "type": "function"
    },
    {
      "inputs": [],
      "name": "name",
      "outputs": [
        {
          "internalType": "string",
          "name": "",
          "type": "string"
        }
      ],
      "stateMutability": "view",
      "type": "function"
    },
    {
      "inputs": [
        {
          "internalType": "address",
          "name": "addr",
          "type": "address"
        },
        {
          "internalType": "bytes",
          "name": "salt",
          "type": "bytes"
        }
      ],
      "name": "opHash",
      "outputs": [
        {
          "internalType": "bytes32",
          "name": "",
          "type": "bytes32"
        }
      ],
      "stateMutability": "pure",
      "type": "function"
    },
    {
      "inputs": [
        {
          "internalType": "uint256",
          "name": "tokenId",
          "type": "uint256"
        }
      ],
      "name": "ownerOf",
      "outputs": [
        {
          "internalType": "address",
          "name": "",
          "type": "address"
        }
      ],
      "stateMutability": "view",
      "type": "function"
    },
    {
      "inputs": [
        {
          "internalType": "bytes32",
          "name": "role",
          "type": "bytes32"
        },
        {
          "internalType": "address",
          "name": "callerConfirmation",
          "type": "address"
        }
      ],
      "name": "renounceRole",
      "outputs": [],
      "stateMutability": "nonpayable",
      "type": "function"
    },
    {
      "inputs": [
        {
          "internalType": "bytes32",
          "name": "role",
          "type": "bytes32"
        },
        {
          "internalType": "address",
          "name": "account",
          "type": "address"
        }
      ],
      "name": "revokeRole",
      "outputs": [],
      "stateMutability": "nonpayable",
      "type": "function"
    },
    {
      "inputs": [
        {
          "internalType": "address",
          "name": "from",
          "type": "address"
        },
        {
          "internalType": "address",
          "name": "to",
          "type": "address"
        },
        {
          "internalType": "uint256",
          "name": "tokenId",
          "type": "uint256"
        }
      ],
      "name": "safeTransferFrom",
      "outputs": [],
      "stateMutability": "payable",
      "type": "function"
    },
    {
      "inputs": [
        {
          "internalType": "address",
          "name": "from",
          "type": "address"
        },
        {
          "internalType": "address",
          "name": "to",
          "type": "address"
        },
        {
          "internalType": "uint256",
          "name": "tokenId",
          "type": "uint256"
        },
        {
          "internalType": "bytes",
          "name": "_data",
          "type": "bytes"
        }
      ],
      "name": "safeTransferFrom",
      "outputs": [],
      "stateMutability": "payable",
      "type": "function"
    },
    {
      "inputs": [
        {
          "internalType": "address",
          "name": "operator",
          "type": "address"
        },
        {
          "internalType": "bool",
          "name": "approved",
          "type": "bool"
        }
      ],
      "name": "setApprovalForAll",
      "outputs": [],
      "stateMutability": "nonpayable",
      "type": "function"
    },
    {
      "inputs": [
        {
          "internalType": "string",
          "name": "uri",
          "type": "string"
        }
      ],
      "name": "setBaseURI",
      "outputs": [],
      "stateMutability": "nonpayable",
      "type": "function"
    },
    {
      "inputs": [
        {
          "internalType": "bytes4",
          "name": "interfaceId",
          "type": "bytes4"
        }
      ],
      "name": "supportsInterface",
      "outputs": [
        {
          "internalType": "bool",
          "name": "",
          "type": "bool"
        }
      ],
      "stateMutability": "view",
      "type": "function"
    },
    {
      "inputs": [],
      "name": "symbol",
      "outputs": [
        {
          "internalType": "string",
          "name": "",
          "type": "string"
        }
      ],
      "stateMutability": "view",
      "type": "function"
    },
    {
      "inputs": [
        {
          "internalType": "uint256",
          "name": "tokenId",
          "type": "uint256"
        }
      ],
      "name": "tokenURI",
      "outputs": [
        {
          "internalType": "string",
          "name": "",
          "type": "string"
        }
      ],
      "stateMutability": "view",
      "type": "function"
    },
    {
      "inputs": [
        {
          "internalType": "address",
          "name": "owner",
          "type": "address"
        }
      ],
      "name": "tokensOfOwner",
      "outputs": [
        {
          "internalType": "uint256[]",
          "name": "",
          "type": "uint256[]"
        }
      ],
      "stateMutability": "view",
      "type": "function"
    },
    {
      "inputs": [
        {
          "internalType": "address",
          "name": "owner",
          "type": "address"
        },
        {
          "internalType": "uint256",
          "name": "start",
          "type": "uint256"
        },
        {
          "internalType": "uint256",
          "name": "stop",
          "type": "uint256"
        }
      ],
      "name": "tokensOfOwnerIn",
      "outputs": [
        {
          "internalType": "uint256[]",
          "name": "",
          "type": "uint256[]"
        }
      ],
      "stateMutability": "view",
      "type": "function"
    },
    {
      "inputs": [],
      "name": "totalBurned",
      "outputs": [
        {
          "internalType": "uint256",
          "name": "",
          "type": "uint256"
        }
      ],
      "stateMutability": "view",
      "type": "function"
    },
    {
      "inputs": [],
      "name": "totalSupply",
      "outputs": [
        {
          "internalType": "uint256",
          "name": "result",
          "type": "uint256"
        }
      ],
      "stateMutability": "view",
      "type": "function"
    },
    {
      "inputs": [
        {
          "internalType": "address",
          "name": "from",
          "type": "address"
        },
        {
          "internalType": "address",
          "name": "to",
          "type": "address"
        },
        {
          "internalType": "uint256",
          "name": "tokenId",
          "type": "uint256"
        }
      ],
      "name": "transferFrom",
      "outputs": [],
      "stateMutability": "payable",
      "type": "function"
    },
    {
      "inputs": [],
      "name": "withdrawFunds",
      "outputs": [],
      "stateMutability": "nonpayable",
      "type": "function"
    },
    {
      "inputs": [
        {
          "internalType": "address",
          "name": "_tokenAddr",
          "type": "address"
        },
        {
          "internalType": "uint256",
          "name": "_amount",
          "type": "uint256"
        }
      ],
      "name": "withdrawTokens",
      "outputs": [],
      "stateMutability": "nonpayable",
      "type": "function"
    }
  ],
  "bytecode": "0x60806040523461014d57610011610165565b6c42697420436f736d657469637360981b602082015261002f610188565b6208486b60eb1b60208201528151916001600160401b038311610148576100608361005b6002546101ab565b6101e3565b602090601f84116001146100c25792806100939261009b955f926100b7575b50508160011b915f199060031b1c19161790565b600255610282565b5f80556100a73361035b565b50604051611ff290816103e58239f35b015190505f8061007f565b60025f52601f19841691907f405787fa12a823e0f2b7631cc41b3ba8828b3321ca811111fa75cd3aa3bb5ace925f5b818110610130575091600193918661009b979410610118575b505050811b01600255610282565b01515f1960f88460031b161c191690555f808061010a565b929360206001819287860151815501950193016100f1565b610151565b5f80fd5b634e487b7160e01b5f52604160045260245ffd5b60408051919082016001600160401b0381118382101761014857604052600d8252565b60408051919082016001600160401b038111838210176101485760405260038252565b90600182811c921680156101d9575b60208310146101c557565b634e487b7160e01b5f52602260045260245ffd5b91607f16916101ba565b601f81116101ef575050565b60025f5260205f20906020601f840160051c83019310610229575b601f0160051c01905b81811061021e575050565b5f8155600101610213565b909150819061020a565b601f821161024057505050565b5f5260205f20906020601f840160051c83019310610278575b601f0160051c01905b81811061026d575050565b5f8155600101610262565b9091508190610259565b80519091906001600160401b038111610148576102ab816102a46003546101ab565b6003610233565b602092601f82116001146102df576102da929382915f926100b75750508160011b915f199060031b1c19161790565b600355565b60035f52601f198216937fc2575a0e9e593c00f959f8c92f12db2869c3395a3b0502d05e2516446f71f85b915f5b868110610343575083600195961061032b575b505050811b01600355565b01515f1960f88460031b161c191690555f8080610320565b9192602060018192868501518155019401920161030d565b6001600160a01b0381165f9081525f805160206123d7833981519152602052604090205460ff166103df576001600160a01b03165f8181525f805160206123d783398151915260205260408120805460ff191660011790553391907f2f8788117e7eff1d82e926ec794901d17c78024a50270940304540a733656f0d8180a4600190565b505f9056fe60806040526004361015610011575f80fd5b5f3560e01c806301ffc9a71461021457806306b091f91461020f57806306fdde031461020a578063081812fc14610205578063095ea7b31461020057806318160ddd146101fb57806323b872dd146101f657806324600fc3146101f1578063248a9ca3146101ec5780632f2ff15d146101e757806336568abe146101e257806342842e0e146101dd57806342966c68146101d857806355f804b3146101d35780635bbb2177146101ce5780636352211e146101c957806370a08231146101c45780638462151c146101bf57806391d14854146101ba57806395d89b41146101b557806399a2557a146101b0578063a217fddf146101ab578063a22cb465146101a6578063b88d4fde146101a1578063bf0b175e1461019c578063c23dc68f14610197578063c87b56dd14610192578063cf55fea71461018d578063d547741f14610188578063d89135cd14610183578063e985e9c51461017e5763fcceab8114610179575f80fd5b611393565b611343565b611326565b6112e8565b6112a4565b611159565b6110f6565b6110bb565b611061565b610f4b565b610f27565b610db4565b610d0f565b610cc0565b610b36565b610ada565b610aab565b610a3f565b6108ae565b6106f7565b6106d3565b61068f565b61064c565b610619565b6105e1565b6105cf565b610574565b6104ad565b61045e565b610384565b6102b1565b61022f565b6001600160e01b031981160361022b57565b5f80fd5b3461022b57602036600319011261022b57602060043561024e81610219565b63ffffffff60e01b16637965db0b60e01b8114908115610274575b506040519015158152f35b6301ffc9a760e01b1490505f610269565b600435906001600160a01b038216820361022b57565b602435906001600160a01b038216820361022b57565b3461022b57604036600319011261022b575f60206102cd610285565b60446024356102da6119d1565b60405163a9059cbb60e01b815233600482015260248101919091529384928391906001600160a01b03165af180156103475761031257005b6020813d60201161033f575b8161032b60209383610fef565b8101031261022b5761033d9051610f41565b005b3d915061031e565b6115ba565b805180835260209291819084018484015e5f828201840152601f01601f1916010190565b90602061038192818152019061034c565b90565b3461022b575f36600319011261022b576040515f6002546103a4816115c5565b808452906001811690811561043a57506001146103dc575b6103d8836103cc81850382610fef565b60405191829182610370565b0390f35b91905060025f527f405787fa12a823e0f2b7631cc41b3ba8828b3321ca811111fa75cd3aa3bb5ace915f905b808210610420575090915081016020016103cc6103bc565b919260018160209254838588010152019101909291610408565b60ff191660208086019190915291151560051b840190910191506103cc90506103bc565b3461022b57602036600319011261022b5760043561047b81611a5a565b1561049e575f526006602052602060018060a01b0360405f205416604051908152f35b6333d1c03960e21b5f5260045ffd5b604036600319011261022b576104c1610285565b602435906001600160a01b036104d683611b05565b1690813303610545575b610515816104f6855f52600660205260405f2090565b80546001600160a01b0319166001600160a01b03909216919091179055565b6001600160a01b0316907f8c5be1e5ebec7d5bd14f71427d1e84f3dd0314c0f7b2291e5b200ac8c7c3b9255f80a4005b5f82815260076020908152604080832033845290915290205460ff166104e0576367d9dca160e11b5f5260045ffd5b3461022b575f36600319011261022b5760205f546001549003604051908152f35b606090600319011261022b576004356001600160a01b038116810361022b57906024356001600160a01b038116810361022b579060443590565b61033d6105db36610595565b916115fd565b3461022b575f36600319011261022b576105f96119d1565b5f80808047818115610610575b3390f11561034757005b506108fc610606565b3461022b57602036600319011261022b5760206106446004355f526009602052600160405f20015490565b604051908152f35b3461022b57604036600319011261022b5761033d60043561066b61029b565b9061068a610685825f526009602052600160405f20015490565b611a20565b611b75565b3461022b57604036600319011261022b576004356106ab61029b565b336001600160a01b038216036106c45761033d91611c05565b63334bd91960e11b5f5260045ffd5b61033d6106df36610595565b90604051926106ef602085610fef565b5f845261185b565b3461022b57602036600319011261022b5760043561071481611b05565b5f8281526006602052604090208054916001600160a01b03811691338085149084141715610741565b1590565b610837575b5f9361082e575b506001600160a01b0382165f90815260056020526040902080546fffffffffffffffffffffffffffffffff0190556001600160a01b0382164260a01b17600360e01b176107a2855f52600460205260405f2090565b55600160e11b8116156107e9575b507fddf252ad1be2c89b69c2b068fc378daa952ba7f163c4a11628f55a4df523b3ef8280a461033d6107e460015460010190565b600155565b600184016107ff815f52600460205260405f2090565b541561080c575b506107b0565b8354811461080657610826905f52600460205260405f2090565b555f80610806565b8390555f61074d565b61087761073d6108703361085b8760018060a01b03165f52600760205260405f2090565b9060018060a01b03165f5260205260405f2090565b5460ff1690565b1561074657611aad565b9181601f8401121561022b578235916001600160401b03831161022b576020838186019501011161022b57565b3461022b57602036600319011261022b576004356001600160401b03811161022b576108de903690600401610881565b6108e66119d1565b6001600160401b0381116109c15761090881610903600a546115c5565b611793565b5f601f8211600114610945578190610935935f9261093a575b50508160011b915f199060031b1c19161790565b600a55005b013590505f80610921565b600a5f52601f198216927fc65a7bb8d6351c1cf70c95a316cc6a92839c986682d98bc35f958f4883f9d2a8915f5b8581106109a957508360019510610990575b505050811b01600a55005b01355f19600384901b60f8161c191690555f8080610985565b90926020600181928686013581550194019101610973565b610fdb565b60206040818301928281528451809452019201905f5b8181106109e95750505090565b9091926020608082610a34600194885162ffffff6060809260018060a01b0381511685526001600160401b036020820151166020860152604081015115156040860152015116910152565b0194019291016109dc565b3461022b57602036600319011261022b576004356001600160401b03811161022b573660238201121561022b578060040135906001600160401b03821161022b573660248360051b8301011161022b576103d8916024610a9f92016117e3565b604051918291826109c6565b3461022b57602036600319011261022b5760206001600160a01b03610ad1600435611b05565b16604051908152f35b3461022b57602036600319011261022b576020610644610af8610285565b611825565b60206040818301928281528451809452019201905f5b818110610b205750505090565b8251845260209384019390920191600101610b13565b3461022b57602036600319011261022b57610b4f610285565b5f546060908015908115610b6c575b604051806103d88582610afd565b80929192935f91606094610cbb575f5480911015610cb3575b50610b8f81611825565b928515610cab575b83610bad575b505050506103d891505f80610b5e565b909192809450851115610ca3575b604051916001850160051b83019485604052610bd65f6118d0565b905f91610be961073d6040830151151590565b610c91575b505f9791959160015b15610c62575b5f96610c0884611dc9565b604081015115610c2757505060015f935b019688604052969296610bf7565b9390935180610c5a575b50848418861b15610c45575b600190610c19565b6001909901600581901b87018a905298610c3d565b93505f610c31565b8083148015610c88575b15610bfd5750505050509150506103d89181525f808080610b9d565b50818914610c6c565b516001600160a01b031691505f610bee565b849350610bbb565b5f9350610b97565b94505f610b85565b611af6565b3461022b57604036600319011261022b57602060ff610d03600435610ce361029b565b905f526009845260405f209060018060a01b03165f5260205260405f2090565b54166040519015158152f35b3461022b575f36600319011261022b576040515f600354610d2f816115c5565b808452906001811690811561043a5750600114610d56576103d8836103cc81850382610fef565b91905060035f527fc2575a0e9e593c00f959f8c92f12db2869c3395a3b0502d05e2516446f71f85b915f905b808210610d9a575090915081016020016103cc6103bc565b919260018160209254838588010152019101909291610d82565b3461022b57606036600319011261022b57610dcd610285565b602435604435908192819060609380841015610cbb575f5480911015610f1f575b50610df881611825565b9085841015610f17575b81610e16575b604051806103d88782610afd565b909192809450850382811115610f0f575b5060405191610e426001820160051b840195866040526118d0565b905f91610e5561073d6040830151151590565b610efd575b505f9691949160015b15610ecf575b5f95610e7484611dc9565b604081015115610e9357505060015f935b019587604052959295610e63565b9390935180610ec7575b5084841860601b15610eb2575b600190610e85565b6001909801600581901b860189905297610eaa565b93505f610e9d565b8083148015610ef4575b15610e6957505050509150506103d89181525f808080610e08565b50818814610ed9565b516001600160a01b031691505f610e5a565b91505f610e27565b5f9150610e02565b94505f610dee565b3461022b575f36600319011261022b5760206040515f8152f35b8015150361022b57565b3461022b57604036600319011261022b57610f64610285565b60243590610f7182610f41565b335f9081526007602090815260408083206001600160a01b038516845290915290209115159160ff1981541660ff841617905560405191825260018060a01b0316907f17307eab39ab6107e8899845ad3d59bd9653f200f220920489ca2b5937696c3160203392a3005b634e487b7160e01b5f52604160045260245ffd5b90601f801991011681019081106001600160401b038211176109c157604052565b6001600160401b0381116109c157601f01601f191660200190565b92919261103782611010565b916110456040519384610fef565b82948184528183011161022b578281602093845f960137010152565b608036600319011261022b57611075610285565b61107d61029b565b90604435606435926001600160401b03841161022b573660238501121561022b576110b561033d94369060248160040135910161102b565b9261185b565b3461022b57602036600319011261022b576001600160a01b036110dc610285565b165f526005602052602060405f205460c01c604051908152f35b3461022b57602036600319011261022b5760806111146004356118d0565b611157604051809262ffffff6060809260018060a01b0381511685526001600160401b036020820151166020860152604081015115156040860152015116910152565bf35b3461022b57602036600319011261022b5760043561117681611a5a565b1561129557604051600a54815f61118c836115c5565b80835292600181169081156112765750600114611217575b6111b092500382610fef565b805115611205576103cc6111e0916111f76111e66111d06103d896611e21565b604051958694602086019061190b565b9061190b565b64173539b7b760d91b815260050190565b03601f198101835282610fef565b50506103d861121261177f565b6103cc565b5090600a5f527fc65a7bb8d6351c1cf70c95a316cc6a92839c986682d98bc35f958f4883f9d2a8905f915b81831061125a5750509060206111b0928201016111a4565b6020919350806001915483858801015201910190918392611242565b602092506111b094915060ff191682840152151560051b8201016111a4565b630a14c4b560e41b5f5260045ffd5b3461022b57604036600319011261022b576112bd610285565b6024356001600160401b03811161022b576020916112e2610644923690600401610881565b9161191d565b3461022b57604036600319011261022b5761033d60043561130761029b565b90611321610685825f526009602052600160405f20015490565b611c05565b3461022b575f36600319011261022b576020600154604051908152f35b3461022b57604036600319011261022b57602060ff610d03611363610285565b61136b61029b565b6001600160a01b039182165f9081526007865260408082209290931681526020919091522090565b3461022b57604036600319011261022b576113ac610285565b6024356001600160401b03811161022b57806004019060443691011161022b5760ff61148f61145761144e846113ee6113e761144197611966565b908961191d565b7f19457468657265756d205369676e6564204d6573736167653a0a3332000000005f52601c52611448611424603c5f209261199a565b61143861143236838561102b565b85611e66565b909a919a611ebe565b369161102b565b90611e66565b90929192611ebe565b6001600160a01b03165f9081527fec8156718a8372b1db44bb411437d0870f3e3790d4a08526d024ce1b0b668f6b6020526040902090565b54161561159a57506040516114a5602082610fef565b5f808252546001600160a01b0383164260a01b17600160e11b176114d1825f52600460205260405f2090565b556001600160a01b0383165f8181526005602052604090208054680100000000000000010190559182156115955760018201919360015b1561153b575b5f85855f7fddf252ad1be2c89b69c2b068fc378daa952ba7f163c4a11628f55a4df523b3ef8180a4611508565b936001019382850361150e57825f55803b61155257005b5f545f198101919060015b15611581575b5f61157661073d86600187019686611d02565b1561155d575b61188d565b80831061156357925050505f540361022b57005b611abc565b63ee4abeb760e01b5f9081526001600160a01b0391909116600452602490fd5b6040513d5f823e3d90fd5b90600182811c921680156115f3575b60208310146115df57565b634e487b7160e01b5f52602260045260245ffd5b91607f16916115d4565b919061160882611b05565b6001600160a01b0393841693811684900361177a575f83815260066020526040902080546116456001600160a01b03871633908114908314171590565b61174c575b611743575b506001600160a01b0384165f90815260056020526040902080545f190190556001600160a01b0382165f908152600560205260409020805460010190556001600160a01b0382164260a01b17600160e11b176116b3845f52600460205260405f2090565b55600160e11b8116156116fe575b506001600160a01b03169182907fddf252ad1be2c89b69c2b068fc378daa952ba7f163c4a11628f55a4df523b3ef5f80a4156116f957565b611ad8565b60018301611714815f52600460205260405f2090565b5415611721575b506116c1565b5f54811461171b5761173b905f52600460205260405f2090565b555f8061171b565b5f90555f61164f565b61177061073d6108703361085b8a60018060a01b03165f52600760205260405f2090565b1561164a57611aad565b611aca565b6040519061178e602083610fef565b5f8252565b601f811161179f575050565b600a5f5260205f20906020601f840160051c830193106117d9575b601f0160051c01905b8181106117ce575050565b5f81556001016117c3565b90915081906117ba565b6040519180835260051b906020828401016040525b8182801561181e57601f19908101936118159190840101356118d0565b908401526117f8565b5050505090565b6001600160a01b0316801561184c575f5260056020526001600160401b0360405f20541690565b6323d3ad8160e21b5f5260045ffd5b9291906118698282866115fd565b803b611876575b50505050565b61187f93611da1565b1561188d575f808080611870565b6368d2bf6b60e11b5f5260045ffd5b60405190608082018281106001600160401b038211176109c1576040525f6060838281528260208201528260408201520152565b906118d961189c565b915f5481106118e55750565b9091505b805f52600460205260405f2054611902575f19016118e9565b61038190611dc9565b805191908290602001825e015f815290565b91906034611960918360405194859260208401976bffffffffffffffffffffffff199060601b1688528484013781015f838201520301601f198101835282610fef565b51902090565b803590601e198136030182121561022b5701908135916001600160401b03831161022b57602001823603811361022b579190565b602081013590601e198136030182121561022b5701908135916001600160401b03831161022b57602001823603811361022b579190565b335f9081527fec8156718a8372b1db44bb411437d0870f3e3790d4a08526d024ce1b0b668f6b602052604090205460ff1615611a0957565b63e2517d3f60e01b5f52336004525f60245260445ffd5b5f81815260096020908152604080832033845290915290205460ff1615611a445750565b63e2517d3f60e01b5f523360045260245260445ffd5b905f915f548110611a685750565b9091505b805f52600460205260405f205480611aa157508015611a8d575f1901611a6c565b634e487b7160e01b5f52601160045260245ffd5b600160e01b1615919050565b632ce44b5f60e11b5f5260045ffd5b622e076360e81b5f5260045ffd5b62a1148160e81b5f5260045ffd5b633a954ecd60e21b5f5260045ffd5b636f96cda160e11b5f5260045ffd5b631960ccad60e11b5f5260045ffd5b611b17815f52600460205260405f2090565b54908115611b2e5750600160e01b8116611ae75790565b90505f54811015611ae7575b5f19015f81815260046020526040902054908115611b6e5750600160e01b81161561038157636f96cda160e11b5f5260045ffd5b9050611b3a565b5f8181526009602090815260408083206001600160a01b038616845290915290205460ff16611bff575f8181526009602090815260408083206001600160a01b03861684529091529020805460ff1916600117905533916001600160a01b0316907f2f8788117e7eff1d82e926ec794901d17c78024a50270940304540a733656f0d5f80a4600190565b50505f90565b5f8181526009602090815260408083206001600160a01b038616845290915290205460ff1615611bff575f8181526009602090815260408083206001600160a01b03861684529091529020805460ff1916905533916001600160a01b0316907ff6391f5c32d9c69d2a47ea670b442974b53935d1edc7fd64eb21e047a839171b5f80a4600190565b9081602091031261022b575161038181610219565b6001600160a01b0391821681529116602082015260408101919091526080606082018190526103819291019061034c565b3d15611cfd573d90611ce482611010565b91611cf26040519384610fef565b82523d5f602084013e565b606090565b91611d29926020925f604051809681958294630a85bd0160e11b8452843360048601611ca2565b03926001600160a01b03165af15f9181611d70575b50611d5a57611d4b611cd3565b80511561157c57805190602001fd5b6001600160e01b031916630a85bd0160e11b1490565b611d9391925060203d602011611d9a575b611d8b8183610fef565b810190611c8d565b905f611d3e565b503d611d81565b906020925f611d29959360405196879586948593630a85bd0160e11b85523360048601611ca2565b611dd161189c565b505f52600460205260405f2054611de661189c565b6001600160a01b038216815260a082901c6001600160401b03166020820152600160e01b82161515604082015260e89190911c606082015290565b9060405160a08101604052600a60808201935f8552935b5f190193603082820601855304928315611e5457600a90611e38565b809350608091030191601f1901918252565b8151919060418303611e9657611e8f9250602082015190606060408401519301515f1a90611f3a565b9192909190565b50505f9160029190565b60041115611eaa57565b634e487b7160e01b5f52602160045260245ffd5b611ec781611ea0565b80611ed0575050565b611ed981611ea0565b60018103611ef05763f645eedf60e01b5f5260045ffd5b611ef981611ea0565b60028103611f14575063fce698f760e01b5f5260045260245ffd5b80611f20600392611ea0565b14611f285750565b6335e2f38360e21b5f5260045260245ffd5b91907f7fffffffffffffffffffffffffffffff5d576e7357a4501ddfe92f46681b20a08411611fb1579160209360809260ff5f9560405194855216868401526040830152606082015282805260015afa15610347575f516001600160a01b03811615611fa757905f905f90565b505f906001905f90565b5050505f916003919056fea26469706673582212203477c801648ccc1ce99e5822a51a51e07f222137644629a9ace074480daf742164736f6c634300081a0033ec8156718a8372b1db44bb411437d0870f3e3790d4a08526d024ce1b0b668f6b",
  "linkReferences": {},
  "deployedLinkReferences": {}
}