{
  "_format": "hh-sol-artifact-1",
  "contractName": "WonderbitsSFT",
  "sourceName": "contracts/wonderbits/impl/sft/WonderbitsSFT.sol",
  "abi": [
    {
      "inputs": [],
      "stateMutability": "nonpayable",
      "type": "constructor"
    },
    {
      "inputs": [],
      "name": "AccessControlBadConfirmation",
      "type": "error"
    },
    {
      "inputs": [
        {
          "internalType": "address",
          "name": "account",
          "type": "address"
        },
        {
          "internalType": "bytes32",
          "name": "neededRole",
          "type": "bytes32"
        }
      ],
      "name": "AccessControlUnauthorizedAccount",
      "type": "error"
    },
    {
      "inputs": [],
      "name": "ECDSAInvalidSignature",
      "type": "error"
    },
    {
      "inputs": [
        {
          "internalType": "uint256",
          "name": "length",
          "type": "uint256"
        }
      ],
      "name": "ECDSAInvalidSignatureLength",
      "type": "error"
    },
    {
      "inputs": [
        {
          "internalType": "bytes32",
          "name": "s",
          "type": "bytes32"
        }
      ],
      "name": "ECDSAInvalidSignatureS",
      "type": "error"
    },
    {
      "inputs": [
        {
          "internalType": "address",
          "name": "sender",
          "type": "address"
        },
        {
          "internalType": "uint256",
          "name": "balance",
          "type": "uint256"
        },
        {
          "internalType": "uint256",
          "name": "needed",
          "type": "uint256"
        },
        {
          "internalType": "uint256",
          "name": "tokenId",
          "type": "uint256"
        }
      ],
      "name": "ERC1155InsufficientBalance",
      "type": "error"
    },
    {
      "inputs": [
        {
          "internalType": "address",
          "name": "approver",
          "type": "address"
        }
      ],
      "name": "ERC1155InvalidApprover",
      "type": "error"
    },
    {
      "inputs": [
        {
          "internalType": "uint256",
          "name": "idsLength",
          "type": "uint256"
        },
        {
          "internalType": "uint256",
          "name": "valuesLength",
          "type": "uint256"
        }
      ],
      "name": "ERC1155InvalidArrayLength",
      "type": "error"
    },
    {
      "inputs": [
        {
          "internalType": "address",
          "name": "operator",
          "type": "address"
        }
      ],
      "name": "ERC1155InvalidOperator",
      "type": "error"
    },
    {
      "inputs": [
        {
          "internalType": "address",
          "name": "receiver",
          "type": "address"
        }
      ],
      "name": "ERC1155InvalidReceiver",
      "type": "error"
    },
    {
      "inputs": [
        {
          "internalType": "address",
          "name": "sender",
          "type": "address"
        }
      ],
      "name": "ERC1155InvalidSender",
      "type": "error"
    },
    {
      "inputs": [
        {
          "internalType": "address",
          "name": "operator",
          "type": "address"
        },
        {
          "internalType": "address",
          "name": "owner",
          "type": "address"
        }
      ],
      "name": "ERC1155MissingApprovalForAll",
      "type": "error"
    },
    {
      "inputs": [
        {
          "internalType": "address",
          "name": "recovered",
          "type": "address"
        }
      ],
      "name": "InvalidAdminSignature",
      "type": "error"
    },
    {
      "anonymous": false,
      "inputs": [
        {
          "indexed": true,
          "internalType": "address",
          "name": "account",
          "type": "address"
        },
        {
          "indexed": true,
          "internalType": "address",
          "name": "operator",
          "type": "address"
        },
        {
          "indexed": false,
          "internalType": "bool",
          "name": "approved",
          "type": "bool"
        }
      ],
      "name": "ApprovalForAll",
      "type": "event"
    },
    {
      "anonymous": false,
      "inputs": [
        {
          "indexed": true,
          "internalType": "bytes32",
          "name": "role",
          "type": "bytes32"
        },
        {
          "indexed": true,
          "internalType": "bytes32",
          "name": "previousAdminRole",
          "type": "bytes32"
        },
        {
          "indexed": true,
          "internalType": "bytes32",
          "name": "newAdminRole",
          "type": "bytes32"
        }
      ],
      "name": "RoleAdminChanged",
      "type": "event"
    },
    {
      "anonymous": false,
      "inputs": [
        {
          "indexed": true,
          "internalType": "bytes32",
          "name": "role",
          "type": "bytes32"
        },
        {
          "indexed": true,
          "internalType": "address",
          "name": "account",
          "type": "address"
        },
        {
          "indexed": true,
          "internalType": "address",
          "name": "sender",
          "type": "address"
        }
      ],
      "name": "RoleGranted",
      "type": "event"
    },
    {
      "anonymous": false,
      "inputs": [
        {
          "indexed": true,
          "internalType": "bytes32",
          "name": "role",
          "type": "bytes32"
        },
        {
          "indexed": true,
          "internalType": "address",
          "name": "account",
          "type": "address"
        },
        {
          "indexed": true,
          "internalType": "address",
          "name": "sender",
          "type": "address"
        }
      ],
      "name": "RoleRevoked",
      "type": "event"
    },
    {
      "anonymous": false,
      "inputs": [
        {
          "indexed": true,
          "internalType": "address",
          "name": "operator",
          "type": "address"
        },
        {
          "indexed": true,
          "internalType": "address",
          "name": "from",
          "type": "address"
        },
        {
          "indexed": true,
          "internalType": "address",
          "name": "to",
          "type": "address"
        },
        {
          "indexed": false,
          "internalType": "uint256[]",
          "name": "ids",
          "type": "uint256[]"
        },
        {
          "indexed": false,
          "internalType": "uint256[]",
          "name": "values",
          "type": "uint256[]"
        }
      ],
      "name": "TransferBatch",
      "type": "event"
    },
    {
      "anonymous": false,
      "inputs": [
        {
          "indexed": true,
          "internalType": "address",
          "name": "operator",
          "type": "address"
        },
        {
          "indexed": true,
          "internalType": "address",
          "name": "from",
          "type": "address"
        },
        {
          "indexed": true,
          "internalType": "address",
          "name": "to",
          "type": "address"
        },
        {
          "indexed": false,
          "internalType": "uint256",
          "name": "id",
          "type": "uint256"
        },
        {
          "indexed": false,
          "internalType": "uint256",
          "name": "value",
          "type": "uint256"
        }
      ],
      "name": "TransferSingle",
      "type": "event"
    },
    {
      "anonymous": false,
      "inputs": [
        {
          "indexed": false,
          "internalType": "string",
          "name": "value",
          "type": "string"
        },
        {
          "indexed": true,
          "internalType": "uint256",
          "name": "id",
          "type": "uint256"
        }
      ],
      "name": "URI",
      "type": "event"
    },
    {
      "inputs": [],
      "name": "DEFAULT_ADMIN_ROLE",
      "outputs": [
        {
          "internalType": "bytes32",
          "name": "",
          "type": "bytes32"
        }
      ],
      "stateMutability": "view",
      "type": "function"
    },
    {
      "inputs": [
        {
          "internalType": "address",
          "name": "account",
          "type": "address"
        },
        {
          "internalType": "uint256",
          "name": "id",
          "type": "uint256"
        }
      ],
      "name": "balanceOf",
      "outputs": [
        {
          "internalType": "uint256",
          "name": "",
          "type": "uint256"
        }
      ],
      "stateMutability": "view",
      "type": "function"
    },
    {
      "inputs": [
        {
          "internalType": "address[]",
          "name": "accounts",
          "type": "address[]"
        },
        {
          "internalType": "uint256[]",
          "name": "ids",
          "type": "uint256[]"
        }
      ],
      "name": "balanceOfBatch",
      "outputs": [
        {
          "internalType": "uint256[]",
          "name": "",
          "type": "uint256[]"
        }
      ],
      "stateMutability": "view",
      "type": "function"
    },
    {
      "inputs": [
        {
          "internalType": "uint256",
          "name": "id",
          "type": "uint256"
        },
        {
          "internalType": "uint256",
          "name": "amount",
          "type": "uint256"
        }
      ],
      "name": "burn",
      "outputs": [],
      "stateMutability": "nonpayable",
      "type": "function"
    },
    {
      "inputs": [
        {
          "internalType": "uint256[]",
          "name": "ids",
          "type": "uint256[]"
        },
        {
          "internalType": "uint256[]",
          "name": "amounts",
          "type": "uint256[]"
        }
      ],
      "name": "burnBatch",
      "outputs": [],
      "stateMutability": "nonpayable",
      "type": "function"
    },
    {
      "inputs": [
        {
          "internalType": "bytes32",
          "name": "role",
          "type": "bytes32"
        }
      ],
      "name": "getRoleAdmin",
      "outputs": [
        {
          "internalType": "bytes32",
          "name": "",
          "type": "bytes32"
        }
      ],
      "stateMutability": "view",
      "type": "function"
    },
    {
      "inputs": [
        {
          "internalType": "bytes32",
          "name": "role",
          "type": "bytes32"
        },
        {
          "internalType": "address",
          "name": "account",
          "type": "address"
        }
      ],
      "name": "grantRole",
      "outputs": [],
      "stateMutability": "nonpayable",
      "type": "function"
    },
    {
      "inputs": [
        {
          "internalType": "bytes32",
          "name": "role",
          "type": "bytes32"
        },
        {
          "internalType": "address",
          "name": "account",
          "type": "address"
        }
      ],
      "name": "hasRole",
      "outputs": [
        {
          "internalType": "bool",
          "name": "",
          "type": "bool"
        }
      ],
      "stateMutability": "view",
      "type": "function"
    },
    {
      "inputs": [
        {
          "internalType": "address",
          "name": "account",
          "type": "address"
        },
        {
          "internalType": "address",
          "name": "operator",
          "type": "address"
        }
      ],
      "name": "isApprovedForAll",
      "outputs": [
        {
          "internalType": "bool",
          "name": "",
          "type": "bool"
        }
      ],
      "stateMutability": "view",
      "type": "function"
    },
    {
      "inputs": [
        {
          "internalType": "address",
          "name": "to",
          "type": "address"
        },
        {
          "internalType": "uint256",
          "name": "id",
          "type": "uint256"
        },
        {
          "internalType": "uint256",
          "name": "amount",
          "type": "uint256"
        },
        {
          "internalType": "bytes[3]",
          "name": "data",
          "type": "bytes[3]"
        }
      ],
      "name": "mint",
      "outputs": [],
      "stateMutability": "nonpayable",
      "type": "function"
    },
    {
      "inputs": [
        {
          "internalType": "address",
          "name": "to",
          "type": "address"
        },
        {
          "internalType": "uint256[]",
          "name": "ids",
          "type": "uint256[]"
        },
        {
          "internalType": "uint256[]",
          "name": "amounts",
          "type": "uint256[]"
        },
        {
          "internalType": "bytes[3]",
          "name": "data",
          "type": "bytes[3]"
        }
      ],
      "name": "mintBatch",
      "outputs": [],
      "stateMutability": "nonpayable",
      "type": "function"
    },
    {
      "inputs": [
        {
          "internalType": "address",
          "name": "addr",
          "type": "address"
        },
        {
          "internalType": "bytes",
          "name": "salt",
          "type": "bytes"
        }
      ],
      "name": "opHash",
      "outputs": [
        {
          "internalType": "bytes32",
          "name": "",
          "type": "bytes32"
        }
      ],
      "stateMutability": "pure",
      "type": "function"
    },
    {
      "inputs": [
        {
          "internalType": "bytes32",
          "name": "role",
          "type": "bytes32"
        },
        {
          "internalType": "address",
          "name": "callerConfirmation",
          "type": "address"
        }
      ],
      "name": "renounceRole",
      "outputs": [],
      "stateMutability": "nonpayable",
      "type": "function"
    },
    {
      "inputs": [
        {
          "internalType": "bytes32",
          "name": "role",
          "type": "bytes32"
        },
        {
          "internalType": "address",
          "name": "account",
          "type": "address"
        }
      ],
      "name": "revokeRole",
      "outputs": [],
      "stateMutability": "nonpayable",
      "type": "function"
    },
    {
      "inputs": [
        {
          "internalType": "address",
          "name": "from",
          "type": "address"
        },
        {
          "internalType": "address",
          "name": "to",
          "type": "address"
        },
        {
          "internalType": "uint256[]",
          "name": "ids",
          "type": "uint256[]"
        },
        {
          "internalType": "uint256[]",
          "name": "values",
          "type": "uint256[]"
        },
        {
          "internalType": "bytes",
          "name": "data",
          "type": "bytes"
        }
      ],
      "name": "safeBatchTransferFrom",
      "outputs": [],
      "stateMutability": "nonpayable",
      "type": "function"
    },
    {
      "inputs": [
        {
          "internalType": "address",
          "name": "from",
          "type": "address"
        },
        {
          "internalType": "address",
          "name": "to",
          "type": "address"
        },
        {
          "internalType": "uint256",
          "name": "id",
          "type": "uint256"
        },
        {
          "internalType": "uint256",
          "name": "value",
          "type": "uint256"
        },
        {
          "internalType": "bytes",
          "name": "data",
          "type": "bytes"
        }
      ],
      "name": "safeTransferFrom",
      "outputs": [],
      "stateMutability": "nonpayable",
      "type": "function"
    },
    {
      "inputs": [
        {
          "internalType": "address",
          "name": "operator",
          "type": "address"
        },
        {
          "internalType": "bool",
          "name": "approved",
          "type": "bool"
        }
      ],
      "name": "setApprovalForAll",
      "outputs": [],
      "stateMutability": "nonpayable",
      "type": "function"
    },
    {
      "inputs": [
        {
          "internalType": "bytes4",
          "name": "interfaceId",
          "type": "bytes4"
        }
      ],
      "name": "supportsInterface",
      "outputs": [
        {
          "internalType": "bool",
          "name": "",
          "type": "bool"
        }
      ],
      "stateMutability": "view",
      "type": "function"
    },
    {
      "inputs": [
        {
          "internalType": "uint256",
          "name": "",
          "type": "uint256"
        }
      ],
      "name": "uri",
      "outputs": [
        {
          "internalType": "string",
          "name": "",
          "type": "string"
        }
      ],
      "stateMutability": "view",
      "type": "function"
    },
    {
      "inputs": [],
      "name": "withdrawFunds",
      "outputs": [],
      "stateMutability": "nonpayable",
      "type": "function"
    },
    {
      "inputs": [
        {
          "internalType": "address",
          "name": "_tokenAddr",
          "type": "address"
        },
        {
          "internalType": "uint256",
          "name": "_amount",
          "type": "uint256"
        }
      ],
      "name": "withdrawTokens",
      "outputs": [],
      "stateMutability": "nonpayable",
      "type": "function"
    }
  ],
  "bytecode": "0x6080346100dd5760208101906001600160401b038211818310176100c9575f9160405252600254600181811c911680156100bf575b60208210146100ab57601f8111610063575b5f600255610053336100e1565b50604051611b16908161016b8239f35b60025f52601f0160051c7f405787fa12a823e0f2b7631cc41b3ba8828b3321ca811111fa75cd3aa3bb5ace908101905b8181106100a05750610046565b5f8155600101610093565b634e487b7160e01b5f52602260045260245ffd5b90607f1690610034565b634e487b7160e01b5f52604160045260245ffd5b5f80fd5b6001600160a01b0381165f9081525f80516020611c81833981519152602052604090205460ff16610165576001600160a01b03165f8181525f80516020611c8183398151915260205260408120805460ff191660011790553391907f2f8788117e7eff1d82e926ec794901d17c78024a50270940304540a733656f0d8180a4600190565b505f9056fe60806040526004361015610011575f80fd5b5f3560e01c8062fdd58e1461016357806301ffc9a71461015e57806306b091f91461015957806308e12c7d146101545780630e89341c1461014f57806324600fc31461014a578063248a9ca3146101455780632eb2c2d6146101405780632f2ff15d1461013b57806336568abe146101365780634e1273f41461013157806383ca4b6f1461012c57806391d1485414610127578063a217fddf14610122578063a22cb4651461011d578063a5eb651414610118578063b390c0ab14610113578063cf55fea71461010e578063d547741f14610109578063e985e9c5146101045763f242432a146100ff575f80fd5b610d14565b610cc4565b610c86565b610c11565b610bba565b610ae9565b610a40565b610a1c565b6109cd565b610930565b610841565b6107b9565b610776565b6106ec565b610595565b61055d565b610469565b610337565b61028f565b610206565b6101ac565b600435906001600160a01b038216820361017e57565b5f80fd5b602435906001600160a01b038216820361017e57565b35906001600160a01b038216820361017e57565b3461017e57604036600319011261017e5760206101eb6101ca610168565b6024355f525f835260405f209060018060a01b03165f5260205260405f2090565b54604051908152f35b6001600160e01b031981160361017e57565b3461017e57602036600319011261017e57600435610223816101f4565b63ffffffff60e01b16637965db0b60e01b811490811561024c575b506040519015158152602090f35b636cdb3d1360e11b81149150811561027e575b811561026d575b505f61023e565b6301ffc9a760e01b1490505f610266565b6303a24d0760e21b8114915061025f565b3461017e57604036600319011261017e575f60206102ab610168565b60446024356102b8611025565b60405163a9059cbb60e01b815233600482015260248101919091529384928391906001600160a01b03165af18015610325576102f057005b6020813d60201161031d575b81610309602093836105dc565b8101031261017e5761031b9051610a36565b005b3d91506102fc565b610df5565b9190606083011161017e57565b3461017e57608036600319011261017e57610350610168565b602435604435916064356001600160401b03811161017e576103d661037c6103dd92369060040161032a565b6103d16103c261039561038e84610e00565b9088610fdc565b7f19457468657265756d205369676e6564204d6573736167653a0a3332000000005f52601c52603c5f2090565b6103cb83610e34565b916110ae565b610e6b565b369161069b565b916001600160a01b0382161561041e5761031b9361041860405192600184526020840152604083019160018352606084015260808301604052565b91611249565b632bfa23e760e11b5f525f60045260245ffd5b805180835260209291819084018484015e5f828201840152601f01601f1916010190565b906020610466928181520190610431565b90565b3461017e57602036600319011261017e576040515f6002548060011c9060018116908115610553575b60208310821461053f57828552602085019190811561052657506001146104d4575b6104d0846104c4818603826105dc565b60405191829182610455565b0390f35b60025f9081529250907f405787fa12a823e0f2b7631cc41b3ba8828b3321ca811111fa75cd3aa3bb5ace5b818410610512575050016104c4826104b4565b8054848401526020909301926001016104ff565b60ff191682525090151560051b0190506104c4826104b4565b634e487b7160e01b5f52602260045260245ffd5b91607f1691610492565b3461017e575f36600319011261017e57610575611025565b5f8080804781811561058c575b3390f11561032557005b506108fc610582565b3461017e57602036600319011261017e5760206105c06004355f526003602052600160405f20015490565b604051908152f35b634e487b7160e01b5f52604160045260245ffd5b90601f801991011681019081106001600160401b038211176105fd57604052565b6105c8565b6001600160401b0381116105fd5760051b60200190565b92919061062581610602565b9361063360405195866105dc565b602085838152019160051b810192831161017e57905b82821061065557505050565b8135815260209182019101610649565b9080601f8301121561017e5781602061046693359101610619565b6001600160401b0381116105fd57601f01601f191660200190565b9291926106a782610680565b916106b560405193846105dc565b82948184528183011161017e578281602093845f960137010152565b9080601f8301121561017e578160206104669335910161069b565b3461017e5760a036600319011261017e57610705610168565b61070d610182565b906044356001600160401b03811161017e5761072d903690600401610665565b6064356001600160401b03811161017e5761074c903690600401610665565b90608435936001600160401b03851161017e5761077061031b9536906004016106d1565b93610ea2565b3461017e57604036600319011261017e5761031b600435610795610182565b906107b46107af825f526003602052600160405f20015490565b611074565b611131565b3461017e57604036600319011261017e576004356107d5610182565b336001600160a01b038216036107ee5761031b916111c1565b63334bd91960e11b5f5260045ffd5b90602080835192838152019201905f5b81811061081a5750505090565b825184526020938401939092019160010161080d565b9060206104669281815201906107fd565b3461017e57604036600319011261017e576004356001600160401b03811161017e573660238201121561017e5780600401359061087d82610602565b9161088b60405193846105dc565b8083526024602084019160051b8301019136831161017e57602401905b8282106108e857836024356001600160401b03811161017e576104d0916108d66108dc923690600401610665565b90610f28565b60405191829182610830565b602080916108f584610198565b8152019101906108a8565b9181601f8401121561017e578235916001600160401b03831161017e576020808501948460051b01011161017e57565b3461017e57604036600319011261017e576004356001600160401b03811161017e57610960903690600401610900565b602435906001600160401b03821161017e57610990610986610998933690600401610900565b9490923691610619565b923691610619565b9033156109bb5761031b91604051916109b26020846105dc565b5f8352336113ba565b626a0d4560e21b5f525f60045260245ffd5b3461017e57604036600319011261017e57602060ff610a106004356109f0610182565b905f526003845260405f209060018060a01b03165f5260205260405f2090565b54166040519015158152f35b3461017e575f36600319011261017e5760206040515f8152f35b8015150361017e57565b3461017e57604036600319011261017e57610a59610168565b602435610a6581610a36565b6001600160a01b038216918215610ad757335f9081526001602090815260408083206001600160a01b0390941683529290522060ff1981541660ff8315151617905560405190151581527f17307eab39ab6107e8899845ad3d59bd9653f200f220920489ca2b5937696c3160203392a3005b62ced3e160e81b5f525f60045260245ffd5b3461017e57608036600319011261017e57610b02610168565b6024356001600160401b03811161017e57610b21903690600401610900565b906044356001600160401b03811161017e57610b41903690600401610900565b926064356001600160401b03811161017e57610ba192610b91610b87610b6e610b9994369060040161032a565b6103d16103c26103958c610b8185610e00565b91610fdc565b9690943691610619565b953691610619565b92369161069b565b916001600160a01b0384161561041e5761031b93611249565b3461017e57604036600319011261017e5760243560043533156109bb5761031b91610c0260405192600184526020840152604083019160018352606084015260808301604052565b604051916109b26020846105dc565b3461017e57604036600319011261017e57610c2a610168565b6024356001600160401b03811161017e573660238201121561017e5780600401356001600160401b03811161017e57366024828401011161017e576104d0926024610c76930190610fdc565b6040519081529081906020820190565b3461017e57604036600319011261017e5761031b600435610ca5610182565b90610cbf6107af825f526003602052600160405f20015490565b6111c1565b3461017e57604036600319011261017e57602060ff610a10610ce4610168565b610cec610182565b6001600160a01b039182165f9081526001865260408082209290931681526020919091522090565b3461017e5760a036600319011261017e57610d2d610168565b610d35610182565b60443590606435926084356001600160401b03811161017e57610d5c9036906004016106d1565b926001600160a01b0382163381141580610dd2575b610dbc576001600160a01b0384161561041e57156109bb5761031b94610db460405192600184526020840152604083019160018352606084015260808301604052565b92909161150a565b63711bec9160e11b5f523360045260245260445ffd5b505f81815260016020908152604080832033845290915290205460ff1615610d71565b6040513d5f823e3d90fd5b803590601e198136030182121561017e5701908135916001600160401b03831161017e57602001823603811361017e579190565b602081013590601e198136030182121561017e5701908135916001600160401b03831161017e57602001823603811361017e579190565b604081013590601e198136030182121561017e5701908135916001600160401b03831161017e57602001823603811361017e579190565b939291906001600160a01b0385163381141580610edd575b610dbc576001600160a01b0382161561041e57156109bb57610edb9461150a565b565b505f81815260016020908152604080832033845290915290205460ff1615610eba565b8051821015610f145760209160051b010190565b634e487b7160e01b5f52603260045260245ffd5b91909180518351808203610fc7575050805190610f4482610602565b91610f5260405193846105dc565b808352610f61601f1991610602565b013660208401375f5b8151811015610fc05780610faf60019260051b60208082870101519189010151905f918252602082815260408084206001600160a01b03909316845291905290205490565b610fb98286610f00565b5201610f6a565b5090925050565b635b05999160e01b5f5260045260245260445ffd5b9190603461101f918360405194859260208401976bffffffffffffffffffffffff199060601b1688528484013781015f838201520301601f1981018352826105dc565b51902090565b335f9081527f3617319a054d772f909f7c479a2cebe5066e836a939412e32403c99029b92eff602052604090205460ff161561105d57565b63e2517d3f60e01b5f52336004525f60245260445ffd5b5f81815260036020908152604080832033845290915290205460ff16156110985750565b63e2517d3f60e01b5f523360045260245260445ffd5b6110c06110c6926110cf94369161069b565b906116e0565b90929192611738565b6001600160a01b0381165f9081527f3617319a054d772f909f7c479a2cebe5066e836a939412e32403c99029b92eff602052604090205460ff16156111115750565b63ee4abeb760e01b5f9081526001600160a01b0391909116600452602490fd5b5f8181526003602090815260408083206001600160a01b038616845290915290205460ff166111bb575f8181526003602090815260408083206001600160a01b03861684529091529020805460ff1916600117905533916001600160a01b0316907f2f8788117e7eff1d82e926ec794901d17c78024a50270940304540a733656f0d5f80a4600190565b50505f90565b5f8181526003602090815260408083206001600160a01b038616845290915290205460ff16156111bb575f8181526003602090815260408083206001600160a01b03861684529091529020805460ff1916905533916001600160a01b0316907ff6391f5c32d9c69d2a47ea670b442974b53935d1edc7fd64eb21e047a839171b5f80a4600190565b9392919080518251908181036113a55750506001600160a01b03851693841515935f5b83518110156112d95780868960019360051b602080828a010151918a0101519261129a575b5050500161126c565b6112cf916112b26112c7925f525f60205260405f2090565b9060018060a01b03165f5260205260405f2090565b9182546117b4565b90555f8981611291565b509390959460018351145f1461136a576020838101518582015160408051928352928201525f9133917fc3d58168c5ae7397731d063d5bbf3d657854427343f4c083240f7aacaa2d0f629190a45b611332575b50505050565b805160010361135a579060208061135195930151910151915f336119c0565b5f80808061132c565b611365935f33611891565b611351565b5f6040517f4a39dc06d4c0dbc64b70af90fd698a233a518aa5d07e595d983b8c0526c8f7fb33918061139d8989836117d5565b0390a4611327565b635b05999160e01b5f5260045260245260445ffd5b90925082518251908181036113a55750506001600160a01b038116801515949093905f5b8251811015611481578060051b876020808387010151928801015190611409575b50506001016113de565b61141e866112b2845f525f60205260405f2090565b5481811061144a57866112b260019594936114429303935f525f60205260405f2090565b55905f6113ff565b6040516303dee4c560e01b81526001600160a01b038816600482015260248101919091526044810182905260648101839052608490fd5b5094505f93929150600181511484146114d75760209081015191810151604080519384529183015233917fc3d58168c5ae7397731d063d5bbf3d657854427343f4c083240f7aacaa2d0f6291819081015b0390a4565b60405133927f4a39dc06d4c0dbc64b70af90fd698a233a518aa5d07e595d983b8c0526c8f7fb9282916114d291836117d5565b94939290919384518251908181036113a55750506001600160a01b038681169586151595918516801515939192905f5b8451811015611613578060051b90898988602080868b010151958c01015192611592575b93600194611570575b5050500161153a565b611588916112b26112c7925f525f60205260405f2090565b90555f8981611567565b505090916115ab8d6112b2835f525f60205260405f2090565b548281106115dc578291898f6115d3600197968f9503916112b2855f525f60205260405f2090565b5590945061155e565b6040516303dee4c560e01b81526001600160a01b038f16600482015260248101919091526044810183905260648101829052608490fd5b5091989593929790965060018851145f146116a65760208881015186820151604080519283529282015233917fc3d58168c5ae7397731d063d5bbf3d657854427343f4c083240f7aacaa2d0f6291a45b61166f575b5050505050565b84516001036116955760208061168b96015192015192336119c0565b5f80808080611668565b6116a194919233611891565b61168b565b6040517f4a39dc06d4c0dbc64b70af90fd698a233a518aa5d07e595d983b8c0526c8f7fb3391806116d8898d836117d5565b0390a4611663565b8151919060418303611710576117099250602082015190606060408401519301515f1a90611a5e565b9192909190565b50505f9160029190565b6004111561172457565b634e487b7160e01b5f52602160045260245ffd5b6117418161171a565b8061174a575050565b6117538161171a565b6001810361176a5763f645eedf60e01b5f5260045ffd5b6117738161171a565b6002810361178e575063fce698f760e01b5f5260045260245ffd5b8061179a60039261171a565b146117a25750565b6335e2f38360e21b5f5260045260245ffd5b919082018092116117c157565b634e487b7160e01b5f52601160045260245ffd5b90916117ec610466936040845260408401906107fd565b9160208184039101526107fd565b9081602091031261017e5751610466816101f4565b6001600160a01b0391821681529116602082015260a0604082018190526104669491939192611854929161184691908601906107fd565b9084820360608601526107fd565b916080818403910152610431565b3d1561188c573d9061187382610680565b9161188160405193846105dc565b82523d5f602084013e565b606090565b9091949293853b6118a5575b505050505050565b6020936118c791604051968795869563bc197c8160e01b87526004870161180f565b03815f6001600160a01b0387165af15f9181611956575b5061191857506118ec611862565b805191908261191157632bfa23e760e11b5f526001600160a01b03821660045260245ffd5b9050602001fd5b6001600160e01b0319166343e6837f60e01b0161193b57505f808080808061189d565b632bfa23e760e11b5f526001600160a01b031660045260245ffd5b61197991925060203d602011611980575b61197181836105dc565b8101906117fa565b905f6118de565b503d611967565b6001600160a01b039182168152911660208201526040810191909152606081019190915260a06080820181905261046692910190610431565b9091949293853b6119d357505050505050565b6020936119f591604051968795869563f23a6e6160e01b875260048701611987565b03815f6001600160a01b0387165af15f9181611a3d575b50611a1a57506118ec611862565b6001600160e01b031916630dc5919f60e01b0161193b57505f808080808061189d565b611a5791925060203d6020116119805761197181836105dc565b905f611a0c565b91907f7fffffffffffffffffffffffffffffff5d576e7357a4501ddfe92f46681b20a08411611ad5579160209360809260ff5f9560405194855216868401526040830152606082015282805260015afa15610325575f516001600160a01b03811615611acb57905f905f90565b505f906001905f90565b5050505f916003919056fea26469706673582212203a3a8fef6688a0a93a9c6c897b6a8891ca5e5891ca1fd14e9f9d1c8961344ee064736f6c634300081a00333617319a054d772f909f7c479a2cebe5066e836a939412e32403c99029b92eff",
  "linkReferences": {},
  "deployedLinkReferences": {}
}