{
  "_format": "hh-sol-artifact-1",
  "contractName": "WonderbitsSFT",
  "sourceName": "contracts/wonderbits/impl/sft/WonderbitsSFT.sol",
  "abi": [
    {
      "inputs": [],
      "stateMutability": "nonpayable",
      "type": "constructor"
    },
    {
      "inputs": [],
      "name": "AccessControlBadConfirmation",
      "type": "error"
    },
    {
      "inputs": [
        {
          "internalType": "address",
          "name": "account",
          "type": "address"
        },
        {
          "internalType": "bytes32",
          "name": "neededRole",
          "type": "bytes32"
        }
      ],
      "name": "AccessControlUnauthorizedAccount",
      "type": "error"
    },
    {
      "inputs": [],
      "name": "ECDSAInvalidSignature",
      "type": "error"
    },
    {
      "inputs": [
        {
          "internalType": "uint256",
          "name": "length",
          "type": "uint256"
        }
      ],
      "name": "ECDSAInvalidSignatureLength",
      "type": "error"
    },
    {
      "inputs": [
        {
          "internalType": "bytes32",
          "name": "s",
          "type": "bytes32"
        }
      ],
      "name": "ECDSAInvalidSignatureS",
      "type": "error"
    },
    {
      "inputs": [
        {
          "internalType": "address",
          "name": "sender",
          "type": "address"
        },
        {
          "internalType": "uint256",
          "name": "balance",
          "type": "uint256"
        },
        {
          "internalType": "uint256",
          "name": "needed",
          "type": "uint256"
        },
        {
          "internalType": "uint256",
          "name": "tokenId",
          "type": "uint256"
        }
      ],
      "name": "ERC1155InsufficientBalance",
      "type": "error"
    },
    {
      "inputs": [
        {
          "internalType": "address",
          "name": "approver",
          "type": "address"
        }
      ],
      "name": "ERC1155InvalidApprover",
      "type": "error"
    },
    {
      "inputs": [
        {
          "internalType": "uint256",
          "name": "idsLength",
          "type": "uint256"
        },
        {
          "internalType": "uint256",
          "name": "valuesLength",
          "type": "uint256"
        }
      ],
      "name": "ERC1155InvalidArrayLength",
      "type": "error"
    },
    {
      "inputs": [
        {
          "internalType": "address",
          "name": "operator",
          "type": "address"
        }
      ],
      "name": "ERC1155InvalidOperator",
      "type": "error"
    },
    {
      "inputs": [
        {
          "internalType": "address",
          "name": "receiver",
          "type": "address"
        }
      ],
      "name": "ERC1155InvalidReceiver",
      "type": "error"
    },
    {
      "inputs": [
        {
          "internalType": "address",
          "name": "sender",
          "type": "address"
        }
      ],
      "name": "ERC1155InvalidSender",
      "type": "error"
    },
    {
      "inputs": [
        {
          "internalType": "address",
          "name": "operator",
          "type": "address"
        },
        {
          "internalType": "address",
          "name": "owner",
          "type": "address"
        }
      ],
      "name": "ERC1155MissingApprovalForAll",
      "type": "error"
    },
    {
      "inputs": [
        {
          "internalType": "address",
          "name": "recovered",
          "type": "address"
        }
      ],
      "name": "InvalidAdminSignature",
      "type": "error"
    },
    {
      "anonymous": false,
      "inputs": [
        {
          "indexed": true,
          "internalType": "address",
          "name": "account",
          "type": "address"
        },
        {
          "indexed": true,
          "internalType": "address",
          "name": "operator",
          "type": "address"
        },
        {
          "indexed": false,
          "internalType": "bool",
          "name": "approved",
          "type": "bool"
        }
      ],
      "name": "ApprovalForAll",
      "type": "event"
    },
    {
      "anonymous": false,
      "inputs": [
        {
          "indexed": true,
          "internalType": "bytes32",
          "name": "role",
          "type": "bytes32"
        },
        {
          "indexed": true,
          "internalType": "bytes32",
          "name": "previousAdminRole",
          "type": "bytes32"
        },
        {
          "indexed": true,
          "internalType": "bytes32",
          "name": "newAdminRole",
          "type": "bytes32"
        }
      ],
      "name": "RoleAdminChanged",
      "type": "event"
    },
    {
      "anonymous": false,
      "inputs": [
        {
          "indexed": true,
          "internalType": "bytes32",
          "name": "role",
          "type": "bytes32"
        },
        {
          "indexed": true,
          "internalType": "address",
          "name": "account",
          "type": "address"
        },
        {
          "indexed": true,
          "internalType": "address",
          "name": "sender",
          "type": "address"
        }
      ],
      "name": "RoleGranted",
      "type": "event"
    },
    {
      "anonymous": false,
      "inputs": [
        {
          "indexed": true,
          "internalType": "bytes32",
          "name": "role",
          "type": "bytes32"
        },
        {
          "indexed": true,
          "internalType": "address",
          "name": "account",
          "type": "address"
        },
        {
          "indexed": true,
          "internalType": "address",
          "name": "sender",
          "type": "address"
        }
      ],
      "name": "RoleRevoked",
      "type": "event"
    },
    {
      "anonymous": false,
      "inputs": [
        {
          "indexed": true,
          "internalType": "address",
          "name": "operator",
          "type": "address"
        },
        {
          "indexed": true,
          "internalType": "address",
          "name": "from",
          "type": "address"
        },
        {
          "indexed": true,
          "internalType": "address",
          "name": "to",
          "type": "address"
        },
        {
          "indexed": false,
          "internalType": "uint256[]",
          "name": "ids",
          "type": "uint256[]"
        },
        {
          "indexed": false,
          "internalType": "uint256[]",
          "name": "values",
          "type": "uint256[]"
        }
      ],
      "name": "TransferBatch",
      "type": "event"
    },
    {
      "anonymous": false,
      "inputs": [
        {
          "indexed": true,
          "internalType": "address",
          "name": "operator",
          "type": "address"
        },
        {
          "indexed": true,
          "internalType": "address",
          "name": "from",
          "type": "address"
        },
        {
          "indexed": true,
          "internalType": "address",
          "name": "to",
          "type": "address"
        },
        {
          "indexed": false,
          "internalType": "uint256",
          "name": "id",
          "type": "uint256"
        },
        {
          "indexed": false,
          "internalType": "uint256",
          "name": "value",
          "type": "uint256"
        }
      ],
      "name": "TransferSingle",
      "type": "event"
    },
    {
      "anonymous": false,
      "inputs": [
        {
          "indexed": false,
          "internalType": "string",
          "name": "value",
          "type": "string"
        },
        {
          "indexed": true,
          "internalType": "uint256",
          "name": "id",
          "type": "uint256"
        }
      ],
      "name": "URI",
      "type": "event"
    },
    {
      "inputs": [],
      "name": "DEFAULT_ADMIN_ROLE",
      "outputs": [
        {
          "internalType": "bytes32",
          "name": "",
          "type": "bytes32"
        }
      ],
      "stateMutability": "view",
      "type": "function"
    },
    {
      "inputs": [
        {
          "internalType": "address",
          "name": "account",
          "type": "address"
        },
        {
          "internalType": "uint256",
          "name": "id",
          "type": "uint256"
        }
      ],
      "name": "balanceOf",
      "outputs": [
        {
          "internalType": "uint256",
          "name": "",
          "type": "uint256"
        }
      ],
      "stateMutability": "view",
      "type": "function"
    },
    {
      "inputs": [
        {
          "internalType": "address[]",
          "name": "accounts",
          "type": "address[]"
        },
        {
          "internalType": "uint256[]",
          "name": "ids",
          "type": "uint256[]"
        }
      ],
      "name": "balanceOfBatch",
      "outputs": [
        {
          "internalType": "uint256[]",
          "name": "",
          "type": "uint256[]"
        }
      ],
      "stateMutability": "view",
      "type": "function"
    },
    {
      "inputs": [
        {
          "internalType": "uint256",
          "name": "id",
          "type": "uint256"
        },
        {
          "internalType": "uint256",
          "name": "amount",
          "type": "uint256"
        }
      ],
      "name": "burn",
      "outputs": [],
      "stateMutability": "nonpayable",
      "type": "function"
    },
    {
      "inputs": [
        {
          "internalType": "uint256[]",
          "name": "ids",
          "type": "uint256[]"
        },
        {
          "internalType": "uint256[]",
          "name": "amounts",
          "type": "uint256[]"
        }
      ],
      "name": "burnBatch",
      "outputs": [],
      "stateMutability": "nonpayable",
      "type": "function"
    },
    {
      "inputs": [
        {
          "internalType": "bytes32",
          "name": "role",
          "type": "bytes32"
        }
      ],
      "name": "getRoleAdmin",
      "outputs": [
        {
          "internalType": "bytes32",
          "name": "",
          "type": "bytes32"
        }
      ],
      "stateMutability": "view",
      "type": "function"
    },
    {
      "inputs": [
        {
          "internalType": "bytes32",
          "name": "role",
          "type": "bytes32"
        },
        {
          "internalType": "address",
          "name": "account",
          "type": "address"
        }
      ],
      "name": "grantRole",
      "outputs": [],
      "stateMutability": "nonpayable",
      "type": "function"
    },
    {
      "inputs": [
        {
          "internalType": "bytes32",
          "name": "role",
          "type": "bytes32"
        },
        {
          "internalType": "address",
          "name": "account",
          "type": "address"
        }
      ],
      "name": "hasRole",
      "outputs": [
        {
          "internalType": "bool",
          "name": "",
          "type": "bool"
        }
      ],
      "stateMutability": "view",
      "type": "function"
    },
    {
      "inputs": [
        {
          "internalType": "address",
          "name": "account",
          "type": "address"
        },
        {
          "internalType": "address",
          "name": "operator",
          "type": "address"
        }
      ],
      "name": "isApprovedForAll",
      "outputs": [
        {
          "internalType": "bool",
          "name": "",
          "type": "bool"
        }
      ],
      "stateMutability": "view",
      "type": "function"
    },
    {
      "inputs": [
        {
          "internalType": "address",
          "name": "to",
          "type": "address"
        },
        {
          "internalType": "uint256",
          "name": "id",
          "type": "uint256"
        },
        {
          "internalType": "uint256",
          "name": "amount",
          "type": "uint256"
        },
        {
          "internalType": "bytes",
          "name": "data",
          "type": "bytes"
        },
        {
          "internalType": "bytes[2]",
          "name": "sigData",
          "type": "bytes[2]"
        }
      ],
      "name": "mint",
      "outputs": [],
      "stateMutability": "nonpayable",
      "type": "function"
    },
    {
      "inputs": [
        {
          "internalType": "address",
          "name": "to",
          "type": "address"
        },
        {
          "internalType": "uint256[]",
          "name": "ids",
          "type": "uint256[]"
        },
        {
          "internalType": "uint256[]",
          "name": "amounts",
          "type": "uint256[]"
        },
        {
          "internalType": "bytes",
          "name": "data",
          "type": "bytes"
        }
      ],
      "name": "mintBatch",
      "outputs": [],
      "stateMutability": "nonpayable",
      "type": "function"
    },
    {
      "inputs": [
        {
          "internalType": "address",
          "name": "addr",
          "type": "address"
        },
        {
          "internalType": "bytes",
          "name": "salt",
          "type": "bytes"
        }
      ],
      "name": "opHash",
      "outputs": [
        {
          "internalType": "bytes32",
          "name": "",
          "type": "bytes32"
        }
      ],
      "stateMutability": "pure",
      "type": "function"
    },
    {
      "inputs": [
        {
          "internalType": "bytes32",
          "name": "role",
          "type": "bytes32"
        },
        {
          "internalType": "address",
          "name": "callerConfirmation",
          "type": "address"
        }
      ],
      "name": "renounceRole",
      "outputs": [],
      "stateMutability": "nonpayable",
      "type": "function"
    },
    {
      "inputs": [
        {
          "internalType": "bytes32",
          "name": "role",
          "type": "bytes32"
        },
        {
          "internalType": "address",
          "name": "account",
          "type": "address"
        }
      ],
      "name": "revokeRole",
      "outputs": [],
      "stateMutability": "nonpayable",
      "type": "function"
    },
    {
      "inputs": [
        {
          "internalType": "address",
          "name": "from",
          "type": "address"
        },
        {
          "internalType": "address",
          "name": "to",
          "type": "address"
        },
        {
          "internalType": "uint256[]",
          "name": "ids",
          "type": "uint256[]"
        },
        {
          "internalType": "uint256[]",
          "name": "values",
          "type": "uint256[]"
        },
        {
          "internalType": "bytes",
          "name": "data",
          "type": "bytes"
        }
      ],
      "name": "safeBatchTransferFrom",
      "outputs": [],
      "stateMutability": "nonpayable",
      "type": "function"
    },
    {
      "inputs": [
        {
          "internalType": "address",
          "name": "from",
          "type": "address"
        },
        {
          "internalType": "address",
          "name": "to",
          "type": "address"
        },
        {
          "internalType": "uint256",
          "name": "id",
          "type": "uint256"
        },
        {
          "internalType": "uint256",
          "name": "value",
          "type": "uint256"
        },
        {
          "internalType": "bytes",
          "name": "data",
          "type": "bytes"
        }
      ],
      "name": "safeTransferFrom",
      "outputs": [],
      "stateMutability": "nonpayable",
      "type": "function"
    },
    {
      "inputs": [
        {
          "internalType": "address",
          "name": "operator",
          "type": "address"
        },
        {
          "internalType": "bool",
          "name": "approved",
          "type": "bool"
        }
      ],
      "name": "setApprovalForAll",
      "outputs": [],
      "stateMutability": "nonpayable",
      "type": "function"
    },
    {
      "inputs": [
        {
          "internalType": "bytes4",
          "name": "interfaceId",
          "type": "bytes4"
        }
      ],
      "name": "supportsInterface",
      "outputs": [
        {
          "internalType": "bool",
          "name": "",
          "type": "bool"
        }
      ],
      "stateMutability": "view",
      "type": "function"
    },
    {
      "inputs": [
        {
          "internalType": "uint256",
          "name": "",
          "type": "uint256"
        }
      ],
      "name": "uri",
      "outputs": [
        {
          "internalType": "string",
          "name": "",
          "type": "string"
        }
      ],
      "stateMutability": "view",
      "type": "function"
    },
    {
      "inputs": [],
      "name": "withdrawFunds",
      "outputs": [],
      "stateMutability": "nonpayable",
      "type": "function"
    },
    {
      "inputs": [
        {
          "internalType": "address",
          "name": "_tokenAddr",
          "type": "address"
        },
        {
          "internalType": "uint256",
          "name": "_amount",
          "type": "uint256"
        }
      ],
      "name": "withdrawTokens",
      "outputs": [],
      "stateMutability": "nonpayable",
      "type": "function"
    }
  ],
  "bytecode": "0x6080346100dd5760208101906001600160401b038211818310176100c9575f9160405252600254600181811c911680156100bf575b60208210146100ab57601f8111610063575b5f600255610053336100e1565b50604051611aff908161016b8239f35b60025f52601f0160051c7f405787fa12a823e0f2b7631cc41b3ba8828b3321ca811111fa75cd3aa3bb5ace908101905b8181106100a05750610046565b5f8155600101610093565b634e487b7160e01b5f52602260045260245ffd5b90607f1690610034565b634e487b7160e01b5f52604160045260245ffd5b5f80fd5b6001600160a01b0381165f9081525f80516020611c6a833981519152602052604090205460ff16610165576001600160a01b03165f8181525f80516020611c6a83398151915260205260408120805460ff191660011790553391907f2f8788117e7eff1d82e926ec794901d17c78024a50270940304540a733656f0d8180a4600190565b505f9056fe60806040526004361015610011575f80fd5b5f3560e01c8062fdd58e1461016357806301ffc9a71461015e57806306b091f9146101595780630e89341c146101545780631f7fdffa1461014f57806324600fc31461014a578063248a9ca3146101455780632eb2c2d6146101405780632f2ff15d1461013b57806336568abe146101365780633bcec13d146101315780634e1273f41461012c57806383ca4b6f1461012757806391d1485414610122578063a217fddf1461011d578063a22cb46514610118578063b390c0ab14610113578063cf55fea71461010e578063d547741f14610109578063e985e9c5146101045763f242432a146100ff575f80fd5b610cb3565b610c63565b610c25565b610be1565b610b8a565b610ae1565b610abd565b610a6e565b6109d1565b610912565b610865565b610821565b6107de565b610754565b6105fd565b6105c5565b6104b3565b610362565b61028f565b610206565b6101ac565b600435906001600160a01b038216820361017e57565b5f80fd5b602435906001600160a01b038216820361017e57565b35906001600160a01b038216820361017e57565b3461017e57604036600319011261017e5760206101eb6101ca610168565b6024355f525f835260405f209060018060a01b03165f5260205260405f2090565b54604051908152f35b6001600160e01b031981160361017e57565b3461017e57602036600319011261017e57600435610223816101f4565b63ffffffff60e01b16637965db0b60e01b811490811561024c575b506040519015158152602090f35b636cdb3d1360e11b81149150811561027e575b811561026d575b505f61023e565b6301ffc9a760e01b1490505f610266565b6303a24d0760e21b8114915061025f565b3461017e57604036600319011261017e575f60206102ab610168565b60446024356102b8610fef565b60405163a9059cbb60e01b815233600482015260248101919091529384928391906001600160a01b03165af18015610325576102f057005b6020813d60201161031d575b8161030960209383610644565b8101031261017e5761031b9051610ad7565b005b3d91506102fc565b610d94565b805180835260209291819084018484015e5f828201840152601f01601f1916010190565b90602061035f92818152019061032a565b90565b3461017e57602036600319011261017e576040515f6002548060011c906001811690811561044c575b60208310821461043857828552602085019190811561041f57506001146103cd575b6103c9846103bd81860382610644565b6040519182918261034e565b0390f35b60025f9081529250907f405787fa12a823e0f2b7631cc41b3ba8828b3321ca811111fa75cd3aa3bb5ace5b81841061040b575050016103bd826103ad565b8054848401526020909301926001016103f8565b60ff191682525090151560051b0190506103bd826103ad565b634e487b7160e01b5f52602260045260245ffd5b91607f169161038b565b9181601f8401121561017e578235916001600160401b03831161017e576020808501948460051b01011161017e57565b9181601f8401121561017e578235916001600160401b03831161017e576020838186019501011161017e57565b3461017e57608036600319011261017e576104cc610168565b6024356001600160401b03811161017e576104eb903690600401610456565b906044356001600160401b03811161017e5761050b903690600401610456565b929091606435916001600160401b03831161017e5761057d9361058961055093610591936105828a610544610599993690600401610486565b9a81998c838195610fa6565b7f19457468657265756d205369676e6564204d6573736167653a0a3332000000005f52601c52603c5f2090565b611078565b3691610681565b953691610681565b923691610703565b916001600160a01b038416156105b25761031b936113ac565b632bfa23e760e11b5f525f60045260245ffd5b3461017e575f36600319011261017e576105dd610fef565b5f808080478181156105f4575b3390f11561032557005b506108fc6105ea565b3461017e57602036600319011261017e5760206106286004355f526003602052600160405f20015490565b604051908152f35b634e487b7160e01b5f52604160045260245ffd5b90601f801991011681019081106001600160401b0382111761066557604052565b610630565b6001600160401b0381116106655760051b60200190565b92919061068d8161066a565b9361069b6040519586610644565b602085838152019160051b810192831161017e57905b8282106106bd57505050565b81358152602091820191016106b1565b9080601f8301121561017e5781602061035f93359101610681565b6001600160401b03811161066557601f01601f191660200190565b92919261070f826106e8565b9161071d6040519384610644565b82948184528183011161017e578281602093845f960137010152565b9080601f8301121561017e5781602061035f93359101610703565b3461017e5760a036600319011261017e5761076d610168565b610775610182565b906044356001600160401b03811161017e576107959036906004016106cd565b6064356001600160401b03811161017e576107b49036906004016106cd565b90608435936001600160401b03851161017e576107d861031b953690600401610739565b93610d9f565b3461017e57604036600319011261017e5761031b6004356107fd610182565b9061081c610817825f526003602052600160405f20015490565b61103e565b61111a565b3461017e57604036600319011261017e5760043561083d610182565b336001600160a01b038216036108565761031b916111aa565b63334bd91960e11b5f5260045ffd5b3461017e5760a036600319011261017e5761087e610168565b602435906044356064356001600160401b03811161017e576108a4903690600401610486565b91608435946001600160401b03861161017e5736604487011161017e5761031b9560040194610dfd565b90602080835192838152019201905f5b8181106108eb5750505090565b82518452602093840193909201916001016108de565b90602061035f9281815201906108ce565b3461017e57604036600319011261017e576004356001600160401b03811161017e573660238201121561017e5780600401359061094e8261066a565b9161095c6040519384610644565b8083526024602084019160051b8301019136831161017e57602401905b8282106109b957836024356001600160401b03811161017e576103c9916109a76109ad9236906004016106cd565b90610ef2565b60405191829182610901565b602080916109c684610198565b815201910190610979565b3461017e57604036600319011261017e576004356001600160401b03811161017e57610a01903690600401610456565b602435906001600160401b03821161017e57610a31610a27610a39933690600401610456565b9490923691610681565b923691610681565b903315610a5c5761031b9160405191610a53602084610644565b5f835233611232565b626a0d4560e21b5f525f60045260245ffd5b3461017e57604036600319011261017e57602060ff610ab1600435610a91610182565b905f526003845260405f209060018060a01b03165f5260205260405f2090565b54166040519015158152f35b3461017e575f36600319011261017e5760206040515f8152f35b8015150361017e57565b3461017e57604036600319011261017e57610afa610168565b602435610b0681610ad7565b6001600160a01b038216918215610b7857335f9081526001602090815260408083206001600160a01b0390941683529290522060ff1981541660ff8315151617905560405190151581527f17307eab39ab6107e8899845ad3d59bd9653f200f220920489ca2b5937696c3160203392a3005b62ced3e160e81b5f525f60045260245ffd5b3461017e57604036600319011261017e576024356004353315610a5c5761031b91610bd260405192600184526020840152604083019160018352606084015260808301604052565b60405191610a53602084610644565b3461017e57604036600319011261017e57610bfa610168565b6024356001600160401b03811161017e57602091610c1f610628923690600401610486565b91610fa6565b3461017e57604036600319011261017e5761031b600435610c44610182565b90610c5e610817825f526003602052600160405f20015490565b6111aa565b3461017e57604036600319011261017e57602060ff610ab1610c83610168565b610c8b610182565b6001600160a01b039182165f9081526001865260408082209290931681526020919091522090565b3461017e5760a036600319011261017e57610ccc610168565b610cd4610182565b60443590606435926084356001600160401b03811161017e57610cfb903690600401610739565b926001600160a01b0382163381141580610d71575b610d5b576001600160a01b038416156105b25715610a5c5761031b94610d5360405192600184526020840152604083019160018352606084015260808301604052565b9290916114f3565b63711bec9160e11b5f523360045260245260445ffd5b505f81815260016020908152604080832033845290915290205460ff1615610d10565b6040513d5f823e3d90fd5b939291906001600160a01b0385163381141580610dda575b610d5b576001600160a01b038216156105b25715610a5c57610dd8946114f3565b565b505f81815260016020908152604080832033845290915290205460ff1615610db7565b9290939491948235601e198436030181121561017e5783018035906001600160401b03821161017e57602001813603811361017e57610e40916105509187610fa6565b92602081013590601e198136030182121561017e5701928335936001600160401b03851161017e5760200193803603851361017e57610e8994610e8292611078565b3691610703565b916001600160a01b038216156105b257610dd893610ec460405192600184526020840152604083019160018352606084015260808301604052565b916113ac565b8051821015610ede5760209160051b010190565b634e487b7160e01b5f52603260045260245ffd5b91909180518351808203610f91575050805190610f0e8261066a565b91610f1c6040519384610644565b808352610f2b601f199161066a565b013660208401375f5b8151811015610f8a5780610f7960019260051b60208082870101519189010151905f918252602082815260408084206001600160a01b03909316845291905290205490565b610f838286610eca565b5201610f34565b5090925050565b635b05999160e01b5f5260045260245260445ffd5b91906034610fe9918360405194859260208401976bffffffffffffffffffffffff199060601b1688528484013781015f838201520301601f198101835282610644565b51902090565b335f9081527f3617319a054d772f909f7c479a2cebe5066e836a939412e32403c99029b92eff602052604090205460ff161561102757565b63e2517d3f60e01b5f52336004525f60245260445ffd5b5f81815260036020908152604080832033845290915290205460ff16156110625750565b63e2517d3f60e01b5f523360045260245260445ffd5b6110b86110af6110f0926110a960ff95610e82976110a061109a368385610703565b856116c9565b909a919a611721565b906116c9565b90929192611721565b6001600160a01b03165f9081527f3617319a054d772f909f7c479a2cebe5066e836a939412e32403c99029b92eff6020526040902090565b5416156110fa5750565b63ee4abeb760e01b5f9081526001600160a01b0391909116600452602490fd5b5f8181526003602090815260408083206001600160a01b038616845290915290205460ff166111a4575f8181526003602090815260408083206001600160a01b03861684529091529020805460ff1916600117905533916001600160a01b0316907f2f8788117e7eff1d82e926ec794901d17c78024a50270940304540a733656f0d5f80a4600190565b50505f90565b5f8181526003602090815260408083206001600160a01b038616845290915290205460ff16156111a4575f8181526003602090815260408083206001600160a01b03861684529091529020805460ff1916905533916001600160a01b0316907ff6391f5c32d9c69d2a47ea670b442974b53935d1edc7fd64eb21e047a839171b5f80a4600190565b90925082518251908181036113975750506001600160a01b038116801515949093905f5b825181101561130e578060051b876020808387010151928801015190611281575b5050600101611256565b6112ab86611296845f525f60205260405f2090565b9060018060a01b03165f5260205260405f2090565b548181106112d7578661129660019594936112cf9303935f525f60205260405f2090565b55905f611277565b6040516303dee4c560e01b81526001600160a01b038816600482015260248101919091526044810182905260648101839052608490fd5b5094505f93929150600181511484146113645760209081015191810151604080519384529183015233917fc3d58168c5ae7397731d063d5bbf3d657854427343f4c083240f7aacaa2d0f6291819081015b0390a4565b60405133927f4a39dc06d4c0dbc64b70af90fd698a233a518aa5d07e595d983b8c0526c8f7fb92829161135f91836117be565b635b05999160e01b5f5260045260245260445ffd5b9392919080518251908181036113975750506001600160a01b03851693841515935f5b83518110156114275780868960019360051b602080828a010151918a010151926113fd575b505050016113cf565b61141d91611296611415925f525f60205260405f2090565b91825461179d565b90555f89816113f4565b509390959460018351145f146114b8576020838101518582015160408051928352928201525f9133917fc3d58168c5ae7397731d063d5bbf3d657854427343f4c083240f7aacaa2d0f629190a45b611480575b50505050565b80516001036114a8579060208061149f95930151910151915f336119a9565b5f80808061147a565b6114b3935f3361187a565b61149f565b5f6040517f4a39dc06d4c0dbc64b70af90fd698a233a518aa5d07e595d983b8c0526c8f7fb3391806114eb8989836117be565b0390a4611475565b94939290919384518251908181036113975750506001600160a01b038681169586151595918516801515939192905f5b84518110156115fc578060051b90898988602080868b010151958c0101519261157b575b93600194611559575b50505001611523565b61157191611296611415925f525f60205260405f2090565b90555f8981611550565b505090916115948d611296835f525f60205260405f2090565b548281106115c5578291898f6115bc600197968f950391611296855f525f60205260405f2090565b55909450611547565b6040516303dee4c560e01b81526001600160a01b038f16600482015260248101919091526044810183905260648101829052608490fd5b5091989593929790965060018851145f1461168f5760208881015186820151604080519283529282015233917fc3d58168c5ae7397731d063d5bbf3d657854427343f4c083240f7aacaa2d0f6291a45b611658575b5050505050565b845160010361167e5760208061167496015192015192336119a9565b5f80808080611651565b61168a9491923361187a565b611674565b6040517f4a39dc06d4c0dbc64b70af90fd698a233a518aa5d07e595d983b8c0526c8f7fb3391806116c1898d836117be565b0390a461164c565b81519190604183036116f9576116f29250602082015190606060408401519301515f1a90611a47565b9192909190565b50505f9160029190565b6004111561170d57565b634e487b7160e01b5f52602160045260245ffd5b61172a81611703565b80611733575050565b61173c81611703565b600181036117535763f645eedf60e01b5f5260045ffd5b61175c81611703565b60028103611777575063fce698f760e01b5f5260045260245ffd5b80611783600392611703565b1461178b5750565b6335e2f38360e21b5f5260045260245ffd5b919082018092116117aa57565b634e487b7160e01b5f52601160045260245ffd5b90916117d561035f936040845260408401906108ce565b9160208184039101526108ce565b9081602091031261017e575161035f816101f4565b6001600160a01b0391821681529116602082015260a06040820181905261035f949193919261183d929161182f91908601906108ce565b9084820360608601526108ce565b91608081840391015261032a565b3d15611875573d9061185c826106e8565b9161186a6040519384610644565b82523d5f602084013e565b606090565b9091949293853b61188e575b505050505050565b6020936118b091604051968795869563bc197c8160e01b8752600487016117f8565b03815f6001600160a01b0387165af15f918161193f575b5061190157506118d561184b565b80519190826118fa57632bfa23e760e11b5f526001600160a01b03821660045260245ffd5b9050602001fd5b6001600160e01b0319166343e6837f60e01b0161192457505f8080808080611886565b632bfa23e760e11b5f526001600160a01b031660045260245ffd5b61196291925060203d602011611969575b61195a8183610644565b8101906117e3565b905f6118c7565b503d611950565b6001600160a01b039182168152911660208201526040810191909152606081019190915260a06080820181905261035f9291019061032a565b9091949293853b6119bc57505050505050565b6020936119de91604051968795869563f23a6e6160e01b875260048701611970565b03815f6001600160a01b0387165af15f9181611a26575b50611a0357506118d561184b565b6001600160e01b031916630dc5919f60e01b0161192457505f8080808080611886565b611a4091925060203d6020116119695761195a8183610644565b905f6119f5565b91907f7fffffffffffffffffffffffffffffff5d576e7357a4501ddfe92f46681b20a08411611abe579160209360809260ff5f9560405194855216868401526040830152606082015282805260015afa15610325575f516001600160a01b03811615611ab457905f905f90565b505f906001905f90565b5050505f916003919056fea2646970667358221220545cb63cee5e3152605fc2396ea80cac211b457c4b3d067ee78013ec2967ad8764736f6c634300081a00333617319a054d772f909f7c479a2cebe5066e836a939412e32403c99029b92eff",
  "linkReferences": {},
  "deployedLinkReferences": {}
}