{
  "contracts/wonderbits/impl/nft/Custodial.sol": {
    "Custodial": {
      "abi": [
        {
          "inputs": [],
          "stateMutability": "nonpayable",
          "type": "constructor"
        },
        {
          "inputs": [],
          "name": "AccessControlBadConfirmation",
          "type": "error"
        },
        {
          "inputs": [
            {
              "internalType": "address",
              "name": "account",
              "type": "address"
            },
            {
              "internalType": "bytes32",
              "name": "neededRole",
              "type": "bytes32"
            }
          ],
          "name": "AccessControlUnauthorizedAccount",
          "type": "error"
        },
        {
          "inputs": [],
          "name": "AlreadyInCustody",
          "type": "error"
        },
        {
          "inputs": [
            {
              "internalType": "address",
              "name": "recovered",
              "type": "address"
            }
          ],
          "name": "InvalidAdminSignature",
          "type": "error"
        },
        {
          "inputs": [],
          "name": "NotTokenOwner",
          "type": "error"
        },
        {
          "anonymous": false,
          "inputs": [
            {
              "indexed": true,
              "internalType": "bytes32",
              "name": "role",
              "type": "bytes32"
            },
            {
              "indexed": true,
              "internalType": "bytes32",
              "name": "previousAdminRole",
              "type": "bytes32"
            },
            {
              "indexed": true,
              "internalType": "bytes32",
              "name": "newAdminRole",
              "type": "bytes32"
            }
          ],
          "name": "RoleAdminChanged",
          "type": "event"
        },
        {
          "anonymous": false,
          "inputs": [
            {
              "indexed": true,
              "internalType": "bytes32",
              "name": "role",
              "type": "bytes32"
            },
            {
              "indexed": true,
              "internalType": "address",
              "name": "account",
              "type": "address"
            },
            {
              "indexed": true,
              "internalType": "address",
              "name": "sender",
              "type": "address"
            }
          ],
          "name": "RoleGranted",
          "type": "event"
        },
        {
          "anonymous": false,
          "inputs": [
            {
              "indexed": true,
              "internalType": "bytes32",
              "name": "role",
              "type": "bytes32"
            },
            {
              "indexed": true,
              "internalType": "address",
              "name": "account",
              "type": "address"
            },
            {
              "indexed": true,
              "internalType": "address",
              "name": "sender",
              "type": "address"
            }
          ],
          "name": "RoleRevoked",
          "type": "event"
        },
        {
          "inputs": [],
          "name": "DEFAULT_ADMIN_ROLE",
          "outputs": [
            {
              "internalType": "bytes32",
              "name": "",
              "type": "bytes32"
            }
          ],
          "stateMutability": "view",
          "type": "function"
        },
        {
          "inputs": [
            {
              "internalType": "bytes32",
              "name": "role",
              "type": "bytes32"
            }
          ],
          "name": "getRoleAdmin",
          "outputs": [
            {
              "internalType": "bytes32",
              "name": "",
              "type": "bytes32"
            }
          ],
          "stateMutability": "view",
          "type": "function"
        },
        {
          "inputs": [
            {
              "internalType": "bytes32",
              "name": "role",
              "type": "bytes32"
            },
            {
              "internalType": "address",
              "name": "account",
              "type": "address"
            }
          ],
          "name": "grantRole",
          "outputs": [],
          "stateMutability": "nonpayable",
          "type": "function"
        },
        {
          "inputs": [
            {
              "internalType": "bytes32",
              "name": "role",
              "type": "bytes32"
            },
            {
              "internalType": "address",
              "name": "account",
              "type": "address"
            }
          ],
          "name": "hasRole",
          "outputs": [
            {
              "internalType": "bool",
              "name": "",
              "type": "bool"
            }
          ],
          "stateMutability": "view",
          "type": "function"
        },
        {
          "inputs": [
            {
              "internalType": "address",
              "name": "addr",
              "type": "address"
            },
            {
              "internalType": "bytes",
              "name": "salt",
              "type": "bytes"
            }
          ],
          "name": "opHash",
          "outputs": [
            {
              "internalType": "bytes32",
              "name": "",
              "type": "bytes32"
            }
          ],
          "stateMutability": "pure",
          "type": "function"
        },
        {
          "inputs": [
            {
              "internalType": "address",
              "name": "nftContract",
              "type": "address"
            },
            {
              "internalType": "address",
              "name": "owner",
              "type": "address"
            },
            {
              "internalType": "uint256",
              "name": "tokenId",
              "type": "uint256"
            }
          ],
          "name": "releaseFromCustody",
          "outputs": [],
          "stateMutability": "nonpayable",
          "type": "function"
        },
        {
          "inputs": [
            {
              "internalType": "bytes32",
              "name": "role",
              "type": "bytes32"
            },
            {
              "internalType": "address",
              "name": "callerConfirmation",
              "type": "address"
            }
          ],
          "name": "renounceRole",
          "outputs": [],
          "stateMutability": "nonpayable",
          "type": "function"
        },
        {
          "inputs": [
            {
              "internalType": "bytes32",
              "name": "role",
              "type": "bytes32"
            },
            {
              "internalType": "address",
              "name": "account",
              "type": "address"
            }
          ],
          "name": "revokeRole",
          "outputs": [],
          "stateMutability": "nonpayable",
          "type": "function"
        },
        {
          "inputs": [
            {
              "internalType": "address",
              "name": "nftContract",
              "type": "address"
            },
            {
              "internalType": "address",
              "name": "owner",
              "type": "address"
            },
            {
              "internalType": "uint256",
              "name": "tokenId",
              "type": "uint256"
            }
          ],
          "name": "storeInCustody",
          "outputs": [],
          "stateMutability": "nonpayable",
          "type": "function"
        },
        {
          "inputs": [
            {
              "internalType": "bytes4",
              "name": "interfaceId",
              "type": "bytes4"
            }
          ],
          "name": "supportsInterface",
          "outputs": [
            {
              "internalType": "bool",
              "name": "",
              "type": "bool"
            }
          ],
          "stateMutability": "view",
          "type": "function"
        },
        {
          "inputs": [],
          "name": "withdrawFunds",
          "outputs": [],
          "stateMutability": "nonpayable",
          "type": "function"
        },
        {
          "inputs": [
            {
              "internalType": "address",
              "name": "_tokenAddr",
              "type": "address"
            },
            {
              "internalType": "uint256",
              "name": "_amount",
              "type": "uint256"
            }
          ],
          "name": "withdrawTokens",
          "outputs": [],
          "stateMutability": "nonpayable",
          "type": "function"
        }
      ],
      "evm": {
        "bytecode": {
          "linkReferences": {},
          "object": "608060405234601f57600f336023565b5060405161096690816100ac8239f35b5f80fd5b6001600160a01b0381165f9081525f80516020610a12833981519152602052604090205460ff1660a6576001600160a01b03165f8181525f80516020610a1283398151915260205260408120805460ff191660011790553391907f2f8788117e7eff1d82e926ec794901d17c78024a50270940304540a733656f0d8180a4600190565b505f9056fe60806040526004361015610011575f80fd5b5f3560e01c806301ffc9a7146100d457806306b091f9146100cf57806324600fc3146100ca578063248a9ca3146100c55780632f2ff15d146100c057806336568abe146100bb5780633c34dac7146100b657806390fb03b8146100b157806391d14854146100ac578063a217fddf146100a7578063cf55fea7146100a25763d547741f1461009d575f80fd5b6106b7565b610638565b61061e565b6105cd565b610437565b61030c565b610298565b610251565b61021f565b6101e7565b61013f565b3461012a57602036600319011261012a5760043563ffffffff60e01b811680910361012a57602090637965db0b60e01b8114908115610119575b506040519015158152f35b6301ffc9a760e01b1490505f61010e565b5f80fd5b6001600160a01b0381160361012a57565b3461012a57604036600319011261012a575f602060043561015f8161012e565b604460243561016c610799565b60405163a9059cbb60e01b815233600482015260248101919091529384928391906001600160a01b03165af180156101d8576101a457005b6020813d6020116101d0575b816101bd602093836106f7565b8101031261012a57518015150361012a57005b3d91506101b0565b61072d565b5f91031261012a57565b3461012a575f36600319011261012a576101ff610799565b5f80808047818115610216575b3390f1156101d857005b506108fc61020c565b3461012a57602036600319011261012a5760206102496004355f525f602052600160405f20015490565b604051908152f35b3461012a57604036600319011261012a576102966024356004356102748261012e565b61029161028c825f525f602052600160405f20015490565b6107e8565b610820565b005b3461012a57604036600319011261012a576004356024356102b88161012e565b336001600160a01b038216036102d157610296916108ac565b63334bd91960e11b5f5260045ffd5b606090600319011261012a576004356102f88161012e565b906024356103058161012e565b9060443590565b3461012a5761031a366102e0565b6001600160a01b0383165f8181526001602052604090209193929161035a9061034d9086905b905f5260205260405f2090565b546001600160a01b031690565b6001600160a01b0383811691160361042857803b1561012a57604051632142170760e11b81523060048201526001600160a01b03929092166024830152604482018490525f908290606490829084905af180156101d85761040e575b506103e86103d8836103408460018060a01b03165f52600160205260405f2090565b80546001600160a01b0319169055565b7f1c3a1e6d4f3180e7e5a46ab42caa172b4ab19cbda48b04f684980baada4517955f80a3005b8061041c5f610422936106f7565b806101dd565b5f6103b6565b6359dc379f60e01b5f5260045ffd5b3461012a57610445366102e0565b919061044f610799565b6040516331a9108f60e11b8152600481018490526001600160a01b0383169190602081602481865afa9081156101d8575f9161059e575b506001600160a01b03828116911603610428576001600160a01b038381165f9081526001602052604090206104c09061034d908790610340565b1661058f57813b1561012a57604051632142170760e11b81526001600160a01b038216600482015230602482015260448101859052915f908390606490829084905af19182156101d8576105559261057b575b506001600160a01b0383165f908152600160205260409020610536908590610340565b80546001600160a01b0319166001600160a01b03909216919091179055565b7fefa7d6a6635cdaa2cf85582bc1cf2fc9685b673011b85bb03eff384ed8b7c8ba5f80a3005b8061041c5f610589936106f7565b5f610513565b6381416cf960e01b5f5260045ffd5b6105c0915060203d6020116105c6575b6105b881836106f7565b810190610738565b5f610486565b503d6105ae565b3461012a57604036600319011261012a57602060ff6106126024356004356105f48261012e565b5f525f845260405f209060018060a01b03165f5260205260405f2090565b54166040519015158152f35b3461012a575f36600319011261012a5760206040515f8152f35b3461012a57604036600319011261012a576004356106558161012e565b60243567ffffffffffffffff811161012a573660238201121561012a57806004013567ffffffffffffffff811161012a57366024828401011161012a576106b39260246106a3930190610750565b6040519081529081906020820190565b0390f35b3461012a57604036600319011261012a576102966024356004356106da8261012e565b6106f261028c825f525f602052600160405f20015490565b6108ac565b90601f8019910116810190811067ffffffffffffffff82111761071957604052565b634e487b7160e01b5f52604160045260245ffd5b6040513d5f823e3d90fd5b9081602091031261012a575161074d8161012e565b90565b91906034610793918360405194859260208401976bffffffffffffffffffffffff199060601b1688528484013781015f838201520301601f1981018352826106f7565b51902090565b335f9081527fad3228b676f7d3cd4284a5443f17f1962b36e491b30a40b2405849e597ba5fb5602052604090205460ff16156107d157565b63e2517d3f60e01b5f52336004525f60245260445ffd5b5f8181526020818152604080832033845290915290205460ff161561080a5750565b63e2517d3f60e01b5f523360045260245260445ffd5b5f818152602081815260408083206001600160a01b038616845290915290205460ff166108a6575f818152602081815260408083206001600160a01b03861684529091529020805460ff1916600117905533916001600160a01b0316907f2f8788117e7eff1d82e926ec794901d17c78024a50270940304540a733656f0d5f80a4600190565b50505f90565b5f818152602081815260408083206001600160a01b038616845290915290205460ff16156108a6575f818152602081815260408083206001600160a01b03861684529091529020805460ff1916905533916001600160a01b0316907ff6391f5c32d9c69d2a47ea670b442974b53935d1edc7fd64eb21e047a839171b5f80a460019056fea26469706673582212201058ef35a8d0adb3782c11cde4e6aeb872f5bbeca2582d30d8fa4f946a2765f464736f6c634300081a0033ad3228b676f7d3cd4284a5443f17f1962b36e491b30a40b2405849e597ba5fb5",
          "opcodes": "PUSH1 0x80 PUSH1 0x40 MSTORE CALLVALUE PUSH1 0x1F JUMPI PUSH1 0xF CALLER PUSH1 0x23 JUMP JUMPDEST POP PUSH1 0x40 MLOAD PUSH2 0x966 SWAP1 DUP2 PUSH2 0xAC DUP3 CODECOPY RETURN JUMPDEST PUSH0 DUP1 REVERT JUMPDEST PUSH1 0x1 PUSH1 0x1 PUSH1 0xA0 SHL SUB DUP2 AND PUSH0 SWAP1 DUP2 MSTORE PUSH0 DUP1 MLOAD PUSH1 0x20 PUSH2 0xA12 DUP4 CODECOPY DUP2 MLOAD SWAP2 MSTORE PUSH1 0x20 MSTORE PUSH1 0x40 SWAP1 KECCAK256 SLOAD PUSH1 0xFF AND PUSH1 0xA6 JUMPI PUSH1 0x1 PUSH1 0x1 PUSH1 0xA0 SHL SUB AND PUSH0 DUP2 DUP2 MSTORE PUSH0 DUP1 MLOAD PUSH1 0x20 PUSH2 0xA12 DUP4 CODECOPY DUP2 MLOAD SWAP2 MSTORE PUSH1 0x20 MSTORE PUSH1 0x40 DUP2 KECCAK256 DUP1 SLOAD PUSH1 0xFF NOT AND PUSH1 0x1 OR SWAP1 SSTORE CALLER SWAP2 SWAP1 PUSH32 0x2F8788117E7EFF1D82E926EC794901D17C78024A50270940304540A733656F0D DUP2 DUP1 LOG4 PUSH1 0x1 SWAP1 JUMP JUMPDEST POP PUSH0 SWAP1 JUMP INVALID PUSH1 0x80 PUSH1 0x40 MSTORE PUSH1 0x4 CALLDATASIZE LT ISZERO PUSH2 0x11 JUMPI PUSH0 DUP1 REVERT JUMPDEST PUSH0 CALLDATALOAD PUSH1 0xE0 SHR DUP1 PUSH4 0x1FFC9A7 EQ PUSH2 0xD4 JUMPI DUP1 PUSH4 0x6B091F9 EQ PUSH2 0xCF JUMPI DUP1 PUSH4 0x24600FC3 EQ PUSH2 0xCA JUMPI DUP1 PUSH4 0x248A9CA3 EQ PUSH2 0xC5 JUMPI DUP1 PUSH4 0x2F2FF15D EQ PUSH2 0xC0 JUMPI DUP1 PUSH4 0x36568ABE EQ PUSH2 0xBB JUMPI DUP1 PUSH4 0x3C34DAC7 EQ PUSH2 0xB6 JUMPI DUP1 PUSH4 0x90FB03B8 EQ PUSH2 0xB1 JUMPI DUP1 PUSH4 0x91D14854 EQ PUSH2 0xAC JUMPI DUP1 PUSH4 0xA217FDDF EQ PUSH2 0xA7 JUMPI DUP1 PUSH4 0xCF55FEA7 EQ PUSH2 0xA2 JUMPI PUSH4 0xD547741F EQ PUSH2 0x9D JUMPI PUSH0 DUP1 REVERT JUMPDEST PUSH2 0x6B7 JUMP JUMPDEST PUSH2 0x638 JUMP JUMPDEST PUSH2 0x61E JUMP JUMPDEST PUSH2 0x5CD JUMP JUMPDEST PUSH2 0x437 JUMP JUMPDEST PUSH2 0x30C JUMP JUMPDEST PUSH2 0x298 JUMP JUMPDEST PUSH2 0x251 JUMP JUMPDEST PUSH2 0x21F JUMP JUMPDEST PUSH2 0x1E7 JUMP JUMPDEST PUSH2 0x13F JUMP JUMPDEST CALLVALUE PUSH2 0x12A JUMPI PUSH1 0x20 CALLDATASIZE PUSH1 0x3 NOT ADD SLT PUSH2 0x12A JUMPI PUSH1 0x4 CALLDATALOAD PUSH4 0xFFFFFFFF PUSH1 0xE0 SHL DUP2 AND DUP1 SWAP2 SUB PUSH2 0x12A JUMPI PUSH1 0x20 SWAP1 PUSH4 0x7965DB0B PUSH1 0xE0 SHL DUP2 EQ SWAP1 DUP2 ISZERO PUSH2 0x119 JUMPI JUMPDEST POP PUSH1 0x40 MLOAD SWAP1 ISZERO ISZERO DUP2 MSTORE RETURN JUMPDEST PUSH4 0x1FFC9A7 PUSH1 0xE0 SHL EQ SWAP1 POP PUSH0 PUSH2 0x10E JUMP JUMPDEST PUSH0 DUP1 REVERT JUMPDEST PUSH1 0x1 PUSH1 0x1 PUSH1 0xA0 SHL SUB DUP2 AND SUB PUSH2 0x12A JUMPI JUMP JUMPDEST CALLVALUE PUSH2 0x12A JUMPI PUSH1 0x40 CALLDATASIZE PUSH1 0x3 NOT ADD SLT PUSH2 0x12A JUMPI PUSH0 PUSH1 0x20 PUSH1 0x4 CALLDATALOAD PUSH2 0x15F DUP2 PUSH2 0x12E JUMP JUMPDEST PUSH1 0x44 PUSH1 0x24 CALLDATALOAD PUSH2 0x16C PUSH2 0x799 JUMP JUMPDEST PUSH1 0x40 MLOAD PUSH4 0xA9059CBB PUSH1 0xE0 SHL DUP2 MSTORE CALLER PUSH1 0x4 DUP3 ADD MSTORE PUSH1 0x24 DUP2 ADD SWAP2 SWAP1 SWAP2 MSTORE SWAP4 DUP5 SWAP3 DUP4 SWAP2 SWAP1 PUSH1 0x1 PUSH1 0x1 PUSH1 0xA0 SHL SUB AND GAS CALL DUP1 ISZERO PUSH2 0x1D8 JUMPI PUSH2 0x1A4 JUMPI STOP JUMPDEST PUSH1 0x20 DUP2 RETURNDATASIZE PUSH1 0x20 GT PUSH2 0x1D0 JUMPI JUMPDEST DUP2 PUSH2 0x1BD PUSH1 0x20 SWAP4 DUP4 PUSH2 0x6F7 JUMP JUMPDEST DUP2 ADD SUB SLT PUSH2 0x12A JUMPI MLOAD DUP1 ISZERO ISZERO SUB PUSH2 0x12A JUMPI STOP JUMPDEST RETURNDATASIZE SWAP2 POP PUSH2 0x1B0 JUMP JUMPDEST PUSH2 0x72D JUMP JUMPDEST PUSH0 SWAP2 SUB SLT PUSH2 0x12A JUMPI JUMP JUMPDEST CALLVALUE PUSH2 0x12A JUMPI PUSH0 CALLDATASIZE PUSH1 0x3 NOT ADD SLT PUSH2 0x12A JUMPI PUSH2 0x1FF PUSH2 0x799 JUMP JUMPDEST PUSH0 DUP1 DUP1 DUP1 SELFBALANCE DUP2 DUP2 ISZERO PUSH2 0x216 JUMPI JUMPDEST CALLER SWAP1 CALL ISZERO PUSH2 0x1D8 JUMPI STOP JUMPDEST POP PUSH2 0x8FC PUSH2 0x20C JUMP JUMPDEST CALLVALUE PUSH2 0x12A JUMPI PUSH1 0x20 CALLDATASIZE PUSH1 0x3 NOT ADD SLT PUSH2 0x12A JUMPI PUSH1 0x20 PUSH2 0x249 PUSH1 0x4 CALLDATALOAD PUSH0 MSTORE PUSH0 PUSH1 0x20 MSTORE PUSH1 0x1 PUSH1 0x40 PUSH0 KECCAK256 ADD SLOAD SWAP1 JUMP JUMPDEST PUSH1 0x40 MLOAD SWAP1 DUP2 MSTORE RETURN JUMPDEST CALLVALUE PUSH2 0x12A JUMPI PUSH1 0x40 CALLDATASIZE PUSH1 0x3 NOT ADD SLT PUSH2 0x12A JUMPI PUSH2 0x296 PUSH1 0x24 CALLDATALOAD PUSH1 0x4 CALLDATALOAD PUSH2 0x274 DUP3 PUSH2 0x12E JUMP JUMPDEST PUSH2 0x291 PUSH2 0x28C DUP3 PUSH0 MSTORE PUSH0 PUSH1 0x20 MSTORE PUSH1 0x1 PUSH1 0x40 PUSH0 KECCAK256 ADD SLOAD SWAP1 JUMP JUMPDEST PUSH2 0x7E8 JUMP JUMPDEST PUSH2 0x820 JUMP JUMPDEST STOP JUMPDEST CALLVALUE PUSH2 0x12A JUMPI PUSH1 0x40 CALLDATASIZE PUSH1 0x3 NOT ADD SLT PUSH2 0x12A JUMPI PUSH1 0x4 CALLDATALOAD PUSH1 0x24 CALLDATALOAD PUSH2 0x2B8 DUP2 PUSH2 0x12E JUMP JUMPDEST CALLER PUSH1 0x1 PUSH1 0x1 PUSH1 0xA0 SHL SUB DUP3 AND SUB PUSH2 0x2D1 JUMPI PUSH2 0x296 SWAP2 PUSH2 0x8AC JUMP JUMPDEST PUSH4 0x334BD919 PUSH1 0xE1 SHL PUSH0 MSTORE PUSH1 0x4 PUSH0 REVERT JUMPDEST PUSH1 0x60 SWAP1 PUSH1 0x3 NOT ADD SLT PUSH2 0x12A JUMPI PUSH1 0x4 CALLDATALOAD PUSH2 0x2F8 DUP2 PUSH2 0x12E JUMP JUMPDEST SWAP1 PUSH1 0x24 CALLDATALOAD PUSH2 0x305 DUP2 PUSH2 0x12E JUMP JUMPDEST SWAP1 PUSH1 0x44 CALLDATALOAD SWAP1 JUMP JUMPDEST CALLVALUE PUSH2 0x12A JUMPI PUSH2 0x31A CALLDATASIZE PUSH2 0x2E0 JUMP JUMPDEST PUSH1 0x1 PUSH1 0x1 PUSH1 0xA0 SHL SUB DUP4 AND PUSH0 DUP2 DUP2 MSTORE PUSH1 0x1 PUSH1 0x20 MSTORE PUSH1 0x40 SWAP1 KECCAK256 SWAP2 SWAP4 SWAP3 SWAP2 PUSH2 0x35A SWAP1 PUSH2 0x34D SWAP1 DUP7 SWAP1 JUMPDEST SWAP1 PUSH0 MSTORE PUSH1 0x20 MSTORE PUSH1 0x40 PUSH0 KECCAK256 SWAP1 JUMP JUMPDEST SLOAD PUSH1 0x1 PUSH1 0x1 PUSH1 0xA0 SHL SUB AND SWAP1 JUMP JUMPDEST PUSH1 0x1 PUSH1 0x1 PUSH1 0xA0 SHL SUB DUP4 DUP2 AND SWAP2 AND SUB PUSH2 0x428 JUMPI DUP1 EXTCODESIZE ISZERO PUSH2 0x12A JUMPI PUSH1 0x40 MLOAD PUSH4 0x21421707 PUSH1 0xE1 SHL DUP2 MSTORE ADDRESS PUSH1 0x4 DUP3 ADD MSTORE PUSH1 0x1 PUSH1 0x1 PUSH1 0xA0 SHL SUB SWAP3 SWAP1 SWAP3 AND PUSH1 0x24 DUP4 ADD MSTORE PUSH1 0x44 DUP3 ADD DUP5 SWAP1 MSTORE PUSH0 SWAP1 DUP3 SWAP1 PUSH1 0x64 SWAP1 DUP3 SWAP1 DUP5 SWAP1 GAS CALL DUP1 ISZERO PUSH2 0x1D8 JUMPI PUSH2 0x40E JUMPI JUMPDEST POP PUSH2 0x3E8 PUSH2 0x3D8 DUP4 PUSH2 0x340 DUP5 PUSH1 0x1 DUP1 PUSH1 0xA0 SHL SUB AND PUSH0 MSTORE PUSH1 0x1 PUSH1 0x20 MSTORE PUSH1 0x40 PUSH0 KECCAK256 SWAP1 JUMP JUMPDEST DUP1 SLOAD PUSH1 0x1 PUSH1 0x1 PUSH1 0xA0 SHL SUB NOT AND SWAP1 SSTORE JUMP JUMPDEST PUSH32 0x1C3A1E6D4F3180E7E5A46AB42CAA172B4AB19CBDA48B04F684980BAADA451795 PUSH0 DUP1 LOG3 STOP JUMPDEST DUP1 PUSH2 0x41C PUSH0 PUSH2 0x422 SWAP4 PUSH2 0x6F7 JUMP JUMPDEST DUP1 PUSH2 0x1DD JUMP JUMPDEST PUSH0 PUSH2 0x3B6 JUMP JUMPDEST PUSH4 0x59DC379F PUSH1 0xE0 SHL PUSH0 MSTORE PUSH1 0x4 PUSH0 REVERT JUMPDEST CALLVALUE PUSH2 0x12A JUMPI PUSH2 0x445 CALLDATASIZE PUSH2 0x2E0 JUMP JUMPDEST SWAP2 SWAP1 PUSH2 0x44F PUSH2 0x799 JUMP JUMPDEST PUSH1 0x40 MLOAD PUSH4 0x31A9108F PUSH1 0xE1 SHL DUP2 MSTORE PUSH1 0x4 DUP2 ADD DUP5 SWAP1 MSTORE PUSH1 0x1 PUSH1 0x1 PUSH1 0xA0 SHL SUB DUP4 AND SWAP2 SWAP1 PUSH1 0x20 DUP2 PUSH1 0x24 DUP2 DUP7 GAS STATICCALL SWAP1 DUP2 ISZERO PUSH2 0x1D8 JUMPI PUSH0 SWAP2 PUSH2 0x59E JUMPI JUMPDEST POP PUSH1 0x1 PUSH1 0x1 PUSH1 0xA0 SHL SUB DUP3 DUP2 AND SWAP2 AND SUB PUSH2 0x428 JUMPI PUSH1 0x1 PUSH1 0x1 PUSH1 0xA0 SHL SUB DUP4 DUP2 AND PUSH0 SWAP1 DUP2 MSTORE PUSH1 0x1 PUSH1 0x20 MSTORE PUSH1 0x40 SWAP1 KECCAK256 PUSH2 0x4C0 SWAP1 PUSH2 0x34D SWAP1 DUP8 SWAP1 PUSH2 0x340 JUMP JUMPDEST AND PUSH2 0x58F JUMPI DUP2 EXTCODESIZE ISZERO PUSH2 0x12A JUMPI PUSH1 0x40 MLOAD PUSH4 0x21421707 PUSH1 0xE1 SHL DUP2 MSTORE PUSH1 0x1 PUSH1 0x1 PUSH1 0xA0 SHL SUB DUP3 AND PUSH1 0x4 DUP3 ADD MSTORE ADDRESS PUSH1 0x24 DUP3 ADD MSTORE PUSH1 0x44 DUP2 ADD DUP6 SWAP1 MSTORE SWAP2 PUSH0 SWAP1 DUP4 SWAP1 PUSH1 0x64 SWAP1 DUP3 SWAP1 DUP5 SWAP1 GAS CALL SWAP2 DUP3 ISZERO PUSH2 0x1D8 JUMPI PUSH2 0x555 SWAP3 PUSH2 0x57B JUMPI JUMPDEST POP PUSH1 0x1 PUSH1 0x1 PUSH1 0xA0 SHL SUB DUP4 AND PUSH0 SWAP1 DUP2 MSTORE PUSH1 0x1 PUSH1 0x20 MSTORE PUSH1 0x40 SWAP1 KECCAK256 PUSH2 0x536 SWAP1 DUP6 SWAP1 PUSH2 0x340 JUMP JUMPDEST DUP1 SLOAD PUSH1 0x1 PUSH1 0x1 PUSH1 0xA0 SHL SUB NOT AND PUSH1 0x1 PUSH1 0x1 PUSH1 0xA0 SHL SUB SWAP1 SWAP3 AND SWAP2 SWAP1 SWAP2 OR SWAP1 SSTORE JUMP JUMPDEST PUSH32 0xEFA7D6A6635CDAA2CF85582BC1CF2FC9685B673011B85BB03EFF384ED8B7C8BA PUSH0 DUP1 LOG3 STOP JUMPDEST DUP1 PUSH2 0x41C PUSH0 PUSH2 0x589 SWAP4 PUSH2 0x6F7 JUMP JUMPDEST PUSH0 PUSH2 0x513 JUMP JUMPDEST PUSH4 0x81416CF9 PUSH1 0xE0 SHL PUSH0 MSTORE PUSH1 0x4 PUSH0 REVERT JUMPDEST PUSH2 0x5C0 SWAP2 POP PUSH1 0x20 RETURNDATASIZE PUSH1 0x20 GT PUSH2 0x5C6 JUMPI JUMPDEST PUSH2 0x5B8 DUP2 DUP4 PUSH2 0x6F7 JUMP JUMPDEST DUP2 ADD SWAP1 PUSH2 0x738 JUMP JUMPDEST PUSH0 PUSH2 0x486 JUMP JUMPDEST POP RETURNDATASIZE PUSH2 0x5AE JUMP JUMPDEST CALLVALUE PUSH2 0x12A JUMPI PUSH1 0x40 CALLDATASIZE PUSH1 0x3 NOT ADD SLT PUSH2 0x12A JUMPI PUSH1 0x20 PUSH1 0xFF PUSH2 0x612 PUSH1 0x24 CALLDATALOAD PUSH1 0x4 CALLDATALOAD PUSH2 0x5F4 DUP3 PUSH2 0x12E JUMP JUMPDEST PUSH0 MSTORE PUSH0 DUP5 MSTORE PUSH1 0x40 PUSH0 KECCAK256 SWAP1 PUSH1 0x1 DUP1 PUSH1 0xA0 SHL SUB AND PUSH0 MSTORE PUSH1 0x20 MSTORE PUSH1 0x40 PUSH0 KECCAK256 SWAP1 JUMP JUMPDEST SLOAD AND PUSH1 0x40 MLOAD SWAP1 ISZERO ISZERO DUP2 MSTORE RETURN JUMPDEST CALLVALUE PUSH2 0x12A JUMPI PUSH0 CALLDATASIZE PUSH1 0x3 NOT ADD SLT PUSH2 0x12A JUMPI PUSH1 0x20 PUSH1 0x40 MLOAD PUSH0 DUP2 MSTORE RETURN JUMPDEST CALLVALUE PUSH2 0x12A JUMPI PUSH1 0x40 CALLDATASIZE PUSH1 0x3 NOT ADD SLT PUSH2 0x12A JUMPI PUSH1 0x4 CALLDATALOAD PUSH2 0x655 DUP2 PUSH2 0x12E JUMP JUMPDEST PUSH1 0x24 CALLDATALOAD PUSH8 0xFFFFFFFFFFFFFFFF DUP2 GT PUSH2 0x12A JUMPI CALLDATASIZE PUSH1 0x23 DUP3 ADD SLT ISZERO PUSH2 0x12A JUMPI DUP1 PUSH1 0x4 ADD CALLDATALOAD PUSH8 0xFFFFFFFFFFFFFFFF DUP2 GT PUSH2 0x12A JUMPI CALLDATASIZE PUSH1 0x24 DUP3 DUP5 ADD ADD GT PUSH2 0x12A JUMPI PUSH2 0x6B3 SWAP3 PUSH1 0x24 PUSH2 0x6A3 SWAP4 ADD SWAP1 PUSH2 0x750 JUMP JUMPDEST PUSH1 0x40 MLOAD SWAP1 DUP2 MSTORE SWAP1 DUP2 SWAP1 PUSH1 0x20 DUP3 ADD SWAP1 JUMP JUMPDEST SUB SWAP1 RETURN JUMPDEST CALLVALUE PUSH2 0x12A JUMPI PUSH1 0x40 CALLDATASIZE PUSH1 0x3 NOT ADD SLT PUSH2 0x12A JUMPI PUSH2 0x296 PUSH1 0x24 CALLDATALOAD PUSH1 0x4 CALLDATALOAD PUSH2 0x6DA DUP3 PUSH2 0x12E JUMP JUMPDEST PUSH2 0x6F2 PUSH2 0x28C DUP3 PUSH0 MSTORE PUSH0 PUSH1 0x20 MSTORE PUSH1 0x1 PUSH1 0x40 PUSH0 KECCAK256 ADD SLOAD SWAP1 JUMP JUMPDEST PUSH2 0x8AC JUMP JUMPDEST SWAP1 PUSH1 0x1F DUP1 NOT SWAP2 ADD AND DUP2 ADD SWAP1 DUP2 LT PUSH8 0xFFFFFFFFFFFFFFFF DUP3 GT OR PUSH2 0x719 JUMPI PUSH1 0x40 MSTORE JUMP JUMPDEST PUSH4 0x4E487B71 PUSH1 0xE0 SHL PUSH0 MSTORE PUSH1 0x41 PUSH1 0x4 MSTORE PUSH1 0x24 PUSH0 REVERT JUMPDEST PUSH1 0x40 MLOAD RETURNDATASIZE PUSH0 DUP3 RETURNDATACOPY RETURNDATASIZE SWAP1 REVERT JUMPDEST SWAP1 DUP2 PUSH1 0x20 SWAP2 SUB SLT PUSH2 0x12A JUMPI MLOAD PUSH2 0x74D DUP2 PUSH2 0x12E JUMP JUMPDEST SWAP1 JUMP JUMPDEST SWAP2 SWAP1 PUSH1 0x34 PUSH2 0x793 SWAP2 DUP4 PUSH1 0x40 MLOAD SWAP5 DUP6 SWAP3 PUSH1 0x20 DUP5 ADD SWAP8 PUSH12 0xFFFFFFFFFFFFFFFFFFFFFFFF NOT SWAP1 PUSH1 0x60 SHL AND DUP9 MSTORE DUP5 DUP5 ADD CALLDATACOPY DUP2 ADD PUSH0 DUP4 DUP3 ADD MSTORE SUB ADD PUSH1 0x1F NOT DUP2 ADD DUP4 MSTORE DUP3 PUSH2 0x6F7 JUMP JUMPDEST MLOAD SWAP1 KECCAK256 SWAP1 JUMP JUMPDEST CALLER PUSH0 SWAP1 DUP2 MSTORE PUSH32 0xAD3228B676F7D3CD4284A5443F17F1962B36E491B30A40B2405849E597BA5FB5 PUSH1 0x20 MSTORE PUSH1 0x40 SWAP1 KECCAK256 SLOAD PUSH1 0xFF AND ISZERO PUSH2 0x7D1 JUMPI JUMP JUMPDEST PUSH4 0xE2517D3F PUSH1 0xE0 SHL PUSH0 MSTORE CALLER PUSH1 0x4 MSTORE PUSH0 PUSH1 0x24 MSTORE PUSH1 0x44 PUSH0 REVERT JUMPDEST PUSH0 DUP2 DUP2 MSTORE PUSH1 0x20 DUP2 DUP2 MSTORE PUSH1 0x40 DUP1 DUP4 KECCAK256 CALLER DUP5 MSTORE SWAP1 SWAP2 MSTORE SWAP1 KECCAK256 SLOAD PUSH1 0xFF AND ISZERO PUSH2 0x80A JUMPI POP JUMP JUMPDEST PUSH4 0xE2517D3F PUSH1 0xE0 SHL PUSH0 MSTORE CALLER PUSH1 0x4 MSTORE PUSH1 0x24 MSTORE PUSH1 0x44 PUSH0 REVERT JUMPDEST PUSH0 DUP2 DUP2 MSTORE PUSH1 0x20 DUP2 DUP2 MSTORE PUSH1 0x40 DUP1 DUP4 KECCAK256 PUSH1 0x1 PUSH1 0x1 PUSH1 0xA0 SHL SUB DUP7 AND DUP5 MSTORE SWAP1 SWAP2 MSTORE SWAP1 KECCAK256 SLOAD PUSH1 0xFF AND PUSH2 0x8A6 JUMPI PUSH0 DUP2 DUP2 MSTORE PUSH1 0x20 DUP2 DUP2 MSTORE PUSH1 0x40 DUP1 DUP4 KECCAK256 PUSH1 0x1 PUSH1 0x1 PUSH1 0xA0 SHL SUB DUP7 AND DUP5 MSTORE SWAP1 SWAP2 MSTORE SWAP1 KECCAK256 DUP1 SLOAD PUSH1 0xFF NOT AND PUSH1 0x1 OR SWAP1 SSTORE CALLER SWAP2 PUSH1 0x1 PUSH1 0x1 PUSH1 0xA0 SHL SUB AND SWAP1 PUSH32 0x2F8788117E7EFF1D82E926EC794901D17C78024A50270940304540A733656F0D PUSH0 DUP1 LOG4 PUSH1 0x1 SWAP1 JUMP JUMPDEST POP POP PUSH0 SWAP1 JUMP JUMPDEST PUSH0 DUP2 DUP2 MSTORE PUSH1 0x20 DUP2 DUP2 MSTORE PUSH1 0x40 DUP1 DUP4 KECCAK256 PUSH1 0x1 PUSH1 0x1 PUSH1 0xA0 SHL SUB DUP7 AND DUP5 MSTORE SWAP1 SWAP2 MSTORE SWAP1 KECCAK256 SLOAD PUSH1 0xFF AND ISZERO PUSH2 0x8A6 JUMPI PUSH0 DUP2 DUP2 MSTORE PUSH1 0x20 DUP2 DUP2 MSTORE PUSH1 0x40 DUP1 DUP4 KECCAK256 PUSH1 0x1 PUSH1 0x1 PUSH1 0xA0 SHL SUB DUP7 AND DUP5 MSTORE SWAP1 SWAP2 MSTORE SWAP1 KECCAK256 DUP1 SLOAD PUSH1 0xFF NOT AND SWAP1 SSTORE CALLER SWAP2 PUSH1 0x1 PUSH1 0x1 PUSH1 0xA0 SHL SUB AND SWAP1 PUSH32 0xF6391F5C32D9C69D2A47EA670B442974B53935D1EDC7FD64EB21E047A839171B PUSH0 DUP1 LOG4 PUSH1 0x1 SWAP1 JUMP INVALID LOG2 PUSH5 0x6970667358 0x22 SLT KECCAK256 LT PC 0xEF CALLDATALOAD 0xA8 0xD0 0xAD 0xB3 PUSH25 0x2C11CDE4E6AEB872F5BBECA2582D30D8FA4F946A2765F46473 PUSH16 0x6C634300081A0033AD3228B676F7D3CD TIMESTAMP DUP5 0xA5 PREVRANDAO EXTCODEHASH OR CALL SWAP7 0x2B CALLDATASIZE 0xE4 SWAP2 0xB3 EXP BLOCKHASH 0xB2 BLOCKHASH PC BLOBHASH 0xE5 SWAP8 0xBA PUSH0 0xB5 "
        },
        "methodIdentifiers": {
          "DEFAULT_ADMIN_ROLE()": "a217fddf",
          "getRoleAdmin(bytes32)": "248a9ca3",
          "grantRole(bytes32,address)": "2f2ff15d",
          "hasRole(bytes32,address)": "91d14854",
          "opHash(address,bytes)": "cf55fea7",
          "releaseFromCustody(address,address,uint256)": "3c34dac7",
          "renounceRole(bytes32,address)": "36568abe",
          "revokeRole(bytes32,address)": "d547741f",
          "storeInCustody(address,address,uint256)": "90fb03b8",
          "supportsInterface(bytes4)": "01ffc9a7",
          "withdrawFunds()": "24600fc3",
          "withdrawTokens(address,uint256)": "06b091f9"
        }
      }
    }
  }
}