{
  "_format": "hh-sol-artifact-1",
  "contractName": "Custodial",
  "sourceName": "contracts/wonderbits/impl/nft/Custodial.sol",
  "abi": [
    {
      "inputs": [],
      "stateMutability": "nonpayable",
      "type": "constructor"
    },
    {
      "inputs": [],
      "name": "AccessControlBadConfirmation",
      "type": "error"
    },
    {
      "inputs": [
        {
          "internalType": "address",
          "name": "account",
          "type": "address"
        },
        {
          "internalType": "bytes32",
          "name": "neededRole",
          "type": "bytes32"
        }
      ],
      "name": "AccessControlUnauthorizedAccount",
      "type": "error"
    },
    {
      "inputs": [],
      "name": "AlreadyInCustody",
      "type": "error"
    },
    {
      "inputs": [
        {
          "internalType": "address",
          "name": "recovered",
          "type": "address"
        }
      ],
      "name": "InvalidAdminSignature",
      "type": "error"
    },
    {
      "inputs": [],
      "name": "NotTokenOwner",
      "type": "error"
    },
    {
      "anonymous": false,
      "inputs": [
        {
          "indexed": true,
          "internalType": "bytes32",
          "name": "role",
          "type": "bytes32"
        },
        {
          "indexed": true,
          "internalType": "bytes32",
          "name": "previousAdminRole",
          "type": "bytes32"
        },
        {
          "indexed": true,
          "internalType": "bytes32",
          "name": "newAdminRole",
          "type": "bytes32"
        }
      ],
      "name": "RoleAdminChanged",
      "type": "event"
    },
    {
      "anonymous": false,
      "inputs": [
        {
          "indexed": true,
          "internalType": "bytes32",
          "name": "role",
          "type": "bytes32"
        },
        {
          "indexed": true,
          "internalType": "address",
          "name": "account",
          "type": "address"
        },
        {
          "indexed": true,
          "internalType": "address",
          "name": "sender",
          "type": "address"
        }
      ],
      "name": "RoleGranted",
      "type": "event"
    },
    {
      "anonymous": false,
      "inputs": [
        {
          "indexed": true,
          "internalType": "bytes32",
          "name": "role",
          "type": "bytes32"
        },
        {
          "indexed": true,
          "internalType": "address",
          "name": "account",
          "type": "address"
        },
        {
          "indexed": true,
          "internalType": "address",
          "name": "sender",
          "type": "address"
        }
      ],
      "name": "RoleRevoked",
      "type": "event"
    },
    {
      "inputs": [],
      "name": "DEFAULT_ADMIN_ROLE",
      "outputs": [
        {
          "internalType": "bytes32",
          "name": "",
          "type": "bytes32"
        }
      ],
      "stateMutability": "view",
      "type": "function"
    },
    {
      "inputs": [
        {
          "internalType": "bytes32",
          "name": "role",
          "type": "bytes32"
        }
      ],
      "name": "getRoleAdmin",
      "outputs": [
        {
          "internalType": "bytes32",
          "name": "",
          "type": "bytes32"
        }
      ],
      "stateMutability": "view",
      "type": "function"
    },
    {
      "inputs": [
        {
          "internalType": "bytes32",
          "name": "role",
          "type": "bytes32"
        },
        {
          "internalType": "address",
          "name": "account",
          "type": "address"
        }
      ],
      "name": "grantRole",
      "outputs": [],
      "stateMutability": "nonpayable",
      "type": "function"
    },
    {
      "inputs": [
        {
          "internalType": "bytes32",
          "name": "role",
          "type": "bytes32"
        },
        {
          "internalType": "address",
          "name": "account",
          "type": "address"
        }
      ],
      "name": "hasRole",
      "outputs": [
        {
          "internalType": "bool",
          "name": "",
          "type": "bool"
        }
      ],
      "stateMutability": "view",
      "type": "function"
    },
    {
      "inputs": [
        {
          "internalType": "address",
          "name": "addr",
          "type": "address"
        },
        {
          "internalType": "bytes",
          "name": "salt",
          "type": "bytes"
        }
      ],
      "name": "opHash",
      "outputs": [
        {
          "internalType": "bytes32",
          "name": "",
          "type": "bytes32"
        }
      ],
      "stateMutability": "pure",
      "type": "function"
    },
    {
      "inputs": [
        {
          "internalType": "address",
          "name": "nftContract",
          "type": "address"
        },
        {
          "internalType": "address",
          "name": "owner",
          "type": "address"
        },
        {
          "internalType": "uint256",
          "name": "tokenId",
          "type": "uint256"
        }
      ],
      "name": "releaseFromCustody",
      "outputs": [],
      "stateMutability": "nonpayable",
      "type": "function"
    },
    {
      "inputs": [
        {
          "internalType": "bytes32",
          "name": "role",
          "type": "bytes32"
        },
        {
          "internalType": "address",
          "name": "callerConfirmation",
          "type": "address"
        }
      ],
      "name": "renounceRole",
      "outputs": [],
      "stateMutability": "nonpayable",
      "type": "function"
    },
    {
      "inputs": [
        {
          "internalType": "bytes32",
          "name": "role",
          "type": "bytes32"
        },
        {
          "internalType": "address",
          "name": "account",
          "type": "address"
        }
      ],
      "name": "revokeRole",
      "outputs": [],
      "stateMutability": "nonpayable",
      "type": "function"
    },
    {
      "inputs": [
        {
          "internalType": "address",
          "name": "nftContract",
          "type": "address"
        },
        {
          "internalType": "address",
          "name": "owner",
          "type": "address"
        },
        {
          "internalType": "uint256",
          "name": "tokenId",
          "type": "uint256"
        }
      ],
      "name": "storeInCustody",
      "outputs": [],
      "stateMutability": "nonpayable",
      "type": "function"
    },
    {
      "inputs": [
        {
          "internalType": "bytes4",
          "name": "interfaceId",
          "type": "bytes4"
        }
      ],
      "name": "supportsInterface",
      "outputs": [
        {
          "internalType": "bool",
          "name": "",
          "type": "bool"
        }
      ],
      "stateMutability": "view",
      "type": "function"
    },
    {
      "inputs": [],
      "name": "withdrawFunds",
      "outputs": [],
      "stateMutability": "nonpayable",
      "type": "function"
    },
    {
      "inputs": [
        {
          "internalType": "address",
          "name": "_tokenAddr",
          "type": "address"
        },
        {
          "internalType": "uint256",
          "name": "_amount",
          "type": "uint256"
        }
      ],
      "name": "withdrawTokens",
      "outputs": [],
      "stateMutability": "nonpayable",
      "type": "function"
    }
  ],
  "bytecode": "0x608060405234601f57600f336023565b5060405161096690816100ac8239f35b5f80fd5b6001600160a01b0381165f9081525f80516020610a12833981519152602052604090205460ff1660a6576001600160a01b03165f8181525f80516020610a1283398151915260205260408120805460ff191660011790553391907f2f8788117e7eff1d82e926ec794901d17c78024a50270940304540a733656f0d8180a4600190565b505f9056fe60806040526004361015610011575f80fd5b5f3560e01c806301ffc9a7146100d457806306b091f9146100cf57806324600fc3146100ca578063248a9ca3146100c55780632f2ff15d146100c057806336568abe146100bb5780633c34dac7146100b657806390fb03b8146100b157806391d14854146100ac578063a217fddf146100a7578063cf55fea7146100a25763d547741f1461009d575f80fd5b6106b7565b610638565b61061e565b6105cd565b610437565b61030c565b610298565b610251565b61021f565b6101e7565b61013f565b3461012a57602036600319011261012a5760043563ffffffff60e01b811680910361012a57602090637965db0b60e01b8114908115610119575b506040519015158152f35b6301ffc9a760e01b1490505f61010e565b5f80fd5b6001600160a01b0381160361012a57565b3461012a57604036600319011261012a575f602060043561015f8161012e565b604460243561016c610799565b60405163a9059cbb60e01b815233600482015260248101919091529384928391906001600160a01b03165af180156101d8576101a457005b6020813d6020116101d0575b816101bd602093836106f7565b8101031261012a57518015150361012a57005b3d91506101b0565b61072d565b5f91031261012a57565b3461012a575f36600319011261012a576101ff610799565b5f80808047818115610216575b3390f1156101d857005b506108fc61020c565b3461012a57602036600319011261012a5760206102496004355f525f602052600160405f20015490565b604051908152f35b3461012a57604036600319011261012a576102966024356004356102748261012e565b61029161028c825f525f602052600160405f20015490565b6107e8565b610820565b005b3461012a57604036600319011261012a576004356024356102b88161012e565b336001600160a01b038216036102d157610296916108ac565b63334bd91960e11b5f5260045ffd5b606090600319011261012a576004356102f88161012e565b906024356103058161012e565b9060443590565b3461012a5761031a366102e0565b6001600160a01b0383165f8181526001602052604090209193929161035a9061034d9086905b905f5260205260405f2090565b546001600160a01b031690565b6001600160a01b0383811691160361042857803b1561012a57604051632142170760e11b81523060048201526001600160a01b03929092166024830152604482018490525f908290606490829084905af180156101d85761040e575b506103e86103d8836103408460018060a01b03165f52600160205260405f2090565b80546001600160a01b0319169055565b7f1c3a1e6d4f3180e7e5a46ab42caa172b4ab19cbda48b04f684980baada4517955f80a3005b8061041c5f610422936106f7565b806101dd565b5f6103b6565b6359dc379f60e01b5f5260045ffd5b3461012a57610445366102e0565b919061044f610799565b6040516331a9108f60e11b8152600481018490526001600160a01b0383169190602081602481865afa9081156101d8575f9161059e575b506001600160a01b03828116911603610428576001600160a01b038381165f9081526001602052604090206104c09061034d908790610340565b1661058f57813b1561012a57604051632142170760e11b81526001600160a01b038216600482015230602482015260448101859052915f908390606490829084905af19182156101d8576105559261057b575b506001600160a01b0383165f908152600160205260409020610536908590610340565b80546001600160a01b0319166001600160a01b03909216919091179055565b7fefa7d6a6635cdaa2cf85582bc1cf2fc9685b673011b85bb03eff384ed8b7c8ba5f80a3005b8061041c5f610589936106f7565b5f610513565b6381416cf960e01b5f5260045ffd5b6105c0915060203d6020116105c6575b6105b881836106f7565b810190610738565b5f610486565b503d6105ae565b3461012a57604036600319011261012a57602060ff6106126024356004356105f48261012e565b5f525f845260405f209060018060a01b03165f5260205260405f2090565b54166040519015158152f35b3461012a575f36600319011261012a5760206040515f8152f35b3461012a57604036600319011261012a576004356106558161012e565b60243567ffffffffffffffff811161012a573660238201121561012a57806004013567ffffffffffffffff811161012a57366024828401011161012a576106b39260246106a3930190610750565b6040519081529081906020820190565b0390f35b3461012a57604036600319011261012a576102966024356004356106da8261012e565b6106f261028c825f525f602052600160405f20015490565b6108ac565b90601f8019910116810190811067ffffffffffffffff82111761071957604052565b634e487b7160e01b5f52604160045260245ffd5b6040513d5f823e3d90fd5b9081602091031261012a575161074d8161012e565b90565b91906034610793918360405194859260208401976bffffffffffffffffffffffff199060601b1688528484013781015f838201520301601f1981018352826106f7565b51902090565b335f9081527fad3228b676f7d3cd4284a5443f17f1962b36e491b30a40b2405849e597ba5fb5602052604090205460ff16156107d157565b63e2517d3f60e01b5f52336004525f60245260445ffd5b5f8181526020818152604080832033845290915290205460ff161561080a5750565b63e2517d3f60e01b5f523360045260245260445ffd5b5f818152602081815260408083206001600160a01b038616845290915290205460ff166108a6575f818152602081815260408083206001600160a01b03861684529091529020805460ff1916600117905533916001600160a01b0316907f2f8788117e7eff1d82e926ec794901d17c78024a50270940304540a733656f0d5f80a4600190565b50505f90565b5f818152602081815260408083206001600160a01b038616845290915290205460ff16156108a6575f818152602081815260408083206001600160a01b03861684529091529020805460ff1916905533916001600160a01b0316907ff6391f5c32d9c69d2a47ea670b442974b53935d1edc7fd64eb21e047a839171b5f80a460019056fea26469706673582212201058ef35a8d0adb3782c11cde4e6aeb872f5bbeca2582d30d8fa4f946a2765f464736f6c634300081a0033ad3228b676f7d3cd4284a5443f17f1962b36e491b30a40b2405849e597ba5fb5",
  "linkReferences": {},
  "deployedLinkReferences": {}
}