{
  "_format": "hh-sol-artifact-1",
  "contractName": "Islands",
  "sourceName": "contracts/wonderbits/impl/nft/Islands.sol",
  "abi": [
    {
      "inputs": [],
      "stateMutability": "nonpayable",
      "type": "constructor"
    },
    {
      "inputs": [],
      "name": "AccessControlBadConfirmation",
      "type": "error"
    },
    {
      "inputs": [
        {
          "internalType": "address",
          "name": "account",
          "type": "address"
        },
        {
          "internalType": "bytes32",
          "name": "neededRole",
          "type": "bytes32"
        }
      ],
      "name": "AccessControlUnauthorizedAccount",
      "type": "error"
    },
    {
      "inputs": [],
      "name": "ApprovalCallerNotOwnerNorApproved",
      "type": "error"
    },
    {
      "inputs": [],
      "name": "ApprovalQueryForNonexistentToken",
      "type": "error"
    },
    {
      "inputs": [],
      "name": "BalanceQueryForZeroAddress",
      "type": "error"
    },
    {
      "inputs": [
        {
          "internalType": "address",
          "name": "recovered",
          "type": "address"
        }
      ],
      "name": "InvalidAdminSignature",
      "type": "error"
    },
    {
      "inputs": [],
      "name": "InvalidQueryRange",
      "type": "error"
    },
    {
      "inputs": [],
      "name": "MintERC2309QuantityExceedsLimit",
      "type": "error"
    },
    {
      "inputs": [],
      "name": "MintToZeroAddress",
      "type": "error"
    },
    {
      "inputs": [],
      "name": "MintZeroQuantity",
      "type": "error"
    },
    {
      "inputs": [],
      "name": "NotCompatibleWithSpotMints",
      "type": "error"
    },
    {
      "inputs": [],
      "name": "OwnerQueryForNonexistentToken",
      "type": "error"
    },
    {
      "inputs": [],
      "name": "OwnershipNotInitializedForExtraData",
      "type": "error"
    },
    {
      "inputs": [],
      "name": "SequentialMintExceedsLimit",
      "type": "error"
    },
    {
      "inputs": [],
      "name": "SequentialUpToTooSmall",
      "type": "error"
    },
    {
      "inputs": [],
      "name": "SpotMintTokenIdTooSmall",
      "type": "error"
    },
    {
      "inputs": [],
      "name": "TokenAlreadyExists",
      "type": "error"
    },
    {
      "inputs": [],
      "name": "TransferCallerNotOwnerNorApproved",
      "type": "error"
    },
    {
      "inputs": [],
      "name": "TransferFromIncorrectOwner",
      "type": "error"
    },
    {
      "inputs": [],
      "name": "TransferToNonERC721ReceiverImplementer",
      "type": "error"
    },
    {
      "inputs": [],
      "name": "TransferToZeroAddress",
      "type": "error"
    },
    {
      "inputs": [],
      "name": "URIQueryForNonexistentToken",
      "type": "error"
    },
    {
      "anonymous": false,
      "inputs": [
        {
          "indexed": true,
          "internalType": "address",
          "name": "owner",
          "type": "address"
        },
        {
          "indexed": true,
          "internalType": "address",
          "name": "approved",
          "type": "address"
        },
        {
          "indexed": true,
          "internalType": "uint256",
          "name": "tokenId",
          "type": "uint256"
        }
      ],
      "name": "Approval",
      "type": "event"
    },
    {
      "anonymous": false,
      "inputs": [
        {
          "indexed": true,
          "internalType": "address",
          "name": "owner",
          "type": "address"
        },
        {
          "indexed": true,
          "internalType": "address",
          "name": "operator",
          "type": "address"
        },
        {
          "indexed": false,
          "internalType": "bool",
          "name": "approved",
          "type": "bool"
        }
      ],
      "name": "ApprovalForAll",
      "type": "event"
    },
    {
      "anonymous": false,
      "inputs": [
        {
          "indexed": true,
          "internalType": "uint256",
          "name": "fromTokenId",
          "type": "uint256"
        },
        {
          "indexed": false,
          "internalType": "uint256",
          "name": "toTokenId",
          "type": "uint256"
        },
        {
          "indexed": true,
          "internalType": "address",
          "name": "from",
          "type": "address"
        },
        {
          "indexed": true,
          "internalType": "address",
          "name": "to",
          "type": "address"
        }
      ],
      "name": "ConsecutiveTransfer",
      "type": "event"
    },
    {
      "anonymous": false,
      "inputs": [
        {
          "indexed": true,
          "internalType": "bytes32",
          "name": "role",
          "type": "bytes32"
        },
        {
          "indexed": true,
          "internalType": "bytes32",
          "name": "previousAdminRole",
          "type": "bytes32"
        },
        {
          "indexed": true,
          "internalType": "bytes32",
          "name": "newAdminRole",
          "type": "bytes32"
        }
      ],
      "name": "RoleAdminChanged",
      "type": "event"
    },
    {
      "anonymous": false,
      "inputs": [
        {
          "indexed": true,
          "internalType": "bytes32",
          "name": "role",
          "type": "bytes32"
        },
        {
          "indexed": true,
          "internalType": "address",
          "name": "account",
          "type": "address"
        },
        {
          "indexed": true,
          "internalType": "address",
          "name": "sender",
          "type": "address"
        }
      ],
      "name": "RoleGranted",
      "type": "event"
    },
    {
      "anonymous": false,
      "inputs": [
        {
          "indexed": true,
          "internalType": "bytes32",
          "name": "role",
          "type": "bytes32"
        },
        {
          "indexed": true,
          "internalType": "address",
          "name": "account",
          "type": "address"
        },
        {
          "indexed": true,
          "internalType": "address",
          "name": "sender",
          "type": "address"
        }
      ],
      "name": "RoleRevoked",
      "type": "event"
    },
    {
      "anonymous": false,
      "inputs": [
        {
          "indexed": true,
          "internalType": "address",
          "name": "from",
          "type": "address"
        },
        {
          "indexed": true,
          "internalType": "address",
          "name": "to",
          "type": "address"
        },
        {
          "indexed": true,
          "internalType": "uint256",
          "name": "tokenId",
          "type": "uint256"
        }
      ],
      "name": "Transfer",
      "type": "event"
    },
    {
      "inputs": [],
      "name": "DEFAULT_ADMIN_ROLE",
      "outputs": [
        {
          "internalType": "bytes32",
          "name": "",
          "type": "bytes32"
        }
      ],
      "stateMutability": "view",
      "type": "function"
    },
    {
      "inputs": [
        {
          "internalType": "address",
          "name": "to",
          "type": "address"
        },
        {
          "internalType": "uint256",
          "name": "tokenId",
          "type": "uint256"
        }
      ],
      "name": "approve",
      "outputs": [],
      "stateMutability": "payable",
      "type": "function"
    },
    {
      "inputs": [
        {
          "internalType": "address",
          "name": "owner",
          "type": "address"
        }
      ],
      "name": "balanceOf",
      "outputs": [
        {
          "internalType": "uint256",
          "name": "",
          "type": "uint256"
        }
      ],
      "stateMutability": "view",
      "type": "function"
    },
    {
      "inputs": [
        {
          "internalType": "uint256",
          "name": "tokenId",
          "type": "uint256"
        }
      ],
      "name": "burn",
      "outputs": [],
      "stateMutability": "nonpayable",
      "type": "function"
    },
    {
      "inputs": [
        {
          "internalType": "uint256",
          "name": "tokenId",
          "type": "uint256"
        }
      ],
      "name": "explicitOwnershipOf",
      "outputs": [
        {
          "components": [
            {
              "internalType": "address",
              "name": "addr",
              "type": "address"
            },
            {
              "internalType": "uint64",
              "name": "startTimestamp",
              "type": "uint64"
            },
            {
              "internalType": "bool",
              "name": "burned",
              "type": "bool"
            },
            {
              "internalType": "uint24",
              "name": "extraData",
              "type": "uint24"
            }
          ],
          "internalType": "struct IERC721A.TokenOwnership",
          "name": "ownership",
          "type": "tuple"
        }
      ],
      "stateMutability": "view",
      "type": "function"
    },
    {
      "inputs": [
        {
          "internalType": "uint256[]",
          "name": "tokenIds",
          "type": "uint256[]"
        }
      ],
      "name": "explicitOwnershipsOf",
      "outputs": [
        {
          "components": [
            {
              "internalType": "address",
              "name": "addr",
              "type": "address"
            },
            {
              "internalType": "uint64",
              "name": "startTimestamp",
              "type": "uint64"
            },
            {
              "internalType": "bool",
              "name": "burned",
              "type": "bool"
            },
            {
              "internalType": "uint24",
              "name": "extraData",
              "type": "uint24"
            }
          ],
          "internalType": "struct IERC721A.TokenOwnership[]",
          "name": "",
          "type": "tuple[]"
        }
      ],
      "stateMutability": "view",
      "type": "function"
    },
    {
      "inputs": [
        {
          "internalType": "uint256",
          "name": "tokenId",
          "type": "uint256"
        }
      ],
      "name": "getApproved",
      "outputs": [
        {
          "internalType": "address",
          "name": "",
          "type": "address"
        }
      ],
      "stateMutability": "view",
      "type": "function"
    },
    {
      "inputs": [
        {
          "internalType": "address",
          "name": "_owner",
          "type": "address"
        }
      ],
      "name": "getAux",
      "outputs": [
        {
          "internalType": "uint64",
          "name": "",
          "type": "uint64"
        }
      ],
      "stateMutability": "view",
      "type": "function"
    },
    {
      "inputs": [
        {
          "internalType": "bytes32",
          "name": "role",
          "type": "bytes32"
        }
      ],
      "name": "getRoleAdmin",
      "outputs": [
        {
          "internalType": "bytes32",
          "name": "",
          "type": "bytes32"
        }
      ],
      "stateMutability": "view",
      "type": "function"
    },
    {
      "inputs": [
        {
          "internalType": "bytes32",
          "name": "role",
          "type": "bytes32"
        },
        {
          "internalType": "address",
          "name": "account",
          "type": "address"
        }
      ],
      "name": "grantRole",
      "outputs": [],
      "stateMutability": "nonpayable",
      "type": "function"
    },
    {
      "inputs": [
        {
          "internalType": "bytes32",
          "name": "role",
          "type": "bytes32"
        },
        {
          "internalType": "address",
          "name": "account",
          "type": "address"
        }
      ],
      "name": "hasRole",
      "outputs": [
        {
          "internalType": "bool",
          "name": "",
          "type": "bool"
        }
      ],
      "stateMutability": "view",
      "type": "function"
    },
    {
      "inputs": [
        {
          "internalType": "address",
          "name": "owner",
          "type": "address"
        },
        {
          "internalType": "address",
          "name": "operator",
          "type": "address"
        }
      ],
      "name": "isApprovedForAll",
      "outputs": [
        {
          "internalType": "bool",
          "name": "",
          "type": "bool"
        }
      ],
      "stateMutability": "view",
      "type": "function"
    },
    {
      "inputs": [
        {
          "internalType": "address",
          "name": "to",
          "type": "address"
        }
      ],
      "name": "mint",
      "outputs": [],
      "stateMutability": "nonpayable",
      "type": "function"
    },
    {
      "inputs": [],
      "name": "name",
      "outputs": [
        {
          "internalType": "string",
          "name": "",
          "type": "string"
        }
      ],
      "stateMutability": "view",
      "type": "function"
    },
    {
      "inputs": [],
      "name": "nextTokenId",
      "outputs": [
        {
          "internalType": "uint256",
          "name": "",
          "type": "uint256"
        }
      ],
      "stateMutability": "view",
      "type": "function"
    },
    {
      "inputs": [
        {
          "internalType": "address",
          "name": "addr",
          "type": "address"
        },
        {
          "internalType": "bytes",
          "name": "salt",
          "type": "bytes"
        }
      ],
      "name": "opHash",
      "outputs": [
        {
          "internalType": "bytes32",
          "name": "",
          "type": "bytes32"
        }
      ],
      "stateMutability": "pure",
      "type": "function"
    },
    {
      "inputs": [
        {
          "internalType": "uint256",
          "name": "tokenId",
          "type": "uint256"
        }
      ],
      "name": "ownerOf",
      "outputs": [
        {
          "internalType": "address",
          "name": "",
          "type": "address"
        }
      ],
      "stateMutability": "view",
      "type": "function"
    },
    {
      "inputs": [
        {
          "internalType": "bytes32",
          "name": "role",
          "type": "bytes32"
        },
        {
          "internalType": "address",
          "name": "callerConfirmation",
          "type": "address"
        }
      ],
      "name": "renounceRole",
      "outputs": [],
      "stateMutability": "nonpayable",
      "type": "function"
    },
    {
      "inputs": [
        {
          "internalType": "bytes32",
          "name": "role",
          "type": "bytes32"
        },
        {
          "internalType": "address",
          "name": "account",
          "type": "address"
        }
      ],
      "name": "revokeRole",
      "outputs": [],
      "stateMutability": "nonpayable",
      "type": "function"
    },
    {
      "inputs": [
        {
          "internalType": "address",
          "name": "from",
          "type": "address"
        },
        {
          "internalType": "address",
          "name": "to",
          "type": "address"
        },
        {
          "internalType": "uint256",
          "name": "tokenId",
          "type": "uint256"
        }
      ],
      "name": "safeTransferFrom",
      "outputs": [],
      "stateMutability": "payable",
      "type": "function"
    },
    {
      "inputs": [
        {
          "internalType": "address",
          "name": "from",
          "type": "address"
        },
        {
          "internalType": "address",
          "name": "to",
          "type": "address"
        },
        {
          "internalType": "uint256",
          "name": "tokenId",
          "type": "uint256"
        },
        {
          "internalType": "bytes",
          "name": "_data",
          "type": "bytes"
        }
      ],
      "name": "safeTransferFrom",
      "outputs": [],
      "stateMutability": "payable",
      "type": "function"
    },
    {
      "inputs": [
        {
          "internalType": "address",
          "name": "operator",
          "type": "address"
        },
        {
          "internalType": "bool",
          "name": "approved",
          "type": "bool"
        }
      ],
      "name": "setApprovalForAll",
      "outputs": [],
      "stateMutability": "nonpayable",
      "type": "function"
    },
    {
      "inputs": [
        {
          "internalType": "string",
          "name": "uri",
          "type": "string"
        }
      ],
      "name": "setBaseURI",
      "outputs": [],
      "stateMutability": "nonpayable",
      "type": "function"
    },
    {
      "inputs": [
        {
          "internalType": "bytes4",
          "name": "interfaceId",
          "type": "bytes4"
        }
      ],
      "name": "supportsInterface",
      "outputs": [
        {
          "internalType": "bool",
          "name": "",
          "type": "bool"
        }
      ],
      "stateMutability": "view",
      "type": "function"
    },
    {
      "inputs": [],
      "name": "symbol",
      "outputs": [
        {
          "internalType": "string",
          "name": "",
          "type": "string"
        }
      ],
      "stateMutability": "view",
      "type": "function"
    },
    {
      "inputs": [
        {
          "internalType": "uint256",
          "name": "tokenId",
          "type": "uint256"
        }
      ],
      "name": "tokenURI",
      "outputs": [
        {
          "internalType": "string",
          "name": "",
          "type": "string"
        }
      ],
      "stateMutability": "view",
      "type": "function"
    },
    {
      "inputs": [
        {
          "internalType": "address",
          "name": "owner",
          "type": "address"
        }
      ],
      "name": "tokensOfOwner",
      "outputs": [
        {
          "internalType": "uint256[]",
          "name": "",
          "type": "uint256[]"
        }
      ],
      "stateMutability": "view",
      "type": "function"
    },
    {
      "inputs": [
        {
          "internalType": "address",
          "name": "owner",
          "type": "address"
        },
        {
          "internalType": "uint256",
          "name": "start",
          "type": "uint256"
        },
        {
          "internalType": "uint256",
          "name": "stop",
          "type": "uint256"
        }
      ],
      "name": "tokensOfOwnerIn",
      "outputs": [
        {
          "internalType": "uint256[]",
          "name": "",
          "type": "uint256[]"
        }
      ],
      "stateMutability": "view",
      "type": "function"
    },
    {
      "inputs": [],
      "name": "totalBurned",
      "outputs": [
        {
          "internalType": "uint256",
          "name": "",
          "type": "uint256"
        }
      ],
      "stateMutability": "view",
      "type": "function"
    },
    {
      "inputs": [],
      "name": "totalSupply",
      "outputs": [
        {
          "internalType": "uint256",
          "name": "result",
          "type": "uint256"
        }
      ],
      "stateMutability": "view",
      "type": "function"
    },
    {
      "inputs": [
        {
          "internalType": "address",
          "name": "from",
          "type": "address"
        },
        {
          "internalType": "address",
          "name": "to",
          "type": "address"
        },
        {
          "internalType": "uint256",
          "name": "tokenId",
          "type": "uint256"
        }
      ],
      "name": "transferFrom",
      "outputs": [],
      "stateMutability": "payable",
      "type": "function"
    },
    {
      "inputs": [],
      "name": "withdrawFunds",
      "outputs": [],
      "stateMutability": "nonpayable",
      "type": "function"
    },
    {
      "inputs": [
        {
          "internalType": "address",
          "name": "_tokenAddr",
          "type": "address"
        },
        {
          "internalType": "uint256",
          "name": "_amount",
          "type": "uint256"
        }
      ],
      "name": "withdrawTokens",
      "outputs": [],
      "stateMutability": "nonpayable",
      "type": "function"
    }
  ],
  "bytecode": "0x60806040523461014d57610011610165565b6649736c616e647360c81b6020820152610029610188565b621254d360ea1b60208201528151916001600160401b0383116101485761005a836100556002546101ab565b6101e3565b602090601f84116001146100c257928061008d92610095955f926100b7575b50508160011b915f199060031b1c19161790565b600255610282565b61009e60015f55565b6100a73361035b565b50604051611d7a90816103e58239f35b015190505f80610079565b60025f52601f19841691907f405787fa12a823e0f2b7631cc41b3ba8828b3321ca811111fa75cd3aa3bb5ace925f5b8181106101305750916001939186610095979410610118575b505050811b01600255610282565b01515f1960f88460031b161c191690555f808061010a565b929360206001819287860151815501950193016100f1565b610151565b5f80fd5b634e487b7160e01b5f52604160045260245ffd5b60408051919082016001600160401b038111838210176101485760405260078252565b60408051919082016001600160401b038111838210176101485760405260038252565b90600182811c921680156101d9575b60208310146101c557565b634e487b7160e01b5f52602260045260245ffd5b91607f16916101ba565b601f81116101ef575050565b60025f5260205f20906020601f840160051c83019310610229575b601f0160051c01905b81811061021e575050565b5f8155600101610213565b909150819061020a565b601f821161024057505050565b5f5260205f20906020601f840160051c83019310610278575b601f0160051c01905b81811061026d575050565b5f8155600101610262565b9091508190610259565b80519091906001600160401b038111610148576102ab816102a46003546101ab565b6003610233565b602092601f82116001146102df576102da929382915f926100b75750508160011b915f199060031b1c19161790565b600355565b60035f52601f198216937fc2575a0e9e593c00f959f8c92f12db2869c3395a3b0502d05e2516446f71f85b915f5b868110610343575083600195961061032b575b505050811b01600355565b01515f1960f88460031b161c191690555f8080610320565b9192602060018192868501518155019401920161030d565b6001600160a01b0381165f9081525f8051602061215f833981519152602052604090205460ff166103df576001600160a01b03165f8181525f8051602061215f83398151915260205260408120805460ff191660011790553391907f2f8788117e7eff1d82e926ec794901d17c78024a50270940304540a733656f0d8180a4600190565b505f9056fe60806040526004361015610011575f80fd5b5f3560e01c806301ffc9a71461022457806306b091f91461021f57806306fdde031461021a578063081812fc14610215578063095ea7b31461021057806318160ddd1461020b57806323b872dd1461020657806324600fc314610201578063248a9ca3146101fc5780632f2ff15d146101f757806336568abe146101f257806342842e0e146101ed57806342966c68146101e857806355f804b3146101e35780635bbb2177146101de5780636352211e146101d95780636a627842146101d457806370a08231146101cf57806375794a3c146101ca5780638462151c146101c557806391d14854146101c057806395d89b41146101bb57806399a2557a146101b6578063a217fddf146101b1578063a22cb465146101ac578063b88d4fde146101a7578063bf0b175e146101a2578063c23dc68f1461019d578063c87b56dd14610198578063cf55fea714610193578063d547741f1461018e578063d89135cd146101895763e985e9c514610184575f80fd5b6114e9565b6114cc565b61148e565b6113fd565b6112b2565b61124f565b611214565b611192565b6110b2565b61108e565b610f0d565b610e68565b610e19565b610c89565b610c34565b610c11565b610aed565b610abe565b610a52565b6108c1565b61070a565b6106e6565b6106a2565b61065f565b61062c565b6105f4565b6105e2565b610584565b6104bd565b61046e565b610394565b6102c1565b61023f565b6001600160e01b031981160361023b57565b5f80fd5b3461023b57602036600319011261023b57602060043561025e81610229565b63ffffffff60e01b16637965db0b60e01b8114908115610284575b506040519015158152f35b6301ffc9a760e01b1490505f610279565b600435906001600160a01b038216820361023b57565b602435906001600160a01b038216820361023b57565b3461023b57604036600319011261023b575f60206102dd610295565b60446024356102ea6118a8565b60405163a9059cbb60e01b815233600482015260248101919091529384928391906001600160a01b03165af180156103575761032257005b6020813d60201161034f575b8161033b60209383611156565b8101031261023b5761034d90516110a8565b005b3d915061032e565b611539565b805180835260209291819084018484015e5f828201840152601f01601f1916010190565b90602061039192818152019061035c565b90565b3461023b575f36600319011261023b576040515f6002546103b481611544565b808452906001811690811561044a57506001146103ec575b6103e8836103dc81850382611156565b60405191829182610380565b0390f35b91905060025f527f405787fa12a823e0f2b7631cc41b3ba8828b3321ca811111fa75cd3aa3bb5ace915f905b808210610430575090915081016020016103dc6103cc565b919260018160209254838588010152019101909291610418565b60ff191660208086019190915291151560051b840190910191506103dc90506103cc565b3461023b57602036600319011261023b5760043561048b81611931565b156104ae575f526006602052602060018060a01b0360405f205416604051908152f35b6333d1c03960e21b5f5260045ffd5b604036600319011261023b576104d1610295565b602435906001600160a01b036104e6836119e8565b1690813303610555575b61052581610506855f52600660205260405f2090565b80546001600160a01b0319166001600160a01b03909216919091179055565b6001600160a01b0316907f8c5be1e5ebec7d5bd14f71427d1e84f3dd0314c0f7b2291e5b200ac8c7c3b9255f80a4005b5f82815260076020908152604080832033845290915290205460ff166104f0576367d9dca160e11b5f5260045ffd5b3461023b575f36600319011261023b575f5460015460405191035f19018152602090f35b606090600319011261023b576004356001600160a01b038116810361023b57906024356001600160a01b038116810361023b579060443590565b61034d6105ee366105a8565b9161157c565b3461023b575f36600319011261023b5761060c6118a8565b5f80808047818115610623575b3390f11561035757005b506108fc610619565b3461023b57602036600319011261023b5760206106576004355f526009602052600160405f20015490565b604051908152f35b3461023b57604036600319011261023b5761034d60043561067e6102ab565b9061069d610698825f526009602052600160405f20015490565b6118f7565b611a53565b3461023b57604036600319011261023b576004356106be6102ab565b336001600160a01b038216036106d75761034d91611ae3565b63334bd91960e11b5f5260045ffd5b61034d6106f2366105a8565b9060405192610702602085611156565b5f84526117da565b3461023b57602036600319011261023b57600435610727816119e8565b5f8281526006602052604090208054916001600160a01b03811691338085149084141715610754565b1590565b61084a575b5f93610841575b506001600160a01b0382165f90815260056020526040902080546fffffffffffffffffffffffffffffffff0190556001600160a01b0382164260a01b17600360e01b176107b5855f52600460205260405f2090565b55600160e11b8116156107fc575b507fddf252ad1be2c89b69c2b068fc378daa952ba7f163c4a11628f55a4df523b3ef8280a461034d6107f760015460010190565b600155565b60018401610812815f52600460205260405f2090565b541561081f575b506107c3565b8354811461081957610839905f52600460205260405f2090565b555f80610819565b8390555f610760565b61088a6107506108833361086e8760018060a01b03165f52600760205260405f2090565b9060018060a01b03165f5260205260405f2090565b5460ff1690565b1561075957611990565b9181601f8401121561023b578235916001600160401b03831161023b576020838186019501011161023b57565b3461023b57602036600319011261023b576004356001600160401b03811161023b576108f1903690600401610894565b6108f96118a8565b6001600160401b0381116109d45761091b81610916600a54611544565b611712565b5f601f8211600114610958578190610948935f9261094d575b50508160011b915f199060031b1c19161790565b600a55005b013590505f80610934565b600a5f52601f198216927fc65a7bb8d6351c1cf70c95a316cc6a92839c986682d98bc35f958f4883f9d2a8915f5b8581106109bc575083600195106109a3575b505050811b01600a55005b01355f19600384901b60f8161c191690555f8080610998565b90926020600181928686013581550194019101610986565b611142565b60206040818301928281528451809452019201905f5b8181106109fc5750505090565b9091926020608082610a47600194885162ffffff6060809260018060a01b0381511685526001600160401b036020820151166020860152604081015115156040860152015116910152565b0194019291016109ef565b3461023b57602036600319011261023b576004356001600160401b03811161023b573660238201121561023b578060040135906001600160401b03821161023b573660248360051b8301011161023b576103e8916024610ab29201611762565b604051918291826109d9565b3461023b57602036600319011261023b5760206001600160a01b03610ae46004356119e8565b16604051908152f35b3461023b57602036600319011261023b57610b06610295565b610b0e6118a8565b604051610b1c602082611156565b5f808252546001600160a01b0383164260a01b17600160e11b17610b48825f52600460205260405f2090565b556001600160a01b0383165f818152600560205260409020805468010000000000000001019055918215610c0c5760018201919360015b15610bb2575b5f85855f7fddf252ad1be2c89b69c2b068fc378daa952ba7f163c4a11628f55a4df523b3ef8180a4610b7f565b9360010193828503610b8557825f55803b610bc957005b5f545f198101919060015b15610bf8575b5f610bed61075086600187019686611be0565b15610bd4575b61180c565b808310610bda57925050505f540361023b57005b61199f565b3461023b57602036600319011261023b576020610657610c2f610295565b6117a4565b3461023b575f36600319011261023b5760205f54604051908152f35b60206040818301928281528451809452019201905f5b818110610c735750505090565b8251845260209384019390920191600101610c66565b3461023b57602036600319011261023b57610ca2610295565b5f5460609080600103610cbe575b604051806103e88482610c50565b90819260019060609380831015610e14575f5480911015610e0c575b50610ce4816117a4565b9285831015610e04575b83610d03575b505050506103e891505f610cb0565b92935090915f19850184811115610dfc575b506040519183850160051b83019485604052610d308561184f565b905f91610d436107506040830151151590565b610dea575b505f97919591825b15610dbb575b5f96610d6184611ca7565b604081015115610d8057505060015f935b019688604052969296610d50565b9390935180610db3575b50848418861b15610d9e575b600190610d72565b6001909901600581901b87018a905298610d96565b93505f610d8a565b8083148015610de1575b15610d565750505050509150506103e89181525f808080610cf4565b50818914610dc5565b516001600160a01b031691505f610d48565b93505f610d15565b5f9350610cee565b94505f610cda565b6119d9565b3461023b57604036600319011261023b57602060ff610e5c600435610e3c6102ab565b905f526009845260405f209060018060a01b03165f5260205260405f2090565b54166040519015158152f35b3461023b575f36600319011261023b576040515f600354610e8881611544565b808452906001811690811561044a5750600114610eaf576103e8836103dc81850382611156565b91905060035f527fc2575a0e9e593c00f959f8c92f12db2869c3395a3b0502d05e2516446f71f85b915f905b808210610ef3575090915081016020016103dc6103cc565b919260018160209254838588010152019101909291610edb565b3461023b57606036600319011261023b57610f26610295565b60443590606090602435838181811015610e1457600111611085575b5f548091101561107d575b50610f57826117a4565b9184821015611075575b82610f75575b604051806103e88682610c50565b908092935084038381111561106d575b50604051906001840160051b82019384604052610fa18461184f565b905f91610fb46107506040830151151590565b61105b575b505f9691949160015b1561102e575b5f95610fd384611ca7565b604081015115610ff257505060015f935b019587604052959295610fc2565b9390935180611026575b5084841860601b15611011575b600190610fe4565b6001909801600581901b860189905297611009565b93505f610ffc565b8083148015611052575b15610fc857505050509150506103e89181525f8080610f67565b50818814611038565b516001600160a01b031691505f610fb9565b92505f610f85565b5f9250610f61565b93505f610f4d565b60019150610f42565b3461023b575f36600319011261023b5760206040515f8152f35b8015150361023b57565b3461023b57604036600319011261023b576110cb610295565b602435906110d8826110a8565b335f9081526007602090815260408083206001600160a01b038516845290915290209115159160ff1981541660ff841617905560405191825260018060a01b0316907f17307eab39ab6107e8899845ad3d59bd9653f200f220920489ca2b5937696c3160203392a3005b634e487b7160e01b5f52604160045260245ffd5b90601f801991011681019081106001600160401b038211176109d457604052565b6001600160401b0381116109d457601f01601f191660200190565b608036600319011261023b576111a6610295565b6111ae6102ab565b90604435606435926001600160401b03841161023b573660238501121561023b578360040135926111de84611177565b936111ec6040519586611156565b808552366024828801011161023b576020815f92602461034d990183890137860101526117da565b3461023b57602036600319011261023b576001600160a01b03611235610295565b165f526005602052602060405f205460c01c604051908152f35b3461023b57602036600319011261023b57608061126d60043561184f565b6112b0604051809262ffffff6060809260018060a01b0381511685526001600160401b036020820151166020860152604081015115156040860152015116910152565bf35b3461023b57602036600319011261023b576004356112cf81611931565b156113ee57604051600a54815f6112e583611544565b80835292600181169081156113cf5750600114611370575b61130992500382611156565b80511561135e576103dc6113399161135061133f6113296103e896611cff565b6040519586946020860190611896565b90611896565b64173539b7b760d91b815260050190565b03601f198101835282611156565b50506103e861136b6116fe565b6103dc565b5090600a5f527fc65a7bb8d6351c1cf70c95a316cc6a92839c986682d98bc35f958f4883f9d2a8905f915b8183106113b3575050906020611309928201016112fd565b602091935080600191548385880101520191019091839261139b565b6020925061130994915060ff191682840152151560051b8201016112fd565b630a14c4b560e41b5f5260045ffd5b3461023b57604036600319011261023b57611416610295565b602435906001600160401b03821161023b57603461147b61143e6103e8943690600401610894565b92908360405194859260208401976bffffffffffffffffffffffff199060601b1688528484013781015f838201520301601f198101835282611156565b5190206040519081529081906020820190565b3461023b57604036600319011261023b5761034d6004356114ad6102ab565b906114c7610698825f526009602052600160405f20015490565b611ae3565b3461023b575f36600319011261023b576020600154604051908152f35b3461023b57604036600319011261023b57602060ff610e5c611509610295565b6115116102ab565b6001600160a01b039182165f9081526007865260408082209290931681526020919091522090565b6040513d5f823e3d90fd5b90600182811c92168015611572575b602083101461155e57565b634e487b7160e01b5f52602260045260245ffd5b91607f1691611553565b9190611587826119e8565b6001600160a01b039384169381168490036116f9575f83815260066020526040902080546115c46001600160a01b03871633908114908314171590565b6116cb575b6116c2575b506001600160a01b0384165f90815260056020526040902080545f190190556001600160a01b0382165f908152600560205260409020805460010190556001600160a01b0382164260a01b17600160e11b17611632845f52600460205260405f2090565b55600160e11b81161561167d575b506001600160a01b03169182907fddf252ad1be2c89b69c2b068fc378daa952ba7f163c4a11628f55a4df523b3ef5f80a41561167857565b6119bb565b60018301611693815f52600460205260405f2090565b54156116a0575b50611640565b5f54811461169a576116ba905f52600460205260405f2090565b555f8061169a565b5f90555f6115ce565b6116ef6107506108833361086e8a60018060a01b03165f52600760205260405f2090565b156115c957611990565b6119ad565b6040519061170d602083611156565b5f8252565b601f811161171e575050565b600a5f5260205f20906020601f840160051c83019310611758575b601f0160051c01905b81811061174d575050565b5f8155600101611742565b9091508190611739565b6040519180835260051b906020828401016040525b8182801561179d57601f199081019361179491908401013561184f565b90840152611777565b5050505090565b6001600160a01b031680156117cb575f5260056020526001600160401b0360405f20541690565b6323d3ad8160e21b5f5260045ffd5b9291906117e882828661157c565b803b6117f5575b50505050565b6117fe93611c7f565b1561180c575f8080806117ef565b6368d2bf6b60e11b5f5260045ffd5b60405190608082018281106001600160401b038211176109d4576040525f6060838281528260208201528260408201520152565b9061185861181b565b9160018110156118655750565b5f5481106118705750565b9091505b805f52600460205260405f205461188d575f1901611874565b61039190611ca7565b805191908290602001825e015f815290565b335f9081527fec8156718a8372b1db44bb411437d0870f3e3790d4a08526d024ce1b0b668f6b602052604090205460ff16156118e057565b63e2517d3f60e01b5f52336004525f60245260445ffd5b5f81815260096020908152604080832033845290915290205460ff161561191b5750565b63e2517d3f60e01b5f523360045260245260445ffd5b905f9180600111156119405750565b5f54811061194b5750565b9091505b805f52600460205260405f20548061198457508015611970575f190161194f565b634e487b7160e01b5f52601160045260245ffd5b600160e01b1615919050565b632ce44b5f60e11b5f5260045ffd5b622e076360e81b5f5260045ffd5b62a1148160e81b5f5260045ffd5b633a954ecd60e21b5f5260045ffd5b636f96cda160e11b5f5260045ffd5b631960ccad60e11b5f5260045ffd5b806001116119ca57611a02815f52600460205260405f2090565b54908115611a195750600160e01b81166119ca5790565b90505f548110156119ca575b5f19015f81815260046020526040902054908115611a4c5750600160e01b81166119ca5790565b9050611a25565b5f8181526009602090815260408083206001600160a01b038616845290915290205460ff16611add575f8181526009602090815260408083206001600160a01b03861684529091529020805460ff1916600117905533916001600160a01b0316907f2f8788117e7eff1d82e926ec794901d17c78024a50270940304540a733656f0d5f80a4600190565b50505f90565b5f8181526009602090815260408083206001600160a01b038616845290915290205460ff1615611add575f8181526009602090815260408083206001600160a01b03861684529091529020805460ff1916905533916001600160a01b0316907ff6391f5c32d9c69d2a47ea670b442974b53935d1edc7fd64eb21e047a839171b5f80a4600190565b9081602091031261023b575161039181610229565b6001600160a01b0391821681529116602082015260408101919091526080606082018190526103919291019061035c565b3d15611bdb573d90611bc282611177565b91611bd06040519384611156565b82523d5f602084013e565b606090565b91611c07926020925f604051809681958294630a85bd0160e11b8452843360048601611b80565b03926001600160a01b03165af15f9181611c4e575b50611c3857611c29611bb1565b805115610bf357805190602001fd5b6001600160e01b031916630a85bd0160e11b1490565b611c7191925060203d602011611c78575b611c698183611156565b810190611b6b565b905f611c1c565b503d611c5f565b906020925f611c07959360405196879586948593630a85bd0160e11b85523360048601611b80565b611caf61181b565b505f52600460205260405f2054611cc461181b565b6001600160a01b038216815260a082901c6001600160401b03166020820152600160e01b82161515604082015260e89190911c606082015290565b9060405160a08101604052600a60808201935f8552935b5f190193603082820601855304928315611d3257600a90611d16565b809350608091030191601f190191825256fea26469706673582212200499206e0f4e9f81a0ad47fa948e6c7fa8644c81e35b7797688109de2fe6134564736f6c634300081a0033ec8156718a8372b1db44bb411437d0870f3e3790d4a08526d024ce1b0b668f6b",
  "linkReferences": {},
  "deployedLinkReferences": {}
}