{
  "_format": "hh-sol-artifact-1",
  "contractName": "WonderbitsSFT",
  "sourceName": "contracts/wonderbits/impl/sft/WonderbitsSFT.sol",
  "abi": [
    {
      "inputs": [],
      "stateMutability": "nonpayable",
      "type": "constructor"
    },
    {
      "inputs": [],
      "name": "AccessControlBadConfirmation",
      "type": "error"
    },
    {
      "inputs": [
        {
          "internalType": "address",
          "name": "account",
          "type": "address"
        },
        {
          "internalType": "bytes32",
          "name": "neededRole",
          "type": "bytes32"
        }
      ],
      "name": "AccessControlUnauthorizedAccount",
      "type": "error"
    },
    {
      "inputs": [
        {
          "internalType": "address",
          "name": "sender",
          "type": "address"
        },
        {
          "internalType": "uint256",
          "name": "balance",
          "type": "uint256"
        },
        {
          "internalType": "uint256",
          "name": "needed",
          "type": "uint256"
        },
        {
          "internalType": "uint256",
          "name": "tokenId",
          "type": "uint256"
        }
      ],
      "name": "ERC1155InsufficientBalance",
      "type": "error"
    },
    {
      "inputs": [
        {
          "internalType": "address",
          "name": "approver",
          "type": "address"
        }
      ],
      "name": "ERC1155InvalidApprover",
      "type": "error"
    },
    {
      "inputs": [
        {
          "internalType": "uint256",
          "name": "idsLength",
          "type": "uint256"
        },
        {
          "internalType": "uint256",
          "name": "valuesLength",
          "type": "uint256"
        }
      ],
      "name": "ERC1155InvalidArrayLength",
      "type": "error"
    },
    {
      "inputs": [
        {
          "internalType": "address",
          "name": "operator",
          "type": "address"
        }
      ],
      "name": "ERC1155InvalidOperator",
      "type": "error"
    },
    {
      "inputs": [
        {
          "internalType": "address",
          "name": "receiver",
          "type": "address"
        }
      ],
      "name": "ERC1155InvalidReceiver",
      "type": "error"
    },
    {
      "inputs": [
        {
          "internalType": "address",
          "name": "sender",
          "type": "address"
        }
      ],
      "name": "ERC1155InvalidSender",
      "type": "error"
    },
    {
      "inputs": [
        {
          "internalType": "address",
          "name": "operator",
          "type": "address"
        },
        {
          "internalType": "address",
          "name": "owner",
          "type": "address"
        }
      ],
      "name": "ERC1155MissingApprovalForAll",
      "type": "error"
    },
    {
      "inputs": [
        {
          "internalType": "address",
          "name": "recovered",
          "type": "address"
        }
      ],
      "name": "InvalidAdminSignature",
      "type": "error"
    },
    {
      "anonymous": false,
      "inputs": [
        {
          "indexed": true,
          "internalType": "address",
          "name": "account",
          "type": "address"
        },
        {
          "indexed": true,
          "internalType": "address",
          "name": "operator",
          "type": "address"
        },
        {
          "indexed": false,
          "internalType": "bool",
          "name": "approved",
          "type": "bool"
        }
      ],
      "name": "ApprovalForAll",
      "type": "event"
    },
    {
      "anonymous": false,
      "inputs": [
        {
          "indexed": true,
          "internalType": "bytes32",
          "name": "role",
          "type": "bytes32"
        },
        {
          "indexed": true,
          "internalType": "bytes32",
          "name": "previousAdminRole",
          "type": "bytes32"
        },
        {
          "indexed": true,
          "internalType": "bytes32",
          "name": "newAdminRole",
          "type": "bytes32"
        }
      ],
      "name": "RoleAdminChanged",
      "type": "event"
    },
    {
      "anonymous": false,
      "inputs": [
        {
          "indexed": true,
          "internalType": "bytes32",
          "name": "role",
          "type": "bytes32"
        },
        {
          "indexed": true,
          "internalType": "address",
          "name": "account",
          "type": "address"
        },
        {
          "indexed": true,
          "internalType": "address",
          "name": "sender",
          "type": "address"
        }
      ],
      "name": "RoleGranted",
      "type": "event"
    },
    {
      "anonymous": false,
      "inputs": [
        {
          "indexed": true,
          "internalType": "bytes32",
          "name": "role",
          "type": "bytes32"
        },
        {
          "indexed": true,
          "internalType": "address",
          "name": "account",
          "type": "address"
        },
        {
          "indexed": true,
          "internalType": "address",
          "name": "sender",
          "type": "address"
        }
      ],
      "name": "RoleRevoked",
      "type": "event"
    },
    {
      "anonymous": false,
      "inputs": [
        {
          "indexed": true,
          "internalType": "address",
          "name": "operator",
          "type": "address"
        },
        {
          "indexed": true,
          "internalType": "address",
          "name": "from",
          "type": "address"
        },
        {
          "indexed": true,
          "internalType": "address",
          "name": "to",
          "type": "address"
        },
        {
          "indexed": false,
          "internalType": "uint256[]",
          "name": "ids",
          "type": "uint256[]"
        },
        {
          "indexed": false,
          "internalType": "uint256[]",
          "name": "values",
          "type": "uint256[]"
        }
      ],
      "name": "TransferBatch",
      "type": "event"
    },
    {
      "anonymous": false,
      "inputs": [
        {
          "indexed": true,
          "internalType": "address",
          "name": "operator",
          "type": "address"
        },
        {
          "indexed": true,
          "internalType": "address",
          "name": "from",
          "type": "address"
        },
        {
          "indexed": true,
          "internalType": "address",
          "name": "to",
          "type": "address"
        },
        {
          "indexed": false,
          "internalType": "uint256",
          "name": "id",
          "type": "uint256"
        },
        {
          "indexed": false,
          "internalType": "uint256",
          "name": "value",
          "type": "uint256"
        }
      ],
      "name": "TransferSingle",
      "type": "event"
    },
    {
      "anonymous": false,
      "inputs": [
        {
          "indexed": false,
          "internalType": "string",
          "name": "value",
          "type": "string"
        },
        {
          "indexed": true,
          "internalType": "uint256",
          "name": "id",
          "type": "uint256"
        }
      ],
      "name": "URI",
      "type": "event"
    },
    {
      "inputs": [],
      "name": "DEFAULT_ADMIN_ROLE",
      "outputs": [
        {
          "internalType": "bytes32",
          "name": "",
          "type": "bytes32"
        }
      ],
      "stateMutability": "view",
      "type": "function"
    },
    {
      "inputs": [
        {
          "internalType": "address",
          "name": "account",
          "type": "address"
        },
        {
          "internalType": "uint256",
          "name": "id",
          "type": "uint256"
        }
      ],
      "name": "balanceOf",
      "outputs": [
        {
          "internalType": "uint256",
          "name": "",
          "type": "uint256"
        }
      ],
      "stateMutability": "view",
      "type": "function"
    },
    {
      "inputs": [
        {
          "internalType": "address[]",
          "name": "accounts",
          "type": "address[]"
        },
        {
          "internalType": "uint256[]",
          "name": "ids",
          "type": "uint256[]"
        }
      ],
      "name": "balanceOfBatch",
      "outputs": [
        {
          "internalType": "uint256[]",
          "name": "",
          "type": "uint256[]"
        }
      ],
      "stateMutability": "view",
      "type": "function"
    },
    {
      "inputs": [
        {
          "internalType": "uint256",
          "name": "id",
          "type": "uint256"
        },
        {
          "internalType": "uint256",
          "name": "amount",
          "type": "uint256"
        }
      ],
      "name": "burn",
      "outputs": [],
      "stateMutability": "nonpayable",
      "type": "function"
    },
    {
      "inputs": [
        {
          "internalType": "uint256[]",
          "name": "ids",
          "type": "uint256[]"
        },
        {
          "internalType": "uint256[]",
          "name": "amounts",
          "type": "uint256[]"
        }
      ],
      "name": "burnBatch",
      "outputs": [],
      "stateMutability": "nonpayable",
      "type": "function"
    },
    {
      "inputs": [
        {
          "internalType": "bytes32",
          "name": "role",
          "type": "bytes32"
        }
      ],
      "name": "getRoleAdmin",
      "outputs": [
        {
          "internalType": "bytes32",
          "name": "",
          "type": "bytes32"
        }
      ],
      "stateMutability": "view",
      "type": "function"
    },
    {
      "inputs": [
        {
          "internalType": "bytes32",
          "name": "role",
          "type": "bytes32"
        },
        {
          "internalType": "address",
          "name": "account",
          "type": "address"
        }
      ],
      "name": "grantRole",
      "outputs": [],
      "stateMutability": "nonpayable",
      "type": "function"
    },
    {
      "inputs": [
        {
          "internalType": "bytes32",
          "name": "role",
          "type": "bytes32"
        },
        {
          "internalType": "address",
          "name": "account",
          "type": "address"
        }
      ],
      "name": "hasRole",
      "outputs": [
        {
          "internalType": "bool",
          "name": "",
          "type": "bool"
        }
      ],
      "stateMutability": "view",
      "type": "function"
    },
    {
      "inputs": [
        {
          "internalType": "address",
          "name": "account",
          "type": "address"
        },
        {
          "internalType": "address",
          "name": "operator",
          "type": "address"
        }
      ],
      "name": "isApprovedForAll",
      "outputs": [
        {
          "internalType": "bool",
          "name": "",
          "type": "bool"
        }
      ],
      "stateMutability": "view",
      "type": "function"
    },
    {
      "inputs": [
        {
          "internalType": "address",
          "name": "to",
          "type": "address"
        },
        {
          "internalType": "uint256",
          "name": "id",
          "type": "uint256"
        },
        {
          "internalType": "uint256",
          "name": "amount",
          "type": "uint256"
        },
        {
          "internalType": "bytes",
          "name": "data",
          "type": "bytes"
        }
      ],
      "name": "mint",
      "outputs": [],
      "stateMutability": "nonpayable",
      "type": "function"
    },
    {
      "inputs": [
        {
          "internalType": "address",
          "name": "to",
          "type": "address"
        },
        {
          "internalType": "uint256[]",
          "name": "ids",
          "type": "uint256[]"
        },
        {
          "internalType": "uint256[]",
          "name": "amounts",
          "type": "uint256[]"
        },
        {
          "internalType": "bytes",
          "name": "data",
          "type": "bytes"
        }
      ],
      "name": "mintBatch",
      "outputs": [],
      "stateMutability": "nonpayable",
      "type": "function"
    },
    {
      "inputs": [
        {
          "internalType": "address",
          "name": "addr",
          "type": "address"
        },
        {
          "internalType": "bytes",
          "name": "salt",
          "type": "bytes"
        }
      ],
      "name": "opHash",
      "outputs": [
        {
          "internalType": "bytes32",
          "name": "",
          "type": "bytes32"
        }
      ],
      "stateMutability": "pure",
      "type": "function"
    },
    {
      "inputs": [
        {
          "internalType": "bytes32",
          "name": "role",
          "type": "bytes32"
        },
        {
          "internalType": "address",
          "name": "callerConfirmation",
          "type": "address"
        }
      ],
      "name": "renounceRole",
      "outputs": [],
      "stateMutability": "nonpayable",
      "type": "function"
    },
    {
      "inputs": [
        {
          "internalType": "bytes32",
          "name": "role",
          "type": "bytes32"
        },
        {
          "internalType": "address",
          "name": "account",
          "type": "address"
        }
      ],
      "name": "revokeRole",
      "outputs": [],
      "stateMutability": "nonpayable",
      "type": "function"
    },
    {
      "inputs": [
        {
          "internalType": "address",
          "name": "from",
          "type": "address"
        },
        {
          "internalType": "address",
          "name": "to",
          "type": "address"
        },
        {
          "internalType": "uint256[]",
          "name": "ids",
          "type": "uint256[]"
        },
        {
          "internalType": "uint256[]",
          "name": "values",
          "type": "uint256[]"
        },
        {
          "internalType": "bytes",
          "name": "data",
          "type": "bytes"
        }
      ],
      "name": "safeBatchTransferFrom",
      "outputs": [],
      "stateMutability": "nonpayable",
      "type": "function"
    },
    {
      "inputs": [
        {
          "internalType": "address",
          "name": "from",
          "type": "address"
        },
        {
          "internalType": "address",
          "name": "to",
          "type": "address"
        },
        {
          "internalType": "uint256",
          "name": "id",
          "type": "uint256"
        },
        {
          "internalType": "uint256",
          "name": "value",
          "type": "uint256"
        },
        {
          "internalType": "bytes",
          "name": "data",
          "type": "bytes"
        }
      ],
      "name": "safeTransferFrom",
      "outputs": [],
      "stateMutability": "nonpayable",
      "type": "function"
    },
    {
      "inputs": [
        {
          "internalType": "address",
          "name": "operator",
          "type": "address"
        },
        {
          "internalType": "bool",
          "name": "approved",
          "type": "bool"
        }
      ],
      "name": "setApprovalForAll",
      "outputs": [],
      "stateMutability": "nonpayable",
      "type": "function"
    },
    {
      "inputs": [
        {
          "internalType": "bytes4",
          "name": "interfaceId",
          "type": "bytes4"
        }
      ],
      "name": "supportsInterface",
      "outputs": [
        {
          "internalType": "bool",
          "name": "",
          "type": "bool"
        }
      ],
      "stateMutability": "view",
      "type": "function"
    },
    {
      "inputs": [
        {
          "internalType": "uint256",
          "name": "",
          "type": "uint256"
        }
      ],
      "name": "uri",
      "outputs": [
        {
          "internalType": "string",
          "name": "",
          "type": "string"
        }
      ],
      "stateMutability": "view",
      "type": "function"
    },
    {
      "inputs": [],
      "name": "withdrawFunds",
      "outputs": [],
      "stateMutability": "nonpayable",
      "type": "function"
    },
    {
      "inputs": [
        {
          "internalType": "address",
          "name": "_tokenAddr",
          "type": "address"
        },
        {
          "internalType": "uint256",
          "name": "_amount",
          "type": "uint256"
        }
      ],
      "name": "withdrawTokens",
      "outputs": [],
      "stateMutability": "nonpayable",
      "type": "function"
    }
  ],
  "bytecode": "0x6080346100dd5760208101906001600160401b038211818310176100c9575f9160405252600254600181811c911680156100bf575b60208210146100ab57601f8111610063575b5f600255610053336100e1565b5060405161181d908161016b8239f35b60025f52601f0160051c7f405787fa12a823e0f2b7631cc41b3ba8828b3321ca811111fa75cd3aa3bb5ace908101905b8181106100a05750610046565b5f8155600101610093565b634e487b7160e01b5f52602260045260245ffd5b90607f1690610034565b634e487b7160e01b5f52604160045260245ffd5b5f80fd5b6001600160a01b0381165f9081525f80516020611988833981519152602052604090205460ff16610165576001600160a01b03165f8181525f8051602061198883398151915260205260408120805460ff191660011790553391907f2f8788117e7eff1d82e926ec794901d17c78024a50270940304540a733656f0d8180a4600190565b505f9056fe60806040526004361015610011575f80fd5b5f3560e01c8062fdd58e1461016357806301ffc9a71461015e57806306b091f9146101595780630e89341c146101545780631f7fdffa1461014f57806324600fc31461014a578063248a9ca3146101455780632eb2c2d6146101405780632f2ff15d1461013b57806336568abe146101365780634e1273f414610131578063731133e91461012c57806383ca4b6f1461012757806391d1485414610122578063a217fddf1461011d578063a22cb46514610118578063b390c0ab14610113578063cf55fea71461010e578063d547741f14610109578063e985e9c5146101045763f242432a146100ff575f80fd5b610cdf565b610c8f565b610c51565b610bc0565b610b69565b610ac0565b610a9c565b610a4d565b6109b0565b61091e565b61085f565b6107d7565b610794565b61070a565b6105b3565b61057b565b6104b3565b610362565b61028f565b610206565b6101ac565b600435906001600160a01b038216820361017e57565b5f80fd5b602435906001600160a01b038216820361017e57565b35906001600160a01b038216820361017e57565b3461017e57604036600319011261017e5760206101eb6101ca610168565b6024355f525f835260405f209060018060a01b03165f5260205260405f2090565b54604051908152f35b6001600160e01b031981160361017e57565b3461017e57602036600319011261017e57600435610223816101f4565b63ffffffff60e01b16637965db0b60e01b811490811561024c575b506040519015158152602090f35b636cdb3d1360e11b81149150811561027e575b811561026d575b505f61023e565b6301ffc9a760e01b1490505f610266565b6303a24d0760e21b8114915061025f565b3461017e57604036600319011261017e575f60206102ab610168565b60446024356102b8610f05565b60405163a9059cbb60e01b815233600482015260248101919091529384928391906001600160a01b03165af18015610325576102f057005b6020813d60201161031d575b81610309602093836105fa565b8101031261017e5761031b9051610ab6565b005b3d91506102fc565b610dc0565b805180835260209291819084018484015e5f828201840152601f01601f1916010190565b90602061035f92818152019061032a565b90565b3461017e57602036600319011261017e576040515f6002548060011c906001811690811561044c575b60208310821461043857828552602085019190811561041f57506001146103cd575b6103c9846103bd818603826105fa565b6040519182918261034e565b0390f35b60025f9081529250907f405787fa12a823e0f2b7631cc41b3ba8828b3321ca811111fa75cd3aa3bb5ace5b81841061040b575050016103bd826103ad565b8054848401526020909301926001016103f8565b60ff191682525090151560051b0190506103bd826103ad565b634e487b7160e01b5f52602260045260245ffd5b91607f169161038b565b9181601f8401121561017e578235916001600160401b03831161017e576020808501948460051b01011161017e57565b9181601f8401121561017e578235916001600160401b03831161017e576020838186019501011161017e57565b3461017e57608036600319011261017e576104cc610168565b6024356001600160401b03811161017e576104eb903690600401610456565b906044356001600160401b03811161017e5761050b903690600401610456565b926064356001600160401b03811161017e5761054f9261053f610535610547933690600401610486565b9690943691610637565b953691610637565b9236916106b9565b916001600160a01b038416156105685761031b936110a6565b632bfa23e760e11b5f525f60045260245ffd5b3461017e575f36600319011261017e57610593610f05565b5f808080478181156105aa575b3390f11561032557005b506108fc6105a0565b3461017e57602036600319011261017e5760206105de6004355f526003602052600160405f20015490565b604051908152f35b634e487b7160e01b5f52604160045260245ffd5b90601f801991011681019081106001600160401b0382111761061b57604052565b6105e6565b6001600160401b03811161061b5760051b60200190565b92919061064381610620565b9361065160405195866105fa565b602085838152019160051b810192831161017e57905b82821061067357505050565b8135815260209182019101610667565b9080601f8301121561017e5781602061035f93359101610637565b6001600160401b03811161061b57601f01601f191660200190565b9291926106c58261069e565b916106d360405193846105fa565b82948184528183011161017e578281602093845f960137010152565b9080601f8301121561017e5781602061035f933591016106b9565b3461017e5760a036600319011261017e57610723610168565b61072b610182565b906044356001600160401b03811161017e5761074b903690600401610683565b6064356001600160401b03811161017e5761076a903690600401610683565b90608435936001600160401b03851161017e5761078e61031b9536906004016106ef565b93610dcb565b3461017e57604036600319011261017e5761031b6004356107b3610182565b906107d26107cd825f526003602052600160405f20015490565b610f54565b610f8e565b3461017e57604036600319011261017e576004356107f3610182565b336001600160a01b0382160361080c5761031b9161101e565b63334bd91960e11b5f5260045ffd5b90602080835192838152019201905f5b8181106108385750505090565b825184526020938401939092019160010161082b565b90602061035f92818152019061081b565b3461017e57604036600319011261017e576004356001600160401b03811161017e573660238201121561017e5780600401359061089b82610620565b916108a960405193846105fa565b8083526024602084019160051b8301019136831161017e57602401905b82821061090657836024356001600160401b03811161017e576103c9916108f46108fa923690600401610683565b90610e51565b6040519182918261084e565b6020809161091384610198565b8152019101906108c6565b3461017e57608036600319011261017e57610937610168565b602435604435916064356001600160401b03811161017e5761096061096f913690600401610486565b610968610f05565b36916106b9565b916001600160a01b038216156105685761031b936109aa60405192600184526020840152604083019160018352606084015260808301604052565b916110a6565b3461017e57604036600319011261017e576004356001600160401b03811161017e576109e0903690600401610456565b602435906001600160401b03821161017e57610a10610a06610a18933690600401610456565b9490923691610637565b923691610637565b903315610a3b5761031b9160405191610a326020846105fa565b5f835233611217565b626a0d4560e21b5f525f60045260245ffd5b3461017e57604036600319011261017e57602060ff610a90600435610a70610182565b905f526003845260405f209060018060a01b03165f5260205260405f2090565b54166040519015158152f35b3461017e575f36600319011261017e5760206040515f8152f35b8015150361017e57565b3461017e57604036600319011261017e57610ad9610168565b602435610ae581610ab6565b6001600160a01b038216918215610b5757335f9081526001602090815260408083206001600160a01b0390941683529290522060ff1981541660ff8315151617905560405190151581527f17307eab39ab6107e8899845ad3d59bd9653f200f220920489ca2b5937696c3160203392a3005b62ced3e160e81b5f525f60045260245ffd5b3461017e57604036600319011261017e576024356004353315610a3b5761031b91610bb160405192600184526020840152604083019160018352606084015260808301604052565b60405191610a326020846105fa565b3461017e57604036600319011261017e57610bd9610168565b602435906001600160401b03821161017e576034610c3e610c016103c9943690600401610486565b92908360405194859260208401976bffffffffffffffffffffffff199060601b1688528484013781015f838201520301601f1981018352826105fa565b5190206040519081529081906020820190565b3461017e57604036600319011261017e5761031b600435610c70610182565b90610c8a6107cd825f526003602052600160405f20015490565b61101e565b3461017e57604036600319011261017e57602060ff610a90610caf610168565b610cb7610182565b6001600160a01b039182165f9081526001865260408082209290931681526020919091522090565b3461017e5760a036600319011261017e57610cf8610168565b610d00610182565b60443590606435926084356001600160401b03811161017e57610d279036906004016106ef565b926001600160a01b0382163381141580610d9d575b610d87576001600160a01b038416156105685715610a3b5761031b94610d7f60405192600184526020840152604083019160018352606084015260808301604052565b929091611367565b63711bec9160e11b5f523360045260245260445ffd5b505f81815260016020908152604080832033845290915290205460ff1615610d3c565b6040513d5f823e3d90fd5b939291906001600160a01b0385163381141580610e06575b610d87576001600160a01b038216156105685715610a3b57610e0494611367565b565b505f81815260016020908152604080832033845290915290205460ff1615610de3565b8051821015610e3d5760209160051b010190565b634e487b7160e01b5f52603260045260245ffd5b91909180518351808203610ef0575050805190610e6d82610620565b91610e7b60405193846105fa565b808352610e8a601f1991610620565b013660208401375f5b8151811015610ee95780610ed860019260051b60208082870101519189010151905f918252602082815260408084206001600160a01b03909316845291905290205490565b610ee28286610e29565b5201610e93565b5090925050565b635b05999160e01b5f5260045260245260445ffd5b335f9081527f3617319a054d772f909f7c479a2cebe5066e836a939412e32403c99029b92eff602052604090205460ff1615610f3d57565b63e2517d3f60e01b5f52336004525f60245260445ffd5b5f81815260036020908152604080832033845290915290205460ff1615610f785750565b63e2517d3f60e01b5f523360045260245260445ffd5b5f8181526003602090815260408083206001600160a01b038616845290915290205460ff16611018575f8181526003602090815260408083206001600160a01b03861684529091529020805460ff1916600117905533916001600160a01b0316907f2f8788117e7eff1d82e926ec794901d17c78024a50270940304540a733656f0d5f80a4600190565b50505f90565b5f8181526003602090815260408083206001600160a01b038616845290915290205460ff1615611018575f8181526003602090815260408083206001600160a01b03861684529091529020805460ff1916905533916001600160a01b0316907ff6391f5c32d9c69d2a47ea670b442974b53935d1edc7fd64eb21e047a839171b5f80a4600190565b9392919080518251908181036112025750506001600160a01b03851693841515935f5b83518110156111365780868960019360051b602080828a010151918a010151926110f7575b505050016110c9565b61112c9161110f611124925f525f60205260405f2090565b9060018060a01b03165f5260205260405f2090565b91825461153d565b90555f89816110ee565b509390959460018351145f146111c7576020838101518582015160408051928352928201525f9133917fc3d58168c5ae7397731d063d5bbf3d657854427343f4c083240f7aacaa2d0f629190a45b61118f575b50505050565b80516001036111b757906020806111ae95930151910151915f33611749565b5f808080611189565b6111c2935f3361161a565b6111ae565b5f6040517f4a39dc06d4c0dbc64b70af90fd698a233a518aa5d07e595d983b8c0526c8f7fb3391806111fa89898361155e565b0390a4611184565b635b05999160e01b5f5260045260245260445ffd5b90925082518251908181036112025750506001600160a01b038116801515949093905f5b82518110156112de578060051b876020808387010151928801015190611266575b505060010161123b565b61127b8661110f845f525f60205260405f2090565b548181106112a7578661110f600195949361129f9303935f525f60205260405f2090565b55905f61125c565b6040516303dee4c560e01b81526001600160a01b038816600482015260248101919091526044810182905260648101839052608490fd5b5094505f93929150600181511484146113345760209081015191810151604080519384529183015233917fc3d58168c5ae7397731d063d5bbf3d657854427343f4c083240f7aacaa2d0f6291819081015b0390a4565b60405133927f4a39dc06d4c0dbc64b70af90fd698a233a518aa5d07e595d983b8c0526c8f7fb92829161132f918361155e565b94939290919384518251908181036112025750506001600160a01b038681169586151595918516801515939192905f5b8451811015611470578060051b90898988602080868b010151958c010151926113ef575b936001946113cd575b50505001611397565b6113e59161110f611124925f525f60205260405f2090565b90555f89816113c4565b505090916114088d61110f835f525f60205260405f2090565b54828110611439578291898f611430600197968f95039161110f855f525f60205260405f2090565b559094506113bb565b6040516303dee4c560e01b81526001600160a01b038f16600482015260248101919091526044810183905260648101829052608490fd5b5091989593929790965060018851145f146115035760208881015186820151604080519283529282015233917fc3d58168c5ae7397731d063d5bbf3d657854427343f4c083240f7aacaa2d0f6291a45b6114cc575b5050505050565b84516001036114f2576020806114e89601519201519233611749565b5f808080806114c5565b6114fe9491923361161a565b6114e8565b6040517f4a39dc06d4c0dbc64b70af90fd698a233a518aa5d07e595d983b8c0526c8f7fb339180611535898d8361155e565b0390a46114c0565b9190820180921161154a57565b634e487b7160e01b5f52601160045260245ffd5b909161157561035f9360408452604084019061081b565b91602081840391015261081b565b9081602091031261017e575161035f816101f4565b6001600160a01b0391821681529116602082015260a06040820181905261035f94919391926115dd92916115cf919086019061081b565b90848203606086015261081b565b91608081840391015261032a565b3d15611615573d906115fc8261069e565b9161160a60405193846105fa565b82523d5f602084013e565b606090565b9091949293853b61162e575b505050505050565b60209361165091604051968795869563bc197c8160e01b875260048701611598565b03815f6001600160a01b0387165af15f91816116df575b506116a157506116756115eb565b805191908261169a57632bfa23e760e11b5f526001600160a01b03821660045260245ffd5b9050602001fd5b6001600160e01b0319166343e6837f60e01b016116c457505f8080808080611626565b632bfa23e760e11b5f526001600160a01b031660045260245ffd5b61170291925060203d602011611709575b6116fa81836105fa565b810190611583565b905f611667565b503d6116f0565b6001600160a01b039182168152911660208201526040810191909152606081019190915260a06080820181905261035f9291019061032a565b9091949293853b61175c57505050505050565b60209361177e91604051968795869563f23a6e6160e01b875260048701611710565b03815f6001600160a01b0387165af15f91816117c6575b506117a357506116756115eb565b6001600160e01b031916630dc5919f60e01b016116c457505f8080808080611626565b6117e091925060203d602011611709576116fa81836105fa565b905f61179556fea264697066735822122041e262100d903fb8016196ba7e145522076266afaa940c96d221816402884c6f64736f6c634300081a00333617319a054d772f909f7c479a2cebe5066e836a939412e32403c99029b92eff",
  "linkReferences": {},
  "deployedLinkReferences": {}
}