{
	"contracts/wonderbits/WonderbitsPOAP.sol": {
		"WonderbitsPOAP": {
			"abi": [
				{
					"inputs": [
						{
							"internalType": "string",
							"name": "uri",
							"type": "string"
						}
					],
					"stateMutability": "nonpayable",
					"type": "constructor"
				},
				{
					"inputs": [],
					"name": "AccessControlBadConfirmation",
					"type": "error"
				},
				{
					"inputs": [
						{
							"internalType": "address",
							"name": "account",
							"type": "address"
						},
						{
							"internalType": "bytes32",
							"name": "neededRole",
							"type": "bytes32"
						}
					],
					"name": "AccessControlUnauthorizedAccount",
					"type": "error"
				},
				{
					"inputs": [
						{
							"internalType": "address",
							"name": "sender",
							"type": "address"
						},
						{
							"internalType": "uint256",
							"name": "balance",
							"type": "uint256"
						},
						{
							"internalType": "uint256",
							"name": "needed",
							"type": "uint256"
						},
						{
							"internalType": "uint256",
							"name": "tokenId",
							"type": "uint256"
						}
					],
					"name": "ERC1155InsufficientBalance",
					"type": "error"
				},
				{
					"inputs": [
						{
							"internalType": "address",
							"name": "approver",
							"type": "address"
						}
					],
					"name": "ERC1155InvalidApprover",
					"type": "error"
				},
				{
					"inputs": [
						{
							"internalType": "uint256",
							"name": "idsLength",
							"type": "uint256"
						},
						{
							"internalType": "uint256",
							"name": "valuesLength",
							"type": "uint256"
						}
					],
					"name": "ERC1155InvalidArrayLength",
					"type": "error"
				},
				{
					"inputs": [
						{
							"internalType": "address",
							"name": "operator",
							"type": "address"
						}
					],
					"name": "ERC1155InvalidOperator",
					"type": "error"
				},
				{
					"inputs": [
						{
							"internalType": "address",
							"name": "receiver",
							"type": "address"
						}
					],
					"name": "ERC1155InvalidReceiver",
					"type": "error"
				},
				{
					"inputs": [
						{
							"internalType": "address",
							"name": "sender",
							"type": "address"
						}
					],
					"name": "ERC1155InvalidSender",
					"type": "error"
				},
				{
					"inputs": [
						{
							"internalType": "address",
							"name": "operator",
							"type": "address"
						},
						{
							"internalType": "address",
							"name": "owner",
							"type": "address"
						}
					],
					"name": "ERC1155MissingApprovalForAll",
					"type": "error"
				},
				{
					"anonymous": false,
					"inputs": [
						{
							"indexed": true,
							"internalType": "address",
							"name": "account",
							"type": "address"
						},
						{
							"indexed": true,
							"internalType": "address",
							"name": "operator",
							"type": "address"
						},
						{
							"indexed": false,
							"internalType": "bool",
							"name": "approved",
							"type": "bool"
						}
					],
					"name": "ApprovalForAll",
					"type": "event"
				},
				{
					"anonymous": false,
					"inputs": [
						{
							"indexed": true,
							"internalType": "bytes32",
							"name": "role",
							"type": "bytes32"
						},
						{
							"indexed": true,
							"internalType": "bytes32",
							"name": "previousAdminRole",
							"type": "bytes32"
						},
						{
							"indexed": true,
							"internalType": "bytes32",
							"name": "newAdminRole",
							"type": "bytes32"
						}
					],
					"name": "RoleAdminChanged",
					"type": "event"
				},
				{
					"anonymous": false,
					"inputs": [
						{
							"indexed": true,
							"internalType": "bytes32",
							"name": "role",
							"type": "bytes32"
						},
						{
							"indexed": true,
							"internalType": "address",
							"name": "account",
							"type": "address"
						},
						{
							"indexed": true,
							"internalType": "address",
							"name": "sender",
							"type": "address"
						}
					],
					"name": "RoleGranted",
					"type": "event"
				},
				{
					"anonymous": false,
					"inputs": [
						{
							"indexed": true,
							"internalType": "bytes32",
							"name": "role",
							"type": "bytes32"
						},
						{
							"indexed": true,
							"internalType": "address",
							"name": "account",
							"type": "address"
						},
						{
							"indexed": true,
							"internalType": "address",
							"name": "sender",
							"type": "address"
						}
					],
					"name": "RoleRevoked",
					"type": "event"
				},
				{
					"anonymous": false,
					"inputs": [
						{
							"indexed": true,
							"internalType": "address",
							"name": "operator",
							"type": "address"
						},
						{
							"indexed": true,
							"internalType": "address",
							"name": "from",
							"type": "address"
						},
						{
							"indexed": true,
							"internalType": "address",
							"name": "to",
							"type": "address"
						},
						{
							"indexed": false,
							"internalType": "uint256[]",
							"name": "ids",
							"type": "uint256[]"
						},
						{
							"indexed": false,
							"internalType": "uint256[]",
							"name": "values",
							"type": "uint256[]"
						}
					],
					"name": "TransferBatch",
					"type": "event"
				},
				{
					"anonymous": false,
					"inputs": [
						{
							"indexed": true,
							"internalType": "address",
							"name": "operator",
							"type": "address"
						},
						{
							"indexed": true,
							"internalType": "address",
							"name": "from",
							"type": "address"
						},
						{
							"indexed": true,
							"internalType": "address",
							"name": "to",
							"type": "address"
						},
						{
							"indexed": false,
							"internalType": "uint256",
							"name": "id",
							"type": "uint256"
						},
						{
							"indexed": false,
							"internalType": "uint256",
							"name": "value",
							"type": "uint256"
						}
					],
					"name": "TransferSingle",
					"type": "event"
				},
				{
					"anonymous": false,
					"inputs": [
						{
							"indexed": false,
							"internalType": "string",
							"name": "value",
							"type": "string"
						},
						{
							"indexed": true,
							"internalType": "uint256",
							"name": "id",
							"type": "uint256"
						}
					],
					"name": "URI",
					"type": "event"
				},
				{
					"inputs": [],
					"name": "DEFAULT_ADMIN_ROLE",
					"outputs": [
						{
							"internalType": "bytes32",
							"name": "",
							"type": "bytes32"
						}
					],
					"stateMutability": "view",
					"type": "function"
				},
				{
					"inputs": [
						{
							"internalType": "address",
							"name": "account",
							"type": "address"
						},
						{
							"internalType": "uint256",
							"name": "id",
							"type": "uint256"
						}
					],
					"name": "balanceOf",
					"outputs": [
						{
							"internalType": "uint256",
							"name": "",
							"type": "uint256"
						}
					],
					"stateMutability": "view",
					"type": "function"
				},
				{
					"inputs": [
						{
							"internalType": "address[]",
							"name": "accounts",
							"type": "address[]"
						},
						{
							"internalType": "uint256[]",
							"name": "ids",
							"type": "uint256[]"
						}
					],
					"name": "balanceOfBatch",
					"outputs": [
						{
							"internalType": "uint256[]",
							"name": "",
							"type": "uint256[]"
						}
					],
					"stateMutability": "view",
					"type": "function"
				},
				{
					"inputs": [
						{
							"internalType": "bytes32",
							"name": "role",
							"type": "bytes32"
						}
					],
					"name": "getRoleAdmin",
					"outputs": [
						{
							"internalType": "bytes32",
							"name": "",
							"type": "bytes32"
						}
					],
					"stateMutability": "view",
					"type": "function"
				},
				{
					"inputs": [
						{
							"internalType": "bytes32",
							"name": "role",
							"type": "bytes32"
						},
						{
							"internalType": "address",
							"name": "account",
							"type": "address"
						}
					],
					"name": "grantRole",
					"outputs": [],
					"stateMutability": "nonpayable",
					"type": "function"
				},
				{
					"inputs": [
						{
							"internalType": "bytes32",
							"name": "role",
							"type": "bytes32"
						},
						{
							"internalType": "address",
							"name": "account",
							"type": "address"
						}
					],
					"name": "hasRole",
					"outputs": [
						{
							"internalType": "bool",
							"name": "",
							"type": "bool"
						}
					],
					"stateMutability": "view",
					"type": "function"
				},
				{
					"inputs": [
						{
							"internalType": "address",
							"name": "account",
							"type": "address"
						},
						{
							"internalType": "address",
							"name": "operator",
							"type": "address"
						}
					],
					"name": "isApprovedForAll",
					"outputs": [
						{
							"internalType": "bool",
							"name": "",
							"type": "bool"
						}
					],
					"stateMutability": "view",
					"type": "function"
				},
				{
					"inputs": [
						{
							"internalType": "bytes32",
							"name": "role",
							"type": "bytes32"
						},
						{
							"internalType": "address",
							"name": "callerConfirmation",
							"type": "address"
						}
					],
					"name": "renounceRole",
					"outputs": [],
					"stateMutability": "nonpayable",
					"type": "function"
				},
				{
					"inputs": [
						{
							"internalType": "bytes32",
							"name": "role",
							"type": "bytes32"
						},
						{
							"internalType": "address",
							"name": "account",
							"type": "address"
						}
					],
					"name": "revokeRole",
					"outputs": [],
					"stateMutability": "nonpayable",
					"type": "function"
				},
				{
					"inputs": [
						{
							"internalType": "address",
							"name": "from",
							"type": "address"
						},
						{
							"internalType": "address",
							"name": "to",
							"type": "address"
						},
						{
							"internalType": "uint256[]",
							"name": "ids",
							"type": "uint256[]"
						},
						{
							"internalType": "uint256[]",
							"name": "values",
							"type": "uint256[]"
						},
						{
							"internalType": "bytes",
							"name": "data",
							"type": "bytes"
						}
					],
					"name": "safeBatchTransferFrom",
					"outputs": [],
					"stateMutability": "nonpayable",
					"type": "function"
				},
				{
					"inputs": [
						{
							"internalType": "address",
							"name": "from",
							"type": "address"
						},
						{
							"internalType": "address",
							"name": "to",
							"type": "address"
						},
						{
							"internalType": "uint256",
							"name": "id",
							"type": "uint256"
						},
						{
							"internalType": "uint256",
							"name": "value",
							"type": "uint256"
						},
						{
							"internalType": "bytes",
							"name": "data",
							"type": "bytes"
						}
					],
					"name": "safeTransferFrom",
					"outputs": [],
					"stateMutability": "nonpayable",
					"type": "function"
				},
				{
					"inputs": [
						{
							"internalType": "address",
							"name": "operator",
							"type": "address"
						},
						{
							"internalType": "bool",
							"name": "approved",
							"type": "bool"
						}
					],
					"name": "setApprovalForAll",
					"outputs": [],
					"stateMutability": "nonpayable",
					"type": "function"
				},
				{
					"inputs": [
						{
							"internalType": "bytes4",
							"name": "interfaceId",
							"type": "bytes4"
						}
					],
					"name": "supportsInterface",
					"outputs": [
						{
							"internalType": "bool",
							"name": "",
							"type": "bool"
						}
					],
					"stateMutability": "view",
					"type": "function"
				},
				{
					"inputs": [
						{
							"internalType": "uint256",
							"name": "",
							"type": "uint256"
						}
					],
					"name": "uri",
					"outputs": [
						{
							"internalType": "string",
							"name": "",
							"type": "string"
						}
					],
					"stateMutability": "view",
					"type": "function"
				}
			],
			"devdoc": {
				"details": "Proof of Attendence Protocol (POAP) for Wonderbits. Eligible participants who participate in POAP events are eligible to mint the tokens.",
				"errors": {
					"AccessControlBadConfirmation()": [
						{
							"details": "The caller of a function is not the expected one. NOTE: Don't confuse with {AccessControlUnauthorizedAccount}."
						}
					],
					"AccessControlUnauthorizedAccount(address,bytes32)": [
						{
							"details": "The `account` is missing a role."
						}
					],
					"ERC1155InsufficientBalance(address,uint256,uint256,uint256)": [
						{
							"details": "Indicates an error related to the current `balance` of a `sender`. Used in transfers.",
							"params": {
								"balance": "Current balance for the interacting account.",
								"needed": "Minimum amount required to perform a transfer.",
								"sender": "Address whose tokens are being transferred.",
								"tokenId": "Identifier number of a token."
							}
						}
					],
					"ERC1155InvalidApprover(address)": [
						{
							"details": "Indicates a failure with the `approver` of a token to be approved. Used in approvals.",
							"params": {
								"approver": "Address initiating an approval operation."
							}
						}
					],
					"ERC1155InvalidArrayLength(uint256,uint256)": [
						{
							"details": "Indicates an array length mismatch between ids and values in a safeBatchTransferFrom operation. Used in batch transfers.",
							"params": {
								"idsLength": "Length of the array of token identifiers",
								"valuesLength": "Length of the array of token amounts"
							}
						}
					],
					"ERC1155InvalidOperator(address)": [
						{
							"details": "Indicates a failure with the `operator` to be approved. Used in approvals.",
							"params": {
								"operator": "Address that may be allowed to operate on tokens without being their owner."
							}
						}
					],
					"ERC1155InvalidReceiver(address)": [
						{
							"details": "Indicates a failure with the token `receiver`. Used in transfers.",
							"params": {
								"receiver": "Address to which tokens are being transferred."
							}
						}
					],
					"ERC1155InvalidSender(address)": [
						{
							"details": "Indicates a failure with the token `sender`. Used in transfers.",
							"params": {
								"sender": "Address whose tokens are being transferred."
							}
						}
					],
					"ERC1155MissingApprovalForAll(address,address)": [
						{
							"details": "Indicates a failure with the `operator`’s approval. Used in transfers.",
							"params": {
								"operator": "Address that may be allowed to operate on tokens without being their owner.",
								"owner": "Address of the current owner of a token."
							}
						}
					]
				},
				"events": {
					"ApprovalForAll(address,address,bool)": {
						"details": "Emitted when `account` grants or revokes permission to `operator` to transfer their tokens, according to `approved`."
					},
					"RoleAdminChanged(bytes32,bytes32,bytes32)": {
						"details": "Emitted when `newAdminRole` is set as ``role``'s admin role, replacing `previousAdminRole` `DEFAULT_ADMIN_ROLE` is the starting admin for all roles, despite {RoleAdminChanged} not being emitted signaling this."
					},
					"RoleGranted(bytes32,address,address)": {
						"details": "Emitted when `account` is granted `role`. `sender` is the account that originated the contract call, an admin role bearer except when using {AccessControl-_setupRole}."
					},
					"RoleRevoked(bytes32,address,address)": {
						"details": "Emitted when `account` is revoked `role`. `sender` is the account that originated the contract call:   - if using `revokeRole`, it is the admin role bearer   - if using `renounceRole`, it is the role bearer (i.e. `account`)"
					},
					"TransferBatch(address,address,address,uint256[],uint256[])": {
						"details": "Equivalent to multiple {TransferSingle} events, where `operator`, `from` and `to` are the same for all transfers."
					},
					"TransferSingle(address,address,address,uint256,uint256)": {
						"details": "Emitted when `value` amount of tokens of type `id` are transferred from `from` to `to` by `operator`."
					},
					"URI(string,uint256)": {
						"details": "Emitted when the URI for token type `id` changes to `value`, if it is a non-programmatic URI. If an {URI} event was emitted for `id`, the standard https://eips.ethereum.org/EIPS/eip-1155#metadata-extensions[guarantees] that `value` will equal the value returned by {IERC1155MetadataURI-uri}."
					}
				},
				"kind": "dev",
				"methods": {
					"balanceOf(address,uint256)": {
						"details": "See {IERC1155-balanceOf}."
					},
					"balanceOfBatch(address[],uint256[])": {
						"details": "See {IERC1155-balanceOfBatch}. Requirements: - `accounts` and `ids` must have the same length."
					},
					"getRoleAdmin(bytes32)": {
						"details": "Returns the admin role that controls `role`. See {grantRole} and {revokeRole}. To change a role's admin, use {_setRoleAdmin}."
					},
					"grantRole(bytes32,address)": {
						"details": "Grants `role` to `account`. If `account` had not been already granted `role`, emits a {RoleGranted} event. Requirements: - the caller must have ``role``'s admin role. May emit a {RoleGranted} event."
					},
					"hasRole(bytes32,address)": {
						"details": "Returns `true` if `account` has been granted `role`."
					},
					"isApprovedForAll(address,address)": {
						"details": "See {IERC1155-isApprovedForAll}."
					},
					"renounceRole(bytes32,address)": {
						"details": "Revokes `role` from the calling account. Roles are often managed via {grantRole} and {revokeRole}: this function's purpose is to provide a mechanism for accounts to lose their privileges if they are compromised (such as when a trusted device is misplaced). If the calling account had been revoked `role`, emits a {RoleRevoked} event. Requirements: - the caller must be `callerConfirmation`. May emit a {RoleRevoked} event."
					},
					"revokeRole(bytes32,address)": {
						"details": "Revokes `role` from `account`. If `account` had been granted `role`, emits a {RoleRevoked} event. Requirements: - the caller must have ``role``'s admin role. May emit a {RoleRevoked} event."
					},
					"safeBatchTransferFrom(address,address,uint256[],uint256[],bytes)": {
						"details": "See {IERC1155-safeBatchTransferFrom}."
					},
					"safeTransferFrom(address,address,uint256,uint256,bytes)": {
						"details": "See {IERC1155-safeTransferFrom}."
					},
					"setApprovalForAll(address,bool)": {
						"details": "See {IERC1155-setApprovalForAll}."
					},
					"uri(uint256)": {
						"details": "See {IERC1155MetadataURI-uri}. This implementation returns the same URI for *all* token types. It relies on the token type ID substitution mechanism https://eips.ethereum.org/EIPS/eip-1155#metadata[defined in the EIP]. Clients calling this function must replace the `\\{id\\}` substring with the actual token type ID."
					}
				},
				"version": 1
			},
			"evm": {
				"assembly": "    /* \"contracts/wonderbits/WonderbitsPOAP.sol\":421:765  contract WonderbitsPOAP is ERC1155, AccessControl {... */\n  mstore(0x40, 0x80)\n    /* \"contracts/wonderbits/WonderbitsPOAP.sol\":478:585  constructor(string memory uri) ERC1155(uri) {... */\n  callvalue\n  dup1\n  iszero\n  tag_1\n  jumpi\n  0x00\n  dup1\n  revert\ntag_1:\n  pop\n  mload(0x40)\n  sub(codesize, bytecodeSize)\n  dup1\n  bytecodeSize\n  dup4\n  codecopy\n  dup2\n  add\n  0x40\n  dup2\n  swap1\n  mstore\n  tag_2\n  swap2\n  tag_3\n  jump\t// in\ntag_2:\n    /* \"contracts/wonderbits/WonderbitsPOAP.sol\":517:520  uri */\n  dup1\n    /* \"@openzeppelin/contracts/token/ERC1155/ERC1155.sol\":1293:1306  _setURI(uri_) */\n  tag_7\n    /* \"contracts/wonderbits/WonderbitsPOAP.sol\":517:520  uri */\n  dup2\n    /* \"@openzeppelin/contracts/token/ERC1155/ERC1155.sol\":1293:1300  _setURI */\n  tag_8\n    /* \"@openzeppelin/contracts/token/ERC1155/ERC1155.sol\":1293:1306  _setURI(uri_) */\n  jump\t// in\ntag_7:\n  pop\n    /* \"contracts/wonderbits/WonderbitsPOAP.sol\":533:577  _grantRole(DEFAULT_ADMIN_ROLE, _msgSender()) */\n  tag_10\n    /* \"@openzeppelin/contracts/access/AccessControl.sol\":2232:2236  0x00 */\n  0x00\n    /* \"@openzeppelin/contracts/utils/Context.sol\":735:745  msg.sender */\n  caller\n    /* \"contracts/wonderbits/WonderbitsPOAP.sol\":533:543  _grantRole */\n  tag_13\n    /* \"contracts/wonderbits/WonderbitsPOAP.sol\":533:577  _grantRole(DEFAULT_ADMIN_ROLE, _msgSender()) */\n  jump\t// in\ntag_10:\n  pop\n    /* \"contracts/wonderbits/WonderbitsPOAP.sol\":478:585  constructor(string memory uri) ERC1155(uri) {... */\n  pop\n    /* \"contracts/wonderbits/WonderbitsPOAP.sol\":421:765  contract WonderbitsPOAP is ERC1155, AccessControl {... */\n  jump(tag_31)\n    /* \"@openzeppelin/contracts/token/ERC1155/ERC1155.sol\":10282:10368  function _setURI(string memory newuri) internal virtual {... */\ntag_8:\n    /* \"@openzeppelin/contracts/token/ERC1155/ERC1155.sol\":10348:10352  _uri */\n  0x02\n    /* \"@openzeppelin/contracts/token/ERC1155/ERC1155.sol\":10348:10361  _uri = newuri */\n  tag_16\n    /* \"@openzeppelin/contracts/token/ERC1155/ERC1155.sol\":10355:10361  newuri */\n  dup3\n    /* \"@openzeppelin/contracts/token/ERC1155/ERC1155.sol\":10348:10352  _uri */\n  dup3\n    /* \"@openzeppelin/contracts/token/ERC1155/ERC1155.sol\":10348:10361  _uri = newuri */\n  tag_17\n  jump\t// in\ntag_16:\n  pop\n    /* \"@openzeppelin/contracts/token/ERC1155/ERC1155.sol\":10282:10368  function _setURI(string memory newuri) internal virtual {... */\n  pop\n  jump\t// out\n    /* \"@openzeppelin/contracts/access/AccessControl.sol\":6179:6495  function _grantRole(bytes32 role, address account) internal virtual returns (bool) {... */\ntag_13:\n    /* \"@openzeppelin/contracts/access/AccessControl.sol\":6256:6260  bool */\n  0x00\n    /* \"@openzeppelin/contracts/access/AccessControl.sol\":2954:2966  _roles[role] */\n  dup3\n  dup2\n  mstore\n    /* \"@openzeppelin/contracts/access/AccessControl.sol\":2954:2960  _roles */\n  0x03\n    /* \"@openzeppelin/contracts/access/AccessControl.sol\":2954:2966  _roles[role] */\n  0x20\n  swap1\n  dup2\n  mstore\n  0x40\n  dup1\n  dup4\n  keccak256\n  sub(shl(0xa0, 0x01), 0x01)\n    /* \"@openzeppelin/contracts/access/AccessControl.sol\":2954:2983  _roles[role].hasRole[account] */\n  dup6\n  and\n  dup5\n  mstore\n  swap1\n  swap2\n  mstore\n  dup2\n  keccak256\n  sload\n  0xff\n  and\n    /* \"@openzeppelin/contracts/access/AccessControl.sol\":6272:6489  if (!hasRole(role, account)) {... */\n  tag_22\n  jumpi\n    /* \"@openzeppelin/contracts/access/AccessControl.sol\":6315:6327  _roles[role] */\n  0x00\n  dup4\n  dup2\n  mstore\n    /* \"@openzeppelin/contracts/access/AccessControl.sol\":6315:6321  _roles */\n  0x03\n    /* \"@openzeppelin/contracts/access/AccessControl.sol\":6315:6327  _roles[role] */\n  0x20\n  swap1\n  dup2\n  mstore\n  0x40\n  dup1\n  dup4\n  keccak256\n  sub(shl(0xa0, 0x01), 0x01)\n    /* \"@openzeppelin/contracts/access/AccessControl.sol\":6315:6344  _roles[role].hasRole[account] */\n  dup7\n  and\n  dup5\n  mstore\n  swap1\n  swap2\n  mstore\n  swap1\n  keccak256\n    /* \"@openzeppelin/contracts/access/AccessControl.sol\":6315:6351  _roles[role].hasRole[account] = true */\n  dup1\n  sload\n  not(0xff)\n  and\n    /* \"@openzeppelin/contracts/access/AccessControl.sol\":6347:6351  true */\n  0x01\n    /* \"@openzeppelin/contracts/access/AccessControl.sol\":6315:6351  _roles[role].hasRole[account] = true */\n  or\n  swap1\n  sstore\n    /* \"@openzeppelin/contracts/access/AccessControl.sol\":6397:6409  _msgSender() */\n  tag_23\n    /* \"@openzeppelin/contracts/utils/Context.sol\":735:745  msg.sender */\n  caller\n  swap1\n    /* \"@openzeppelin/contracts/utils/Context.sol\":656:752  function _msgSender() internal view virtual returns (address) {... */\n  jump\n    /* \"@openzeppelin/contracts/access/AccessControl.sol\":6397:6409  _msgSender() */\ntag_23:\n  sub(shl(0xa0, 0x01), 0x01)\n    /* \"@openzeppelin/contracts/access/AccessControl.sol\":6370:6410  RoleGranted(role, account, _msgSender()) */\n  and\n    /* \"@openzeppelin/contracts/access/AccessControl.sol\":6388:6395  account */\n  dup3\n  sub(shl(0xa0, 0x01), 0x01)\n    /* \"@openzeppelin/contracts/access/AccessControl.sol\":6370:6410  RoleGranted(role, account, _msgSender()) */\n  and\n    /* \"@openzeppelin/contracts/access/AccessControl.sol\":6382:6386  role */\n  dup5\n    /* \"@openzeppelin/contracts/access/AccessControl.sol\":6370:6410  RoleGranted(role, account, _msgSender()) */\n  0x2f8788117e7eff1d82e926ec794901d17c78024a50270940304540a733656f0d\n  mload(0x40)\n  mload(0x40)\n  dup1\n  swap2\n  sub\n  swap1\n  log4\n  pop\n    /* \"@openzeppelin/contracts/access/AccessControl.sol\":6431:6435  true */\n  0x01\n    /* \"@openzeppelin/contracts/access/AccessControl.sol\":6424:6435  return true */\n  jump(tag_24)\n    /* \"@openzeppelin/contracts/access/AccessControl.sol\":6272:6489  if (!hasRole(role, account)) {... */\ntag_22:\n  pop\n    /* \"@openzeppelin/contracts/access/AccessControl.sol\":6473:6478  false */\n  0x00\n    /* \"@openzeppelin/contracts/access/AccessControl.sol\":6272:6489  if (!hasRole(role, account)) {... */\ntag_24:\n    /* \"@openzeppelin/contracts/access/AccessControl.sol\":6179:6495  function _grantRole(bytes32 role, address account) internal virtual returns (bool) {... */\n  swap3\n  swap2\n  pop\n  pop\n  jump\t// out\n    /* \"#utility.yul\":14:141   */\ntag_26:\n    /* \"#utility.yul\":75:85   */\n  0x4e487b71\n    /* \"#utility.yul\":70:73   */\n  0xe0\n    /* \"#utility.yul\":66:86   */\n  shl\n    /* \"#utility.yul\":63:64   */\n  0x00\n    /* \"#utility.yul\":56:87   */\n  mstore\n    /* \"#utility.yul\":106:110   */\n  0x41\n    /* \"#utility.yul\":103:104   */\n  0x04\n    /* \"#utility.yul\":96:111   */\n  mstore\n    /* \"#utility.yul\":130:134   */\n  0x24\n    /* \"#utility.yul\":127:128   */\n  0x00\n    /* \"#utility.yul\":120:135   */\n  revert\n    /* \"#utility.yul\":146:1081   */\ntag_3:\n    /* \"#utility.yul\":226:232   */\n  0x00\n    /* \"#utility.yul\":279:281   */\n  0x20\n    /* \"#utility.yul\":267:276   */\n  dup3\n    /* \"#utility.yul\":258:265   */\n  dup5\n    /* \"#utility.yul\":254:277   */\n  sub\n    /* \"#utility.yul\":250:282   */\n  slt\n    /* \"#utility.yul\":247:299   */\n  iszero\n  tag_34\n  jumpi\n    /* \"#utility.yul\":295:296   */\n  0x00\n    /* \"#utility.yul\":292:293   */\n  dup1\n    /* \"#utility.yul\":285:297   */\n  revert\n    /* \"#utility.yul\":247:299   */\ntag_34:\n    /* \"#utility.yul\":322:338   */\n  dup2\n  mload\n  sub(shl(0x40, 0x01), 0x01)\n    /* \"#utility.yul\":350:380   */\n  dup2\n  gt\n    /* \"#utility.yul\":347:397   */\n  iszero\n  tag_35\n  jumpi\n    /* \"#utility.yul\":393:394   */\n  0x00\n    /* \"#utility.yul\":390:391   */\n  dup1\n    /* \"#utility.yul\":383:395   */\n  revert\n    /* \"#utility.yul\":347:397   */\ntag_35:\n    /* \"#utility.yul\":416:438   */\n  dup3\n  add\n    /* \"#utility.yul\":469:473   */\n  0x1f\n    /* \"#utility.yul\":461:474   */\n  dup2\n  add\n    /* \"#utility.yul\":457:484   */\n  dup5\n  sgt\n    /* \"#utility.yul\":447:502   */\n  tag_36\n  jumpi\n    /* \"#utility.yul\":498:499   */\n  0x00\n    /* \"#utility.yul\":495:496   */\n  dup1\n    /* \"#utility.yul\":488:500   */\n  revert\n    /* \"#utility.yul\":447:502   */\ntag_36:\n    /* \"#utility.yul\":525:534   */\n  dup1\n  mload\n  sub(shl(0x40, 0x01), 0x01)\n    /* \"#utility.yul\":546:576   */\n  dup2\n  gt\n    /* \"#utility.yul\":543:599   */\n  iszero\n  tag_38\n  jumpi\n    /* \"#utility.yul\":579:597   */\n  tag_38\n  tag_26\n  jump\t// in\ntag_38:\n    /* \"#utility.yul\":628:630   */\n  0x40\n    /* \"#utility.yul\":622:631   */\n  mload\n    /* \"#utility.yul\":720:722   */\n  0x1f\n    /* \"#utility.yul\":682:699   */\n  dup3\n  add\n  not(0x1f)\n    /* \"#utility.yul\":678:709   */\n  swap1\n  dup2\n  and\n    /* \"#utility.yul\":711:713   */\n  0x3f\n    /* \"#utility.yul\":674:714   */\n  add\n    /* \"#utility.yul\":670:724   */\n  and\n    /* \"#utility.yul\":658:725   */\n  dup2\n  add\n  sub(shl(0x40, 0x01), 0x01)\n    /* \"#utility.yul\":740:774   */\n  dup2\n  gt\n    /* \"#utility.yul\":776:798   */\n  dup3\n  dup3\n  lt\n    /* \"#utility.yul\":737:799   */\n  or\n    /* \"#utility.yul\":734:822   */\n  iszero\n  tag_40\n  jumpi\n    /* \"#utility.yul\":802:820   */\n  tag_40\n  tag_26\n  jump\t// in\ntag_40:\n    /* \"#utility.yul\":838:840   */\n  0x40\n    /* \"#utility.yul\":831:853   */\n  mstore\n    /* \"#utility.yul\":862:884   */\n  dup2\n  dup2\n  mstore\n    /* \"#utility.yul\":903:918   */\n  dup3\n  dup3\n  add\n    /* \"#utility.yul\":920:922   */\n  0x20\n    /* \"#utility.yul\":899:923   */\n  add\n    /* \"#utility.yul\":896:933   */\n  dup7\n  lt\n    /* \"#utility.yul\":893:950   */\n  iszero\n  tag_41\n  jumpi\n    /* \"#utility.yul\":946:947   */\n  0x00\n    /* \"#utility.yul\":943:944   */\n  dup1\n    /* \"#utility.yul\":936:948   */\n  revert\n    /* \"#utility.yul\":893:950   */\ntag_41:\n    /* \"#utility.yul\":995:1001   */\n  dup2\n    /* \"#utility.yul\":990:992   */\n  0x20\n    /* \"#utility.yul\":986:988   */\n  dup5\n    /* \"#utility.yul\":982:993   */\n  add\n    /* \"#utility.yul\":977:979   */\n  0x20\n    /* \"#utility.yul\":969:975   */\n  dup4\n    /* \"#utility.yul\":965:980   */\n  add\n    /* \"#utility.yul\":959:1002   */\n  mcopy\n    /* \"#utility.yul\":1048:1049   */\n  0x00\n    /* \"#utility.yul\":1022:1041   */\n  swap2\n  dup2\n  add\n    /* \"#utility.yul\":1043:1045   */\n  0x20\n    /* \"#utility.yul\":1018:1046   */\n  add\n    /* \"#utility.yul\":1011:1050   */\n  swap2\n  swap1\n  swap2\n  mstore\n    /* \"#utility.yul\":1026:1032   */\n  swap5\n    /* \"#utility.yul\":146:1081   */\n  swap4\n  pop\n  pop\n  pop\n  pop\n  jump\t// out\n    /* \"#utility.yul\":1086:1466   */\ntag_27:\n    /* \"#utility.yul\":1165:1166   */\n  0x01\n    /* \"#utility.yul\":1161:1173   */\n  dup2\n  dup2\n  shr\n  swap1\n    /* \"#utility.yul\":1208:1220   */\n  dup3\n  and\n  dup1\n    /* \"#utility.yul\":1229:1290   */\n  tag_43\n  jumpi\n    /* \"#utility.yul\":1283:1287   */\n  0x7f\n    /* \"#utility.yul\":1275:1281   */\n  dup3\n    /* \"#utility.yul\":1271:1288   */\n  and\n    /* \"#utility.yul\":1261:1288   */\n  swap2\n  pop\n    /* \"#utility.yul\":1229:1290   */\ntag_43:\n    /* \"#utility.yul\":1336:1338   */\n  0x20\n    /* \"#utility.yul\":1328:1334   */\n  dup3\n    /* \"#utility.yul\":1325:1339   */\n  lt\n    /* \"#utility.yul\":1305:1323   */\n  dup2\n    /* \"#utility.yul\":1302:1340   */\n  sub\n    /* \"#utility.yul\":1299:1460   */\n  tag_44\n  jumpi\n    /* \"#utility.yul\":1382:1392   */\n  0x4e487b71\n    /* \"#utility.yul\":1377:1380   */\n  0xe0\n    /* \"#utility.yul\":1373:1393   */\n  shl\n    /* \"#utility.yul\":1370:1371   */\n  0x00\n    /* \"#utility.yul\":1363:1394   */\n  mstore\n    /* \"#utility.yul\":1417:1421   */\n  0x22\n    /* \"#utility.yul\":1414:1415   */\n  0x04\n    /* \"#utility.yul\":1407:1422   */\n  mstore\n    /* \"#utility.yul\":1445:1449   */\n  0x24\n    /* \"#utility.yul\":1442:1443   */\n  0x00\n    /* \"#utility.yul\":1435:1450   */\n  revert\n    /* \"#utility.yul\":1299:1460   */\ntag_44:\n  pop\n    /* \"#utility.yul\":1086:1466   */\n  swap2\n  swap1\n  pop\n  jump\t// out\n    /* \"#utility.yul\":1597:2115   */\ntag_29:\n    /* \"#utility.yul\":1699:1701   */\n  0x1f\n    /* \"#utility.yul\":1694:1697   */\n  dup3\n    /* \"#utility.yul\":1691:1702   */\n  gt\n    /* \"#utility.yul\":1688:2109   */\n  iszero\n  tag_47\n  jumpi\n    /* \"#utility.yul\":1735:1740   */\n  dup1\n    /* \"#utility.yul\":1732:1733   */\n  0x00\n    /* \"#utility.yul\":1725:1741   */\n  mstore\n    /* \"#utility.yul\":1779:1783   */\n  0x20\n    /* \"#utility.yul\":1776:1777   */\n  0x00\n    /* \"#utility.yul\":1766:1784   */\n  keccak256\n    /* \"#utility.yul\":1849:1851   */\n  0x1f\n    /* \"#utility.yul\":1837:1847   */\n  dup5\n    /* \"#utility.yul\":1833:1852   */\n  add\n    /* \"#utility.yul\":1830:1831   */\n  0x05\n    /* \"#utility.yul\":1826:1853   */\n  shr\n    /* \"#utility.yul\":1820:1824   */\n  dup2\n    /* \"#utility.yul\":1816:1854   */\n  add\n    /* \"#utility.yul\":1885:1889   */\n  0x20\n    /* \"#utility.yul\":1873:1883   */\n  dup6\n    /* \"#utility.yul\":1870:1890   */\n  lt\n    /* \"#utility.yul\":1867:1914   */\n  iszero\n  tag_48\n  jumpi\n  pop\n    /* \"#utility.yul\":1908:1912   */\n  dup1\n    /* \"#utility.yul\":1867:1914   */\ntag_48:\n    /* \"#utility.yul\":1963:1965   */\n  0x1f\n    /* \"#utility.yul\":1958:1961   */\n  dup5\n    /* \"#utility.yul\":1954:1966   */\n  add\n    /* \"#utility.yul\":1951:1952   */\n  0x05\n    /* \"#utility.yul\":1947:1967   */\n  shr\n    /* \"#utility.yul\":1941:1945   */\n  dup3\n    /* \"#utility.yul\":1937:1968   */\n  add\n    /* \"#utility.yul\":1927:1968   */\n  swap2\n  pop\n    /* \"#utility.yul\":2018:2099   */\ntag_49:\n    /* \"#utility.yul\":2036:2038   */\n  dup2\n    /* \"#utility.yul\":2029:2034   */\n  dup2\n    /* \"#utility.yul\":2026:2039   */\n  lt\n    /* \"#utility.yul\":2018:2099   */\n  iszero\n  tag_51\n  jumpi\n    /* \"#utility.yul\":2095:2096   */\n  0x00\n    /* \"#utility.yul\":2081:2097   */\n  dup2\n  sstore\n    /* \"#utility.yul\":2062:2063   */\n  0x01\n    /* \"#utility.yul\":2051:2064   */\n  add\n    /* \"#utility.yul\":2018:2099   */\n  jump(tag_49)\ntag_51:\n    /* \"#utility.yul\":2022:2025   */\n  pop\n  pop\n    /* \"#utility.yul\":1688:2109   */\ntag_47:\n    /* \"#utility.yul\":1597:2115   */\n  pop\n  pop\n  pop\n  jump\t// out\n    /* \"#utility.yul\":2291:3590   */\ntag_17:\n    /* \"#utility.yul\":2411:2421   */\n  dup2\n  mload\n  sub(shl(0x40, 0x01), 0x01)\n    /* \"#utility.yul\":2433:2463   */\n  dup2\n  gt\n    /* \"#utility.yul\":2430:2486   */\n  iszero\n  tag_55\n  jumpi\n    /* \"#utility.yul\":2466:2484   */\n  tag_55\n  tag_26\n  jump\t// in\ntag_55:\n    /* \"#utility.yul\":2495:2592   */\n  tag_56\n    /* \"#utility.yul\":2585:2591   */\n  dup2\n    /* \"#utility.yul\":2545:2583   */\n  tag_57\n    /* \"#utility.yul\":2577:2581   */\n  dup5\n    /* \"#utility.yul\":2571:2582   */\n  sload\n    /* \"#utility.yul\":2545:2583   */\n  tag_27\n  jump\t// in\ntag_57:\n    /* \"#utility.yul\":2539:2543   */\n  dup5\n    /* \"#utility.yul\":2495:2592   */\n  tag_29\n  jump\t// in\ntag_56:\n    /* \"#utility.yul\":2641:2645   */\n  0x20\n    /* \"#utility.yul\":2672:2674   */\n  0x1f\n    /* \"#utility.yul\":2661:2675   */\n  dup3\n  gt\n    /* \"#utility.yul\":2689:2690   */\n  0x01\n    /* \"#utility.yul\":2684:3333   */\n  dup2\n  eq\n  tag_59\n  jumpi\n    /* \"#utility.yul\":3377:3378   */\n  0x00\n    /* \"#utility.yul\":3394:3400   */\n  dup4\n    /* \"#utility.yul\":3391:3480   */\n  iszero\n  tag_60\n  jumpi\n  pop\n    /* \"#utility.yul\":3446:3465   */\n  dup5\n  dup3\n  add\n    /* \"#utility.yul\":3440:3466   */\n  mload\n    /* \"#utility.yul\":3391:3480   */\ntag_60:\n  not(0x00)\n    /* \"#utility.yul\":2248:2249   */\n  0x03\n    /* \"#utility.yul\":2244:2255   */\n  dup6\n  swap1\n  shl\n    /* \"#utility.yul\":2240:2264   */\n  shr\n    /* \"#utility.yul\":2236:2265   */\n  not\n    /* \"#utility.yul\":2226:2266   */\n  and\n    /* \"#utility.yul\":2272:2273   */\n  0x01\n    /* \"#utility.yul\":2268:2279   */\n  dup5\n  swap1\n  shl\n    /* \"#utility.yul\":2223:2280   */\n  or\n    /* \"#utility.yul\":3493:3574   */\n  dup5\n  sstore\n    /* \"#utility.yul\":2654:3584   */\n  jump(tag_51)\n    /* \"#utility.yul\":2684:3333   */\ntag_59:\n    /* \"#utility.yul\":1544:1545   */\n  0x00\n    /* \"#utility.yul\":1537:1551   */\n  dup5\n  dup2\n  mstore\n    /* \"#utility.yul\":1581:1585   */\n  0x20\n    /* \"#utility.yul\":1568:1586   */\n  dup2\n  keccak256\n  not(0x1f)\n    /* \"#utility.yul\":2720:2740   */\n  dup6\n  and\n  swap2\n    /* \"#utility.yul\":2838:3060   */\ntag_63:\n    /* \"#utility.yul\":2852:2859   */\n  dup3\n    /* \"#utility.yul\":2849:2850   */\n  dup2\n    /* \"#utility.yul\":2846:2860   */\n  lt\n    /* \"#utility.yul\":2838:3060   */\n  iszero\n  tag_65\n  jumpi\n    /* \"#utility.yul\":2934:2953   */\n  dup8\n  dup6\n  add\n    /* \"#utility.yul\":2928:2954   */\n  mload\n    /* \"#utility.yul\":2913:2955   */\n  dup3\n  sstore\n    /* \"#utility.yul\":3041:3045   */\n  0x20\n    /* \"#utility.yul\":3026:3046   */\n  swap5\n  dup6\n  add\n  swap5\n    /* \"#utility.yul\":2994:2995   */\n  0x01\n    /* \"#utility.yul\":2982:2996   */\n  swap1\n  swap3\n  add\n  swap2\n    /* \"#utility.yul\":2868:2880   */\n  add\n    /* \"#utility.yul\":2838:3060   */\n  jump(tag_63)\ntag_65:\n    /* \"#utility.yul\":2842:2845   */\n  pop\n    /* \"#utility.yul\":3088:3094   */\n  dup5\n    /* \"#utility.yul\":3079:3086   */\n  dup3\n    /* \"#utility.yul\":3076:3095   */\n  lt\n    /* \"#utility.yul\":3073:3274   */\n  iszero\n  tag_66\n  jumpi\n    /* \"#utility.yul\":3149:3168   */\n  dup7\n  dup5\n  add\n    /* \"#utility.yul\":3143:3169   */\n  mload\n  not(0x00)\n    /* \"#utility.yul\":3232:3233   */\n  0x03\n    /* \"#utility.yul\":3228:3242   */\n  dup8\n  swap1\n  shl\n    /* \"#utility.yul\":3244:3247   */\n  0xf8\n    /* \"#utility.yul\":3224:3248   */\n  and\n    /* \"#utility.yul\":3220:3257   */\n  shr\n    /* \"#utility.yul\":3216:3258   */\n  not\n    /* \"#utility.yul\":3201:3259   */\n  and\n    /* \"#utility.yul\":3186:3260   */\n  dup2\n  sstore\n    /* \"#utility.yul\":3073:3274   */\ntag_66:\n  pop\n  pop\n  pop\n  pop\n    /* \"#utility.yul\":3320:3321   */\n  0x01\n    /* \"#utility.yul\":3304:3318   */\n  swap1\n  dup2\n  shl\n    /* \"#utility.yul\":3300:3322   */\n  add\n    /* \"#utility.yul\":3287:3323   */\n  swap1\n  sstore\n  pop\n    /* \"#utility.yul\":2291:3590   */\n  jump\t// out\ntag_31:\n    /* \"contracts/wonderbits/WonderbitsPOAP.sol\":421:765  contract WonderbitsPOAP is ERC1155, AccessControl {... */\n  dataSize(sub_0)\n  dup1\n  dataOffset(sub_0)\n  0x00\n  codecopy\n  0x00\n  return\nstop\n\nsub_0: assembly {\n        /* \"contracts/wonderbits/WonderbitsPOAP.sol\":421:765  contract WonderbitsPOAP is ERC1155, AccessControl {... */\n      mstore(0x40, 0x80)\n      callvalue\n      dup1\n      iszero\n      tag_1\n      jumpi\n      0x00\n      dup1\n      revert\n    tag_1:\n      pop\n      jumpi(tag_2, lt(calldatasize, 0x04))\n      shr(0xe0, calldataload(0x00))\n      dup1\n      0x4e1273f4\n      gt\n      tag_17\n      jumpi\n      dup1\n      0xa22cb465\n      gt\n      tag_18\n      jumpi\n      dup1\n      0xa22cb465\n      eq\n      tag_13\n      jumpi\n      dup1\n      0xd547741f\n      eq\n      tag_14\n      jumpi\n      dup1\n      0xe985e9c5\n      eq\n      tag_15\n      jumpi\n      dup1\n      0xf242432a\n      eq\n      tag_16\n      jumpi\n      0x00\n      dup1\n      revert\n    tag_18:\n      dup1\n      0x4e1273f4\n      eq\n      tag_10\n      jumpi\n      dup1\n      0x91d14854\n      eq\n      tag_11\n      jumpi\n      dup1\n      0xa217fddf\n      eq\n      tag_12\n      jumpi\n      0x00\n      dup1\n      revert\n    tag_17:\n      dup1\n      0x248a9ca3\n      gt\n      tag_19\n      jumpi\n      dup1\n      0x248a9ca3\n      eq\n      tag_6\n      jumpi\n      dup1\n      0x2eb2c2d6\n      eq\n      tag_7\n      jumpi\n      dup1\n      0x2f2ff15d\n      eq\n      tag_8\n      jumpi\n      dup1\n      0x36568abe\n      eq\n      tag_9\n      jumpi\n      0x00\n      dup1\n      revert\n    tag_19:\n      dup1\n      0xfdd58e\n      eq\n      tag_3\n      jumpi\n      dup1\n      0x01ffc9a7\n      eq\n      tag_4\n      jumpi\n      dup1\n      0x0e89341c\n      eq\n      tag_5\n      jumpi\n    tag_2:\n      0x00\n      dup1\n      revert\n        /* \"@openzeppelin/contracts/token/ERC1155/ERC1155.sol\":2247:2379  function balanceOf(address account, uint256 id) public view virtual returns (uint256) {... */\n    tag_3:\n      tag_20\n      tag_21\n      calldatasize\n      0x04\n      tag_22\n      jump\t// in\n    tag_21:\n      tag_23\n      jump\t// in\n    tag_20:\n      mload(0x40)\n        /* \"#utility.yul\":643:668   */\n      swap1\n      dup2\n      mstore\n        /* \"#utility.yul\":631:633   */\n      0x20\n        /* \"#utility.yul\":616:634   */\n      add\n        /* \"@openzeppelin/contracts/token/ERC1155/ERC1155.sol\":2247:2379  function balanceOf(address account, uint256 id) public view virtual returns (uint256) {... */\n    tag_24:\n      mload(0x40)\n      dup1\n      swap2\n      sub\n      swap1\n      return\n        /* \"contracts/wonderbits/WonderbitsPOAP.sol\":593:762  function supportsInterface(bytes4 interfaceId) public view override(ERC1155, AccessControl) returns (bool) {... */\n    tag_4:\n      tag_26\n      tag_27\n      calldatasize\n      0x04\n      tag_28\n      jump\t// in\n    tag_27:\n      tag_29\n      jump\t// in\n    tag_26:\n      mload(0x40)\n        /* \"#utility.yul\":1230:1244   */\n      swap1\n      iszero\n        /* \"#utility.yul\":1223:1245   */\n      iszero\n        /* \"#utility.yul\":1205:1246   */\n      dup2\n      mstore\n        /* \"#utility.yul\":1193:1195   */\n      0x20\n        /* \"#utility.yul\":1178:1196   */\n      add\n        /* \"contracts/wonderbits/WonderbitsPOAP.sol\":593:762  function supportsInterface(bytes4 interfaceId) public view override(ERC1155, AccessControl) returns (bool) {... */\n      tag_24\n        /* \"#utility.yul\":1065:1252   */\n      jump\n        /* \"@openzeppelin/contracts/token/ERC1155/ERC1155.sol\":2084:2187  function uri(uint256 /* id */) public view virtual returns (string memory) {... */\n    tag_5:\n      tag_32\n      tag_33\n      calldatasize\n      0x04\n      tag_34\n      jump\t// in\n    tag_33:\n      tag_35\n      jump\t// in\n    tag_32:\n      mload(0x40)\n      tag_24\n      swap2\n      swap1\n      tag_37\n      jump\t// in\n        /* \"@openzeppelin/contracts/access/AccessControl.sol\":3810:3930  function getRoleAdmin(bytes32 role) public view virtual returns (bytes32) {... */\n    tag_6:\n      tag_20\n      tag_39\n      calldatasize\n      0x04\n      tag_34\n      jump\t// in\n    tag_39:\n        /* \"@openzeppelin/contracts/access/AccessControl.sol\":3875:3882  bytes32 */\n      0x00\n        /* \"@openzeppelin/contracts/access/AccessControl.sol\":3901:3913  _roles[role] */\n      swap1\n      dup2\n      mstore\n        /* \"@openzeppelin/contracts/access/AccessControl.sol\":3901:3907  _roles */\n      0x03\n        /* \"@openzeppelin/contracts/access/AccessControl.sol\":3901:3913  _roles[role] */\n      0x20\n      mstore\n      0x40\n      swap1\n      keccak256\n        /* \"@openzeppelin/contracts/access/AccessControl.sol\":3901:3923  _roles[role].adminRole */\n      0x01\n      add\n      sload\n      swap1\n        /* \"@openzeppelin/contracts/access/AccessControl.sol\":3810:3930  function getRoleAdmin(bytes32 role) public view virtual returns (bytes32) {... */\n      jump\n        /* \"@openzeppelin/contracts/token/ERC1155/ERC1155.sol\":4014:4443  function safeBatchTransferFrom(... */\n    tag_7:\n      tag_44\n      tag_45\n      calldatasize\n      0x04\n      tag_46\n      jump\t// in\n    tag_45:\n      tag_47\n      jump\t// in\n    tag_44:\n      stop\n        /* \"@openzeppelin/contracts/access/AccessControl.sol\":4226:4362  function grantRole(bytes32 role, address account) public virtual onlyRole(getRoleAdmin(role)) {... */\n    tag_8:\n      tag_44\n      tag_49\n      calldatasize\n      0x04\n      tag_50\n      jump\t// in\n    tag_49:\n      tag_51\n      jump\t// in\n        /* \"@openzeppelin/contracts/access/AccessControl.sol\":5328:5573  function renounceRole(bytes32 role, address callerConfirmation) public virtual {... */\n    tag_9:\n      tag_44\n      tag_53\n      calldatasize\n      0x04\n      tag_50\n      jump\t// in\n    tag_53:\n      tag_54\n      jump\t// in\n        /* \"@openzeppelin/contracts/token/ERC1155/ERC1155.sol\":2536:3088  function balanceOfBatch(... */\n    tag_10:\n      tag_55\n      tag_56\n      calldatasize\n      0x04\n      tag_57\n      jump\t// in\n    tag_56:\n      tag_58\n      jump\t// in\n    tag_55:\n      mload(0x40)\n      tag_24\n      swap2\n      swap1\n      tag_60\n      jump\t// in\n        /* \"@openzeppelin/contracts/access/AccessControl.sol\":2854:2990  function hasRole(bytes32 role, address account) public view virtual returns (bool) {... */\n    tag_11:\n      tag_26\n      tag_62\n      calldatasize\n      0x04\n      tag_50\n      jump\t// in\n    tag_62:\n      tag_63\n      jump\t// in\n        /* \"@openzeppelin/contracts/access/AccessControl.sol\":2187:2236  bytes32 public constant DEFAULT_ADMIN_ROLE = 0x00 */\n    tag_12:\n      tag_20\n        /* \"@openzeppelin/contracts/access/AccessControl.sol\":2232:2236  0x00 */\n      0x00\n        /* \"@openzeppelin/contracts/access/AccessControl.sol\":2187:2236  bytes32 public constant DEFAULT_ADMIN_ROLE = 0x00 */\n      dup2\n      jump\n        /* \"@openzeppelin/contracts/token/ERC1155/ERC1155.sol\":3156:3300  function setApprovalForAll(address operator, bool approved) public virtual {... */\n    tag_13:\n      tag_44\n      tag_69\n      calldatasize\n      0x04\n      tag_70\n      jump\t// in\n    tag_69:\n      tag_71\n      jump\t// in\n        /* \"@openzeppelin/contracts/access/AccessControl.sol\":4642:4780  function revokeRole(bytes32 role, address account) public virtual onlyRole(getRoleAdmin(role)) {... */\n    tag_14:\n      tag_44\n      tag_73\n      calldatasize\n      0x04\n      tag_50\n      jump\t// in\n    tag_73:\n      tag_74\n      jump\t// in\n        /* \"@openzeppelin/contracts/token/ERC1155/ERC1155.sol\":3367:3524  function isApprovedForAll(address account, address operator) public view virtual returns (bool) {... */\n    tag_15:\n      tag_26\n      tag_76\n      calldatasize\n      0x04\n      tag_77\n      jump\t// in\n    tag_76:\n      tag_78\n      jump\t// in\n        /* \"@openzeppelin/contracts/token/ERC1155/ERC1155.sol\":3591:3942  function safeTransferFrom(address from, address to, uint256 id, uint256 value, bytes memory data) public virtual {... */\n    tag_16:\n      tag_44\n      tag_81\n      calldatasize\n      0x04\n      tag_82\n      jump\t// in\n    tag_81:\n      tag_83\n      jump\t// in\n        /* \"@openzeppelin/contracts/token/ERC1155/ERC1155.sol\":2247:2379  function balanceOf(address account, uint256 id) public view virtual returns (uint256) {... */\n    tag_23:\n        /* \"@openzeppelin/contracts/token/ERC1155/ERC1155.sol\":2324:2331  uint256 */\n      0x00\n        /* \"@openzeppelin/contracts/token/ERC1155/ERC1155.sol\":2350:2363  _balances[id] */\n      dup2\n      dup2\n      mstore\n      0x20\n      dup2\n      dup2\n      mstore\n      0x40\n      dup1\n      dup4\n      keccak256\n      sub(shl(0xa0, 0x01), 0x01)\n        /* \"@openzeppelin/contracts/token/ERC1155/ERC1155.sol\":2350:2372  _balances[id][account] */\n      dup7\n      and\n      dup5\n      mstore\n      swap1\n      swap2\n      mstore\n      swap1\n      keccak256\n      sload\n        /* \"@openzeppelin/contracts/token/ERC1155/ERC1155.sol\":2247:2379  function balanceOf(address account, uint256 id) public view virtual returns (uint256) {... */\n    tag_84:\n      swap3\n      swap2\n      pop\n      pop\n      jump\t// out\n        /* \"contracts/wonderbits/WonderbitsPOAP.sol\":593:762  function supportsInterface(bytes4 interfaceId) public view override(ERC1155, AccessControl) returns (bool) {... */\n    tag_29:\n        /* \"contracts/wonderbits/WonderbitsPOAP.sol\":694:698  bool */\n      0x00\n        /* \"contracts/wonderbits/WonderbitsPOAP.sol\":718:754  super.supportsInterface(interfaceId) */\n      tag_84\n        /* \"contracts/wonderbits/WonderbitsPOAP.sol\":742:753  interfaceId */\n      dup3\n        /* \"contracts/wonderbits/WonderbitsPOAP.sol\":718:741  super.supportsInterface */\n      tag_87\n        /* \"contracts/wonderbits/WonderbitsPOAP.sol\":718:754  super.supportsInterface(interfaceId) */\n      jump\t// in\n        /* \"@openzeppelin/contracts/token/ERC1155/ERC1155.sol\":2084:2187  function uri(uint256 /* id */) public view virtual returns (string memory) {... */\n    tag_35:\n        /* \"@openzeppelin/contracts/token/ERC1155/ERC1155.sol\":2144:2157  string memory */\n      0x60\n        /* \"@openzeppelin/contracts/token/ERC1155/ERC1155.sol\":2176:2180  _uri */\n      0x02\n        /* \"@openzeppelin/contracts/token/ERC1155/ERC1155.sol\":2169:2180  return _uri */\n      dup1\n      sload\n      tag_89\n      swap1\n      tag_90\n      jump\t// in\n    tag_89:\n      dup1\n      0x1f\n      add\n      0x20\n      dup1\n      swap2\n      div\n      mul\n      0x20\n      add\n      mload(0x40)\n      swap1\n      dup2\n      add\n      0x40\n      mstore\n      dup1\n      swap3\n      swap2\n      swap1\n      dup2\n      dup2\n      mstore\n      0x20\n      add\n      dup3\n      dup1\n      sload\n      tag_91\n      swap1\n      tag_90\n      jump\t// in\n    tag_91:\n      dup1\n      iszero\n      tag_92\n      jumpi\n      dup1\n      0x1f\n      lt\n      tag_93\n      jumpi\n      0x0100\n      dup1\n      dup4\n      sload\n      div\n      mul\n      dup4\n      mstore\n      swap2\n      0x20\n      add\n      swap2\n      jump(tag_92)\n    tag_93:\n      dup3\n      add\n      swap2\n      swap1\n      0x00\n      mstore\n      keccak256(0x00, 0x20)\n      swap1\n    tag_94:\n      dup2\n      sload\n      dup2\n      mstore\n      swap1\n      0x01\n      add\n      swap1\n      0x20\n      add\n      dup1\n      dup4\n      gt\n      tag_94\n      jumpi\n      dup3\n      swap1\n      sub\n      0x1f\n      and\n      dup3\n      add\n      swap2\n    tag_92:\n      pop\n      pop\n      pop\n      pop\n      pop\n      swap1\n      pop\n        /* \"@openzeppelin/contracts/token/ERC1155/ERC1155.sol\":2084:2187  function uri(uint256 /* id */) public view virtual returns (string memory) {... */\n      swap2\n      swap1\n      pop\n      jump\t// out\n        /* \"@openzeppelin/contracts/token/ERC1155/ERC1155.sol\":4014:4443  function safeBatchTransferFrom(... */\n    tag_47:\n        /* \"@openzeppelin/contracts/utils/Context.sol\":735:745  msg.sender */\n      caller\n      sub(shl(0xa0, 0x01), 0x01)\n        /* \"@openzeppelin/contracts/token/ERC1155/ERC1155.sol\":4251:4265  from != sender */\n      dup7\n      and\n      dup2\n      eq\n      dup1\n      iszero\n      swap1\n        /* \"@openzeppelin/contracts/token/ERC1155/ERC1155.sol\":4251:4300  from != sender && !isApprovedForAll(from, sender) */\n      tag_99\n      jumpi\n      pop\n        /* \"@openzeppelin/contracts/token/ERC1155/ERC1155.sol\":4270:4300  isApprovedForAll(from, sender) */\n      tag_100\n        /* \"@openzeppelin/contracts/token/ERC1155/ERC1155.sol\":4287:4291  from */\n      dup7\n        /* \"@openzeppelin/contracts/token/ERC1155/ERC1155.sol\":4293:4299  sender */\n      dup3\n        /* \"@openzeppelin/contracts/token/ERC1155/ERC1155.sol\":4270:4286  isApprovedForAll */\n      tag_78\n        /* \"@openzeppelin/contracts/token/ERC1155/ERC1155.sol\":4270:4300  isApprovedForAll(from, sender) */\n      jump\t// in\n    tag_100:\n        /* \"@openzeppelin/contracts/token/ERC1155/ERC1155.sol\":4269:4300  !isApprovedForAll(from, sender) */\n      iszero\n        /* \"@openzeppelin/contracts/token/ERC1155/ERC1155.sol\":4251:4300  from != sender && !isApprovedForAll(from, sender) */\n    tag_99:\n        /* \"@openzeppelin/contracts/token/ERC1155/ERC1155.sol\":4247:4376  if (from != sender && !isApprovedForAll(from, sender)) {... */\n      iszero\n      tag_101\n      jumpi\n        /* \"@openzeppelin/contracts/token/ERC1155/ERC1155.sol\":4323:4365  ERC1155MissingApprovalForAll(sender, from) */\n      mload(0x40)\n      shl(0xe1, 0x711bec91)\n      dup2\n      mstore\n      sub(shl(0xa0, 0x01), 0x01)\n        /* \"#utility.yul\":9320:9352   */\n      dup1\n      dup4\n      and\n        /* \"@openzeppelin/contracts/token/ERC1155/ERC1155.sol\":4323:4365  ERC1155MissingApprovalForAll(sender, from) */\n      0x04\n      dup4\n      add\n        /* \"#utility.yul\":9302:9353   */\n      mstore\n        /* \"#utility.yul\":9389:9421   */\n      dup8\n      and\n        /* \"#utility.yul\":9369:9387   */\n      0x24\n      dup3\n      add\n        /* \"#utility.yul\":9362:9422   */\n      mstore\n        /* \"#utility.yul\":9275:9293   */\n      0x44\n      add\n        /* \"@openzeppelin/contracts/token/ERC1155/ERC1155.sol\":4323:4365  ERC1155MissingApprovalForAll(sender, from) */\n    tag_102:\n      mload(0x40)\n      dup1\n      swap2\n      sub\n      swap1\n      revert\n        /* \"@openzeppelin/contracts/token/ERC1155/ERC1155.sol\":4247:4376  if (from != sender && !isApprovedForAll(from, sender)) {... */\n    tag_101:\n        /* \"@openzeppelin/contracts/token/ERC1155/ERC1155.sol\":4385:4436  _safeBatchTransferFrom(from, to, ids, values, data) */\n      tag_104\n        /* \"@openzeppelin/contracts/token/ERC1155/ERC1155.sol\":4408:4412  from */\n      dup7\n        /* \"@openzeppelin/contracts/token/ERC1155/ERC1155.sol\":4414:4416  to */\n      dup7\n        /* \"@openzeppelin/contracts/token/ERC1155/ERC1155.sol\":4418:4421  ids */\n      dup7\n        /* \"@openzeppelin/contracts/token/ERC1155/ERC1155.sol\":4423:4429  values */\n      dup7\n        /* \"@openzeppelin/contracts/token/ERC1155/ERC1155.sol\":4431:4435  data */\n      dup7\n        /* \"@openzeppelin/contracts/token/ERC1155/ERC1155.sol\":4385:4407  _safeBatchTransferFrom */\n      tag_105\n        /* \"@openzeppelin/contracts/token/ERC1155/ERC1155.sol\":4385:4436  _safeBatchTransferFrom(from, to, ids, values, data) */\n      jump\t// in\n    tag_104:\n        /* \"@openzeppelin/contracts/token/ERC1155/ERC1155.sol\":4198:4443  {... */\n      pop\n        /* \"@openzeppelin/contracts/token/ERC1155/ERC1155.sol\":4014:4443  function safeBatchTransferFrom(... */\n      pop\n      pop\n      pop\n      pop\n      pop\n      jump\t// out\n        /* \"@openzeppelin/contracts/access/AccessControl.sol\":4226:4362  function grantRole(bytes32 role, address account) public virtual onlyRole(getRoleAdmin(role)) {... */\n    tag_51:\n        /* \"@openzeppelin/contracts/access/AccessControl.sol\":3875:3882  bytes32 */\n      0x00\n        /* \"@openzeppelin/contracts/access/AccessControl.sol\":3901:3913  _roles[role] */\n      dup3\n      dup2\n      mstore\n        /* \"@openzeppelin/contracts/access/AccessControl.sol\":3901:3907  _roles */\n      0x03\n        /* \"@openzeppelin/contracts/access/AccessControl.sol\":3901:3913  _roles[role] */\n      0x20\n      mstore\n      0x40\n      swap1\n      keccak256\n        /* \"@openzeppelin/contracts/access/AccessControl.sol\":3901:3923  _roles[role].adminRole */\n      0x01\n      add\n      sload\n        /* \"@openzeppelin/contracts/access/AccessControl.sol\":2464:2480  _checkRole(role) */\n      tag_108\n        /* \"@openzeppelin/contracts/access/AccessControl.sol\":2475:2479  role */\n      dup2\n        /* \"@openzeppelin/contracts/access/AccessControl.sol\":2464:2474  _checkRole */\n      tag_109\n        /* \"@openzeppelin/contracts/access/AccessControl.sol\":2464:2480  _checkRole(role) */\n      jump\t// in\n    tag_108:\n        /* \"@openzeppelin/contracts/access/AccessControl.sol\":4330:4355  _grantRole(role, account) */\n      tag_111\n        /* \"@openzeppelin/contracts/access/AccessControl.sol\":4341:4345  role */\n      dup4\n        /* \"@openzeppelin/contracts/access/AccessControl.sol\":4347:4354  account */\n      dup4\n        /* \"@openzeppelin/contracts/access/AccessControl.sol\":4330:4340  _grantRole */\n      tag_112\n        /* \"@openzeppelin/contracts/access/AccessControl.sol\":4330:4355  _grantRole(role, account) */\n      jump\t// in\n    tag_111:\n      pop\n        /* \"@openzeppelin/contracts/access/AccessControl.sol\":4226:4362  function grantRole(bytes32 role, address account) public virtual onlyRole(getRoleAdmin(role)) {... */\n      pop\n      pop\n      pop\n      jump\t// out\n        /* \"@openzeppelin/contracts/access/AccessControl.sol\":5328:5573  function renounceRole(bytes32 role, address callerConfirmation) public virtual {... */\n    tag_54:\n      sub(shl(0xa0, 0x01), 0x01)\n        /* \"@openzeppelin/contracts/access/AccessControl.sol\":5421:5455  callerConfirmation != _msgSender() */\n      dup2\n      and\n        /* \"@openzeppelin/contracts/utils/Context.sol\":735:745  msg.sender */\n      caller\n        /* \"@openzeppelin/contracts/access/AccessControl.sol\":5421:5455  callerConfirmation != _msgSender() */\n      eq\n        /* \"@openzeppelin/contracts/access/AccessControl.sol\":5417:5519  if (callerConfirmation != _msgSender()) {... */\n      tag_115\n      jumpi\n        /* \"@openzeppelin/contracts/access/AccessControl.sol\":5478:5508  AccessControlBadConfirmation() */\n      mload(0x40)\n      shl(0xe1, 0x334bd919)\n      dup2\n      mstore\n      0x04\n      add\n      mload(0x40)\n      dup1\n      swap2\n      sub\n      swap1\n      revert\n        /* \"@openzeppelin/contracts/access/AccessControl.sol\":5417:5519  if (callerConfirmation != _msgSender()) {... */\n    tag_115:\n        /* \"@openzeppelin/contracts/access/AccessControl.sol\":5529:5566  _revokeRole(role, callerConfirmation) */\n      tag_116\n        /* \"@openzeppelin/contracts/access/AccessControl.sol\":5541:5545  role */\n      dup3\n        /* \"@openzeppelin/contracts/access/AccessControl.sol\":5547:5565  callerConfirmation */\n      dup3\n        /* \"@openzeppelin/contracts/access/AccessControl.sol\":5529:5540  _revokeRole */\n      tag_117\n        /* \"@openzeppelin/contracts/access/AccessControl.sol\":5529:5566  _revokeRole(role, callerConfirmation) */\n      jump\t// in\n    tag_116:\n      pop\n        /* \"@openzeppelin/contracts/access/AccessControl.sol\":5328:5573  function renounceRole(bytes32 role, address callerConfirmation) public virtual {... */\n      pop\n      pop\n      jump\t// out\n        /* \"@openzeppelin/contracts/token/ERC1155/ERC1155.sol\":2536:3088  function balanceOfBatch(... */\n    tag_58:\n        /* \"@openzeppelin/contracts/token/ERC1155/ERC1155.sol\":2660:2676  uint256[] memory */\n      0x60\n        /* \"@openzeppelin/contracts/token/ERC1155/ERC1155.sol\":2711:2714  ids */\n      dup2\n        /* \"@openzeppelin/contracts/token/ERC1155/ERC1155.sol\":2711:2721  ids.length */\n      mload\n        /* \"@openzeppelin/contracts/token/ERC1155/ERC1155.sol\":2692:2700  accounts */\n      dup4\n        /* \"@openzeppelin/contracts/token/ERC1155/ERC1155.sol\":2692:2707  accounts.length */\n      mload\n        /* \"@openzeppelin/contracts/token/ERC1155/ERC1155.sol\":2692:2721  accounts.length != ids.length */\n      eq\n        /* \"@openzeppelin/contracts/token/ERC1155/ERC1155.sol\":2688:2809  if (accounts.length != ids.length) {... */\n      tag_119\n      jumpi\n        /* \"@openzeppelin/contracts/token/ERC1155/ERC1155.sol\":2770:2780  ids.length */\n      dup2\n      mload\n        /* \"@openzeppelin/contracts/token/ERC1155/ERC1155.sol\":2782:2797  accounts.length */\n      dup4\n      mload\n        /* \"@openzeppelin/contracts/token/ERC1155/ERC1155.sol\":2744:2798  ERC1155InvalidArrayLength(ids.length, accounts.length) */\n      mload(0x40)\n      shl(0xe0, 0x5b059991)\n      dup2\n      mstore\n      0x04\n      dup2\n      add\n        /* \"#utility.yul\":9607:9632   */\n      swap3\n      swap1\n      swap3\n      mstore\n        /* \"#utility.yul\":9648:9666   */\n      0x24\n      dup3\n      add\n        /* \"#utility.yul\":9641:9675   */\n      mstore\n        /* \"#utility.yul\":9580:9598   */\n      0x44\n      add\n        /* \"@openzeppelin/contracts/token/ERC1155/ERC1155.sol\":2744:2798  ERC1155InvalidArrayLength(ids.length, accounts.length) */\n      tag_102\n        /* \"#utility.yul\":9433:9681   */\n      jump\n        /* \"@openzeppelin/contracts/token/ERC1155/ERC1155.sol\":2688:2809  if (accounts.length != ids.length) {... */\n    tag_119:\n        /* \"@openzeppelin/contracts/token/ERC1155/ERC1155.sol\":2819:2849  uint256[] memory batchBalances */\n      0x00\n        /* \"@openzeppelin/contracts/token/ERC1155/ERC1155.sol\":2866:2874  accounts */\n      dup4\n        /* \"@openzeppelin/contracts/token/ERC1155/ERC1155.sol\":2866:2881  accounts.length */\n      mload\n        /* \"@openzeppelin/contracts/token/ERC1155/ERC1155.sol\":2852:2882  new uint256[](accounts.length) */\n      0xffffffffffffffff\n      dup2\n      gt\n      iszero\n      tag_123\n      jumpi\n      tag_123\n      tag_124\n      jump\t// in\n    tag_123:\n      mload(0x40)\n      swap1\n      dup1\n      dup3\n      mstore\n      dup1\n      0x20\n      mul\n      0x20\n      add\n      dup3\n      add\n      0x40\n      mstore\n      dup1\n      iszero\n      tag_125\n      jumpi\n      dup2\n      0x20\n      add\n      0x20\n      dup3\n      mul\n      dup1\n      calldatasize\n      dup4\n      calldatacopy\n      add\n      swap1\n      pop\n    tag_125:\n      pop\n        /* \"@openzeppelin/contracts/token/ERC1155/ERC1155.sol\":2819:2882  uint256[] memory batchBalances = new uint256[](accounts.length) */\n      swap1\n      pop\n        /* \"@openzeppelin/contracts/token/ERC1155/ERC1155.sol\":2898:2907  uint256 i */\n      0x00\n        /* \"@openzeppelin/contracts/token/ERC1155/ERC1155.sol\":2893:3051  for (uint256 i = 0; i < accounts.length; ++i) {... */\n    tag_126:\n        /* \"@openzeppelin/contracts/token/ERC1155/ERC1155.sol\":2917:2925  accounts */\n      dup5\n        /* \"@openzeppelin/contracts/token/ERC1155/ERC1155.sol\":2917:2932  accounts.length */\n      mload\n        /* \"@openzeppelin/contracts/token/ERC1155/ERC1155.sol\":2913:2914  i */\n      dup2\n        /* \"@openzeppelin/contracts/token/ERC1155/ERC1155.sol\":2913:2932  i < accounts.length */\n      lt\n        /* \"@openzeppelin/contracts/token/ERC1155/ERC1155.sol\":2893:3051  for (uint256 i = 0; i < accounts.length; ++i) {... */\n      iszero\n      tag_127\n      jumpi\n        /* \"@openzeppelin/contracts/utils/Arrays.sol\":4777:4781  0x20 */\n      0x20\n        /* \"@openzeppelin/contracts/utils/Arrays.sol\":4768:4782  mul(pos, 0x20) */\n      dup1\n      dup3\n      mul\n        /* \"@openzeppelin/contracts/utils/Arrays.sol\":4748:4783  add(add(arr, 0x20), mul(pos, 0x20)) */\n      dup7\n      add\n      add\n        /* \"@openzeppelin/contracts/utils/Arrays.sol\":4742:4784  mload(add(add(arr, 0x20), mul(pos, 0x20))) */\n      mload\n        /* \"@openzeppelin/contracts/token/ERC1155/ERC1155.sol\":2972:3040  balanceOf(accounts.unsafeMemoryAccess(i), ids.unsafeMemoryAccess(i)) */\n      tag_129\n      swap1\n        /* \"@openzeppelin/contracts/utils/Arrays.sol\":4777:4781  0x20 */\n      0x20\n        /* \"@openzeppelin/contracts/utils/Arrays.sol\":4768:4782  mul(pos, 0x20) */\n      dup1\n      dup5\n      mul\n        /* \"@openzeppelin/contracts/utils/Arrays.sol\":4748:4783  add(add(arr, 0x20), mul(pos, 0x20)) */\n      dup8\n      add\n      add\n        /* \"@openzeppelin/contracts/utils/Arrays.sol\":4742:4784  mload(add(add(arr, 0x20), mul(pos, 0x20))) */\n      mload\n        /* \"@openzeppelin/contracts/token/ERC1155/ERC1155.sol\":2247:2379  function balanceOf(address account, uint256 id) public view virtual returns (uint256) {... */\n      tag_23\n      jump\t// in\n        /* \"@openzeppelin/contracts/token/ERC1155/ERC1155.sol\":2972:3040  balanceOf(accounts.unsafeMemoryAccess(i), ids.unsafeMemoryAccess(i)) */\n    tag_129:\n        /* \"@openzeppelin/contracts/token/ERC1155/ERC1155.sol\":2953:2966  batchBalances */\n      dup3\n        /* \"@openzeppelin/contracts/token/ERC1155/ERC1155.sol\":2967:2968  i */\n      dup3\n        /* \"@openzeppelin/contracts/token/ERC1155/ERC1155.sol\":2953:2969  batchBalances[i] */\n      dup2\n      mload\n      dup2\n      lt\n      tag_135\n      jumpi\n      tag_135\n      tag_136\n      jump\t// in\n    tag_135:\n      0x20\n      swap1\n      dup2\n      mul\n      swap2\n      swap1\n      swap2\n      add\n      add\n        /* \"@openzeppelin/contracts/token/ERC1155/ERC1155.sol\":2953:3040  batchBalances[i] = balanceOf(accounts.unsafeMemoryAccess(i), ids.unsafeMemoryAccess(i)) */\n      mstore\n        /* \"@openzeppelin/contracts/token/ERC1155/ERC1155.sol\":2934:2937  ++i */\n      0x01\n      add\n        /* \"@openzeppelin/contracts/token/ERC1155/ERC1155.sol\":2893:3051  for (uint256 i = 0; i < accounts.length; ++i) {... */\n      jump(tag_126)\n    tag_127:\n      pop\n        /* \"@openzeppelin/contracts/token/ERC1155/ERC1155.sol\":3068:3081  batchBalances */\n      swap4\n        /* \"@openzeppelin/contracts/token/ERC1155/ERC1155.sol\":2536:3088  function balanceOfBatch(... */\n      swap3\n      pop\n      pop\n      pop\n      jump\t// out\n        /* \"@openzeppelin/contracts/access/AccessControl.sol\":2854:2990  function hasRole(bytes32 role, address account) public view virtual returns (bool) {... */\n    tag_63:\n        /* \"@openzeppelin/contracts/access/AccessControl.sol\":2931:2935  bool */\n      0x00\n        /* \"@openzeppelin/contracts/access/AccessControl.sol\":2954:2966  _roles[role] */\n      swap2\n      dup3\n      mstore\n        /* \"@openzeppelin/contracts/access/AccessControl.sol\":2954:2960  _roles */\n      0x03\n        /* \"@openzeppelin/contracts/access/AccessControl.sol\":2954:2966  _roles[role] */\n      0x20\n      swap1\n      dup2\n      mstore\n      0x40\n      dup1\n      dup5\n      keccak256\n      sub(shl(0xa0, 0x01), 0x01)\n        /* \"@openzeppelin/contracts/access/AccessControl.sol\":2954:2983  _roles[role].hasRole[account] */\n      swap4\n      swap1\n      swap4\n      and\n      dup5\n      mstore\n      swap2\n      swap1\n      mstore\n      swap1\n      keccak256\n      sload\n      0xff\n      and\n      swap1\n        /* \"@openzeppelin/contracts/access/AccessControl.sol\":2854:2990  function hasRole(bytes32 role, address account) public view virtual returns (bool) {... */\n      jump\t// out\n        /* \"@openzeppelin/contracts/token/ERC1155/ERC1155.sol\":3156:3300  function setApprovalForAll(address operator, bool approved) public virtual {... */\n    tag_71:\n        /* \"@openzeppelin/contracts/token/ERC1155/ERC1155.sol\":3241:3293  _setApprovalForAll(_msgSender(), operator, approved) */\n      tag_139\n        /* \"@openzeppelin/contracts/utils/Context.sol\":735:745  msg.sender */\n      caller\n        /* \"@openzeppelin/contracts/token/ERC1155/ERC1155.sol\":3274:3282  operator */\n      dup4\n        /* \"@openzeppelin/contracts/token/ERC1155/ERC1155.sol\":3284:3292  approved */\n      dup4\n        /* \"@openzeppelin/contracts/token/ERC1155/ERC1155.sol\":3241:3259  _setApprovalForAll */\n      tag_141\n        /* \"@openzeppelin/contracts/token/ERC1155/ERC1155.sol\":3241:3293  _setApprovalForAll(_msgSender(), operator, approved) */\n      jump\t// in\n    tag_139:\n        /* \"@openzeppelin/contracts/token/ERC1155/ERC1155.sol\":3156:3300  function setApprovalForAll(address operator, bool approved) public virtual {... */\n      pop\n      pop\n      jump\t// out\n        /* \"@openzeppelin/contracts/access/AccessControl.sol\":4642:4780  function revokeRole(bytes32 role, address account) public virtual onlyRole(getRoleAdmin(role)) {... */\n    tag_74:\n        /* \"@openzeppelin/contracts/access/AccessControl.sol\":3875:3882  bytes32 */\n      0x00\n        /* \"@openzeppelin/contracts/access/AccessControl.sol\":3901:3913  _roles[role] */\n      dup3\n      dup2\n      mstore\n        /* \"@openzeppelin/contracts/access/AccessControl.sol\":3901:3907  _roles */\n      0x03\n        /* \"@openzeppelin/contracts/access/AccessControl.sol\":3901:3913  _roles[role] */\n      0x20\n      mstore\n      0x40\n      swap1\n      keccak256\n        /* \"@openzeppelin/contracts/access/AccessControl.sol\":3901:3923  _roles[role].adminRole */\n      0x01\n      add\n      sload\n        /* \"@openzeppelin/contracts/access/AccessControl.sol\":2464:2480  _checkRole(role) */\n      tag_144\n        /* \"@openzeppelin/contracts/access/AccessControl.sol\":2475:2479  role */\n      dup2\n        /* \"@openzeppelin/contracts/access/AccessControl.sol\":2464:2474  _checkRole */\n      tag_109\n        /* \"@openzeppelin/contracts/access/AccessControl.sol\":2464:2480  _checkRole(role) */\n      jump\t// in\n    tag_144:\n        /* \"@openzeppelin/contracts/access/AccessControl.sol\":4747:4773  _revokeRole(role, account) */\n      tag_111\n        /* \"@openzeppelin/contracts/access/AccessControl.sol\":4759:4763  role */\n      dup4\n        /* \"@openzeppelin/contracts/access/AccessControl.sol\":4765:4772  account */\n      dup4\n        /* \"@openzeppelin/contracts/access/AccessControl.sol\":4747:4758  _revokeRole */\n      tag_117\n        /* \"@openzeppelin/contracts/access/AccessControl.sol\":4747:4773  _revokeRole(role, account) */\n      jump\t// in\n        /* \"@openzeppelin/contracts/token/ERC1155/ERC1155.sol\":3367:3524  function isApprovedForAll(address account, address operator) public view virtual returns (bool) {... */\n    tag_78:\n      sub(shl(0xa0, 0x01), 0x01)\n        /* \"@openzeppelin/contracts/token/ERC1155/ERC1155.sol\":3480:3507  _operatorApprovals[account] */\n      swap2\n      dup3\n      and\n        /* \"@openzeppelin/contracts/token/ERC1155/ERC1155.sol\":3457:3461  bool */\n      0x00\n        /* \"@openzeppelin/contracts/token/ERC1155/ERC1155.sol\":3480:3507  _operatorApprovals[account] */\n      swap1\n      dup2\n      mstore\n        /* \"@openzeppelin/contracts/token/ERC1155/ERC1155.sol\":3480:3498  _operatorApprovals */\n      0x01\n        /* \"@openzeppelin/contracts/token/ERC1155/ERC1155.sol\":3480:3507  _operatorApprovals[account] */\n      0x20\n      swap1\n      dup2\n      mstore\n      0x40\n      dup1\n      dup4\n      keccak256\n        /* \"@openzeppelin/contracts/token/ERC1155/ERC1155.sol\":3480:3517  _operatorApprovals[account][operator] */\n      swap4\n      swap1\n      swap5\n      and\n      dup3\n      mstore\n      swap2\n      swap1\n      swap2\n      mstore\n      keccak256\n      sload\n      0xff\n      and\n      swap1\n        /* \"@openzeppelin/contracts/token/ERC1155/ERC1155.sol\":3367:3524  function isApprovedForAll(address account, address operator) public view virtual returns (bool) {... */\n      jump\t// out\n        /* \"@openzeppelin/contracts/token/ERC1155/ERC1155.sol\":3591:3942  function safeTransferFrom(address from, address to, uint256 id, uint256 value, bytes memory data) public virtual {... */\n    tag_83:\n        /* \"@openzeppelin/contracts/utils/Context.sol\":735:745  msg.sender */\n      caller\n      sub(shl(0xa0, 0x01), 0x01)\n        /* \"@openzeppelin/contracts/token/ERC1155/ERC1155.sol\":3757:3771  from != sender */\n      dup7\n      and\n      dup2\n      eq\n      dup1\n      iszero\n      swap1\n        /* \"@openzeppelin/contracts/token/ERC1155/ERC1155.sol\":3757:3806  from != sender && !isApprovedForAll(from, sender) */\n      tag_150\n      jumpi\n      pop\n        /* \"@openzeppelin/contracts/token/ERC1155/ERC1155.sol\":3776:3806  isApprovedForAll(from, sender) */\n      tag_151\n        /* \"@openzeppelin/contracts/token/ERC1155/ERC1155.sol\":3793:3797  from */\n      dup7\n        /* \"@openzeppelin/contracts/token/ERC1155/ERC1155.sol\":3799:3805  sender */\n      dup3\n        /* \"@openzeppelin/contracts/token/ERC1155/ERC1155.sol\":3776:3792  isApprovedForAll */\n      tag_78\n        /* \"@openzeppelin/contracts/token/ERC1155/ERC1155.sol\":3776:3806  isApprovedForAll(from, sender) */\n      jump\t// in\n    tag_151:\n        /* \"@openzeppelin/contracts/token/ERC1155/ERC1155.sol\":3775:3806  !isApprovedForAll(from, sender) */\n      iszero\n        /* \"@openzeppelin/contracts/token/ERC1155/ERC1155.sol\":3757:3806  from != sender && !isApprovedForAll(from, sender) */\n    tag_150:\n        /* \"@openzeppelin/contracts/token/ERC1155/ERC1155.sol\":3753:3882  if (from != sender && !isApprovedForAll(from, sender)) {... */\n      iszero\n      tag_152\n      jumpi\n        /* \"@openzeppelin/contracts/token/ERC1155/ERC1155.sol\":3829:3871  ERC1155MissingApprovalForAll(sender, from) */\n      mload(0x40)\n      shl(0xe1, 0x711bec91)\n      dup2\n      mstore\n      sub(shl(0xa0, 0x01), 0x01)\n        /* \"#utility.yul\":9320:9352   */\n      dup1\n      dup4\n      and\n        /* \"@openzeppelin/contracts/token/ERC1155/ERC1155.sol\":3829:3871  ERC1155MissingApprovalForAll(sender, from) */\n      0x04\n      dup4\n      add\n        /* \"#utility.yul\":9302:9353   */\n      mstore\n        /* \"#utility.yul\":9389:9421   */\n      dup8\n      and\n        /* \"#utility.yul\":9369:9387   */\n      0x24\n      dup3\n      add\n        /* \"#utility.yul\":9362:9422   */\n      mstore\n        /* \"#utility.yul\":9275:9293   */\n      0x44\n      add\n        /* \"@openzeppelin/contracts/token/ERC1155/ERC1155.sol\":3829:3871  ERC1155MissingApprovalForAll(sender, from) */\n      tag_102\n        /* \"#utility.yul\":9128:9428   */\n      jump\n        /* \"@openzeppelin/contracts/token/ERC1155/ERC1155.sol\":3753:3882  if (from != sender && !isApprovedForAll(from, sender)) {... */\n    tag_152:\n        /* \"@openzeppelin/contracts/token/ERC1155/ERC1155.sol\":3891:3935  _safeTransferFrom(from, to, id, value, data) */\n      tag_104\n        /* \"@openzeppelin/contracts/token/ERC1155/ERC1155.sol\":3909:3913  from */\n      dup7\n        /* \"@openzeppelin/contracts/token/ERC1155/ERC1155.sol\":3915:3917  to */\n      dup7\n        /* \"@openzeppelin/contracts/token/ERC1155/ERC1155.sol\":3919:3921  id */\n      dup7\n        /* \"@openzeppelin/contracts/token/ERC1155/ERC1155.sol\":3923:3928  value */\n      dup7\n        /* \"@openzeppelin/contracts/token/ERC1155/ERC1155.sol\":3930:3934  data */\n      dup7\n        /* \"@openzeppelin/contracts/token/ERC1155/ERC1155.sol\":3891:3908  _safeTransferFrom */\n      tag_155\n        /* \"@openzeppelin/contracts/token/ERC1155/ERC1155.sol\":3891:3935  _safeTransferFrom(from, to, id, value, data) */\n      jump\t// in\n        /* \"@openzeppelin/contracts/access/AccessControl.sol\":2565:2767  function supportsInterface(bytes4 interfaceId) public view virtual override returns (bool) {... */\n    tag_87:\n        /* \"@openzeppelin/contracts/access/AccessControl.sol\":2650:2654  bool */\n      0x00\n      not(sub(shl(0xe0, 0x01), 0x01))\n        /* \"@openzeppelin/contracts/access/AccessControl.sol\":2673:2720  interfaceId == type(IAccessControl).interfaceId */\n      dup3\n      and\n      shl(0xe0, 0x7965db0b)\n      eq\n      dup1\n        /* \"@openzeppelin/contracts/access/AccessControl.sol\":2673:2760  interfaceId == type(IAccessControl).interfaceId || super.supportsInterface(interfaceId) */\n      tag_84\n      jumpi\n      pop\n        /* \"@openzeppelin/contracts/access/AccessControl.sol\":2724:2760  super.supportsInterface(interfaceId) */\n      tag_84\n        /* \"@openzeppelin/contracts/access/AccessControl.sol\":2748:2759  interfaceId */\n      dup3\n        /* \"@openzeppelin/contracts/access/AccessControl.sol\":2724:2747  super.supportsInterface */\n      tag_159\n        /* \"@openzeppelin/contracts/access/AccessControl.sol\":2724:2760  super.supportsInterface(interfaceId) */\n      jump\t// in\n        /* \"@openzeppelin/contracts/token/ERC1155/ERC1155.sol\":9015:9460  function _safeBatchTransferFrom(... */\n    tag_105:\n      sub(shl(0xa0, 0x01), 0x01)\n        /* \"@openzeppelin/contracts/token/ERC1155/ERC1155.sol\":9208:9224  to == address(0) */\n      dup5\n      and\n        /* \"@openzeppelin/contracts/token/ERC1155/ERC1155.sol\":9204:9292  if (to == address(0)) {... */\n      tag_162\n      jumpi\n        /* \"@openzeppelin/contracts/token/ERC1155/ERC1155.sol\":9247:9281  ERC1155InvalidReceiver(address(0)) */\n      mload(0x40)\n      shl(0xe1, 0x2bfa23e7)\n      dup2\n      mstore\n        /* \"@openzeppelin/contracts/token/ERC1155/ERC1155.sol\":9278:9279  0 */\n      0x00\n        /* \"@openzeppelin/contracts/token/ERC1155/ERC1155.sol\":9247:9281  ERC1155InvalidReceiver(address(0)) */\n      0x04\n      dup3\n      add\n        /* \"#utility.yul\":9964:10015   */\n      mstore\n        /* \"#utility.yul\":9937:9955   */\n      0x24\n      add\n        /* \"@openzeppelin/contracts/token/ERC1155/ERC1155.sol\":9247:9281  ERC1155InvalidReceiver(address(0)) */\n      tag_102\n        /* \"#utility.yul\":9818:10021   */\n      jump\n        /* \"@openzeppelin/contracts/token/ERC1155/ERC1155.sol\":9204:9292  if (to == address(0)) {... */\n    tag_162:\n      sub(shl(0xa0, 0x01), 0x01)\n        /* \"@openzeppelin/contracts/token/ERC1155/ERC1155.sol\":9305:9323  from == address(0) */\n      dup6\n      and\n        /* \"@openzeppelin/contracts/token/ERC1155/ERC1155.sol\":9301:9389  if (from == address(0)) {... */\n      tag_165\n      jumpi\n        /* \"@openzeppelin/contracts/token/ERC1155/ERC1155.sol\":9346:9378  ERC1155InvalidSender(address(0)) */\n      mload(0x40)\n      shl(0xe2, 0x6a0d45)\n      dup2\n      mstore\n        /* \"@openzeppelin/contracts/token/ERC1155/ERC1155.sol\":9375:9376  0 */\n      0x00\n        /* \"@openzeppelin/contracts/token/ERC1155/ERC1155.sol\":9346:9378  ERC1155InvalidSender(address(0)) */\n      0x04\n      dup3\n      add\n        /* \"#utility.yul\":9964:10015   */\n      mstore\n        /* \"#utility.yul\":9937:9955   */\n      0x24\n      add\n        /* \"@openzeppelin/contracts/token/ERC1155/ERC1155.sol\":9346:9378  ERC1155InvalidSender(address(0)) */\n      tag_102\n        /* \"#utility.yul\":9818:10021   */\n      jump\n        /* \"@openzeppelin/contracts/token/ERC1155/ERC1155.sol\":9301:9389  if (from == address(0)) {... */\n    tag_165:\n        /* \"@openzeppelin/contracts/token/ERC1155/ERC1155.sol\":9398:9453  _updateWithAcceptanceCheck(from, to, ids, values, data) */\n      tag_167\n        /* \"@openzeppelin/contracts/token/ERC1155/ERC1155.sol\":9425:9429  from */\n      dup6\n        /* \"@openzeppelin/contracts/token/ERC1155/ERC1155.sol\":9431:9433  to */\n      dup6\n        /* \"@openzeppelin/contracts/token/ERC1155/ERC1155.sol\":9435:9438  ids */\n      dup6\n        /* \"@openzeppelin/contracts/token/ERC1155/ERC1155.sol\":9440:9446  values */\n      dup6\n        /* \"@openzeppelin/contracts/token/ERC1155/ERC1155.sol\":9448:9452  data */\n      dup6\n        /* \"@openzeppelin/contracts/token/ERC1155/ERC1155.sol\":9398:9424  _updateWithAcceptanceCheck */\n      tag_168\n        /* \"@openzeppelin/contracts/token/ERC1155/ERC1155.sol\":9398:9453  _updateWithAcceptanceCheck(from, to, ids, values, data) */\n      jump\t// in\n    tag_167:\n        /* \"@openzeppelin/contracts/token/ERC1155/ERC1155.sol\":9015:9460  function _safeBatchTransferFrom(... */\n      pop\n      pop\n      pop\n      pop\n      pop\n      jump\t// out\n        /* \"@openzeppelin/contracts/access/AccessControl.sol\":3199:3302  function _checkRole(bytes32 role) internal view virtual {... */\n    tag_109:\n        /* \"@openzeppelin/contracts/access/AccessControl.sol\":3265:3295  _checkRole(role, _msgSender()) */\n      tag_170\n        /* \"@openzeppelin/contracts/access/AccessControl.sol\":3276:3280  role */\n      dup2\n        /* \"@openzeppelin/contracts/utils/Context.sol\":735:745  msg.sender */\n      caller\n        /* \"@openzeppelin/contracts/access/AccessControl.sol\":3265:3275  _checkRole */\n      tag_172\n        /* \"@openzeppelin/contracts/access/AccessControl.sol\":3265:3295  _checkRole(role, _msgSender()) */\n      jump\t// in\n    tag_170:\n        /* \"@openzeppelin/contracts/access/AccessControl.sol\":3199:3302  function _checkRole(bytes32 role) internal view virtual {... */\n      pop\n      jump\t// out\n        /* \"@openzeppelin/contracts/access/AccessControl.sol\":6179:6495  function _grantRole(bytes32 role, address account) internal virtual returns (bool) {... */\n    tag_112:\n        /* \"@openzeppelin/contracts/access/AccessControl.sol\":6256:6260  bool */\n      0x00\n        /* \"@openzeppelin/contracts/access/AccessControl.sol\":6277:6299  hasRole(role, account) */\n      tag_174\n        /* \"@openzeppelin/contracts/access/AccessControl.sol\":6285:6289  role */\n      dup4\n        /* \"@openzeppelin/contracts/access/AccessControl.sol\":6291:6298  account */\n      dup4\n        /* \"@openzeppelin/contracts/access/AccessControl.sol\":6277:6284  hasRole */\n      tag_63\n        /* \"@openzeppelin/contracts/access/AccessControl.sol\":6277:6299  hasRole(role, account) */\n      jump\t// in\n    tag_174:\n        /* \"@openzeppelin/contracts/access/AccessControl.sol\":6272:6489  if (!hasRole(role, account)) {... */\n      tag_175\n      jumpi\n        /* \"@openzeppelin/contracts/access/AccessControl.sol\":6315:6327  _roles[role] */\n      0x00\n      dup4\n      dup2\n      mstore\n        /* \"@openzeppelin/contracts/access/AccessControl.sol\":6315:6321  _roles */\n      0x03\n        /* \"@openzeppelin/contracts/access/AccessControl.sol\":6315:6327  _roles[role] */\n      0x20\n      swap1\n      dup2\n      mstore\n      0x40\n      dup1\n      dup4\n      keccak256\n      sub(shl(0xa0, 0x01), 0x01)\n        /* \"@openzeppelin/contracts/access/AccessControl.sol\":6315:6344  _roles[role].hasRole[account] */\n      dup7\n      and\n      dup5\n      mstore\n      swap1\n      swap2\n      mstore\n      swap1\n      keccak256\n        /* \"@openzeppelin/contracts/access/AccessControl.sol\":6315:6351  _roles[role].hasRole[account] = true */\n      dup1\n      sload\n      not(0xff)\n      and\n        /* \"@openzeppelin/contracts/access/AccessControl.sol\":6347:6351  true */\n      0x01\n        /* \"@openzeppelin/contracts/access/AccessControl.sol\":6315:6351  _roles[role].hasRole[account] = true */\n      or\n      swap1\n      sstore\n        /* \"@openzeppelin/contracts/access/AccessControl.sol\":6397:6409  _msgSender() */\n      tag_176\n        /* \"@openzeppelin/contracts/utils/Context.sol\":735:745  msg.sender */\n      caller\n      swap1\n        /* \"@openzeppelin/contracts/utils/Context.sol\":656:752  function _msgSender() internal view virtual returns (address) {... */\n      jump\n        /* \"@openzeppelin/contracts/access/AccessControl.sol\":6397:6409  _msgSender() */\n    tag_176:\n      sub(shl(0xa0, 0x01), 0x01)\n        /* \"@openzeppelin/contracts/access/AccessControl.sol\":6370:6410  RoleGranted(role, account, _msgSender()) */\n      and\n        /* \"@openzeppelin/contracts/access/AccessControl.sol\":6388:6395  account */\n      dup3\n      sub(shl(0xa0, 0x01), 0x01)\n        /* \"@openzeppelin/contracts/access/AccessControl.sol\":6370:6410  RoleGranted(role, account, _msgSender()) */\n      and\n        /* \"@openzeppelin/contracts/access/AccessControl.sol\":6382:6386  role */\n      dup5\n        /* \"@openzeppelin/contracts/access/AccessControl.sol\":6370:6410  RoleGranted(role, account, _msgSender()) */\n      0x2f8788117e7eff1d82e926ec794901d17c78024a50270940304540a733656f0d\n      mload(0x40)\n      mload(0x40)\n      dup1\n      swap2\n      sub\n      swap1\n      log4\n      pop\n        /* \"@openzeppelin/contracts/access/AccessControl.sol\":6431:6435  true */\n      0x01\n        /* \"@openzeppelin/contracts/access/AccessControl.sol\":6424:6435  return true */\n      jump(tag_84)\n        /* \"@openzeppelin/contracts/access/AccessControl.sol\":6272:6489  if (!hasRole(role, account)) {... */\n    tag_175:\n      pop\n        /* \"@openzeppelin/contracts/access/AccessControl.sol\":6473:6478  false */\n      0x00\n        /* \"@openzeppelin/contracts/access/AccessControl.sol\":6466:6478  return false */\n      jump(tag_84)\n        /* \"@openzeppelin/contracts/access/AccessControl.sol\":6730:7047  function _revokeRole(bytes32 role, address account) internal virtual returns (bool) {... */\n    tag_117:\n        /* \"@openzeppelin/contracts/access/AccessControl.sol\":6808:6812  bool */\n      0x00\n        /* \"@openzeppelin/contracts/access/AccessControl.sol\":6828:6850  hasRole(role, account) */\n      tag_179\n        /* \"@openzeppelin/contracts/access/AccessControl.sol\":6836:6840  role */\n      dup4\n        /* \"@openzeppelin/contracts/access/AccessControl.sol\":6842:6849  account */\n      dup4\n        /* \"@openzeppelin/contracts/access/AccessControl.sol\":6828:6835  hasRole */\n      tag_63\n        /* \"@openzeppelin/contracts/access/AccessControl.sol\":6828:6850  hasRole(role, account) */\n      jump\t// in\n    tag_179:\n        /* \"@openzeppelin/contracts/access/AccessControl.sol\":6824:7041  if (hasRole(role, account)) {... */\n      iszero\n      tag_175\n      jumpi\n        /* \"@openzeppelin/contracts/access/AccessControl.sol\":6898:6903  false */\n      0x00\n        /* \"@openzeppelin/contracts/access/AccessControl.sol\":6866:6878  _roles[role] */\n      dup4\n      dup2\n      mstore\n        /* \"@openzeppelin/contracts/access/AccessControl.sol\":6866:6872  _roles */\n      0x03\n        /* \"@openzeppelin/contracts/access/AccessControl.sol\":6866:6878  _roles[role] */\n      0x20\n      swap1\n      dup2\n      mstore\n      0x40\n      dup1\n      dup4\n      keccak256\n      sub(shl(0xa0, 0x01), 0x01)\n        /* \"@openzeppelin/contracts/access/AccessControl.sol\":6866:6895  _roles[role].hasRole[account] */\n      dup7\n      and\n      dup1\n      dup6\n      mstore\n      swap3\n      mstore\n      dup1\n      dup4\n      keccak256\n        /* \"@openzeppelin/contracts/access/AccessControl.sol\":6866:6903  _roles[role].hasRole[account] = false */\n      dup1\n      sload\n      not(0xff)\n      and\n      swap1\n      sstore\n        /* \"@openzeppelin/contracts/access/AccessControl.sol\":6922:6962  RoleRevoked(role, account, _msgSender()) */\n      mload\n        /* \"@openzeppelin/contracts/utils/Context.sol\":735:745  msg.sender */\n      caller\n      swap3\n        /* \"@openzeppelin/contracts/access/AccessControl.sol\":6866:6878  _roles[role] */\n      dup7\n      swap2\n        /* \"@openzeppelin/contracts/access/AccessControl.sol\":6922:6962  RoleRevoked(role, account, _msgSender()) */\n      0xf6391f5c32d9c69d2a47ea670b442974b53935d1edc7fd64eb21e047a839171b\n      swap2\n        /* \"@openzeppelin/contracts/access/AccessControl.sol\":6898:6903  false */\n      swap1\n        /* \"@openzeppelin/contracts/access/AccessControl.sol\":6922:6962  RoleRevoked(role, account, _msgSender()) */\n      log4\n      pop\n        /* \"@openzeppelin/contracts/access/AccessControl.sol\":6983:6987  true */\n      0x01\n        /* \"@openzeppelin/contracts/access/AccessControl.sol\":6976:6987  return true */\n      jump(tag_84)\n        /* \"@openzeppelin/contracts/token/ERC1155/ERC1155.sol\":13268:13583  function _setApprovalForAll(address owner, address operator, bool approved) internal virtual {... */\n    tag_141:\n      sub(shl(0xa0, 0x01), 0x01)\n        /* \"@openzeppelin/contracts/token/ERC1155/ERC1155.sol\":13375:13397  operator == address(0) */\n      dup3\n      and\n        /* \"@openzeppelin/contracts/token/ERC1155/ERC1155.sol\":13371:13465  if (operator == address(0)) {... */\n      tag_186\n      jumpi\n        /* \"@openzeppelin/contracts/token/ERC1155/ERC1155.sol\":13420:13454  ERC1155InvalidOperator(address(0)) */\n      mload(0x40)\n      shl(0xe8, 0xced3e1)\n      dup2\n      mstore\n        /* \"@openzeppelin/contracts/token/ERC1155/ERC1155.sol\":13451:13452  0 */\n      0x00\n        /* \"@openzeppelin/contracts/token/ERC1155/ERC1155.sol\":13420:13454  ERC1155InvalidOperator(address(0)) */\n      0x04\n      dup3\n      add\n        /* \"#utility.yul\":9964:10015   */\n      mstore\n        /* \"#utility.yul\":9937:9955   */\n      0x24\n      add\n        /* \"@openzeppelin/contracts/token/ERC1155/ERC1155.sol\":13420:13454  ERC1155InvalidOperator(address(0)) */\n      tag_102\n        /* \"#utility.yul\":9818:10021   */\n      jump\n        /* \"@openzeppelin/contracts/token/ERC1155/ERC1155.sol\":13371:13465  if (operator == address(0)) {... */\n    tag_186:\n      sub(shl(0xa0, 0x01), 0x01)\n        /* \"@openzeppelin/contracts/token/ERC1155/ERC1155.sol\":13474:13499  _operatorApprovals[owner] */\n      dup4\n      dup2\n      and\n      0x00\n      dup2\n      dup2\n      mstore\n        /* \"@openzeppelin/contracts/token/ERC1155/ERC1155.sol\":13474:13492  _operatorApprovals */\n      0x01\n        /* \"@openzeppelin/contracts/token/ERC1155/ERC1155.sol\":13474:13499  _operatorApprovals[owner] */\n      0x20\n      swap1\n      dup2\n      mstore\n      0x40\n      dup1\n      dup4\n      keccak256\n        /* \"@openzeppelin/contracts/token/ERC1155/ERC1155.sol\":13474:13509  _operatorApprovals[owner][operator] */\n      swap5\n      dup8\n      and\n      dup1\n      dup5\n      mstore\n      swap5\n      dup3\n      mstore\n      swap2\n      dup3\n      swap1\n      keccak256\n        /* \"@openzeppelin/contracts/token/ERC1155/ERC1155.sol\":13474:13520  _operatorApprovals[owner][operator] = approved */\n      dup1\n      sload\n      not(0xff)\n      and\n      dup7\n      iszero\n      iszero\n      swap1\n      dup2\n      or\n      swap1\n      swap2\n      sstore\n        /* \"@openzeppelin/contracts/token/ERC1155/ERC1155.sol\":13535:13576  ApprovalForAll(owner, operator, approved) */\n      swap2\n      mload\n        /* \"#utility.yul\":1205:1246   */\n      swap2\n      dup3\n      mstore\n        /* \"@openzeppelin/contracts/token/ERC1155/ERC1155.sol\":13535:13576  ApprovalForAll(owner, operator, approved) */\n      0x17307eab39ab6107e8899845ad3d59bd9653f200f220920489ca2b5937696c31\n      swap2\n        /* \"#utility.yul\":1178:1196   */\n      add\n        /* \"@openzeppelin/contracts/token/ERC1155/ERC1155.sol\":13535:13576  ApprovalForAll(owner, operator, approved) */\n      mload(0x40)\n      dup1\n      swap2\n      sub\n      swap1\n      log3\n        /* \"@openzeppelin/contracts/token/ERC1155/ERC1155.sol\":13268:13583  function _setApprovalForAll(address owner, address operator, bool approved) internal virtual {... */\n      pop\n      pop\n      pop\n      jump\t// out\n        /* \"@openzeppelin/contracts/token/ERC1155/ERC1155.sol\":8151:8614  function _safeTransferFrom(address from, address to, uint256 id, uint256 value, bytes memory data) internal {... */\n    tag_155:\n      sub(shl(0xa0, 0x01), 0x01)\n        /* \"@openzeppelin/contracts/token/ERC1155/ERC1155.sol\":8273:8289  to == address(0) */\n      dup5\n      and\n        /* \"@openzeppelin/contracts/token/ERC1155/ERC1155.sol\":8269:8357  if (to == address(0)) {... */\n      tag_190\n      jumpi\n        /* \"@openzeppelin/contracts/token/ERC1155/ERC1155.sol\":8312:8346  ERC1155InvalidReceiver(address(0)) */\n      mload(0x40)\n      shl(0xe1, 0x2bfa23e7)\n      dup2\n      mstore\n        /* \"@openzeppelin/contracts/token/ERC1155/ERC1155.sol\":8343:8344  0 */\n      0x00\n        /* \"@openzeppelin/contracts/token/ERC1155/ERC1155.sol\":8312:8346  ERC1155InvalidReceiver(address(0)) */\n      0x04\n      dup3\n      add\n        /* \"#utility.yul\":9964:10015   */\n      mstore\n        /* \"#utility.yul\":9937:9955   */\n      0x24\n      add\n        /* \"@openzeppelin/contracts/token/ERC1155/ERC1155.sol\":8312:8346  ERC1155InvalidReceiver(address(0)) */\n      tag_102\n        /* \"#utility.yul\":9818:10021   */\n      jump\n        /* \"@openzeppelin/contracts/token/ERC1155/ERC1155.sol\":8269:8357  if (to == address(0)) {... */\n    tag_190:\n      sub(shl(0xa0, 0x01), 0x01)\n        /* \"@openzeppelin/contracts/token/ERC1155/ERC1155.sol\":8370:8388  from == address(0) */\n      dup6\n      and\n        /* \"@openzeppelin/contracts/token/ERC1155/ERC1155.sol\":8366:8454  if (from == address(0)) {... */\n      tag_192\n      jumpi\n        /* \"@openzeppelin/contracts/token/ERC1155/ERC1155.sol\":8411:8443  ERC1155InvalidSender(address(0)) */\n      mload(0x40)\n      shl(0xe2, 0x6a0d45)\n      dup2\n      mstore\n        /* \"@openzeppelin/contracts/token/ERC1155/ERC1155.sol\":8440:8441  0 */\n      0x00\n        /* \"@openzeppelin/contracts/token/ERC1155/ERC1155.sol\":8411:8443  ERC1155InvalidSender(address(0)) */\n      0x04\n      dup3\n      add\n        /* \"#utility.yul\":9964:10015   */\n      mstore\n        /* \"#utility.yul\":9937:9955   */\n      0x24\n      add\n        /* \"@openzeppelin/contracts/token/ERC1155/ERC1155.sol\":8411:8443  ERC1155InvalidSender(address(0)) */\n      tag_102\n        /* \"#utility.yul\":9818:10021   */\n      jump\n        /* \"@openzeppelin/contracts/token/ERC1155/ERC1155.sol\":8366:8454  if (from == address(0)) {... */\n    tag_192:\n        /* \"@openzeppelin/contracts/token/ERC1155/ERC1155.sol\":16374:16378  0x40 */\n      0x40\n        /* \"@openzeppelin/contracts/token/ERC1155/ERC1155.sol\":16368:16379  mload(0x40) */\n      dup1\n      mload\n        /* \"@openzeppelin/contracts/token/ERC1155/ERC1155.sol\":16444:16445  1 */\n      0x01\n        /* \"@openzeppelin/contracts/token/ERC1155/ERC1155.sol\":16429:16446  mstore(array1, 1) */\n      dup1\n      dup3\n      mstore\n        /* \"@openzeppelin/contracts/token/ERC1155/ERC1155.sol\":16575:16579  0x20 */\n      0x20\n        /* \"@openzeppelin/contracts/token/ERC1155/ERC1155.sol\":16563:16580  add(array1, 0x20) */\n      dup3\n      add\n        /* \"@openzeppelin/contracts/token/ERC1155/ERC1155.sol\":16556:16591  mstore(add(array1, 0x20), element1) */\n      dup7\n      swap1\n      mstore\n        /* \"@openzeppelin/contracts/token/ERC1155/ERC1155.sol\":16692:16709  add(array1, 0x40) */\n      dup2\n      dup4\n      add\n        /* \"@openzeppelin/contracts/token/ERC1155/ERC1155.sol\":16722:16739  mstore(array2, 1) */\n      swap1\n      dup2\n      mstore\n        /* \"@openzeppelin/contracts/token/ERC1155/ERC1155.sol\":16188:16211  uint256[] memory array1 */\n      0x60\n        /* \"@openzeppelin/contracts/token/ERC1155/ERC1155.sol\":16759:16776  add(array2, 0x20) */\n      dup3\n      add\n        /* \"@openzeppelin/contracts/token/ERC1155/ERC1155.sol\":16752:16787  mstore(add(array2, 0x20), element2) */\n      dup6\n      swap1\n      mstore\n        /* \"@openzeppelin/contracts/token/ERC1155/ERC1155.sol\":16895:16912  add(array2, 0x40) */\n      0x80\n      dup3\n      add\n        /* \"@openzeppelin/contracts/token/ERC1155/ERC1155.sol\":16882:16913  mstore(0x40, add(array2, 0x40)) */\n      swap1\n      swap3\n      mstore\n        /* \"@openzeppelin/contracts/token/ERC1155/ERC1155.sol\":16368:16379  mload(0x40) */\n      swap1\n        /* \"@openzeppelin/contracts/token/ERC1155/ERC1155.sol\":8552:8607  _updateWithAcceptanceCheck(from, to, ids, values, data) */\n      tag_196\n        /* \"@openzeppelin/contracts/token/ERC1155/ERC1155.sol\":8579:8583  from */\n      dup8\n        /* \"@openzeppelin/contracts/token/ERC1155/ERC1155.sol\":8585:8587  to */\n      dup8\n        /* \"@openzeppelin/contracts/token/ERC1155/ERC1155.sol\":16368:16379  mload(0x40) */\n      dup5\n        /* \"@openzeppelin/contracts/token/ERC1155/ERC1155.sol\":16692:16709  add(array1, 0x40) */\n      dup5\n        /* \"@openzeppelin/contracts/token/ERC1155/ERC1155.sol\":8602:8606  data */\n      dup8\n        /* \"@openzeppelin/contracts/token/ERC1155/ERC1155.sol\":8552:8578  _updateWithAcceptanceCheck */\n      tag_168\n        /* \"@openzeppelin/contracts/token/ERC1155/ERC1155.sol\":8552:8607  _updateWithAcceptanceCheck(from, to, ids, values, data) */\n      jump\t// in\n    tag_196:\n        /* \"@openzeppelin/contracts/token/ERC1155/ERC1155.sol\":8259:8614  {... */\n      pop\n      pop\n        /* \"@openzeppelin/contracts/token/ERC1155/ERC1155.sol\":8151:8614  function _safeTransferFrom(address from, address to, uint256 id, uint256 value, bytes memory data) internal {... */\n      pop\n      pop\n      pop\n      pop\n      pop\n      jump\t// out\n        /* \"@openzeppelin/contracts/token/ERC1155/ERC1155.sol\":1380:1685  function supportsInterface(bytes4 interfaceId) public view virtual override(ERC165, IERC165) returns (bool) {... */\n    tag_159:\n        /* \"@openzeppelin/contracts/token/ERC1155/ERC1155.sol\":1482:1486  bool */\n      0x00\n      not(sub(shl(0xe0, 0x01), 0x01))\n        /* \"@openzeppelin/contracts/token/ERC1155/ERC1155.sol\":1517:1558  interfaceId == type(IERC1155).interfaceId */\n      dup3\n      and\n      shl(0xe1, 0x6cdb3d13)\n      eq\n      dup1\n        /* \"@openzeppelin/contracts/token/ERC1155/ERC1155.sol\":1517:1626  interfaceId == type(IERC1155).interfaceId ||... */\n      tag_198\n      jumpi\n      pop\n      not(sub(shl(0xe0, 0x01), 0x01))\n        /* \"@openzeppelin/contracts/token/ERC1155/ERC1155.sol\":1574:1626  interfaceId == type(IERC1155MetadataURI).interfaceId */\n      dup3\n      and\n      shl(0xe2, 0x03a24d07)\n      eq\n        /* \"@openzeppelin/contracts/token/ERC1155/ERC1155.sol\":1517:1626  interfaceId == type(IERC1155).interfaceId ||... */\n    tag_198:\n        /* \"@openzeppelin/contracts/token/ERC1155/ERC1155.sol\":1517:1678  interfaceId == type(IERC1155).interfaceId ||... */\n      dup1\n      tag_84\n      jumpi\n      pop\n      shl(0xe0, 0x01ffc9a7)\n      not(sub(shl(0xe0, 0x01), 0x01))\n        /* \"@openzeppelin/contracts/utils/introspection/ERC165.sol\":861:901  interfaceId == type(IERC165).interfaceId */\n      dup4\n      and\n      eq\n        /* \"@openzeppelin/contracts/token/ERC1155/ERC1155.sol\":1642:1678  super.supportsInterface(interfaceId) */\n      tag_84\n        /* \"@openzeppelin/contracts/utils/introspection/ERC165.sol\":762:908  function supportsInterface(bytes4 interfaceId) public view virtual returns (bool) {... */\n      jump\n        /* \"@openzeppelin/contracts/token/ERC1155/ERC1155.sol\":7004:7694  function _updateWithAcceptanceCheck(... */\n    tag_168:\n        /* \"@openzeppelin/contracts/token/ERC1155/ERC1155.sol\":7205:7235  _update(from, to, ids, values) */\n      tag_203\n        /* \"@openzeppelin/contracts/token/ERC1155/ERC1155.sol\":7213:7217  from */\n      dup6\n        /* \"@openzeppelin/contracts/token/ERC1155/ERC1155.sol\":7219:7221  to */\n      dup6\n        /* \"@openzeppelin/contracts/token/ERC1155/ERC1155.sol\":7223:7226  ids */\n      dup6\n        /* \"@openzeppelin/contracts/token/ERC1155/ERC1155.sol\":7228:7234  values */\n      dup6\n        /* \"@openzeppelin/contracts/token/ERC1155/ERC1155.sol\":7205:7212  _update */\n      tag_204\n        /* \"@openzeppelin/contracts/token/ERC1155/ERC1155.sol\":7205:7235  _update(from, to, ids, values) */\n      jump\t// in\n    tag_203:\n      sub(shl(0xa0, 0x01), 0x01)\n        /* \"@openzeppelin/contracts/token/ERC1155/ERC1155.sol\":7249:7265  to != address(0) */\n      dup5\n      and\n      iszero\n        /* \"@openzeppelin/contracts/token/ERC1155/ERC1155.sol\":7245:7688  if (to != address(0)) {... */\n      tag_167\n      jumpi\n        /* \"@openzeppelin/contracts/token/ERC1155/ERC1155.sol\":7330:7340  ids.length */\n      dup3\n      mload\n        /* \"@openzeppelin/contracts/utils/Context.sol\":735:745  msg.sender */\n      caller\n      swap1\n        /* \"@openzeppelin/contracts/token/ERC1155/ERC1155.sol\":7344:7345  1 */\n      0x01\n        /* \"@openzeppelin/contracts/token/ERC1155/ERC1155.sol\":7330:7345  ids.length == 1 */\n      sub\n        /* \"@openzeppelin/contracts/token/ERC1155/ERC1155.sol\":7326:7678  if (ids.length == 1) {... */\n      tag_207\n      jumpi\n        /* \"@openzeppelin/contracts/utils/Arrays.sol\":4777:4781  0x20 */\n      0x20\n        /* \"@openzeppelin/contracts/utils/Arrays.sol\":4748:4783  add(add(arr, 0x20), mul(pos, 0x20)) */\n      dup5\n      dup2\n      add\n        /* \"@openzeppelin/contracts/utils/Arrays.sol\":4742:4784  mload(add(add(arr, 0x20), mul(pos, 0x20))) */\n      mload\n        /* \"@openzeppelin/contracts/utils/Arrays.sol\":4748:4783  add(add(arr, 0x20), mul(pos, 0x20)) */\n      swap1\n      dup5\n      add\n        /* \"@openzeppelin/contracts/utils/Arrays.sol\":4742:4784  mload(add(add(arr, 0x20), mul(pos, 0x20))) */\n      mload\n        /* \"@openzeppelin/contracts/token/ERC1155/ERC1155.sol\":7483:7550  _doSafeTransferAcceptanceCheck(operator, from, to, id, value, data) */\n      tag_210\n        /* \"@openzeppelin/contracts/token/ERC1155/ERC1155.sol\":7514:7522  operator */\n      dup4\n        /* \"@openzeppelin/contracts/token/ERC1155/ERC1155.sol\":7524:7528  from */\n      dup10\n        /* \"@openzeppelin/contracts/token/ERC1155/ERC1155.sol\":7530:7532  to */\n      dup10\n        /* \"@openzeppelin/contracts/utils/Arrays.sol\":4742:4784  mload(add(add(arr, 0x20), mul(pos, 0x20))) */\n      dup6\n      dup6\n        /* \"@openzeppelin/contracts/token/ERC1155/ERC1155.sol\":7545:7549  data */\n      dup10\n        /* \"@openzeppelin/contracts/token/ERC1155/ERC1155.sol\":7483:7513  _doSafeTransferAcceptanceCheck */\n      tag_211\n        /* \"@openzeppelin/contracts/token/ERC1155/ERC1155.sol\":7483:7550  _doSafeTransferAcceptanceCheck(operator, from, to, id, value, data) */\n      jump\t// in\n    tag_210:\n        /* \"@openzeppelin/contracts/token/ERC1155/ERC1155.sol\":7347:7565  {... */\n      pop\n      pop\n        /* \"@openzeppelin/contracts/token/ERC1155/ERC1155.sol\":7326:7678  if (ids.length == 1) {... */\n      jump(tag_104)\n    tag_207:\n        /* \"@openzeppelin/contracts/token/ERC1155/ERC1155.sol\":7589:7663  _doSafeBatchTransferAcceptanceCheck(operator, from, to, ids, values, data) */\n      tag_104\n        /* \"@openzeppelin/contracts/token/ERC1155/ERC1155.sol\":7625:7633  operator */\n      dup2\n        /* \"@openzeppelin/contracts/token/ERC1155/ERC1155.sol\":7635:7639  from */\n      dup8\n        /* \"@openzeppelin/contracts/token/ERC1155/ERC1155.sol\":7641:7643  to */\n      dup8\n        /* \"@openzeppelin/contracts/token/ERC1155/ERC1155.sol\":7645:7648  ids */\n      dup8\n        /* \"@openzeppelin/contracts/token/ERC1155/ERC1155.sol\":7650:7656  values */\n      dup8\n        /* \"@openzeppelin/contracts/token/ERC1155/ERC1155.sol\":7658:7662  data */\n      dup8\n        /* \"@openzeppelin/contracts/token/ERC1155/ERC1155.sol\":7589:7624  _doSafeBatchTransferAcceptanceCheck */\n      tag_214\n        /* \"@openzeppelin/contracts/token/ERC1155/ERC1155.sol\":7589:7663  _doSafeBatchTransferAcceptanceCheck(operator, from, to, ids, values, data) */\n      jump\t// in\n        /* \"@openzeppelin/contracts/access/AccessControl.sol\":3432:3629  function _checkRole(bytes32 role, address account) internal view virtual {... */\n    tag_172:\n        /* \"@openzeppelin/contracts/access/AccessControl.sol\":3520:3542  hasRole(role, account) */\n      tag_216\n        /* \"@openzeppelin/contracts/access/AccessControl.sol\":3528:3532  role */\n      dup3\n        /* \"@openzeppelin/contracts/access/AccessControl.sol\":3534:3541  account */\n      dup3\n        /* \"@openzeppelin/contracts/access/AccessControl.sol\":3520:3527  hasRole */\n      tag_63\n        /* \"@openzeppelin/contracts/access/AccessControl.sol\":3520:3542  hasRole(role, account) */\n      jump\t// in\n    tag_216:\n        /* \"@openzeppelin/contracts/access/AccessControl.sol\":3515:3623  if (!hasRole(role, account)) {... */\n      tag_139\n      jumpi\n        /* \"@openzeppelin/contracts/access/AccessControl.sol\":3565:3612  AccessControlUnauthorizedAccount(account, role) */\n      mload(0x40)\n      shl(0xe0, 0xe2517d3f)\n      dup2\n      mstore\n      sub(shl(0xa0, 0x01), 0x01)\n        /* \"#utility.yul\":10218:10250   */\n      dup3\n      and\n        /* \"@openzeppelin/contracts/access/AccessControl.sol\":3565:3612  AccessControlUnauthorizedAccount(account, role) */\n      0x04\n      dup3\n      add\n        /* \"#utility.yul\":10200:10251   */\n      mstore\n        /* \"#utility.yul\":10267:10285   */\n      0x24\n      dup2\n      add\n        /* \"#utility.yul\":10260:10294   */\n      dup4\n      swap1\n      mstore\n        /* \"#utility.yul\":10173:10191   */\n      0x44\n      add\n        /* \"@openzeppelin/contracts/access/AccessControl.sol\":3565:3612  AccessControlUnauthorizedAccount(account, role) */\n      tag_102\n        /* \"#utility.yul\":10026:10300   */\n      jump\n        /* \"@openzeppelin/contracts/token/ERC1155/ERC1155.sol\":5144:6425  function _update(address from, address to, uint256[] memory ids, uint256[] memory values) internal virtual {... */\n    tag_204:\n        /* \"@openzeppelin/contracts/token/ERC1155/ERC1155.sol\":5279:5285  values */\n      dup1\n        /* \"@openzeppelin/contracts/token/ERC1155/ERC1155.sol\":5279:5292  values.length */\n      mload\n        /* \"@openzeppelin/contracts/token/ERC1155/ERC1155.sol\":5265:5268  ids */\n      dup3\n        /* \"@openzeppelin/contracts/token/ERC1155/ERC1155.sol\":5265:5275  ids.length */\n      mload\n        /* \"@openzeppelin/contracts/token/ERC1155/ERC1155.sol\":5265:5292  ids.length != values.length */\n      eq\n        /* \"@openzeppelin/contracts/token/ERC1155/ERC1155.sol\":5261:5378  if (ids.length != values.length) {... */\n      tag_223\n      jumpi\n        /* \"@openzeppelin/contracts/token/ERC1155/ERC1155.sol\":5341:5351  ids.length */\n      dup2\n      mload\n        /* \"@openzeppelin/contracts/token/ERC1155/ERC1155.sol\":5353:5366  values.length */\n      dup2\n      mload\n        /* \"@openzeppelin/contracts/token/ERC1155/ERC1155.sol\":5315:5367  ERC1155InvalidArrayLength(ids.length, values.length) */\n      mload(0x40)\n      shl(0xe0, 0x5b059991)\n      dup2\n      mstore\n      0x04\n      dup2\n      add\n        /* \"#utility.yul\":9607:9632   */\n      swap3\n      swap1\n      swap3\n      mstore\n        /* \"#utility.yul\":9648:9666   */\n      0x24\n      dup3\n      add\n        /* \"#utility.yul\":9641:9675   */\n      mstore\n        /* \"#utility.yul\":9580:9598   */\n      0x44\n      add\n        /* \"@openzeppelin/contracts/token/ERC1155/ERC1155.sol\":5315:5367  ERC1155InvalidArrayLength(ids.length, values.length) */\n      tag_102\n        /* \"#utility.yul\":9433:9681   */\n      jump\n        /* \"@openzeppelin/contracts/token/ERC1155/ERC1155.sol\":5261:5378  if (ids.length != values.length) {... */\n    tag_223:\n        /* \"@openzeppelin/contracts/utils/Context.sol\":735:745  msg.sender */\n      caller\n        /* \"@openzeppelin/contracts/token/ERC1155/ERC1155.sol\":5388:5404  address operator */\n      0x00\n        /* \"@openzeppelin/contracts/token/ERC1155/ERC1155.sol\":5430:6121  for (uint256 i = 0; i < ids.length; ++i) {... */\n    tag_226:\n        /* \"@openzeppelin/contracts/token/ERC1155/ERC1155.sol\":5454:5457  ids */\n      dup4\n        /* \"@openzeppelin/contracts/token/ERC1155/ERC1155.sol\":5454:5464  ids.length */\n      mload\n        /* \"@openzeppelin/contracts/token/ERC1155/ERC1155.sol\":5450:5451  i */\n      dup2\n        /* \"@openzeppelin/contracts/token/ERC1155/ERC1155.sol\":5450:5464  i < ids.length */\n      lt\n        /* \"@openzeppelin/contracts/token/ERC1155/ERC1155.sol\":5430:6121  for (uint256 i = 0; i < ids.length; ++i) {... */\n      iszero\n      tag_227\n      jumpi\n        /* \"@openzeppelin/contracts/utils/Arrays.sol\":4777:4781  0x20 */\n      0x20\n        /* \"@openzeppelin/contracts/utils/Arrays.sol\":4768:4782  mul(pos, 0x20) */\n      dup2\n      dup2\n      mul\n        /* \"@openzeppelin/contracts/utils/Arrays.sol\":4748:4783  add(add(arr, 0x20), mul(pos, 0x20)) */\n      dup6\n      dup2\n      add\n      dup3\n      add\n        /* \"@openzeppelin/contracts/utils/Arrays.sol\":4742:4784  mload(add(add(arr, 0x20), mul(pos, 0x20))) */\n      mload\n        /* \"@openzeppelin/contracts/utils/Arrays.sol\":4748:4783  add(add(arr, 0x20), mul(pos, 0x20)) */\n      swap1\n      dup6\n      add\n      swap1\n      swap2\n      add\n        /* \"@openzeppelin/contracts/utils/Arrays.sol\":4742:4784  mload(add(add(arr, 0x20), mul(pos, 0x20))) */\n      mload\n      sub(shl(0xa0, 0x01), 0x01)\n        /* \"@openzeppelin/contracts/token/ERC1155/ERC1155.sol\":5600:5618  from != address(0) */\n      dup9\n      and\n      iszero\n        /* \"@openzeppelin/contracts/token/ERC1155/ERC1155.sol\":5596:6016  if (from != address(0)) {... */\n      tag_231\n      jumpi\n        /* \"@openzeppelin/contracts/token/ERC1155/ERC1155.sol\":5638:5657  uint256 fromBalance */\n      0x00\n        /* \"@openzeppelin/contracts/token/ERC1155/ERC1155.sol\":5660:5673  _balances[id] */\n      dup3\n      dup2\n      mstore\n      0x20\n      dup2\n      dup2\n      mstore\n      0x40\n      dup1\n      dup4\n      keccak256\n      sub(shl(0xa0, 0x01), 0x01)\n        /* \"@openzeppelin/contracts/token/ERC1155/ERC1155.sol\":5660:5679  _balances[id][from] */\n      dup13\n      and\n      dup5\n      mstore\n      swap1\n      swap2\n      mstore\n      swap1\n      keccak256\n      sload\n        /* \"@openzeppelin/contracts/token/ERC1155/ERC1155.sol\":5701:5720  fromBalance < value */\n      dup2\n      dup2\n      lt\n        /* \"@openzeppelin/contracts/token/ERC1155/ERC1155.sol\":5697:5826  if (fromBalance < value) {... */\n      iszero\n      tag_232\n      jumpi\n        /* \"@openzeppelin/contracts/token/ERC1155/ERC1155.sol\":5751:5807  ERC1155InsufficientBalance(from, fromBalance, value, id) */\n      mload(0x40)\n      shl(0xe0, 0x03dee4c5)\n      dup2\n      mstore\n      sub(shl(0xa0, 0x01), 0x01)\n        /* \"#utility.yul\":10554:10586   */\n      dup11\n      and\n        /* \"@openzeppelin/contracts/token/ERC1155/ERC1155.sol\":5751:5807  ERC1155InsufficientBalance(from, fromBalance, value, id) */\n      0x04\n      dup3\n      add\n        /* \"#utility.yul\":10536:10587   */\n      mstore\n        /* \"#utility.yul\":10603:10621   */\n      0x24\n      dup2\n      add\n        /* \"#utility.yul\":10596:10630   */\n      dup3\n      swap1\n      mstore\n        /* \"#utility.yul\":10646:10664   */\n      0x44\n      dup2\n      add\n        /* \"#utility.yul\":10639:10673   */\n      dup4\n      swap1\n      mstore\n        /* \"#utility.yul\":10689:10707   */\n      0x64\n      dup2\n      add\n        /* \"#utility.yul\":10682:10716   */\n      dup5\n      swap1\n      mstore\n        /* \"#utility.yul\":10508:10527   */\n      0x84\n      add\n        /* \"@openzeppelin/contracts/token/ERC1155/ERC1155.sol\":5751:5807  ERC1155InsufficientBalance(from, fromBalance, value, id) */\n      tag_102\n        /* \"#utility.yul\":10305:10722   */\n      jump\n        /* \"@openzeppelin/contracts/token/ERC1155/ERC1155.sol\":5697:5826  if (fromBalance < value) {... */\n    tag_232:\n        /* \"@openzeppelin/contracts/token/ERC1155/ERC1155.sol\":5942:5951  _balances */\n      0x00\n        /* \"@openzeppelin/contracts/token/ERC1155/ERC1155.sol\":5942:5955  _balances[id] */\n      dup4\n      dup2\n      mstore\n      0x20\n      dup2\n      dup2\n      mstore\n      0x40\n      dup1\n      dup4\n      keccak256\n      sub(shl(0xa0, 0x01), 0x01)\n        /* \"@openzeppelin/contracts/token/ERC1155/ERC1155.sol\":5942:5961  _balances[id][from] */\n      dup14\n      and\n      dup5\n      mstore\n      swap1\n      swap2\n      mstore\n      swap1\n      keccak256\n        /* \"@openzeppelin/contracts/token/ERC1155/ERC1155.sol\":5964:5983  fromBalance - value */\n      swap1\n      dup3\n      swap1\n      sub\n        /* \"@openzeppelin/contracts/token/ERC1155/ERC1155.sol\":5942:5983  _balances[id][from] = fromBalance - value */\n      swap1\n      sstore\n        /* \"@openzeppelin/contracts/token/ERC1155/ERC1155.sol\":5596:6016  if (from != address(0)) {... */\n    tag_231:\n      sub(shl(0xa0, 0x01), 0x01)\n        /* \"@openzeppelin/contracts/token/ERC1155/ERC1155.sol\":6034:6050  to != address(0) */\n      dup8\n      and\n      iszero\n        /* \"@openzeppelin/contracts/token/ERC1155/ERC1155.sol\":6030:6111  if (to != address(0)) {... */\n      tag_235\n      jumpi\n        /* \"@openzeppelin/contracts/token/ERC1155/ERC1155.sol\":6070:6079  _balances */\n      0x00\n        /* \"@openzeppelin/contracts/token/ERC1155/ERC1155.sol\":6070:6083  _balances[id] */\n      dup3\n      dup2\n      mstore\n      0x20\n      dup2\n      dup2\n      mstore\n      0x40\n      dup1\n      dup4\n      keccak256\n      sub(shl(0xa0, 0x01), 0x01)\n        /* \"@openzeppelin/contracts/token/ERC1155/ERC1155.sol\":6070:6087  _balances[id][to] */\n      dup12\n      and\n      dup5\n      mstore\n      swap1\n      swap2\n      mstore\n      dup2\n      keccak256\n        /* \"@openzeppelin/contracts/token/ERC1155/ERC1155.sol\":6070:6096  _balances[id][to] += value */\n      dup1\n      sload\n        /* \"@openzeppelin/contracts/token/ERC1155/ERC1155.sol\":6091:6096  value */\n      dup4\n      swap3\n        /* \"@openzeppelin/contracts/token/ERC1155/ERC1155.sol\":6070:6079  _balances */\n      swap1\n        /* \"@openzeppelin/contracts/token/ERC1155/ERC1155.sol\":6070:6096  _balances[id][to] += value */\n      tag_236\n      swap1\n        /* \"@openzeppelin/contracts/token/ERC1155/ERC1155.sol\":6091:6096  value */\n      dup5\n      swap1\n        /* \"@openzeppelin/contracts/token/ERC1155/ERC1155.sol\":6070:6096  _balances[id][to] += value */\n      tag_237\n      jump\t// in\n    tag_236:\n      swap1\n      swap2\n      sstore\n      pop\n      pop\n        /* \"@openzeppelin/contracts/token/ERC1155/ERC1155.sol\":6030:6111  if (to != address(0)) {... */\n    tag_235:\n      pop\n      pop\n        /* \"@openzeppelin/contracts/token/ERC1155/ERC1155.sol\":5466:5469  ++i */\n      0x01\n      add\n        /* \"@openzeppelin/contracts/token/ERC1155/ERC1155.sol\":5430:6121  for (uint256 i = 0; i < ids.length; ++i) {... */\n      jump(tag_226)\n    tag_227:\n      pop\n        /* \"@openzeppelin/contracts/token/ERC1155/ERC1155.sol\":6135:6138  ids */\n      dup3\n        /* \"@openzeppelin/contracts/token/ERC1155/ERC1155.sol\":6135:6145  ids.length */\n      mload\n        /* \"@openzeppelin/contracts/token/ERC1155/ERC1155.sol\":6149:6150  1 */\n      0x01\n        /* \"@openzeppelin/contracts/token/ERC1155/ERC1155.sol\":6135:6150  ids.length == 1 */\n      sub\n        /* \"@openzeppelin/contracts/token/ERC1155/ERC1155.sol\":6131:6419  if (ids.length == 1) {... */\n      tag_238\n      jumpi\n        /* \"@openzeppelin/contracts/utils/Arrays.sol\":4777:4781  0x20 */\n      0x20\n        /* \"@openzeppelin/contracts/utils/Arrays.sol\":4748:4783  add(add(arr, 0x20), mul(pos, 0x20)) */\n      dup4\n      add\n        /* \"@openzeppelin/contracts/utils/Arrays.sol\":4742:4784  mload(add(add(arr, 0x20), mul(pos, 0x20))) */\n      mload\n        /* \"@openzeppelin/contracts/token/ERC1155/ERC1155.sol\":6166:6176  uint256 id */\n      0x00\n      swap1\n        /* \"@openzeppelin/contracts/utils/Arrays.sol\":4777:4781  0x20 */\n      0x20\n        /* \"@openzeppelin/contracts/utils/Arrays.sol\":4748:4783  add(add(arr, 0x20), mul(pos, 0x20)) */\n      dup5\n      add\n        /* \"@openzeppelin/contracts/utils/Arrays.sol\":4742:4784  mload(add(add(arr, 0x20), mul(pos, 0x20))) */\n      mload\n        /* \"@openzeppelin/contracts/token/ERC1155/ERC1155.sol\":6166:6204  uint256 id = ids.unsafeMemoryAccess(0) */\n      swap1\n      swap2\n      pop\n        /* \"@openzeppelin/contracts/token/ERC1155/ERC1155.sol\":6312:6314  to */\n      dup6\n      sub(shl(0xa0, 0x01), 0x01)\n        /* \"@openzeppelin/contracts/token/ERC1155/ERC1155.sol\":6281:6326  TransferSingle(operator, from, to, id, value) */\n      and\n        /* \"@openzeppelin/contracts/token/ERC1155/ERC1155.sol\":6306:6310  from */\n      dup8\n      sub(shl(0xa0, 0x01), 0x01)\n        /* \"@openzeppelin/contracts/token/ERC1155/ERC1155.sol\":6281:6326  TransferSingle(operator, from, to, id, value) */\n      and\n        /* \"@openzeppelin/contracts/token/ERC1155/ERC1155.sol\":6296:6304  operator */\n      dup5\n      sub(shl(0xa0, 0x01), 0x01)\n        /* \"@openzeppelin/contracts/token/ERC1155/ERC1155.sol\":6281:6326  TransferSingle(operator, from, to, id, value) */\n      and\n      0xc3d58168c5ae7397731d063d5bbf3d657854427343f4c083240f7aacaa2d0f62\n        /* \"@openzeppelin/contracts/token/ERC1155/ERC1155.sol\":6316:6318  id */\n      dup6\n        /* \"@openzeppelin/contracts/token/ERC1155/ERC1155.sol\":6320:6325  value */\n      dup6\n        /* \"@openzeppelin/contracts/token/ERC1155/ERC1155.sol\":6281:6326  TransferSingle(operator, from, to, id, value) */\n      mload(0x40)\n      tag_241\n      swap3\n      swap2\n      swap1\n        /* \"#utility.yul\":9607:9632   */\n      swap2\n      dup3\n      mstore\n        /* \"#utility.yul\":9663:9665   */\n      0x20\n        /* \"#utility.yul\":9648:9666   */\n      dup3\n      add\n        /* \"#utility.yul\":9641:9675   */\n      mstore\n        /* \"#utility.yul\":9595:9597   */\n      0x40\n        /* \"#utility.yul\":9580:9598   */\n      add\n      swap1\n        /* \"#utility.yul\":9433:9681   */\n      jump\n        /* \"@openzeppelin/contracts/token/ERC1155/ERC1155.sol\":6281:6326  TransferSingle(operator, from, to, id, value) */\n    tag_241:\n      mload(0x40)\n      dup1\n      swap2\n      sub\n      swap1\n      log4\n        /* \"@openzeppelin/contracts/token/ERC1155/ERC1155.sol\":6152:6337  {... */\n      pop\n      pop\n        /* \"@openzeppelin/contracts/token/ERC1155/ERC1155.sol\":6131:6419  if (ids.length == 1) {... */\n      jump(tag_167)\n    tag_238:\n        /* \"@openzeppelin/contracts/token/ERC1155/ERC1155.sol\":6392:6394  to */\n      dup4\n      sub(shl(0xa0, 0x01), 0x01)\n        /* \"@openzeppelin/contracts/token/ERC1155/ERC1155.sol\":6362:6408  TransferBatch(operator, from, to, ids, values) */\n      and\n        /* \"@openzeppelin/contracts/token/ERC1155/ERC1155.sol\":6386:6390  from */\n      dup6\n      sub(shl(0xa0, 0x01), 0x01)\n        /* \"@openzeppelin/contracts/token/ERC1155/ERC1155.sol\":6362:6408  TransferBatch(operator, from, to, ids, values) */\n      and\n        /* \"@openzeppelin/contracts/token/ERC1155/ERC1155.sol\":6376:6384  operator */\n      dup3\n      sub(shl(0xa0, 0x01), 0x01)\n        /* \"@openzeppelin/contracts/token/ERC1155/ERC1155.sol\":6362:6408  TransferBatch(operator, from, to, ids, values) */\n      and\n      0x4a39dc06d4c0dbc64b70af90fd698a233a518aa5d07e595d983b8c0526c8f7fb\n        /* \"@openzeppelin/contracts/token/ERC1155/ERC1155.sol\":6396:6399  ids */\n      dup7\n        /* \"@openzeppelin/contracts/token/ERC1155/ERC1155.sol\":6401:6407  values */\n      dup7\n        /* \"@openzeppelin/contracts/token/ERC1155/ERC1155.sol\":6362:6408  TransferBatch(operator, from, to, ids, values) */\n      mload(0x40)\n      tag_243\n      swap3\n      swap2\n      swap1\n      tag_244\n      jump\t// in\n    tag_243:\n      mload(0x40)\n      dup1\n      swap2\n      sub\n      swap1\n      log4\n        /* \"@openzeppelin/contracts/token/ERC1155/ERC1155.sol\":5251:6425  {... */\n      pop\n        /* \"@openzeppelin/contracts/token/ERC1155/ERC1155.sol\":5144:6425  function _update(address from, address to, uint256[] memory ids, uint256[] memory values) internal virtual {... */\n      pop\n      pop\n      pop\n      pop\n      jump\t// out\n        /* \"@openzeppelin/contracts/token/ERC1155/ERC1155.sol\":13761:14735  function _doSafeTransferAcceptanceCheck(... */\n    tag_211:\n      sub(shl(0xa0, 0x01), 0x01)\n        /* \"@openzeppelin/contracts/token/ERC1155/ERC1155.sol\":13967:13981  to.code.length */\n      dup5\n      and\n      extcodesize\n        /* \"@openzeppelin/contracts/token/ERC1155/ERC1155.sol\":13967:13985  to.code.length > 0 */\n      iszero\n        /* \"@openzeppelin/contracts/token/ERC1155/ERC1155.sol\":13963:14729  if (to.code.length > 0) {... */\n      tag_104\n      jumpi\n        /* \"@openzeppelin/contracts/token/ERC1155/ERC1155.sol\":14005:14076  IERC1155Receiver(to).onERC1155Received(operator, from, id, value, data) */\n      mload(0x40)\n      shl(0xe0, 0xf23a6e61)\n      dup2\n      mstore\n      sub(shl(0xa0, 0x01), 0x01)\n        /* \"@openzeppelin/contracts/token/ERC1155/ERC1155.sol\":14005:14043  IERC1155Receiver(to).onERC1155Received */\n      dup6\n      and\n      swap1\n      0xf23a6e61\n      swap1\n        /* \"@openzeppelin/contracts/token/ERC1155/ERC1155.sol\":14005:14076  IERC1155Receiver(to).onERC1155Received(operator, from, id, value, data) */\n      tag_247\n      swap1\n        /* \"@openzeppelin/contracts/token/ERC1155/ERC1155.sol\":14044:14052  operator */\n      dup10\n      swap1\n        /* \"@openzeppelin/contracts/token/ERC1155/ERC1155.sol\":14054:14058  from */\n      dup10\n      swap1\n        /* \"@openzeppelin/contracts/token/ERC1155/ERC1155.sol\":14060:14062  id */\n      dup9\n      swap1\n        /* \"@openzeppelin/contracts/token/ERC1155/ERC1155.sol\":14064:14069  value */\n      dup9\n      swap1\n        /* \"@openzeppelin/contracts/token/ERC1155/ERC1155.sol\":14071:14075  data */\n      dup9\n      swap1\n        /* \"@openzeppelin/contracts/token/ERC1155/ERC1155.sol\":14005:14076  IERC1155Receiver(to).onERC1155Received(operator, from, id, value, data) */\n      0x04\n      add\n      tag_248\n      jump\t// in\n    tag_247:\n      0x20\n      mload(0x40)\n      dup1\n      dup4\n      sub\n      dup2\n      0x00\n      dup8\n      gas\n      call\n      swap3\n      pop\n      pop\n      pop\n      dup1\n      iszero\n      tag_249\n      jumpi\n      pop\n      0x40\n      dup1\n      mload\n      0x1f\n      returndatasize\n      swap1\n      dup2\n      add\n      not(0x1f)\n      and\n      dup3\n      add\n      swap1\n      swap3\n      mstore\n      tag_250\n      swap2\n      dup2\n      add\n      swap1\n      tag_251\n      jump\t// in\n    tag_250:\n      0x01\n    tag_249:\n        /* \"@openzeppelin/contracts/token/ERC1155/ERC1155.sol\":14001:14719  try IERC1155Receiver(to).onERC1155Received(operator, from, id, value, data) returns (bytes4 response) {... */\n      tag_252\n      jumpi\n      returndatasize\n      dup1\n      dup1\n      iszero\n      tag_257\n      jumpi\n      mload(0x40)\n      swap2\n      pop\n      and(add(returndatasize, 0x3f), not(0x1f))\n      dup3\n      add\n      0x40\n      mstore\n      returndatasize\n      dup3\n      mstore\n      returndatasize\n      0x00\n      0x20\n      dup5\n      add\n      returndatacopy\n      jump(tag_256)\n    tag_257:\n      0x60\n      swap2\n      pop\n    tag_256:\n      pop\n        /* \"@openzeppelin/contracts/token/ERC1155/ERC1155.sol\":14360:14366  reason */\n      dup1\n        /* \"@openzeppelin/contracts/token/ERC1155/ERC1155.sol\":14360:14373  reason.length */\n      mload\n        /* \"@openzeppelin/contracts/token/ERC1155/ERC1155.sol\":14377:14378  0 */\n      0x00\n        /* \"@openzeppelin/contracts/token/ERC1155/ERC1155.sol\":14360:14378  reason.length == 0 */\n      sub\n        /* \"@openzeppelin/contracts/token/ERC1155/ERC1155.sol\":14356:14705  if (reason.length == 0) {... */\n      tag_258\n      jumpi\n        /* \"@openzeppelin/contracts/token/ERC1155/ERC1155.sol\":14464:14490  ERC1155InvalidReceiver(to) */\n      mload(0x40)\n      shl(0xe1, 0x2bfa23e7)\n      dup2\n      mstore\n      sub(shl(0xa0, 0x01), 0x01)\n        /* \"#utility.yul\":9982:10014   */\n      dup7\n      and\n        /* \"@openzeppelin/contracts/token/ERC1155/ERC1155.sol\":14464:14490  ERC1155InvalidReceiver(to) */\n      0x04\n      dup3\n      add\n        /* \"#utility.yul\":9964:10015   */\n      mstore\n        /* \"#utility.yul\":9937:9955   */\n      0x24\n      add\n        /* \"@openzeppelin/contracts/token/ERC1155/ERC1155.sol\":14464:14490  ERC1155InvalidReceiver(to) */\n      tag_102\n        /* \"#utility.yul\":9818:10021   */\n      jump\n        /* \"@openzeppelin/contracts/token/ERC1155/ERC1155.sol\":14356:14705  if (reason.length == 0) {... */\n    tag_258:\n        /* \"@openzeppelin/contracts/token/ERC1155/ERC1155.sol\":14657:14663  reason */\n      dup1\n        /* \"@openzeppelin/contracts/token/ERC1155/ERC1155.sol\":14651:14664  mload(reason) */\n      mload\n        /* \"@openzeppelin/contracts/token/ERC1155/ERC1155.sol\":14642:14648  reason */\n      dup2\n        /* \"@openzeppelin/contracts/token/ERC1155/ERC1155.sol\":14638:14640  32 */\n      0x20\n        /* \"@openzeppelin/contracts/token/ERC1155/ERC1155.sol\":14634:14649  add(32, reason) */\n      add\n        /* \"@openzeppelin/contracts/token/ERC1155/ERC1155.sol\":14627:14665  revert(add(32, reason), mload(reason)) */\n      revert\n        /* \"@openzeppelin/contracts/token/ERC1155/ERC1155.sol\":14001:14719  try IERC1155Receiver(to).onERC1155Received(operator, from, id, value, data) returns (bytes4 response) {... */\n    tag_252:\n      not(sub(shl(0xe0, 0x01), 0x01))\n        /* \"@openzeppelin/contracts/token/ERC1155/ERC1155.sol\":14125:14180  response != IERC1155Receiver.onERC1155Received.selector */\n      dup2\n      and\n      shl(0xe0, 0xf23a6e61)\n      eq\n        /* \"@openzeppelin/contracts/token/ERC1155/ERC1155.sol\":14121:14295  if (response != IERC1155Receiver.onERC1155Received.selector) {... */\n      tag_196\n      jumpi\n        /* \"@openzeppelin/contracts/token/ERC1155/ERC1155.sol\":14250:14276  ERC1155InvalidReceiver(to) */\n      mload(0x40)\n      shl(0xe1, 0x2bfa23e7)\n      dup2\n      mstore\n      sub(shl(0xa0, 0x01), 0x01)\n        /* \"#utility.yul\":9982:10014   */\n      dup7\n      and\n        /* \"@openzeppelin/contracts/token/ERC1155/ERC1155.sol\":14250:14276  ERC1155InvalidReceiver(to) */\n      0x04\n      dup3\n      add\n        /* \"#utility.yul\":9964:10015   */\n      mstore\n        /* \"#utility.yul\":9937:9955   */\n      0x24\n      add\n        /* \"@openzeppelin/contracts/token/ERC1155/ERC1155.sol\":14250:14276  ERC1155InvalidReceiver(to) */\n      tag_102\n        /* \"#utility.yul\":9818:10021   */\n      jump\n        /* \"@openzeppelin/contracts/token/ERC1155/ERC1155.sol\":14923:15964  function _doSafeBatchTransferAcceptanceCheck(... */\n    tag_214:\n      sub(shl(0xa0, 0x01), 0x01)\n        /* \"@openzeppelin/contracts/token/ERC1155/ERC1155.sol\":15154:15168  to.code.length */\n      dup5\n      and\n      extcodesize\n        /* \"@openzeppelin/contracts/token/ERC1155/ERC1155.sol\":15154:15172  to.code.length > 0 */\n      iszero\n        /* \"@openzeppelin/contracts/token/ERC1155/ERC1155.sol\":15150:15958  if (to.code.length > 0) {... */\n      tag_104\n      jumpi\n        /* \"@openzeppelin/contracts/token/ERC1155/ERC1155.sol\":15192:15270  IERC1155Receiver(to).onERC1155BatchReceived(operator, from, ids, values, data) */\n      mload(0x40)\n      shl(0xe0, 0xbc197c81)\n      dup2\n      mstore\n      sub(shl(0xa0, 0x01), 0x01)\n        /* \"@openzeppelin/contracts/token/ERC1155/ERC1155.sol\":15192:15235  IERC1155Receiver(to).onERC1155BatchReceived */\n      dup6\n      and\n      swap1\n      0xbc197c81\n      swap1\n        /* \"@openzeppelin/contracts/token/ERC1155/ERC1155.sol\":15192:15270  IERC1155Receiver(to).onERC1155BatchReceived(operator, from, ids, values, data) */\n      tag_266\n      swap1\n        /* \"@openzeppelin/contracts/token/ERC1155/ERC1155.sol\":15236:15244  operator */\n      dup10\n      swap1\n        /* \"@openzeppelin/contracts/token/ERC1155/ERC1155.sol\":15246:15250  from */\n      dup10\n      swap1\n        /* \"@openzeppelin/contracts/token/ERC1155/ERC1155.sol\":15252:15255  ids */\n      dup9\n      swap1\n        /* \"@openzeppelin/contracts/token/ERC1155/ERC1155.sol\":15257:15263  values */\n      dup9\n      swap1\n        /* \"@openzeppelin/contracts/token/ERC1155/ERC1155.sol\":15265:15269  data */\n      dup9\n      swap1\n        /* \"@openzeppelin/contracts/token/ERC1155/ERC1155.sol\":15192:15270  IERC1155Receiver(to).onERC1155BatchReceived(operator, from, ids, values, data) */\n      0x04\n      add\n      tag_267\n      jump\t// in\n    tag_266:\n      0x20\n      mload(0x40)\n      dup1\n      dup4\n      sub\n      dup2\n      0x00\n      dup8\n      gas\n      call\n      swap3\n      pop\n      pop\n      pop\n      dup1\n      iszero\n      tag_268\n      jumpi\n      pop\n      0x40\n      dup1\n      mload\n      0x1f\n      returndatasize\n      swap1\n      dup2\n      add\n      not(0x1f)\n      and\n      dup3\n      add\n      swap1\n      swap3\n      mstore\n      tag_269\n      swap2\n      dup2\n      add\n      swap1\n      tag_251\n      jump\t// in\n    tag_269:\n      0x01\n    tag_268:\n        /* \"@openzeppelin/contracts/token/ERC1155/ERC1155.sol\":15188:15948  try IERC1155Receiver(to).onERC1155BatchReceived(operator, from, ids, values, data) returns (... */\n      tag_270\n      jumpi\n      returndatasize\n      dup1\n      dup1\n      iszero\n      tag_257\n      jumpi\n      mload(0x40)\n      swap2\n      pop\n      and(add(returndatasize, 0x3f), not(0x1f))\n      dup3\n      add\n      0x40\n      mstore\n      returndatasize\n      dup3\n      mstore\n      returndatasize\n      0x00\n      0x20\n      dup5\n      add\n      returndatacopy\n      jump(tag_256)\n    tag_270:\n      not(sub(shl(0xe0, 0x01), 0x01))\n        /* \"@openzeppelin/contracts/token/ERC1155/ERC1155.sol\":15349:15409  response != IERC1155Receiver.onERC1155BatchReceived.selector */\n      dup2\n      and\n      shl(0xe0, 0xbc197c81)\n      eq\n        /* \"@openzeppelin/contracts/token/ERC1155/ERC1155.sol\":15345:15524  if (response != IERC1155Receiver.onERC1155BatchReceived.selector) {... */\n      tag_196\n      jumpi\n        /* \"@openzeppelin/contracts/token/ERC1155/ERC1155.sol\":15479:15505  ERC1155InvalidReceiver(to) */\n      mload(0x40)\n      shl(0xe1, 0x2bfa23e7)\n      dup2\n      mstore\n      sub(shl(0xa0, 0x01), 0x01)\n        /* \"#utility.yul\":9982:10014   */\n      dup7\n      and\n        /* \"@openzeppelin/contracts/token/ERC1155/ERC1155.sol\":15479:15505  ERC1155InvalidReceiver(to) */\n      0x04\n      dup3\n      add\n        /* \"#utility.yul\":9964:10015   */\n      mstore\n        /* \"#utility.yul\":9937:9955   */\n      0x24\n      add\n        /* \"@openzeppelin/contracts/token/ERC1155/ERC1155.sol\":15479:15505  ERC1155InvalidReceiver(to) */\n      tag_102\n        /* \"#utility.yul\":9818:10021   */\n      jump\n        /* \"#utility.yul\":14:187   */\n    tag_282:\n        /* \"#utility.yul\":82:102   */\n      dup1\n      calldataload\n      sub(shl(0xa0, 0x01), 0x01)\n        /* \"#utility.yul\":131:162   */\n      dup2\n      and\n        /* \"#utility.yul\":121:163   */\n      dup2\n      eq\n        /* \"#utility.yul\":111:181   */\n      tag_292\n      jumpi\n        /* \"#utility.yul\":177:178   */\n      0x00\n        /* \"#utility.yul\":174:175   */\n      dup1\n        /* \"#utility.yul\":167:179   */\n      revert\n        /* \"#utility.yul\":111:181   */\n    tag_292:\n        /* \"#utility.yul\":14:187   */\n      swap2\n      swap1\n      pop\n      jump\t// out\n        /* \"#utility.yul\":192:492   */\n    tag_22:\n        /* \"#utility.yul\":260:266   */\n      0x00\n        /* \"#utility.yul\":268:274   */\n      dup1\n        /* \"#utility.yul\":321:323   */\n      0x40\n        /* \"#utility.yul\":309:318   */\n      dup4\n        /* \"#utility.yul\":300:307   */\n      dup6\n        /* \"#utility.yul\":296:319   */\n      sub\n        /* \"#utility.yul\":292:324   */\n      slt\n        /* \"#utility.yul\":289:341   */\n      iszero\n      tag_294\n      jumpi\n        /* \"#utility.yul\":337:338   */\n      0x00\n        /* \"#utility.yul\":334:335   */\n      dup1\n        /* \"#utility.yul\":327:339   */\n      revert\n        /* \"#utility.yul\":289:341   */\n    tag_294:\n        /* \"#utility.yul\":360:389   */\n      tag_295\n        /* \"#utility.yul\":379:388   */\n      dup4\n        /* \"#utility.yul\":360:389   */\n      tag_282\n      jump\t// in\n    tag_295:\n        /* \"#utility.yul\":350:389   */\n      swap5\n        /* \"#utility.yul\":458:460   */\n      0x20\n        /* \"#utility.yul\":443:461   */\n      swap4\n      swap1\n      swap4\n      add\n        /* \"#utility.yul\":430:462   */\n      calldataload\n      swap4\n      pop\n      pop\n      pop\n        /* \"#utility.yul\":192:492   */\n      jump\t// out\n        /* \"#utility.yul\":679:810   */\n    tag_283:\n      not(sub(shl(0xe0, 0x01), 0x01))\n        /* \"#utility.yul\":753:785   */\n      dup2\n      and\n        /* \"#utility.yul\":743:786   */\n      dup2\n      eq\n        /* \"#utility.yul\":733:804   */\n      tag_170\n      jumpi\n        /* \"#utility.yul\":800:801   */\n      0x00\n        /* \"#utility.yul\":797:798   */\n      dup1\n        /* \"#utility.yul\":790:802   */\n      revert\n        /* \"#utility.yul\":815:1060   */\n    tag_28:\n        /* \"#utility.yul\":873:879   */\n      0x00\n        /* \"#utility.yul\":926:928   */\n      0x20\n        /* \"#utility.yul\":914:923   */\n      dup3\n        /* \"#utility.yul\":905:912   */\n      dup5\n        /* \"#utility.yul\":901:924   */\n      sub\n        /* \"#utility.yul\":897:929   */\n      slt\n        /* \"#utility.yul\":894:946   */\n      iszero\n      tag_300\n      jumpi\n        /* \"#utility.yul\":942:943   */\n      0x00\n        /* \"#utility.yul\":939:940   */\n      dup1\n        /* \"#utility.yul\":932:944   */\n      revert\n        /* \"#utility.yul\":894:946   */\n    tag_300:\n        /* \"#utility.yul\":981:990   */\n      dup2\n        /* \"#utility.yul\":968:991   */\n      calldataload\n        /* \"#utility.yul\":1000:1030   */\n      tag_301\n        /* \"#utility.yul\":1024:1029   */\n      dup2\n        /* \"#utility.yul\":1000:1030   */\n      tag_283\n      jump\t// in\n    tag_301:\n        /* \"#utility.yul\":1049:1054   */\n      swap4\n        /* \"#utility.yul\":815:1060   */\n      swap3\n      pop\n      pop\n      pop\n      jump\t// out\n        /* \"#utility.yul\":1257:1483   */\n    tag_34:\n        /* \"#utility.yul\":1316:1322   */\n      0x00\n        /* \"#utility.yul\":1369:1371   */\n      0x20\n        /* \"#utility.yul\":1357:1366   */\n      dup3\n        /* \"#utility.yul\":1348:1355   */\n      dup5\n        /* \"#utility.yul\":1344:1367   */\n      sub\n        /* \"#utility.yul\":1340:1372   */\n      slt\n        /* \"#utility.yul\":1337:1389   */\n      iszero\n      tag_304\n      jumpi\n        /* \"#utility.yul\":1385:1386   */\n      0x00\n        /* \"#utility.yul\":1382:1383   */\n      dup1\n        /* \"#utility.yul\":1375:1387   */\n      revert\n        /* \"#utility.yul\":1337:1389   */\n    tag_304:\n      pop\n        /* \"#utility.yul\":1430:1453   */\n      calldataload\n      swap2\n        /* \"#utility.yul\":1257:1483   */\n      swap1\n      pop\n      jump\t// out\n        /* \"#utility.yul\":1488:1777   */\n    tag_284:\n        /* \"#utility.yul\":1530:1533   */\n      0x00\n        /* \"#utility.yul\":1568:1573   */\n      dup2\n        /* \"#utility.yul\":1562:1574   */\n      mload\n        /* \"#utility.yul\":1595:1601   */\n      dup1\n        /* \"#utility.yul\":1590:1593   */\n      dup5\n        /* \"#utility.yul\":1583:1602   */\n      mstore\n        /* \"#utility.yul\":1651:1657   */\n      dup1\n        /* \"#utility.yul\":1644:1648   */\n      0x20\n        /* \"#utility.yul\":1637:1642   */\n      dup5\n        /* \"#utility.yul\":1633:1649   */\n      add\n        /* \"#utility.yul\":1626:1630   */\n      0x20\n        /* \"#utility.yul\":1621:1624   */\n      dup7\n        /* \"#utility.yul\":1617:1631   */\n      add\n        /* \"#utility.yul\":1611:1658   */\n      mcopy\n        /* \"#utility.yul\":1703:1704   */\n      0x00\n        /* \"#utility.yul\":1696:1700   */\n      0x20\n        /* \"#utility.yul\":1687:1693   */\n      dup3\n        /* \"#utility.yul\":1682:1685   */\n      dup7\n        /* \"#utility.yul\":1678:1694   */\n      add\n        /* \"#utility.yul\":1674:1701   */\n      add\n        /* \"#utility.yul\":1667:1705   */\n      mstore\n        /* \"#utility.yul\":1766:1770   */\n      0x20\n        /* \"#utility.yul\":1759:1761   */\n      0x1f\n        /* \"#utility.yul\":1755:1762   */\n      not\n        /* \"#utility.yul\":1750:1752   */\n      0x1f\n        /* \"#utility.yul\":1742:1748   */\n      dup4\n        /* \"#utility.yul\":1738:1753   */\n      add\n        /* \"#utility.yul\":1734:1763   */\n      and\n        /* \"#utility.yul\":1729:1732   */\n      dup6\n        /* \"#utility.yul\":1725:1764   */\n      add\n        /* \"#utility.yul\":1721:1771   */\n      add\n        /* \"#utility.yul\":1714:1771   */\n      swap2\n      pop\n      pop\n        /* \"#utility.yul\":1488:1777   */\n      swap3\n      swap2\n      pop\n      pop\n      jump\t// out\n        /* \"#utility.yul\":1782:2002   */\n    tag_37:\n        /* \"#utility.yul\":1931:1933   */\n      0x20\n        /* \"#utility.yul\":1920:1929   */\n      dup2\n        /* \"#utility.yul\":1913:1934   */\n      mstore\n        /* \"#utility.yul\":1894:1898   */\n      0x00\n        /* \"#utility.yul\":1951:1996   */\n      tag_301\n        /* \"#utility.yul\":1992:1994   */\n      0x20\n        /* \"#utility.yul\":1981:1990   */\n      dup4\n        /* \"#utility.yul\":1977:1995   */\n      add\n        /* \"#utility.yul\":1969:1975   */\n      dup5\n        /* \"#utility.yul\":1951:1996   */\n      tag_284\n      jump\t// in\n        /* \"#utility.yul\":2420:2547   */\n    tag_124:\n        /* \"#utility.yul\":2481:2491   */\n      0x4e487b71\n        /* \"#utility.yul\":2476:2479   */\n      0xe0\n        /* \"#utility.yul\":2472:2492   */\n      shl\n        /* \"#utility.yul\":2469:2470   */\n      0x00\n        /* \"#utility.yul\":2462:2493   */\n      mstore\n        /* \"#utility.yul\":2512:2516   */\n      0x41\n        /* \"#utility.yul\":2509:2510   */\n      0x04\n        /* \"#utility.yul\":2502:2517   */\n      mstore\n        /* \"#utility.yul\":2536:2540   */\n      0x24\n        /* \"#utility.yul\":2533:2534   */\n      0x00\n        /* \"#utility.yul\":2526:2541   */\n      revert\n        /* \"#utility.yul\":2552:2827   */\n    tag_285:\n        /* \"#utility.yul\":2623:2625   */\n      0x40\n        /* \"#utility.yul\":2617:2626   */\n      mload\n        /* \"#utility.yul\":2688:2690   */\n      0x1f\n        /* \"#utility.yul\":2669:2682   */\n      dup3\n      add\n      not(0x1f)\n        /* \"#utility.yul\":2665:2692   */\n      and\n        /* \"#utility.yul\":2653:2693   */\n      dup2\n      add\n        /* \"#utility.yul\":2723:2741   */\n      0xffffffffffffffff\n        /* \"#utility.yul\":2708:2742   */\n      dup2\n      gt\n        /* \"#utility.yul\":2744:2766   */\n      dup3\n      dup3\n      lt\n        /* \"#utility.yul\":2705:2767   */\n      or\n        /* \"#utility.yul\":2702:2790   */\n      iszero\n      tag_314\n      jumpi\n        /* \"#utility.yul\":2770:2788   */\n      tag_314\n      tag_124\n      jump\t// in\n    tag_314:\n        /* \"#utility.yul\":2806:2808   */\n      0x40\n        /* \"#utility.yul\":2799:2821   */\n      mstore\n        /* \"#utility.yul\":2552:2827   */\n      swap2\n      swap1\n      pop\n      jump\t// out\n        /* \"#utility.yul\":2832:3015   */\n    tag_286:\n        /* \"#utility.yul\":2892:2896   */\n      0x00\n        /* \"#utility.yul\":2925:2943   */\n      0xffffffffffffffff\n        /* \"#utility.yul\":2917:2923   */\n      dup3\n        /* \"#utility.yul\":2914:2944   */\n      gt\n        /* \"#utility.yul\":2911:2967   */\n      iszero\n      tag_317\n      jumpi\n        /* \"#utility.yul\":2947:2965   */\n      tag_317\n      tag_124\n      jump\t// in\n    tag_317:\n      pop\n        /* \"#utility.yul\":2992:2993   */\n      0x05\n        /* \"#utility.yul\":2988:3002   */\n      shl\n        /* \"#utility.yul\":3004:3008   */\n      0x20\n        /* \"#utility.yul\":2984:3009   */\n      add\n      swap1\n        /* \"#utility.yul\":2832:3015   */\n      jump\t// out\n        /* \"#utility.yul\":3020:3743   */\n    tag_287:\n        /* \"#utility.yul\":3074:3079   */\n      0x00\n        /* \"#utility.yul\":3127:3130   */\n      dup3\n        /* \"#utility.yul\":3120:3124   */\n      0x1f\n        /* \"#utility.yul\":3112:3118   */\n      dup4\n        /* \"#utility.yul\":3108:3125   */\n      add\n        /* \"#utility.yul\":3104:3131   */\n      slt\n        /* \"#utility.yul\":3094:3149   */\n      tag_319\n      jumpi\n        /* \"#utility.yul\":3145:3146   */\n      0x00\n        /* \"#utility.yul\":3142:3143   */\n      dup1\n        /* \"#utility.yul\":3135:3147   */\n      revert\n        /* \"#utility.yul\":3094:3149   */\n    tag_319:\n        /* \"#utility.yul\":3185:3191   */\n      dup2\n        /* \"#utility.yul\":3172:3192   */\n      calldataload\n        /* \"#utility.yul\":3212:3276   */\n      tag_320\n        /* \"#utility.yul\":3228:3275   */\n      tag_321\n        /* \"#utility.yul\":3268:3274   */\n      dup3\n        /* \"#utility.yul\":3228:3275   */\n      tag_286\n      jump\t// in\n    tag_321:\n        /* \"#utility.yul\":3212:3276   */\n      tag_285\n      jump\t// in\n    tag_320:\n        /* \"#utility.yul\":3300:3303   */\n      dup1\n        /* \"#utility.yul\":3324:3330   */\n      dup3\n        /* \"#utility.yul\":3319:3322   */\n      dup3\n        /* \"#utility.yul\":3312:3331   */\n      mstore\n        /* \"#utility.yul\":3356:3360   */\n      0x20\n        /* \"#utility.yul\":3351:3354   */\n      dup3\n        /* \"#utility.yul\":3347:3361   */\n      add\n        /* \"#utility.yul\":3340:3361   */\n      swap2\n      pop\n        /* \"#utility.yul\":3417:3421   */\n      0x20\n        /* \"#utility.yul\":3407:3413   */\n      dup4\n        /* \"#utility.yul\":3404:3405   */\n      0x05\n        /* \"#utility.yul\":3400:3414   */\n      shl\n        /* \"#utility.yul\":3392:3398   */\n      dup7\n        /* \"#utility.yul\":3388:3415   */\n      add\n        /* \"#utility.yul\":3384:3422   */\n      add\n        /* \"#utility.yul\":3370:3422   */\n      swap3\n      pop\n        /* \"#utility.yul\":3445:3448   */\n      dup6\n        /* \"#utility.yul\":3437:3443   */\n      dup4\n        /* \"#utility.yul\":3434:3449   */\n      gt\n        /* \"#utility.yul\":3431:3466   */\n      iszero\n      tag_322\n      jumpi\n        /* \"#utility.yul\":3462:3463   */\n      0x00\n        /* \"#utility.yul\":3459:3460   */\n      dup1\n        /* \"#utility.yul\":3452:3464   */\n      revert\n        /* \"#utility.yul\":3431:3466   */\n    tag_322:\n        /* \"#utility.yul\":3498:3502   */\n      0x20\n        /* \"#utility.yul\":3490:3496   */\n      dup6\n        /* \"#utility.yul\":3486:3503   */\n      add\n        /* \"#utility.yul\":3512:3712   */\n    tag_323:\n        /* \"#utility.yul\":3528:3534   */\n      dup4\n        /* \"#utility.yul\":3523:3526   */\n      dup2\n        /* \"#utility.yul\":3520:3535   */\n      lt\n        /* \"#utility.yul\":3512:3712   */\n      iszero\n      tag_325\n      jumpi\n        /* \"#utility.yul\":3620:3637   */\n      dup1\n      calldataload\n        /* \"#utility.yul\":3650:3668   */\n      dup4\n      mstore\n        /* \"#utility.yul\":3697:3701   */\n      0x20\n        /* \"#utility.yul\":3688:3702   */\n      swap3\n      dup4\n      add\n      swap3\n        /* \"#utility.yul\":3545:3559   */\n      add\n        /* \"#utility.yul\":3512:3712   */\n      jump(tag_323)\n    tag_325:\n      pop\n        /* \"#utility.yul\":3730:3737   */\n      swap6\n        /* \"#utility.yul\":3020:3743   */\n      swap5\n      pop\n      pop\n      pop\n      pop\n      pop\n      jump\t// out\n        /* \"#utility.yul\":3748:4306   */\n    tag_288:\n        /* \"#utility.yul\":3790:3795   */\n      0x00\n        /* \"#utility.yul\":3843:3846   */\n      dup3\n        /* \"#utility.yul\":3836:3840   */\n      0x1f\n        /* \"#utility.yul\":3828:3834   */\n      dup4\n        /* \"#utility.yul\":3824:3841   */\n      add\n        /* \"#utility.yul\":3820:3847   */\n      slt\n        /* \"#utility.yul\":3810:3865   */\n      tag_327\n      jumpi\n        /* \"#utility.yul\":3861:3862   */\n      0x00\n        /* \"#utility.yul\":3858:3859   */\n      dup1\n        /* \"#utility.yul\":3851:3863   */\n      revert\n        /* \"#utility.yul\":3810:3865   */\n    tag_327:\n        /* \"#utility.yul\":3901:3907   */\n      dup2\n        /* \"#utility.yul\":3888:3908   */\n      calldataload\n        /* \"#utility.yul\":3931:3949   */\n      0xffffffffffffffff\n        /* \"#utility.yul\":3923:3929   */\n      dup2\n        /* \"#utility.yul\":3920:3950   */\n      gt\n        /* \"#utility.yul\":3917:3973   */\n      iszero\n      tag_329\n      jumpi\n        /* \"#utility.yul\":3953:3971   */\n      tag_329\n      tag_124\n      jump\t// in\n    tag_329:\n        /* \"#utility.yul\":3997:4056   */\n      tag_330\n        /* \"#utility.yul\":4044:4046   */\n      0x1f\n        /* \"#utility.yul\":4021:4038   */\n      dup3\n      add\n      not(0x1f)\n        /* \"#utility.yul\":4017:4048   */\n      and\n        /* \"#utility.yul\":4050:4054   */\n      0x20\n        /* \"#utility.yul\":4013:4055   */\n      add\n        /* \"#utility.yul\":3997:4056   */\n      tag_285\n      jump\t// in\n    tag_330:\n        /* \"#utility.yul\":4081:4087   */\n      dup2\n        /* \"#utility.yul\":4072:4079   */\n      dup2\n        /* \"#utility.yul\":4065:4088   */\n      mstore\n        /* \"#utility.yul\":4135:4138   */\n      dup5\n        /* \"#utility.yul\":4128:4132   */\n      0x20\n        /* \"#utility.yul\":4119:4125   */\n      dup4\n        /* \"#utility.yul\":4111:4117   */\n      dup7\n        /* \"#utility.yul\":4107:4126   */\n      add\n        /* \"#utility.yul\":4103:4133   */\n      add\n        /* \"#utility.yul\":4100:4139   */\n      gt\n        /* \"#utility.yul\":4097:4156   */\n      iszero\n      tag_331\n      jumpi\n        /* \"#utility.yul\":4152:4153   */\n      0x00\n        /* \"#utility.yul\":4149:4150   */\n      dup1\n        /* \"#utility.yul\":4142:4154   */\n      revert\n        /* \"#utility.yul\":4097:4156   */\n    tag_331:\n        /* \"#utility.yul\":4217:4223   */\n      dup2\n        /* \"#utility.yul\":4210:4214   */\n      0x20\n        /* \"#utility.yul\":4202:4208   */\n      dup6\n        /* \"#utility.yul\":4198:4215   */\n      add\n        /* \"#utility.yul\":4191:4195   */\n      0x20\n        /* \"#utility.yul\":4182:4189   */\n      dup4\n        /* \"#utility.yul\":4178:4196   */\n      add\n        /* \"#utility.yul\":4165:4224   */\n      calldatacopy\n        /* \"#utility.yul\":4273:4274   */\n      0x00\n        /* \"#utility.yul\":4244:4264   */\n      swap2\n      dup2\n      add\n        /* \"#utility.yul\":4266:4270   */\n      0x20\n        /* \"#utility.yul\":4240:4271   */\n      add\n        /* \"#utility.yul\":4233:4275   */\n      swap2\n      swap1\n      swap2\n      mstore\n        /* \"#utility.yul\":4248:4255   */\n      swap4\n        /* \"#utility.yul\":3748:4306   */\n      swap3\n      pop\n      pop\n      pop\n      jump\t// out\n        /* \"#utility.yul\":4311:5265   */\n    tag_46:\n        /* \"#utility.yul\":4465:4471   */\n      0x00\n        /* \"#utility.yul\":4473:4479   */\n      dup1\n        /* \"#utility.yul\":4481:4487   */\n      0x00\n        /* \"#utility.yul\":4489:4495   */\n      dup1\n        /* \"#utility.yul\":4497:4503   */\n      0x00\n        /* \"#utility.yul\":4550:4553   */\n      0xa0\n        /* \"#utility.yul\":4538:4547   */\n      dup7\n        /* \"#utility.yul\":4529:4536   */\n      dup9\n        /* \"#utility.yul\":4525:4548   */\n      sub\n        /* \"#utility.yul\":4521:4554   */\n      slt\n        /* \"#utility.yul\":4518:4571   */\n      iszero\n      tag_333\n      jumpi\n        /* \"#utility.yul\":4567:4568   */\n      0x00\n        /* \"#utility.yul\":4564:4565   */\n      dup1\n        /* \"#utility.yul\":4557:4569   */\n      revert\n        /* \"#utility.yul\":4518:4571   */\n    tag_333:\n        /* \"#utility.yul\":4590:4619   */\n      tag_334\n        /* \"#utility.yul\":4609:4618   */\n      dup7\n        /* \"#utility.yul\":4590:4619   */\n      tag_282\n      jump\t// in\n    tag_334:\n        /* \"#utility.yul\":4580:4619   */\n      swap5\n      pop\n        /* \"#utility.yul\":4638:4676   */\n      tag_335\n        /* \"#utility.yul\":4672:4674   */\n      0x20\n        /* \"#utility.yul\":4661:4670   */\n      dup8\n        /* \"#utility.yul\":4657:4675   */\n      add\n        /* \"#utility.yul\":4638:4676   */\n      tag_282\n      jump\t// in\n    tag_335:\n        /* \"#utility.yul\":4628:4676   */\n      swap4\n      pop\n        /* \"#utility.yul\":4727:4729   */\n      0x40\n        /* \"#utility.yul\":4716:4725   */\n      dup7\n        /* \"#utility.yul\":4712:4730   */\n      add\n        /* \"#utility.yul\":4699:4731   */\n      calldataload\n        /* \"#utility.yul\":4754:4772   */\n      0xffffffffffffffff\n        /* \"#utility.yul\":4746:4752   */\n      dup2\n        /* \"#utility.yul\":4743:4773   */\n      gt\n        /* \"#utility.yul\":4740:4790   */\n      iszero\n      tag_336\n      jumpi\n        /* \"#utility.yul\":4786:4787   */\n      0x00\n        /* \"#utility.yul\":4783:4784   */\n      dup1\n        /* \"#utility.yul\":4776:4788   */\n      revert\n        /* \"#utility.yul\":4740:4790   */\n    tag_336:\n        /* \"#utility.yul\":4809:4870   */\n      tag_337\n        /* \"#utility.yul\":4862:4869   */\n      dup9\n        /* \"#utility.yul\":4853:4859   */\n      dup3\n        /* \"#utility.yul\":4842:4851   */\n      dup10\n        /* \"#utility.yul\":4838:4860   */\n      add\n        /* \"#utility.yul\":4809:4870   */\n      tag_287\n      jump\t// in\n    tag_337:\n        /* \"#utility.yul\":4799:4870   */\n      swap4\n      pop\n      pop\n        /* \"#utility.yul\":4923:4925   */\n      0x60\n        /* \"#utility.yul\":4912:4921   */\n      dup7\n        /* \"#utility.yul\":4908:4926   */\n      add\n        /* \"#utility.yul\":4895:4927   */\n      calldataload\n        /* \"#utility.yul\":4952:4970   */\n      0xffffffffffffffff\n        /* \"#utility.yul\":4942:4950   */\n      dup2\n        /* \"#utility.yul\":4939:4971   */\n      gt\n        /* \"#utility.yul\":4936:4988   */\n      iszero\n      tag_338\n      jumpi\n        /* \"#utility.yul\":4984:4985   */\n      0x00\n        /* \"#utility.yul\":4981:4982   */\n      dup1\n        /* \"#utility.yul\":4974:4986   */\n      revert\n        /* \"#utility.yul\":4936:4988   */\n    tag_338:\n        /* \"#utility.yul\":5007:5070   */\n      tag_339\n        /* \"#utility.yul\":5062:5069   */\n      dup9\n        /* \"#utility.yul\":5051:5059   */\n      dup3\n        /* \"#utility.yul\":5040:5049   */\n      dup10\n        /* \"#utility.yul\":5036:5060   */\n      add\n        /* \"#utility.yul\":5007:5070   */\n      tag_287\n      jump\t// in\n    tag_339:\n        /* \"#utility.yul\":4997:5070   */\n      swap3\n      pop\n      pop\n        /* \"#utility.yul\":5123:5126   */\n      0x80\n        /* \"#utility.yul\":5112:5121   */\n      dup7\n        /* \"#utility.yul\":5108:5127   */\n      add\n        /* \"#utility.yul\":5095:5128   */\n      calldataload\n        /* \"#utility.yul\":5153:5171   */\n      0xffffffffffffffff\n        /* \"#utility.yul\":5143:5151   */\n      dup2\n        /* \"#utility.yul\":5140:5172   */\n      gt\n        /* \"#utility.yul\":5137:5189   */\n      iszero\n      tag_340\n      jumpi\n        /* \"#utility.yul\":5185:5186   */\n      0x00\n        /* \"#utility.yul\":5182:5183   */\n      dup1\n        /* \"#utility.yul\":5175:5187   */\n      revert\n        /* \"#utility.yul\":5137:5189   */\n    tag_340:\n        /* \"#utility.yul\":5208:5259   */\n      tag_341\n        /* \"#utility.yul\":5251:5258   */\n      dup9\n        /* \"#utility.yul\":5240:5248   */\n      dup3\n        /* \"#utility.yul\":5229:5238   */\n      dup10\n        /* \"#utility.yul\":5225:5249   */\n      add\n        /* \"#utility.yul\":5208:5259   */\n      tag_288\n      jump\t// in\n    tag_341:\n        /* \"#utility.yul\":5198:5259   */\n      swap2\n      pop\n      pop\n        /* \"#utility.yul\":4311:5265   */\n      swap3\n      swap6\n      pop\n      swap3\n      swap6\n      swap1\n      swap4\n      pop\n      jump\t// out\n        /* \"#utility.yul\":5270:5570   */\n    tag_50:\n        /* \"#utility.yul\":5338:5344   */\n      0x00\n        /* \"#utility.yul\":5346:5352   */\n      dup1\n        /* \"#utility.yul\":5399:5401   */\n      0x40\n        /* \"#utility.yul\":5387:5396   */\n      dup4\n        /* \"#utility.yul\":5378:5385   */\n      dup6\n        /* \"#utility.yul\":5374:5397   */\n      sub\n        /* \"#utility.yul\":5370:5402   */\n      slt\n        /* \"#utility.yul\":5367:5419   */\n      iszero\n      tag_343\n      jumpi\n        /* \"#utility.yul\":5415:5416   */\n      0x00\n        /* \"#utility.yul\":5412:5413   */\n      dup1\n        /* \"#utility.yul\":5405:5417   */\n      revert\n        /* \"#utility.yul\":5367:5419   */\n    tag_343:\n        /* \"#utility.yul\":5460:5483   */\n      dup3\n      calldataload\n      swap2\n      pop\n        /* \"#utility.yul\":5526:5564   */\n      tag_344\n        /* \"#utility.yul\":5560:5562   */\n      0x20\n        /* \"#utility.yul\":5545:5563   */\n      dup5\n      add\n        /* \"#utility.yul\":5526:5564   */\n      tag_282\n      jump\t// in\n    tag_344:\n        /* \"#utility.yul\":5516:5564   */\n      swap1\n      pop\n        /* \"#utility.yul\":5270:5570   */\n      swap3\n      pop\n      swap3\n      swap1\n      pop\n      jump\t// out\n        /* \"#utility.yul\":5575:6721   */\n    tag_57:\n        /* \"#utility.yul\":5693:5699   */\n      0x00\n        /* \"#utility.yul\":5701:5707   */\n      dup1\n        /* \"#utility.yul\":5754:5756   */\n      0x40\n        /* \"#utility.yul\":5742:5751   */\n      dup4\n        /* \"#utility.yul\":5733:5740   */\n      dup6\n        /* \"#utility.yul\":5729:5752   */\n      sub\n        /* \"#utility.yul\":5725:5757   */\n      slt\n        /* \"#utility.yul\":5722:5774   */\n      iszero\n      tag_346\n      jumpi\n        /* \"#utility.yul\":5770:5771   */\n      0x00\n        /* \"#utility.yul\":5767:5768   */\n      dup1\n        /* \"#utility.yul\":5760:5772   */\n      revert\n        /* \"#utility.yul\":5722:5774   */\n    tag_346:\n        /* \"#utility.yul\":5810:5819   */\n      dup3\n        /* \"#utility.yul\":5797:5820   */\n      calldataload\n        /* \"#utility.yul\":5843:5861   */\n      0xffffffffffffffff\n        /* \"#utility.yul\":5835:5841   */\n      dup2\n        /* \"#utility.yul\":5832:5862   */\n      gt\n        /* \"#utility.yul\":5829:5879   */\n      iszero\n      tag_347\n      jumpi\n        /* \"#utility.yul\":5875:5876   */\n      0x00\n        /* \"#utility.yul\":5872:5873   */\n      dup1\n        /* \"#utility.yul\":5865:5877   */\n      revert\n        /* \"#utility.yul\":5829:5879   */\n    tag_347:\n        /* \"#utility.yul\":5898:5920   */\n      dup4\n      add\n        /* \"#utility.yul\":5951:5955   */\n      0x1f\n        /* \"#utility.yul\":5943:5956   */\n      dup2\n      add\n        /* \"#utility.yul\":5939:5966   */\n      dup6\n      sgt\n        /* \"#utility.yul\":5929:5984   */\n      tag_348\n      jumpi\n        /* \"#utility.yul\":5980:5981   */\n      0x00\n        /* \"#utility.yul\":5977:5978   */\n      dup1\n        /* \"#utility.yul\":5970:5982   */\n      revert\n        /* \"#utility.yul\":5929:5984   */\n    tag_348:\n        /* \"#utility.yul\":6020:6022   */\n      dup1\n        /* \"#utility.yul\":6007:6023   */\n      calldataload\n        /* \"#utility.yul\":6043:6107   */\n      tag_349\n        /* \"#utility.yul\":6059:6106   */\n      tag_321\n        /* \"#utility.yul\":6099:6105   */\n      dup3\n        /* \"#utility.yul\":6059:6106   */\n      tag_286\n      jump\t// in\n        /* \"#utility.yul\":6043:6107   */\n    tag_349:\n        /* \"#utility.yul\":6129:6132   */\n      dup1\n        /* \"#utility.yul\":6153:6159   */\n      dup3\n        /* \"#utility.yul\":6148:6151   */\n      dup3\n        /* \"#utility.yul\":6141:6160   */\n      mstore\n        /* \"#utility.yul\":6185:6189   */\n      0x20\n        /* \"#utility.yul\":6180:6183   */\n      dup3\n        /* \"#utility.yul\":6176:6190   */\n      add\n        /* \"#utility.yul\":6169:6190   */\n      swap2\n      pop\n        /* \"#utility.yul\":6242:6246   */\n      0x20\n        /* \"#utility.yul\":6232:6238   */\n      dup4\n        /* \"#utility.yul\":6229:6230   */\n      0x05\n        /* \"#utility.yul\":6225:6239   */\n      shl\n        /* \"#utility.yul\":6221:6223   */\n      dup6\n        /* \"#utility.yul\":6217:6240   */\n      add\n        /* \"#utility.yul\":6213:6247   */\n      add\n        /* \"#utility.yul\":6199:6247   */\n      swap3\n      pop\n        /* \"#utility.yul\":6270:6277   */\n      dup8\n        /* \"#utility.yul\":6262:6268   */\n      dup4\n        /* \"#utility.yul\":6259:6278   */\n      gt\n        /* \"#utility.yul\":6256:6295   */\n      iszero\n      tag_351\n      jumpi\n        /* \"#utility.yul\":6291:6292   */\n      0x00\n        /* \"#utility.yul\":6288:6289   */\n      dup1\n        /* \"#utility.yul\":6281:6293   */\n      revert\n        /* \"#utility.yul\":6256:6295   */\n    tag_351:\n        /* \"#utility.yul\":6323:6327   */\n      0x20\n        /* \"#utility.yul\":6319:6321   */\n      dup5\n        /* \"#utility.yul\":6315:6328   */\n      add\n        /* \"#utility.yul\":6304:6328   */\n      swap4\n      pop\n        /* \"#utility.yul\":6337:6489   */\n    tag_352:\n        /* \"#utility.yul\":6353:6359   */\n      dup3\n        /* \"#utility.yul\":6348:6351   */\n      dup5\n        /* \"#utility.yul\":6345:6360   */\n      lt\n        /* \"#utility.yul\":6337:6489   */\n      iszero\n      tag_354\n      jumpi\n        /* \"#utility.yul\":6421:6444   */\n      tag_355\n        /* \"#utility.yul\":6440:6443   */\n      dup5\n        /* \"#utility.yul\":6421:6444   */\n      tag_282\n      jump\t// in\n    tag_355:\n        /* \"#utility.yul\":6409:6445   */\n      dup3\n      mstore\n        /* \"#utility.yul\":6474:6478   */\n      0x20\n        /* \"#utility.yul\":6370:6384   */\n      swap4\n      dup5\n      add\n      swap4\n        /* \"#utility.yul\":6465:6479   */\n      swap1\n      swap2\n      add\n      swap1\n        /* \"#utility.yul\":6337:6489   */\n      jump(tag_352)\n    tag_354:\n        /* \"#utility.yul\":6508:6513   */\n      swap5\n      pop\n      pop\n      pop\n      pop\n        /* \"#utility.yul\":6566:6570   */\n      0x20\n        /* \"#utility.yul\":6551:6571   */\n      dup4\n      add\n        /* \"#utility.yul\":6538:6572   */\n      calldataload\n        /* \"#utility.yul\":6597:6615   */\n      0xffffffffffffffff\n        /* \"#utility.yul\":6584:6616   */\n      dup2\n      gt\n        /* \"#utility.yul\":6581:6633   */\n      iszero\n      tag_356\n      jumpi\n        /* \"#utility.yul\":6629:6630   */\n      0x00\n        /* \"#utility.yul\":6626:6627   */\n      dup1\n        /* \"#utility.yul\":6619:6631   */\n      revert\n        /* \"#utility.yul\":6581:6633   */\n    tag_356:\n        /* \"#utility.yul\":6652:6715   */\n      tag_357\n        /* \"#utility.yul\":6707:6714   */\n      dup6\n        /* \"#utility.yul\":6696:6704   */\n      dup3\n        /* \"#utility.yul\":6685:6694   */\n      dup7\n        /* \"#utility.yul\":6681:6705   */\n      add\n        /* \"#utility.yul\":6652:6715   */\n      tag_287\n      jump\t// in\n    tag_357:\n        /* \"#utility.yul\":6642:6715   */\n      swap2\n      pop\n      pop\n        /* \"#utility.yul\":5575:6721   */\n      swap3\n      pop\n      swap3\n      swap1\n      pop\n      jump\t// out\n        /* \"#utility.yul\":6726:7146   */\n    tag_289:\n        /* \"#utility.yul\":6779:6782   */\n      0x00\n        /* \"#utility.yul\":6817:6822   */\n      dup2\n        /* \"#utility.yul\":6811:6823   */\n      mload\n        /* \"#utility.yul\":6844:6850   */\n      dup1\n        /* \"#utility.yul\":6839:6842   */\n      dup5\n        /* \"#utility.yul\":6832:6851   */\n      mstore\n        /* \"#utility.yul\":6876:6880   */\n      0x20\n        /* \"#utility.yul\":6871:6874   */\n      dup5\n        /* \"#utility.yul\":6867:6881   */\n      add\n        /* \"#utility.yul\":6860:6881   */\n      swap4\n      pop\n        /* \"#utility.yul\":6915:6919   */\n      0x20\n        /* \"#utility.yul\":6908:6913   */\n      dup4\n        /* \"#utility.yul\":6904:6920   */\n      add\n        /* \"#utility.yul\":6938:6939   */\n      0x00\n        /* \"#utility.yul\":6948:7121   */\n    tag_359:\n        /* \"#utility.yul\":6962:6968   */\n      dup3\n        /* \"#utility.yul\":6959:6960   */\n      dup2\n        /* \"#utility.yul\":6956:6969   */\n      lt\n        /* \"#utility.yul\":6948:7121   */\n      iszero\n      tag_361\n      jumpi\n        /* \"#utility.yul\":7023:7036   */\n      dup2\n      mload\n        /* \"#utility.yul\":7011:7037   */\n      dup7\n      mstore\n        /* \"#utility.yul\":7066:7070   */\n      0x20\n        /* \"#utility.yul\":7057:7071   */\n      swap6\n      dup7\n      add\n      swap6\n        /* \"#utility.yul\":7094:7111   */\n      swap1\n      swap2\n      add\n      swap1\n        /* \"#utility.yul\":6984:6985   */\n      0x01\n        /* \"#utility.yul\":6977:6986   */\n      add\n        /* \"#utility.yul\":6948:7121   */\n      jump(tag_359)\n    tag_361:\n      pop\n        /* \"#utility.yul\":7137:7140   */\n      swap4\n      swap5\n        /* \"#utility.yul\":6726:7146   */\n      swap4\n      pop\n      pop\n      pop\n      pop\n      jump\t// out\n        /* \"#utility.yul\":7151:7412   */\n    tag_60:\n        /* \"#utility.yul\":7330:7332   */\n      0x20\n        /* \"#utility.yul\":7319:7328   */\n      dup2\n        /* \"#utility.yul\":7312:7333   */\n      mstore\n        /* \"#utility.yul\":7293:7297   */\n      0x00\n        /* \"#utility.yul\":7350:7406   */\n      tag_301\n        /* \"#utility.yul\":7402:7404   */\n      0x20\n        /* \"#utility.yul\":7391:7400   */\n      dup4\n        /* \"#utility.yul\":7387:7405   */\n      add\n        /* \"#utility.yul\":7379:7385   */\n      dup5\n        /* \"#utility.yul\":7350:7406   */\n      tag_289\n      jump\t// in\n        /* \"#utility.yul\":7417:7764   */\n    tag_70:\n        /* \"#utility.yul\":7482:7488   */\n      0x00\n        /* \"#utility.yul\":7490:7496   */\n      dup1\n        /* \"#utility.yul\":7543:7545   */\n      0x40\n        /* \"#utility.yul\":7531:7540   */\n      dup4\n        /* \"#utility.yul\":7522:7529   */\n      dup6\n        /* \"#utility.yul\":7518:7541   */\n      sub\n        /* \"#utility.yul\":7514:7546   */\n      slt\n        /* \"#utility.yul\":7511:7563   */\n      iszero\n      tag_365\n      jumpi\n        /* \"#utility.yul\":7559:7560   */\n      0x00\n        /* \"#utility.yul\":7556:7557   */\n      dup1\n        /* \"#utility.yul\":7549:7561   */\n      revert\n        /* \"#utility.yul\":7511:7563   */\n    tag_365:\n        /* \"#utility.yul\":7582:7611   */\n      tag_366\n        /* \"#utility.yul\":7601:7610   */\n      dup4\n        /* \"#utility.yul\":7582:7611   */\n      tag_282\n      jump\t// in\n    tag_366:\n        /* \"#utility.yul\":7572:7611   */\n      swap2\n      pop\n        /* \"#utility.yul\":7661:7663   */\n      0x20\n        /* \"#utility.yul\":7650:7659   */\n      dup4\n        /* \"#utility.yul\":7646:7664   */\n      add\n        /* \"#utility.yul\":7633:7665   */\n      calldataload\n        /* \"#utility.yul\":7708:7713   */\n      dup1\n        /* \"#utility.yul\":7701:7714   */\n      iszero\n        /* \"#utility.yul\":7694:7715   */\n      iszero\n        /* \"#utility.yul\":7687:7692   */\n      dup2\n        /* \"#utility.yul\":7684:7716   */\n      eq\n        /* \"#utility.yul\":7674:7734   */\n      tag_367\n      jumpi\n        /* \"#utility.yul\":7730:7731   */\n      0x00\n        /* \"#utility.yul\":7727:7728   */\n      dup1\n        /* \"#utility.yul\":7720:7732   */\n      revert\n        /* \"#utility.yul\":7674:7734   */\n    tag_367:\n        /* \"#utility.yul\":7753:7758   */\n      dup1\n        /* \"#utility.yul\":7743:7758   */\n      swap2\n      pop\n      pop\n        /* \"#utility.yul\":7417:7764   */\n      swap3\n      pop\n      swap3\n      swap1\n      pop\n      jump\t// out\n        /* \"#utility.yul\":7769:8029   */\n    tag_77:\n        /* \"#utility.yul\":7837:7843   */\n      0x00\n        /* \"#utility.yul\":7845:7851   */\n      dup1\n        /* \"#utility.yul\":7898:7900   */\n      0x40\n        /* \"#utility.yul\":7886:7895   */\n      dup4\n        /* \"#utility.yul\":7877:7884   */\n      dup6\n        /* \"#utility.yul\":7873:7896   */\n      sub\n        /* \"#utility.yul\":7869:7901   */\n      slt\n        /* \"#utility.yul\":7866:7918   */\n      iszero\n      tag_369\n      jumpi\n        /* \"#utility.yul\":7914:7915   */\n      0x00\n        /* \"#utility.yul\":7911:7912   */\n      dup1\n        /* \"#utility.yul\":7904:7916   */\n      revert\n        /* \"#utility.yul\":7866:7918   */\n    tag_369:\n        /* \"#utility.yul\":7937:7966   */\n      tag_370\n        /* \"#utility.yul\":7956:7965   */\n      dup4\n        /* \"#utility.yul\":7937:7966   */\n      tag_282\n      jump\t// in\n    tag_370:\n        /* \"#utility.yul\":7927:7966   */\n      swap2\n      pop\n        /* \"#utility.yul\":7985:8023   */\n      tag_344\n        /* \"#utility.yul\":8019:8021   */\n      0x20\n        /* \"#utility.yul\":8008:8017   */\n      dup5\n        /* \"#utility.yul\":8004:8022   */\n      add\n        /* \"#utility.yul\":7985:8023   */\n      tag_282\n      jump\t// in\n        /* \"#utility.yul\":8034:8738   */\n    tag_82:\n        /* \"#utility.yul\":8138:8144   */\n      0x00\n        /* \"#utility.yul\":8146:8152   */\n      dup1\n        /* \"#utility.yul\":8154:8160   */\n      0x00\n        /* \"#utility.yul\":8162:8168   */\n      dup1\n        /* \"#utility.yul\":8170:8176   */\n      0x00\n        /* \"#utility.yul\":8223:8226   */\n      0xa0\n        /* \"#utility.yul\":8211:8220   */\n      dup7\n        /* \"#utility.yul\":8202:8209   */\n      dup9\n        /* \"#utility.yul\":8198:8221   */\n      sub\n        /* \"#utility.yul\":8194:8227   */\n      slt\n        /* \"#utility.yul\":8191:8244   */\n      iszero\n      tag_373\n      jumpi\n        /* \"#utility.yul\":8240:8241   */\n      0x00\n        /* \"#utility.yul\":8237:8238   */\n      dup1\n        /* \"#utility.yul\":8230:8242   */\n      revert\n        /* \"#utility.yul\":8191:8244   */\n    tag_373:\n        /* \"#utility.yul\":8263:8292   */\n      tag_374\n        /* \"#utility.yul\":8282:8291   */\n      dup7\n        /* \"#utility.yul\":8263:8292   */\n      tag_282\n      jump\t// in\n    tag_374:\n        /* \"#utility.yul\":8253:8292   */\n      swap5\n      pop\n        /* \"#utility.yul\":8311:8349   */\n      tag_375\n        /* \"#utility.yul\":8345:8347   */\n      0x20\n        /* \"#utility.yul\":8334:8343   */\n      dup8\n        /* \"#utility.yul\":8330:8348   */\n      add\n        /* \"#utility.yul\":8311:8349   */\n      tag_282\n      jump\t// in\n    tag_375:\n        /* \"#utility.yul\":8301:8349   */\n      swap4\n      pop\n        /* \"#utility.yul\":8418:8420   */\n      0x40\n        /* \"#utility.yul\":8403:8421   */\n      dup7\n      add\n        /* \"#utility.yul\":8390:8422   */\n      calldataload\n      swap3\n      pop\n        /* \"#utility.yul\":8519:8521   */\n      0x60\n        /* \"#utility.yul\":8504:8522   */\n      dup7\n      add\n        /* \"#utility.yul\":8491:8523   */\n      calldataload\n      swap2\n      pop\n        /* \"#utility.yul\":8600:8603   */\n      0x80\n        /* \"#utility.yul\":8585:8604   */\n      dup7\n      add\n        /* \"#utility.yul\":8572:8605   */\n      calldataload\n        /* \"#utility.yul\":8628:8646   */\n      0xffffffffffffffff\n        /* \"#utility.yul\":8617:8647   */\n      dup2\n      gt\n        /* \"#utility.yul\":8614:8664   */\n      iszero\n      tag_340\n      jumpi\n        /* \"#utility.yul\":8660:8661   */\n      0x00\n        /* \"#utility.yul\":8657:8658   */\n      dup1\n        /* \"#utility.yul\":8650:8662   */\n      revert\n        /* \"#utility.yul\":8743:9123   */\n    tag_90:\n        /* \"#utility.yul\":8822:8823   */\n      0x01\n        /* \"#utility.yul\":8818:8830   */\n      dup2\n      dup2\n      shr\n      swap1\n        /* \"#utility.yul\":8865:8877   */\n      dup3\n      and\n      dup1\n        /* \"#utility.yul\":8886:8947   */\n      tag_379\n      jumpi\n        /* \"#utility.yul\":8940:8944   */\n      0x7f\n        /* \"#utility.yul\":8932:8938   */\n      dup3\n        /* \"#utility.yul\":8928:8945   */\n      and\n        /* \"#utility.yul\":8918:8945   */\n      swap2\n      pop\n        /* \"#utility.yul\":8886:8947   */\n    tag_379:\n        /* \"#utility.yul\":8993:8995   */\n      0x20\n        /* \"#utility.yul\":8985:8991   */\n      dup3\n        /* \"#utility.yul\":8982:8996   */\n      lt\n        /* \"#utility.yul\":8962:8980   */\n      dup2\n        /* \"#utility.yul\":8959:8997   */\n      sub\n        /* \"#utility.yul\":8956:9117   */\n      tag_380\n      jumpi\n        /* \"#utility.yul\":9039:9049   */\n      0x4e487b71\n        /* \"#utility.yul\":9034:9037   */\n      0xe0\n        /* \"#utility.yul\":9030:9050   */\n      shl\n        /* \"#utility.yul\":9027:9028   */\n      0x00\n        /* \"#utility.yul\":9020:9051   */\n      mstore\n        /* \"#utility.yul\":9074:9078   */\n      0x22\n        /* \"#utility.yul\":9071:9072   */\n      0x04\n        /* \"#utility.yul\":9064:9079   */\n      mstore\n        /* \"#utility.yul\":9102:9106   */\n      0x24\n        /* \"#utility.yul\":9099:9100   */\n      0x00\n        /* \"#utility.yul\":9092:9107   */\n      revert\n        /* \"#utility.yul\":8956:9117   */\n    tag_380:\n      pop\n        /* \"#utility.yul\":8743:9123   */\n      swap2\n      swap1\n      pop\n      jump\t// out\n        /* \"#utility.yul\":9686:9813   */\n    tag_136:\n        /* \"#utility.yul\":9747:9757   */\n      0x4e487b71\n        /* \"#utility.yul\":9742:9745   */\n      0xe0\n        /* \"#utility.yul\":9738:9758   */\n      shl\n        /* \"#utility.yul\":9735:9736   */\n      0x00\n        /* \"#utility.yul\":9728:9759   */\n      mstore\n        /* \"#utility.yul\":9778:9782   */\n      0x32\n        /* \"#utility.yul\":9775:9776   */\n      0x04\n        /* \"#utility.yul\":9768:9783   */\n      mstore\n        /* \"#utility.yul\":9802:9806   */\n      0x24\n        /* \"#utility.yul\":9799:9800   */\n      0x00\n        /* \"#utility.yul\":9792:9807   */\n      revert\n        /* \"#utility.yul\":10727:10949   */\n    tag_237:\n        /* \"#utility.yul\":10792:10801   */\n      dup1\n      dup3\n      add\n        /* \"#utility.yul\":10813:10823   */\n      dup1\n      dup3\n      gt\n        /* \"#utility.yul\":10810:10943   */\n      iszero\n      tag_84\n      jumpi\n        /* \"#utility.yul\":10865:10875   */\n      0x4e487b71\n        /* \"#utility.yul\":10860:10863   */\n      0xe0\n        /* \"#utility.yul\":10856:10876   */\n      shl\n        /* \"#utility.yul\":10853:10854   */\n      0x00\n        /* \"#utility.yul\":10846:10877   */\n      mstore\n        /* \"#utility.yul\":10900:10904   */\n      0x11\n        /* \"#utility.yul\":10897:10898   */\n      0x04\n        /* \"#utility.yul\":10890:10905   */\n      mstore\n        /* \"#utility.yul\":10928:10932   */\n      0x24\n        /* \"#utility.yul\":10925:10926   */\n      0x00\n        /* \"#utility.yul\":10918:10933   */\n      revert\n        /* \"#utility.yul\":10954:11419   */\n    tag_244:\n        /* \"#utility.yul\":11211:11213   */\n      0x40\n        /* \"#utility.yul\":11200:11209   */\n      dup2\n        /* \"#utility.yul\":11193:11214   */\n      mstore\n        /* \"#utility.yul\":11174:11178   */\n      0x00\n        /* \"#utility.yul\":11237:11293   */\n      tag_390\n        /* \"#utility.yul\":11289:11291   */\n      0x40\n        /* \"#utility.yul\":11278:11287   */\n      dup4\n        /* \"#utility.yul\":11274:11292   */\n      add\n        /* \"#utility.yul\":11266:11272   */\n      dup6\n        /* \"#utility.yul\":11237:11293   */\n      tag_289\n      jump\t// in\n    tag_390:\n        /* \"#utility.yul\":11341:11350   */\n      dup3\n        /* \"#utility.yul\":11333:11339   */\n      dup2\n        /* \"#utility.yul\":11329:11351   */\n      sub\n        /* \"#utility.yul\":11324:11326   */\n      0x20\n        /* \"#utility.yul\":11313:11322   */\n      dup5\n        /* \"#utility.yul\":11309:11327   */\n      add\n        /* \"#utility.yul\":11302:11352   */\n      mstore\n        /* \"#utility.yul\":11369:11413   */\n      tag_391\n        /* \"#utility.yul\":11406:11412   */\n      dup2\n        /* \"#utility.yul\":11398:11404   */\n      dup6\n        /* \"#utility.yul\":11369:11413   */\n      tag_289\n      jump\t// in\n    tag_391:\n        /* \"#utility.yul\":11361:11413   */\n      swap6\n        /* \"#utility.yul\":10954:11419   */\n      swap5\n      pop\n      pop\n      pop\n      pop\n      pop\n      jump\t// out\n        /* \"#utility.yul\":11424:11981   */\n    tag_248:\n      sub(shl(0xa0, 0x01), 0x01)\n        /* \"#utility.yul\":11683:11715   */\n      dup7\n      dup2\n      and\n        /* \"#utility.yul\":11665:11716   */\n      dup3\n      mstore\n        /* \"#utility.yul\":11752:11784   */\n      dup6\n      and\n        /* \"#utility.yul\":11747:11749   */\n      0x20\n        /* \"#utility.yul\":11732:11750   */\n      dup3\n      add\n        /* \"#utility.yul\":11725:11785   */\n      mstore\n        /* \"#utility.yul\":11816:11818   */\n      0x40\n        /* \"#utility.yul\":11801:11819   */\n      dup2\n      add\n        /* \"#utility.yul\":11794:11828   */\n      dup5\n      swap1\n      mstore\n        /* \"#utility.yul\":11859:11861   */\n      0x60\n        /* \"#utility.yul\":11844:11862   */\n      dup2\n      add\n        /* \"#utility.yul\":11837:11871   */\n      dup4\n      swap1\n      mstore\n        /* \"#utility.yul\":11703:11706   */\n      0xa0\n        /* \"#utility.yul\":11902:11905   */\n      0x80\n        /* \"#utility.yul\":11887:11906   */\n      dup3\n      add\n        /* \"#utility.yul\":11880:11912   */\n      dup2\n      swap1\n      mstore\n      0x00\n      swap1\n        /* \"#utility.yul\":11929:11975   */\n      tag_393\n      swap1\n        /* \"#utility.yul\":11955:11974   */\n      dup4\n      add\n        /* \"#utility.yul\":11947:11953   */\n      dup5\n        /* \"#utility.yul\":11929:11975   */\n      tag_284\n      jump\t// in\n    tag_393:\n        /* \"#utility.yul\":11921:11975   */\n      swap8\n        /* \"#utility.yul\":11424:11981   */\n      swap7\n      pop\n      pop\n      pop\n      pop\n      pop\n      pop\n      pop\n      jump\t// out\n        /* \"#utility.yul\":11986:12235   */\n    tag_251:\n        /* \"#utility.yul\":12055:12061   */\n      0x00\n        /* \"#utility.yul\":12108:12110   */\n      0x20\n        /* \"#utility.yul\":12096:12105   */\n      dup3\n        /* \"#utility.yul\":12087:12094   */\n      dup5\n        /* \"#utility.yul\":12083:12106   */\n      sub\n        /* \"#utility.yul\":12079:12111   */\n      slt\n        /* \"#utility.yul\":12076:12128   */\n      iszero\n      tag_395\n      jumpi\n        /* \"#utility.yul\":12124:12125   */\n      0x00\n        /* \"#utility.yul\":12121:12122   */\n      dup1\n        /* \"#utility.yul\":12114:12126   */\n      revert\n        /* \"#utility.yul\":12076:12128   */\n    tag_395:\n        /* \"#utility.yul\":12156:12165   */\n      dup2\n        /* \"#utility.yul\":12150:12166   */\n      mload\n        /* \"#utility.yul\":12175:12205   */\n      tag_301\n        /* \"#utility.yul\":12199:12204   */\n      dup2\n        /* \"#utility.yul\":12175:12205   */\n      tag_283\n      jump\t// in\n        /* \"#utility.yul\":12240:13063   */\n    tag_267:\n      sub(shl(0xa0, 0x01), 0x01)\n        /* \"#utility.yul\":12599:12631   */\n      dup7\n      dup2\n      and\n        /* \"#utility.yul\":12581:12632   */\n      dup3\n      mstore\n        /* \"#utility.yul\":12668:12700   */\n      dup6\n      and\n        /* \"#utility.yul\":12663:12665   */\n      0x20\n        /* \"#utility.yul\":12648:12666   */\n      dup3\n      add\n        /* \"#utility.yul\":12641:12701   */\n      mstore\n        /* \"#utility.yul\":12619:12622   */\n      0xa0\n        /* \"#utility.yul\":12732:12734   */\n      0x40\n        /* \"#utility.yul\":12717:12735   */\n      dup3\n      add\n        /* \"#utility.yul\":12710:12741   */\n      dup2\n      swap1\n      mstore\n      0x00\n      swap1\n        /* \"#utility.yul\":12764:12821   */\n      tag_398\n      swap1\n        /* \"#utility.yul\":12801:12820   */\n      dup4\n      add\n        /* \"#utility.yul\":12793:12799   */\n      dup7\n        /* \"#utility.yul\":12764:12821   */\n      tag_289\n      jump\t// in\n    tag_398:\n        /* \"#utility.yul\":12869:12878   */\n      dup3\n        /* \"#utility.yul\":12861:12867   */\n      dup2\n        /* \"#utility.yul\":12857:12879   */\n      sub\n        /* \"#utility.yul\":12852:12854   */\n      0x60\n        /* \"#utility.yul\":12841:12850   */\n      dup5\n        /* \"#utility.yul\":12837:12855   */\n      add\n        /* \"#utility.yul\":12830:12880   */\n      mstore\n        /* \"#utility.yul\":12903:12947   */\n      tag_399\n        /* \"#utility.yul\":12940:12946   */\n      dup2\n        /* \"#utility.yul\":12932:12938   */\n      dup7\n        /* \"#utility.yul\":12903:12947   */\n      tag_289\n      jump\t// in\n    tag_399:\n        /* \"#utility.yul\":12889:12947   */\n      swap1\n      pop\n        /* \"#utility.yul\":12996:13005   */\n      dup3\n        /* \"#utility.yul\":12988:12994   */\n      dup2\n        /* \"#utility.yul\":12984:13006   */\n      sub\n        /* \"#utility.yul\":12978:12981   */\n      0x80\n        /* \"#utility.yul\":12967:12976   */\n      dup5\n        /* \"#utility.yul\":12963:12982   */\n      add\n        /* \"#utility.yul\":12956:13007   */\n      mstore\n        /* \"#utility.yul\":13024:13057   */\n      tag_400\n        /* \"#utility.yul\":13050:13056   */\n      dup2\n        /* \"#utility.yul\":13042:13048   */\n      dup6\n        /* \"#utility.yul\":13024:13057   */\n      tag_284\n      jump\t// in\n    tag_400:\n        /* \"#utility.yul\":13016:13057   */\n      swap9\n        /* \"#utility.yul\":12240:13063   */\n      swap8\n      pop\n      pop\n      pop\n      pop\n      pop\n      pop\n      pop\n      pop\n      jump\t// out\n\n    auxdata: 0xa264697066735822122071c66f8918cdc352aa9f5b688e9dfbc0f7c385785a5b0ad0d211b4abf309536b64736f6c634300081a0033\n}\n",
				"bytecode": {
					"linkReferences": {},
					"object": "608060405234801561000f575f80fd5b5060405161166938038061166983398101604081905261002e9161011b565b806100388161004a565b506100435f3361005a565b5050610309565b6002610056828261024f565b5050565b5f8281526003602090815260408083206001600160a01b038516845290915281205460ff166100fe575f8381526003602090815260408083206001600160a01b03861684529091529020805460ff191660011790556100b63390565b6001600160a01b0316826001600160a01b0316847f2f8788117e7eff1d82e926ec794901d17c78024a50270940304540a733656f0d60405160405180910390a4506001610101565b505f5b92915050565b634e487b7160e01b5f52604160045260245ffd5b5f6020828403121561012b575f80fd5b81516001600160401b03811115610140575f80fd5b8201601f81018413610150575f80fd5b80516001600160401b0381111561016957610169610107565b604051601f8201601f19908116603f011681016001600160401b038111828210171561019757610197610107565b6040528181528282016020018610156101ae575f80fd5b8160208401602083015e5f91810160200191909152949350505050565b600181811c908216806101df57607f821691505b6020821081036101fd57634e487b7160e01b5f52602260045260245ffd5b50919050565b601f82111561024a57805f5260205f20601f840160051c810160208510156102285750805b601f840160051c820191505b81811015610247575f8155600101610234565b50505b505050565b81516001600160401b0381111561026857610268610107565b61027c8161027684546101cb565b84610203565b6020601f8211600181146102ae575f83156102975750848201515b5f19600385901b1c1916600184901b178455610247565b5f84815260208120601f198516915b828110156102dd57878501518255602094850194600190920191016102bd565b50848210156102fa57868401515f19600387901b60f8161c191681555b50505050600190811b01905550565b611353806103165f395ff3fe608060405234801561000f575f80fd5b50600436106100e4575f3560e01c80634e1273f411610088578063a22cb46511610063578063a22cb465146101e8578063d547741f146101fb578063e985e9c51461020e578063f242432a14610221575f80fd5b80634e1273f4146101ae57806391d14854146101ce578063a217fddf146101e1575f80fd5b8063248a9ca3116100c3578063248a9ca3146101515780632eb2c2d6146101735780632f2ff15d1461018857806336568abe1461019b575f80fd5b8062fdd58e146100e857806301ffc9a71461010e5780630e89341c14610131575b5f80fd5b6100fb6100f6366004610d38565b610234565b6040519081526020015b60405180910390f35b61012161011c366004610d75565b61025b565b6040519015158152602001610105565b61014461013f366004610d97565b610265565b6040516101059190610ddc565b6100fb61015f366004610d97565b5f9081526003602052604090206001015490565b610186610181366004610f2c565b6102f7565b005b610186610196366004610fdb565b610363565b6101866101a9366004610fdb565b61038d565b6101c16101bc366004611005565b6103c5565b6040516101059190611102565b6101216101dc366004610fdb565b610490565b6100fb5f81565b6101866101f6366004611114565b6104ba565b610186610209366004610fdb565b6104c9565b61012161021c36600461114d565b6104ed565b61018661022f366004611175565b61051a565b5f818152602081815260408083206001600160a01b03861684529091529020545b92915050565b5f61025582610579565b606060028054610274906111c9565b80601f01602080910402602001604051908101604052809291908181526020018280546102a0906111c9565b80156102eb5780601f106102c2576101008083540402835291602001916102eb565b820191905f5260205f20905b8154815290600101906020018083116102ce57829003601f168201915b50505050509050919050565b336001600160a01b0386168114801590610318575061031686826104ed565b155b1561034e5760405163711bec9160e11b81526001600160a01b038083166004830152871660248201526044015b60405180910390fd5b61035b868686868661059d565b505050505050565b5f8281526003602052604090206001015461037d81610602565b610387838361060f565b50505050565b6001600160a01b03811633146103b65760405163334bd91960e11b815260040160405180910390fd5b6103c082826106a0565b505050565b606081518351146103f65781518351604051635b05999160e01b815260048101929092526024820152604401610345565b5f835167ffffffffffffffff81111561041157610411610dee565b60405190808252806020026020018201604052801561043a578160200160208202803683370190505b5090505f5b84518110156104885760208082028601015161046390602080840287010151610234565b82828151811061047557610475611201565b602090810291909101015260010161043f565b509392505050565b5f9182526003602090815260408084206001600160a01b0393909316845291905290205460ff1690565b6104c533838361070b565b5050565b5f828152600360205260409020600101546104e381610602565b61038783836106a0565b6001600160a01b039182165f90815260016020908152604080832093909416825291909152205460ff1690565b336001600160a01b038616811480159061053b575061053986826104ed565b155b1561056c5760405163711bec9160e11b81526001600160a01b03808316600483015287166024820152604401610345565b61035b868686868661079f565b5f6001600160e01b03198216637965db0b60e01b148061025557506102558261082b565b6001600160a01b0384166105c657604051632bfa23e760e11b81525f6004820152602401610345565b6001600160a01b0385166105ee57604051626a0d4560e21b81525f6004820152602401610345565b6105fb858585858561087a565b5050505050565b61060c81336108cd565b50565b5f61061a8383610490565b610699575f8381526003602090815260408083206001600160a01b03861684529091529020805460ff191660011790556106513390565b6001600160a01b0316826001600160a01b0316847f2f8788117e7eff1d82e926ec794901d17c78024a50270940304540a733656f0d60405160405180910390a4506001610255565b505f610255565b5f6106ab8383610490565b15610699575f8381526003602090815260408083206001600160a01b0386168085529252808320805460ff1916905551339286917ff6391f5c32d9c69d2a47ea670b442974b53935d1edc7fd64eb21e047a839171b9190a4506001610255565b6001600160a01b0382166107335760405162ced3e160e81b81525f6004820152602401610345565b6001600160a01b038381165f81815260016020908152604080832094871680845294825291829020805460ff191686151590811790915591519182527f17307eab39ab6107e8899845ad3d59bd9653f200f220920489ca2b5937696c31910160405180910390a3505050565b6001600160a01b0384166107c857604051632bfa23e760e11b81525f6004820152602401610345565b6001600160a01b0385166107f057604051626a0d4560e21b81525f6004820152602401610345565b60408051600180825260208201869052818301908152606082018590526080820190925290610822878784848761087a565b50505050505050565b5f6001600160e01b03198216636cdb3d1360e11b148061085b57506001600160e01b031982166303a24d0760e21b145b8061025557506301ffc9a760e01b6001600160e01b0319831614610255565b61088685858585610906565b6001600160a01b038416156105fb57825133906001036108bf57602084810151908401516108b8838989858589610b15565b505061035b565b61035b818787878787610c36565b6108d78282610490565b6104c55760405163e2517d3f60e01b81526001600160a01b038216600482015260248101839052604401610345565b80518251146109355781518151604051635b05999160e01b815260048101929092526024820152604401610345565b335f5b8351811015610a37576020818102858101820151908501909101516001600160a01b038816156109e9575f828152602081815260408083206001600160a01b038c168452909152902054818110156109c3576040516303dee4c560e01b81526001600160a01b038a166004820152602481018290526044810183905260648101849052608401610345565b5f838152602081815260408083206001600160a01b038d16845290915290209082900390555b6001600160a01b03871615610a2d575f828152602081815260408083206001600160a01b038b16845290915281208054839290610a27908490611215565b90915550505b5050600101610938565b508251600103610ab75760208301515f906020840151909150856001600160a01b0316876001600160a01b0316846001600160a01b03167fc3d58168c5ae7397731d063d5bbf3d657854427343f4c083240f7aacaa2d0f628585604051610aa8929190918252602082015260400190565b60405180910390a450506105fb565b836001600160a01b0316856001600160a01b0316826001600160a01b03167f4a39dc06d4c0dbc64b70af90fd698a233a518aa5d07e595d983b8c0526c8f7fb8686604051610b06929190611234565b60405180910390a45050505050565b6001600160a01b0384163b1561035b5760405163f23a6e6160e01b81526001600160a01b0385169063f23a6e6190610b599089908990889088908890600401611261565b6020604051808303815f875af1925050508015610b93575060408051601f3d908101601f19168201909252610b90918101906112a5565b60015b610bfa573d808015610bc0576040519150601f19603f3d011682016040523d82523d5f602084013e610bc5565b606091505b5080515f03610bf257604051632bfa23e760e11b81526001600160a01b0386166004820152602401610345565b805181602001fd5b6001600160e01b0319811663f23a6e6160e01b1461082257604051632bfa23e760e11b81526001600160a01b0386166004820152602401610345565b6001600160a01b0384163b1561035b5760405163bc197c8160e01b81526001600160a01b0385169063bc197c8190610c7a90899089908890889088906004016112c0565b6020604051808303815f875af1925050508015610cb4575060408051601f3d908101601f19168201909252610cb1918101906112a5565b60015b610ce1573d808015610bc0576040519150601f19603f3d011682016040523d82523d5f602084013e610bc5565b6001600160e01b0319811663bc197c8160e01b1461082257604051632bfa23e760e11b81526001600160a01b0386166004820152602401610345565b80356001600160a01b0381168114610d33575f80fd5b919050565b5f8060408385031215610d49575f80fd5b610d5283610d1d565b946020939093013593505050565b6001600160e01b03198116811461060c575f80fd5b5f60208284031215610d85575f80fd5b8135610d9081610d60565b9392505050565b5f60208284031215610da7575f80fd5b5035919050565b5f81518084528060208401602086015e5f602082860101526020601f19601f83011685010191505092915050565b602081525f610d906020830184610dae565b634e487b7160e01b5f52604160045260245ffd5b604051601f8201601f1916810167ffffffffffffffff81118282101715610e2b57610e2b610dee565b604052919050565b5f67ffffffffffffffff821115610e4c57610e4c610dee565b5060051b60200190565b5f82601f830112610e65575f80fd5b8135610e78610e7382610e33565b610e02565b8082825260208201915060208360051b860101925085831115610e99575f80fd5b602085015b83811015610eb6578035835260209283019201610e9e565b5095945050505050565b5f82601f830112610ecf575f80fd5b813567ffffffffffffffff811115610ee957610ee9610dee565b610efc601f8201601f1916602001610e02565b818152846020838601011115610f10575f80fd5b816020850160208301375f918101602001919091529392505050565b5f805f805f60a08688031215610f40575f80fd5b610f4986610d1d565b9450610f5760208701610d1d565b9350604086013567ffffffffffffffff811115610f72575f80fd5b610f7e88828901610e56565b935050606086013567ffffffffffffffff811115610f9a575f80fd5b610fa688828901610e56565b925050608086013567ffffffffffffffff811115610fc2575f80fd5b610fce88828901610ec0565b9150509295509295909350565b5f8060408385031215610fec575f80fd5b82359150610ffc60208401610d1d565b90509250929050565b5f8060408385031215611016575f80fd5b823567ffffffffffffffff81111561102c575f80fd5b8301601f8101851361103c575f80fd5b803561104a610e7382610e33565b8082825260208201915060208360051b85010192508783111561106b575f80fd5b6020840193505b828410156110945761108384610d1d565b825260209384019390910190611072565b9450505050602083013567ffffffffffffffff8111156110b2575f80fd5b6110be85828601610e56565b9150509250929050565b5f8151808452602084019350602083015f5b828110156110f85781518652602095860195909101906001016110da565b5093949350505050565b602081525f610d9060208301846110c8565b5f8060408385031215611125575f80fd5b61112e83610d1d565b915060208301358015158114611142575f80fd5b809150509250929050565b5f806040838503121561115e575f80fd5b61116783610d1d565b9150610ffc60208401610d1d565b5f805f805f60a08688031215611189575f80fd5b61119286610d1d565b94506111a060208701610d1d565b93506040860135925060608601359150608086013567ffffffffffffffff811115610fc2575f80fd5b600181811c908216806111dd57607f821691505b6020821081036111fb57634e487b7160e01b5f52602260045260245ffd5b50919050565b634e487b7160e01b5f52603260045260245ffd5b8082018082111561025557634e487b7160e01b5f52601160045260245ffd5b604081525f61124660408301856110c8565b828103602084015261125881856110c8565b95945050505050565b6001600160a01b03868116825285166020820152604081018490526060810183905260a0608082018190525f9061129a90830184610dae565b979650505050505050565b5f602082840312156112b5575f80fd5b8151610d9081610d60565b6001600160a01b0386811682528516602082015260a0604082018190525f906112eb908301866110c8565b82810360608401526112fd81866110c8565b905082810360808401526113118185610dae565b9897505050505050505056fea264697066735822122071c66f8918cdc352aa9f5b688e9dfbc0f7c385785a5b0ad0d211b4abf309536b64736f6c634300081a0033",
					"opcodes": "PUSH1 0x80 PUSH1 0x40 MSTORE CALLVALUE DUP1 ISZERO PUSH2 0xF JUMPI PUSH0 DUP1 REVERT JUMPDEST POP PUSH1 0x40 MLOAD PUSH2 0x1669 CODESIZE SUB DUP1 PUSH2 0x1669 DUP4 CODECOPY DUP2 ADD PUSH1 0x40 DUP2 SWAP1 MSTORE PUSH2 0x2E SWAP2 PUSH2 0x11B JUMP JUMPDEST DUP1 PUSH2 0x38 DUP2 PUSH2 0x4A JUMP JUMPDEST POP PUSH2 0x43 PUSH0 CALLER PUSH2 0x5A JUMP JUMPDEST POP POP PUSH2 0x309 JUMP JUMPDEST PUSH1 0x2 PUSH2 0x56 DUP3 DUP3 PUSH2 0x24F JUMP JUMPDEST POP POP JUMP JUMPDEST PUSH0 DUP3 DUP2 MSTORE PUSH1 0x3 PUSH1 0x20 SWAP1 DUP2 MSTORE PUSH1 0x40 DUP1 DUP4 KECCAK256 PUSH1 0x1 PUSH1 0x1 PUSH1 0xA0 SHL SUB DUP6 AND DUP5 MSTORE SWAP1 SWAP2 MSTORE DUP2 KECCAK256 SLOAD PUSH1 0xFF AND PUSH2 0xFE JUMPI PUSH0 DUP4 DUP2 MSTORE PUSH1 0x3 PUSH1 0x20 SWAP1 DUP2 MSTORE PUSH1 0x40 DUP1 DUP4 KECCAK256 PUSH1 0x1 PUSH1 0x1 PUSH1 0xA0 SHL SUB DUP7 AND DUP5 MSTORE SWAP1 SWAP2 MSTORE SWAP1 KECCAK256 DUP1 SLOAD PUSH1 0xFF NOT AND PUSH1 0x1 OR SWAP1 SSTORE PUSH2 0xB6 CALLER SWAP1 JUMP JUMPDEST PUSH1 0x1 PUSH1 0x1 PUSH1 0xA0 SHL SUB AND DUP3 PUSH1 0x1 PUSH1 0x1 PUSH1 0xA0 SHL SUB AND DUP5 PUSH32 0x2F8788117E7EFF1D82E926EC794901D17C78024A50270940304540A733656F0D PUSH1 0x40 MLOAD PUSH1 0x40 MLOAD DUP1 SWAP2 SUB SWAP1 LOG4 POP PUSH1 0x1 PUSH2 0x101 JUMP JUMPDEST POP PUSH0 JUMPDEST SWAP3 SWAP2 POP POP JUMP JUMPDEST PUSH4 0x4E487B71 PUSH1 0xE0 SHL PUSH0 MSTORE PUSH1 0x41 PUSH1 0x4 MSTORE PUSH1 0x24 PUSH0 REVERT JUMPDEST PUSH0 PUSH1 0x20 DUP3 DUP5 SUB SLT ISZERO PUSH2 0x12B JUMPI PUSH0 DUP1 REVERT JUMPDEST DUP2 MLOAD PUSH1 0x1 PUSH1 0x1 PUSH1 0x40 SHL SUB DUP2 GT ISZERO PUSH2 0x140 JUMPI PUSH0 DUP1 REVERT JUMPDEST DUP3 ADD PUSH1 0x1F DUP2 ADD DUP5 SGT PUSH2 0x150 JUMPI PUSH0 DUP1 REVERT JUMPDEST DUP1 MLOAD PUSH1 0x1 PUSH1 0x1 PUSH1 0x40 SHL SUB DUP2 GT ISZERO PUSH2 0x169 JUMPI PUSH2 0x169 PUSH2 0x107 JUMP JUMPDEST PUSH1 0x40 MLOAD PUSH1 0x1F DUP3 ADD PUSH1 0x1F NOT SWAP1 DUP2 AND PUSH1 0x3F ADD AND DUP2 ADD PUSH1 0x1 PUSH1 0x1 PUSH1 0x40 SHL SUB DUP2 GT DUP3 DUP3 LT OR ISZERO PUSH2 0x197 JUMPI PUSH2 0x197 PUSH2 0x107 JUMP JUMPDEST PUSH1 0x40 MSTORE DUP2 DUP2 MSTORE DUP3 DUP3 ADD PUSH1 0x20 ADD DUP7 LT ISZERO PUSH2 0x1AE JUMPI PUSH0 DUP1 REVERT JUMPDEST DUP2 PUSH1 0x20 DUP5 ADD PUSH1 0x20 DUP4 ADD MCOPY PUSH0 SWAP2 DUP2 ADD PUSH1 0x20 ADD SWAP2 SWAP1 SWAP2 MSTORE SWAP5 SWAP4 POP POP POP POP JUMP JUMPDEST PUSH1 0x1 DUP2 DUP2 SHR SWAP1 DUP3 AND DUP1 PUSH2 0x1DF JUMPI PUSH1 0x7F DUP3 AND SWAP2 POP JUMPDEST PUSH1 0x20 DUP3 LT DUP2 SUB PUSH2 0x1FD JUMPI PUSH4 0x4E487B71 PUSH1 0xE0 SHL PUSH0 MSTORE PUSH1 0x22 PUSH1 0x4 MSTORE PUSH1 0x24 PUSH0 REVERT JUMPDEST POP SWAP2 SWAP1 POP JUMP JUMPDEST PUSH1 0x1F DUP3 GT ISZERO PUSH2 0x24A JUMPI DUP1 PUSH0 MSTORE PUSH1 0x20 PUSH0 KECCAK256 PUSH1 0x1F DUP5 ADD PUSH1 0x5 SHR DUP2 ADD PUSH1 0x20 DUP6 LT ISZERO PUSH2 0x228 JUMPI POP DUP1 JUMPDEST PUSH1 0x1F DUP5 ADD PUSH1 0x5 SHR DUP3 ADD SWAP2 POP JUMPDEST DUP2 DUP2 LT ISZERO PUSH2 0x247 JUMPI PUSH0 DUP2 SSTORE PUSH1 0x1 ADD PUSH2 0x234 JUMP JUMPDEST POP POP JUMPDEST POP POP POP JUMP JUMPDEST DUP2 MLOAD PUSH1 0x1 PUSH1 0x1 PUSH1 0x40 SHL SUB DUP2 GT ISZERO PUSH2 0x268 JUMPI PUSH2 0x268 PUSH2 0x107 JUMP JUMPDEST PUSH2 0x27C DUP2 PUSH2 0x276 DUP5 SLOAD PUSH2 0x1CB JUMP JUMPDEST DUP5 PUSH2 0x203 JUMP JUMPDEST PUSH1 0x20 PUSH1 0x1F DUP3 GT PUSH1 0x1 DUP2 EQ PUSH2 0x2AE JUMPI PUSH0 DUP4 ISZERO PUSH2 0x297 JUMPI POP DUP5 DUP3 ADD MLOAD JUMPDEST PUSH0 NOT PUSH1 0x3 DUP6 SWAP1 SHL SHR NOT AND PUSH1 0x1 DUP5 SWAP1 SHL OR DUP5 SSTORE PUSH2 0x247 JUMP JUMPDEST PUSH0 DUP5 DUP2 MSTORE PUSH1 0x20 DUP2 KECCAK256 PUSH1 0x1F NOT DUP6 AND SWAP2 JUMPDEST DUP3 DUP2 LT ISZERO PUSH2 0x2DD JUMPI DUP8 DUP6 ADD MLOAD DUP3 SSTORE PUSH1 0x20 SWAP5 DUP6 ADD SWAP5 PUSH1 0x1 SWAP1 SWAP3 ADD SWAP2 ADD PUSH2 0x2BD JUMP JUMPDEST POP DUP5 DUP3 LT ISZERO PUSH2 0x2FA JUMPI DUP7 DUP5 ADD MLOAD PUSH0 NOT PUSH1 0x3 DUP8 SWAP1 SHL PUSH1 0xF8 AND SHR NOT AND DUP2 SSTORE JUMPDEST POP POP POP POP PUSH1 0x1 SWAP1 DUP2 SHL ADD SWAP1 SSTORE POP JUMP JUMPDEST PUSH2 0x1353 DUP1 PUSH2 0x316 PUSH0 CODECOPY PUSH0 RETURN INVALID PUSH1 0x80 PUSH1 0x40 MSTORE CALLVALUE DUP1 ISZERO PUSH2 0xF JUMPI PUSH0 DUP1 REVERT JUMPDEST POP PUSH1 0x4 CALLDATASIZE LT PUSH2 0xE4 JUMPI PUSH0 CALLDATALOAD PUSH1 0xE0 SHR DUP1 PUSH4 0x4E1273F4 GT PUSH2 0x88 JUMPI DUP1 PUSH4 0xA22CB465 GT PUSH2 0x63 JUMPI DUP1 PUSH4 0xA22CB465 EQ PUSH2 0x1E8 JUMPI DUP1 PUSH4 0xD547741F EQ PUSH2 0x1FB JUMPI DUP1 PUSH4 0xE985E9C5 EQ PUSH2 0x20E JUMPI DUP1 PUSH4 0xF242432A EQ PUSH2 0x221 JUMPI PUSH0 DUP1 REVERT JUMPDEST DUP1 PUSH4 0x4E1273F4 EQ PUSH2 0x1AE JUMPI DUP1 PUSH4 0x91D14854 EQ PUSH2 0x1CE JUMPI DUP1 PUSH4 0xA217FDDF EQ PUSH2 0x1E1 JUMPI PUSH0 DUP1 REVERT JUMPDEST DUP1 PUSH4 0x248A9CA3 GT PUSH2 0xC3 JUMPI DUP1 PUSH4 0x248A9CA3 EQ PUSH2 0x151 JUMPI DUP1 PUSH4 0x2EB2C2D6 EQ PUSH2 0x173 JUMPI DUP1 PUSH4 0x2F2FF15D EQ PUSH2 0x188 JUMPI DUP1 PUSH4 0x36568ABE EQ PUSH2 0x19B JUMPI PUSH0 DUP1 REVERT JUMPDEST DUP1 PUSH3 0xFDD58E EQ PUSH2 0xE8 JUMPI DUP1 PUSH4 0x1FFC9A7 EQ PUSH2 0x10E JUMPI DUP1 PUSH4 0xE89341C EQ PUSH2 0x131 JUMPI JUMPDEST PUSH0 DUP1 REVERT JUMPDEST PUSH2 0xFB PUSH2 0xF6 CALLDATASIZE PUSH1 0x4 PUSH2 0xD38 JUMP JUMPDEST PUSH2 0x234 JUMP JUMPDEST PUSH1 0x40 MLOAD SWAP1 DUP2 MSTORE PUSH1 0x20 ADD JUMPDEST PUSH1 0x40 MLOAD DUP1 SWAP2 SUB SWAP1 RETURN JUMPDEST PUSH2 0x121 PUSH2 0x11C CALLDATASIZE PUSH1 0x4 PUSH2 0xD75 JUMP JUMPDEST PUSH2 0x25B JUMP JUMPDEST PUSH1 0x40 MLOAD SWAP1 ISZERO ISZERO DUP2 MSTORE PUSH1 0x20 ADD PUSH2 0x105 JUMP JUMPDEST PUSH2 0x144 PUSH2 0x13F CALLDATASIZE PUSH1 0x4 PUSH2 0xD97 JUMP JUMPDEST PUSH2 0x265 JUMP JUMPDEST PUSH1 0x40 MLOAD PUSH2 0x105 SWAP2 SWAP1 PUSH2 0xDDC JUMP JUMPDEST PUSH2 0xFB PUSH2 0x15F CALLDATASIZE PUSH1 0x4 PUSH2 0xD97 JUMP JUMPDEST PUSH0 SWAP1 DUP2 MSTORE PUSH1 0x3 PUSH1 0x20 MSTORE PUSH1 0x40 SWAP1 KECCAK256 PUSH1 0x1 ADD SLOAD SWAP1 JUMP JUMPDEST PUSH2 0x186 PUSH2 0x181 CALLDATASIZE PUSH1 0x4 PUSH2 0xF2C JUMP JUMPDEST PUSH2 0x2F7 JUMP JUMPDEST STOP JUMPDEST PUSH2 0x186 PUSH2 0x196 CALLDATASIZE PUSH1 0x4 PUSH2 0xFDB JUMP JUMPDEST PUSH2 0x363 JUMP JUMPDEST PUSH2 0x186 PUSH2 0x1A9 CALLDATASIZE PUSH1 0x4 PUSH2 0xFDB JUMP JUMPDEST PUSH2 0x38D JUMP JUMPDEST PUSH2 0x1C1 PUSH2 0x1BC CALLDATASIZE PUSH1 0x4 PUSH2 0x1005 JUMP JUMPDEST PUSH2 0x3C5 JUMP JUMPDEST PUSH1 0x40 MLOAD PUSH2 0x105 SWAP2 SWAP1 PUSH2 0x1102 JUMP JUMPDEST PUSH2 0x121 PUSH2 0x1DC CALLDATASIZE PUSH1 0x4 PUSH2 0xFDB JUMP JUMPDEST PUSH2 0x490 JUMP JUMPDEST PUSH2 0xFB PUSH0 DUP2 JUMP JUMPDEST PUSH2 0x186 PUSH2 0x1F6 CALLDATASIZE PUSH1 0x4 PUSH2 0x1114 JUMP JUMPDEST PUSH2 0x4BA JUMP JUMPDEST PUSH2 0x186 PUSH2 0x209 CALLDATASIZE PUSH1 0x4 PUSH2 0xFDB JUMP JUMPDEST PUSH2 0x4C9 JUMP JUMPDEST PUSH2 0x121 PUSH2 0x21C CALLDATASIZE PUSH1 0x4 PUSH2 0x114D JUMP JUMPDEST PUSH2 0x4ED JUMP JUMPDEST PUSH2 0x186 PUSH2 0x22F CALLDATASIZE PUSH1 0x4 PUSH2 0x1175 JUMP JUMPDEST PUSH2 0x51A JUMP JUMPDEST PUSH0 DUP2 DUP2 MSTORE PUSH1 0x20 DUP2 DUP2 MSTORE PUSH1 0x40 DUP1 DUP4 KECCAK256 PUSH1 0x1 PUSH1 0x1 PUSH1 0xA0 SHL SUB DUP7 AND DUP5 MSTORE SWAP1 SWAP2 MSTORE SWAP1 KECCAK256 SLOAD JUMPDEST SWAP3 SWAP2 POP POP JUMP JUMPDEST PUSH0 PUSH2 0x255 DUP3 PUSH2 0x579 JUMP JUMPDEST PUSH1 0x60 PUSH1 0x2 DUP1 SLOAD PUSH2 0x274 SWAP1 PUSH2 0x11C9 JUMP JUMPDEST DUP1 PUSH1 0x1F ADD PUSH1 0x20 DUP1 SWAP2 DIV MUL PUSH1 0x20 ADD PUSH1 0x40 MLOAD SWAP1 DUP2 ADD PUSH1 0x40 MSTORE DUP1 SWAP3 SWAP2 SWAP1 DUP2 DUP2 MSTORE PUSH1 0x20 ADD DUP3 DUP1 SLOAD PUSH2 0x2A0 SWAP1 PUSH2 0x11C9 JUMP JUMPDEST DUP1 ISZERO PUSH2 0x2EB JUMPI DUP1 PUSH1 0x1F LT PUSH2 0x2C2 JUMPI PUSH2 0x100 DUP1 DUP4 SLOAD DIV MUL DUP4 MSTORE SWAP2 PUSH1 0x20 ADD SWAP2 PUSH2 0x2EB JUMP JUMPDEST DUP3 ADD SWAP2 SWAP1 PUSH0 MSTORE PUSH1 0x20 PUSH0 KECCAK256 SWAP1 JUMPDEST DUP2 SLOAD DUP2 MSTORE SWAP1 PUSH1 0x1 ADD SWAP1 PUSH1 0x20 ADD DUP1 DUP4 GT PUSH2 0x2CE JUMPI DUP3 SWAP1 SUB PUSH1 0x1F AND DUP3 ADD SWAP2 JUMPDEST POP POP POP POP POP SWAP1 POP SWAP2 SWAP1 POP JUMP JUMPDEST CALLER PUSH1 0x1 PUSH1 0x1 PUSH1 0xA0 SHL SUB DUP7 AND DUP2 EQ DUP1 ISZERO SWAP1 PUSH2 0x318 JUMPI POP PUSH2 0x316 DUP7 DUP3 PUSH2 0x4ED JUMP JUMPDEST ISZERO JUMPDEST ISZERO PUSH2 0x34E JUMPI PUSH1 0x40 MLOAD PUSH4 0x711BEC91 PUSH1 0xE1 SHL DUP2 MSTORE PUSH1 0x1 PUSH1 0x1 PUSH1 0xA0 SHL SUB DUP1 DUP4 AND PUSH1 0x4 DUP4 ADD MSTORE DUP8 AND PUSH1 0x24 DUP3 ADD MSTORE PUSH1 0x44 ADD JUMPDEST PUSH1 0x40 MLOAD DUP1 SWAP2 SUB SWAP1 REVERT JUMPDEST PUSH2 0x35B DUP7 DUP7 DUP7 DUP7 DUP7 PUSH2 0x59D JUMP JUMPDEST POP POP POP POP POP POP JUMP JUMPDEST PUSH0 DUP3 DUP2 MSTORE PUSH1 0x3 PUSH1 0x20 MSTORE PUSH1 0x40 SWAP1 KECCAK256 PUSH1 0x1 ADD SLOAD PUSH2 0x37D DUP2 PUSH2 0x602 JUMP JUMPDEST PUSH2 0x387 DUP4 DUP4 PUSH2 0x60F JUMP JUMPDEST POP POP POP POP JUMP JUMPDEST PUSH1 0x1 PUSH1 0x1 PUSH1 0xA0 SHL SUB DUP2 AND CALLER EQ PUSH2 0x3B6 JUMPI PUSH1 0x40 MLOAD PUSH4 0x334BD919 PUSH1 0xE1 SHL DUP2 MSTORE PUSH1 0x4 ADD PUSH1 0x40 MLOAD DUP1 SWAP2 SUB SWAP1 REVERT JUMPDEST PUSH2 0x3C0 DUP3 DUP3 PUSH2 0x6A0 JUMP JUMPDEST POP POP POP JUMP JUMPDEST PUSH1 0x60 DUP2 MLOAD DUP4 MLOAD EQ PUSH2 0x3F6 JUMPI DUP2 MLOAD DUP4 MLOAD PUSH1 0x40 MLOAD PUSH4 0x5B059991 PUSH1 0xE0 SHL DUP2 MSTORE PUSH1 0x4 DUP2 ADD SWAP3 SWAP1 SWAP3 MSTORE PUSH1 0x24 DUP3 ADD MSTORE PUSH1 0x44 ADD PUSH2 0x345 JUMP JUMPDEST PUSH0 DUP4 MLOAD PUSH8 0xFFFFFFFFFFFFFFFF DUP2 GT ISZERO PUSH2 0x411 JUMPI PUSH2 0x411 PUSH2 0xDEE JUMP JUMPDEST PUSH1 0x40 MLOAD SWAP1 DUP1 DUP3 MSTORE DUP1 PUSH1 0x20 MUL PUSH1 0x20 ADD DUP3 ADD PUSH1 0x40 MSTORE DUP1 ISZERO PUSH2 0x43A JUMPI DUP2 PUSH1 0x20 ADD PUSH1 0x20 DUP3 MUL DUP1 CALLDATASIZE DUP4 CALLDATACOPY ADD SWAP1 POP JUMPDEST POP SWAP1 POP PUSH0 JUMPDEST DUP5 MLOAD DUP2 LT ISZERO PUSH2 0x488 JUMPI PUSH1 0x20 DUP1 DUP3 MUL DUP7 ADD ADD MLOAD PUSH2 0x463 SWAP1 PUSH1 0x20 DUP1 DUP5 MUL DUP8 ADD ADD MLOAD PUSH2 0x234 JUMP JUMPDEST DUP3 DUP3 DUP2 MLOAD DUP2 LT PUSH2 0x475 JUMPI PUSH2 0x475 PUSH2 0x1201 JUMP JUMPDEST PUSH1 0x20 SWAP1 DUP2 MUL SWAP2 SWAP1 SWAP2 ADD ADD MSTORE PUSH1 0x1 ADD PUSH2 0x43F JUMP JUMPDEST POP SWAP4 SWAP3 POP POP POP JUMP JUMPDEST PUSH0 SWAP2 DUP3 MSTORE PUSH1 0x3 PUSH1 0x20 SWAP1 DUP2 MSTORE PUSH1 0x40 DUP1 DUP5 KECCAK256 PUSH1 0x1 PUSH1 0x1 PUSH1 0xA0 SHL SUB SWAP4 SWAP1 SWAP4 AND DUP5 MSTORE SWAP2 SWAP1 MSTORE SWAP1 KECCAK256 SLOAD PUSH1 0xFF AND SWAP1 JUMP JUMPDEST PUSH2 0x4C5 CALLER DUP4 DUP4 PUSH2 0x70B JUMP JUMPDEST POP POP JUMP JUMPDEST PUSH0 DUP3 DUP2 MSTORE PUSH1 0x3 PUSH1 0x20 MSTORE PUSH1 0x40 SWAP1 KECCAK256 PUSH1 0x1 ADD SLOAD PUSH2 0x4E3 DUP2 PUSH2 0x602 JUMP JUMPDEST PUSH2 0x387 DUP4 DUP4 PUSH2 0x6A0 JUMP JUMPDEST PUSH1 0x1 PUSH1 0x1 PUSH1 0xA0 SHL SUB SWAP2 DUP3 AND PUSH0 SWAP1 DUP2 MSTORE PUSH1 0x1 PUSH1 0x20 SWAP1 DUP2 MSTORE PUSH1 0x40 DUP1 DUP4 KECCAK256 SWAP4 SWAP1 SWAP5 AND DUP3 MSTORE SWAP2 SWAP1 SWAP2 MSTORE KECCAK256 SLOAD PUSH1 0xFF AND SWAP1 JUMP JUMPDEST CALLER PUSH1 0x1 PUSH1 0x1 PUSH1 0xA0 SHL SUB DUP7 AND DUP2 EQ DUP1 ISZERO SWAP1 PUSH2 0x53B JUMPI POP PUSH2 0x539 DUP7 DUP3 PUSH2 0x4ED JUMP JUMPDEST ISZERO JUMPDEST ISZERO PUSH2 0x56C JUMPI PUSH1 0x40 MLOAD PUSH4 0x711BEC91 PUSH1 0xE1 SHL DUP2 MSTORE PUSH1 0x1 PUSH1 0x1 PUSH1 0xA0 SHL SUB DUP1 DUP4 AND PUSH1 0x4 DUP4 ADD MSTORE DUP8 AND PUSH1 0x24 DUP3 ADD MSTORE PUSH1 0x44 ADD PUSH2 0x345 JUMP JUMPDEST PUSH2 0x35B DUP7 DUP7 DUP7 DUP7 DUP7 PUSH2 0x79F JUMP JUMPDEST PUSH0 PUSH1 0x1 PUSH1 0x1 PUSH1 0xE0 SHL SUB NOT DUP3 AND PUSH4 0x7965DB0B PUSH1 0xE0 SHL EQ DUP1 PUSH2 0x255 JUMPI POP PUSH2 0x255 DUP3 PUSH2 0x82B JUMP JUMPDEST PUSH1 0x1 PUSH1 0x1 PUSH1 0xA0 SHL SUB DUP5 AND PUSH2 0x5C6 JUMPI PUSH1 0x40 MLOAD PUSH4 0x2BFA23E7 PUSH1 0xE1 SHL DUP2 MSTORE PUSH0 PUSH1 0x4 DUP3 ADD MSTORE PUSH1 0x24 ADD PUSH2 0x345 JUMP JUMPDEST PUSH1 0x1 PUSH1 0x1 PUSH1 0xA0 SHL SUB DUP6 AND PUSH2 0x5EE JUMPI PUSH1 0x40 MLOAD PUSH3 0x6A0D45 PUSH1 0xE2 SHL DUP2 MSTORE PUSH0 PUSH1 0x4 DUP3 ADD MSTORE PUSH1 0x24 ADD PUSH2 0x345 JUMP JUMPDEST PUSH2 0x5FB DUP6 DUP6 DUP6 DUP6 DUP6 PUSH2 0x87A JUMP JUMPDEST POP POP POP POP POP JUMP JUMPDEST PUSH2 0x60C DUP2 CALLER PUSH2 0x8CD JUMP JUMPDEST POP JUMP JUMPDEST PUSH0 PUSH2 0x61A DUP4 DUP4 PUSH2 0x490 JUMP JUMPDEST PUSH2 0x699 JUMPI PUSH0 DUP4 DUP2 MSTORE PUSH1 0x3 PUSH1 0x20 SWAP1 DUP2 MSTORE PUSH1 0x40 DUP1 DUP4 KECCAK256 PUSH1 0x1 PUSH1 0x1 PUSH1 0xA0 SHL SUB DUP7 AND DUP5 MSTORE SWAP1 SWAP2 MSTORE SWAP1 KECCAK256 DUP1 SLOAD PUSH1 0xFF NOT AND PUSH1 0x1 OR SWAP1 SSTORE PUSH2 0x651 CALLER SWAP1 JUMP JUMPDEST PUSH1 0x1 PUSH1 0x1 PUSH1 0xA0 SHL SUB AND DUP3 PUSH1 0x1 PUSH1 0x1 PUSH1 0xA0 SHL SUB AND DUP5 PUSH32 0x2F8788117E7EFF1D82E926EC794901D17C78024A50270940304540A733656F0D PUSH1 0x40 MLOAD PUSH1 0x40 MLOAD DUP1 SWAP2 SUB SWAP1 LOG4 POP PUSH1 0x1 PUSH2 0x255 JUMP JUMPDEST POP PUSH0 PUSH2 0x255 JUMP JUMPDEST PUSH0 PUSH2 0x6AB DUP4 DUP4 PUSH2 0x490 JUMP JUMPDEST ISZERO PUSH2 0x699 JUMPI PUSH0 DUP4 DUP2 MSTORE PUSH1 0x3 PUSH1 0x20 SWAP1 DUP2 MSTORE PUSH1 0x40 DUP1 DUP4 KECCAK256 PUSH1 0x1 PUSH1 0x1 PUSH1 0xA0 SHL SUB DUP7 AND DUP1 DUP6 MSTORE SWAP3 MSTORE DUP1 DUP4 KECCAK256 DUP1 SLOAD PUSH1 0xFF NOT AND SWAP1 SSTORE MLOAD CALLER SWAP3 DUP7 SWAP2 PUSH32 0xF6391F5C32D9C69D2A47EA670B442974B53935D1EDC7FD64EB21E047A839171B SWAP2 SWAP1 LOG4 POP PUSH1 0x1 PUSH2 0x255 JUMP JUMPDEST PUSH1 0x1 PUSH1 0x1 PUSH1 0xA0 SHL SUB DUP3 AND PUSH2 0x733 JUMPI PUSH1 0x40 MLOAD PUSH3 0xCED3E1 PUSH1 0xE8 SHL DUP2 MSTORE PUSH0 PUSH1 0x4 DUP3 ADD MSTORE PUSH1 0x24 ADD PUSH2 0x345 JUMP JUMPDEST PUSH1 0x1 PUSH1 0x1 PUSH1 0xA0 SHL SUB DUP4 DUP2 AND PUSH0 DUP2 DUP2 MSTORE PUSH1 0x1 PUSH1 0x20 SWAP1 DUP2 MSTORE PUSH1 0x40 DUP1 DUP4 KECCAK256 SWAP5 DUP8 AND DUP1 DUP5 MSTORE SWAP5 DUP3 MSTORE SWAP2 DUP3 SWAP1 KECCAK256 DUP1 SLOAD PUSH1 0xFF NOT AND DUP7 ISZERO ISZERO SWAP1 DUP2 OR SWAP1 SWAP2 SSTORE SWAP2 MLOAD SWAP2 DUP3 MSTORE PUSH32 0x17307EAB39AB6107E8899845AD3D59BD9653F200F220920489CA2B5937696C31 SWAP2 ADD PUSH1 0x40 MLOAD DUP1 SWAP2 SUB SWAP1 LOG3 POP POP POP JUMP JUMPDEST PUSH1 0x1 PUSH1 0x1 PUSH1 0xA0 SHL SUB DUP5 AND PUSH2 0x7C8 JUMPI PUSH1 0x40 MLOAD PUSH4 0x2BFA23E7 PUSH1 0xE1 SHL DUP2 MSTORE PUSH0 PUSH1 0x4 DUP3 ADD MSTORE PUSH1 0x24 ADD PUSH2 0x345 JUMP JUMPDEST PUSH1 0x1 PUSH1 0x1 PUSH1 0xA0 SHL SUB DUP6 AND PUSH2 0x7F0 JUMPI PUSH1 0x40 MLOAD PUSH3 0x6A0D45 PUSH1 0xE2 SHL DUP2 MSTORE PUSH0 PUSH1 0x4 DUP3 ADD MSTORE PUSH1 0x24 ADD PUSH2 0x345 JUMP JUMPDEST PUSH1 0x40 DUP1 MLOAD PUSH1 0x1 DUP1 DUP3 MSTORE PUSH1 0x20 DUP3 ADD DUP7 SWAP1 MSTORE DUP2 DUP4 ADD SWAP1 DUP2 MSTORE PUSH1 0x60 DUP3 ADD DUP6 SWAP1 MSTORE PUSH1 0x80 DUP3 ADD SWAP1 SWAP3 MSTORE SWAP1 PUSH2 0x822 DUP8 DUP8 DUP5 DUP5 DUP8 PUSH2 0x87A JUMP JUMPDEST POP POP POP POP POP POP POP JUMP JUMPDEST PUSH0 PUSH1 0x1 PUSH1 0x1 PUSH1 0xE0 SHL SUB NOT DUP3 AND PUSH4 0x6CDB3D13 PUSH1 0xE1 SHL EQ DUP1 PUSH2 0x85B JUMPI POP PUSH1 0x1 PUSH1 0x1 PUSH1 0xE0 SHL SUB NOT DUP3 AND PUSH4 0x3A24D07 PUSH1 0xE2 SHL EQ JUMPDEST DUP1 PUSH2 0x255 JUMPI POP PUSH4 0x1FFC9A7 PUSH1 0xE0 SHL PUSH1 0x1 PUSH1 0x1 PUSH1 0xE0 SHL SUB NOT DUP4 AND EQ PUSH2 0x255 JUMP JUMPDEST PUSH2 0x886 DUP6 DUP6 DUP6 DUP6 PUSH2 0x906 JUMP JUMPDEST PUSH1 0x1 PUSH1 0x1 PUSH1 0xA0 SHL SUB DUP5 AND ISZERO PUSH2 0x5FB JUMPI DUP3 MLOAD CALLER SWAP1 PUSH1 0x1 SUB PUSH2 0x8BF JUMPI PUSH1 0x20 DUP5 DUP2 ADD MLOAD SWAP1 DUP5 ADD MLOAD PUSH2 0x8B8 DUP4 DUP10 DUP10 DUP6 DUP6 DUP10 PUSH2 0xB15 JUMP JUMPDEST POP POP PUSH2 0x35B JUMP JUMPDEST PUSH2 0x35B DUP2 DUP8 DUP8 DUP8 DUP8 DUP8 PUSH2 0xC36 JUMP JUMPDEST PUSH2 0x8D7 DUP3 DUP3 PUSH2 0x490 JUMP JUMPDEST PUSH2 0x4C5 JUMPI PUSH1 0x40 MLOAD PUSH4 0xE2517D3F PUSH1 0xE0 SHL DUP2 MSTORE PUSH1 0x1 PUSH1 0x1 PUSH1 0xA0 SHL SUB DUP3 AND PUSH1 0x4 DUP3 ADD MSTORE PUSH1 0x24 DUP2 ADD DUP4 SWAP1 MSTORE PUSH1 0x44 ADD PUSH2 0x345 JUMP JUMPDEST DUP1 MLOAD DUP3 MLOAD EQ PUSH2 0x935 JUMPI DUP2 MLOAD DUP2 MLOAD PUSH1 0x40 MLOAD PUSH4 0x5B059991 PUSH1 0xE0 SHL DUP2 MSTORE PUSH1 0x4 DUP2 ADD SWAP3 SWAP1 SWAP3 MSTORE PUSH1 0x24 DUP3 ADD MSTORE PUSH1 0x44 ADD PUSH2 0x345 JUMP JUMPDEST CALLER PUSH0 JUMPDEST DUP4 MLOAD DUP2 LT ISZERO PUSH2 0xA37 JUMPI PUSH1 0x20 DUP2 DUP2 MUL DUP6 DUP2 ADD DUP3 ADD MLOAD SWAP1 DUP6 ADD SWAP1 SWAP2 ADD MLOAD PUSH1 0x1 PUSH1 0x1 PUSH1 0xA0 SHL SUB DUP9 AND ISZERO PUSH2 0x9E9 JUMPI PUSH0 DUP3 DUP2 MSTORE PUSH1 0x20 DUP2 DUP2 MSTORE PUSH1 0x40 DUP1 DUP4 KECCAK256 PUSH1 0x1 PUSH1 0x1 PUSH1 0xA0 SHL SUB DUP13 AND DUP5 MSTORE SWAP1 SWAP2 MSTORE SWAP1 KECCAK256 SLOAD DUP2 DUP2 LT ISZERO PUSH2 0x9C3 JUMPI PUSH1 0x40 MLOAD PUSH4 0x3DEE4C5 PUSH1 0xE0 SHL DUP2 MSTORE PUSH1 0x1 PUSH1 0x1 PUSH1 0xA0 SHL SUB DUP11 AND PUSH1 0x4 DUP3 ADD MSTORE PUSH1 0x24 DUP2 ADD DUP3 SWAP1 MSTORE PUSH1 0x44 DUP2 ADD DUP4 SWAP1 MSTORE PUSH1 0x64 DUP2 ADD DUP5 SWAP1 MSTORE PUSH1 0x84 ADD PUSH2 0x345 JUMP JUMPDEST PUSH0 DUP4 DUP2 MSTORE PUSH1 0x20 DUP2 DUP2 MSTORE PUSH1 0x40 DUP1 DUP4 KECCAK256 PUSH1 0x1 PUSH1 0x1 PUSH1 0xA0 SHL SUB DUP14 AND DUP5 MSTORE SWAP1 SWAP2 MSTORE SWAP1 KECCAK256 SWAP1 DUP3 SWAP1 SUB SWAP1 SSTORE JUMPDEST PUSH1 0x1 PUSH1 0x1 PUSH1 0xA0 SHL SUB DUP8 AND ISZERO PUSH2 0xA2D JUMPI PUSH0 DUP3 DUP2 MSTORE PUSH1 0x20 DUP2 DUP2 MSTORE PUSH1 0x40 DUP1 DUP4 KECCAK256 PUSH1 0x1 PUSH1 0x1 PUSH1 0xA0 SHL SUB DUP12 AND DUP5 MSTORE SWAP1 SWAP2 MSTORE DUP2 KECCAK256 DUP1 SLOAD DUP4 SWAP3 SWAP1 PUSH2 0xA27 SWAP1 DUP5 SWAP1 PUSH2 0x1215 JUMP JUMPDEST SWAP1 SWAP2 SSTORE POP POP JUMPDEST POP POP PUSH1 0x1 ADD PUSH2 0x938 JUMP JUMPDEST POP DUP3 MLOAD PUSH1 0x1 SUB PUSH2 0xAB7 JUMPI PUSH1 0x20 DUP4 ADD MLOAD PUSH0 SWAP1 PUSH1 0x20 DUP5 ADD MLOAD SWAP1 SWAP2 POP DUP6 PUSH1 0x1 PUSH1 0x1 PUSH1 0xA0 SHL SUB AND DUP8 PUSH1 0x1 PUSH1 0x1 PUSH1 0xA0 SHL SUB AND DUP5 PUSH1 0x1 PUSH1 0x1 PUSH1 0xA0 SHL SUB AND PUSH32 0xC3D58168C5AE7397731D063D5BBF3D657854427343F4C083240F7AACAA2D0F62 DUP6 DUP6 PUSH1 0x40 MLOAD PUSH2 0xAA8 SWAP3 SWAP2 SWAP1 SWAP2 DUP3 MSTORE PUSH1 0x20 DUP3 ADD MSTORE PUSH1 0x40 ADD SWAP1 JUMP JUMPDEST PUSH1 0x40 MLOAD DUP1 SWAP2 SUB SWAP1 LOG4 POP POP PUSH2 0x5FB JUMP JUMPDEST DUP4 PUSH1 0x1 PUSH1 0x1 PUSH1 0xA0 SHL SUB AND DUP6 PUSH1 0x1 PUSH1 0x1 PUSH1 0xA0 SHL SUB AND DUP3 PUSH1 0x1 PUSH1 0x1 PUSH1 0xA0 SHL SUB AND PUSH32 0x4A39DC06D4C0DBC64B70AF90FD698A233A518AA5D07E595D983B8C0526C8F7FB DUP7 DUP7 PUSH1 0x40 MLOAD PUSH2 0xB06 SWAP3 SWAP2 SWAP1 PUSH2 0x1234 JUMP JUMPDEST PUSH1 0x40 MLOAD DUP1 SWAP2 SUB SWAP1 LOG4 POP POP POP POP POP JUMP JUMPDEST PUSH1 0x1 PUSH1 0x1 PUSH1 0xA0 SHL SUB DUP5 AND EXTCODESIZE ISZERO PUSH2 0x35B JUMPI PUSH1 0x40 MLOAD PUSH4 0xF23A6E61 PUSH1 0xE0 SHL DUP2 MSTORE PUSH1 0x1 PUSH1 0x1 PUSH1 0xA0 SHL SUB DUP6 AND SWAP1 PUSH4 0xF23A6E61 SWAP1 PUSH2 0xB59 SWAP1 DUP10 SWAP1 DUP10 SWAP1 DUP9 SWAP1 DUP9 SWAP1 DUP9 SWAP1 PUSH1 0x4 ADD PUSH2 0x1261 JUMP JUMPDEST PUSH1 0x20 PUSH1 0x40 MLOAD DUP1 DUP4 SUB DUP2 PUSH0 DUP8 GAS CALL SWAP3 POP POP POP DUP1 ISZERO PUSH2 0xB93 JUMPI POP PUSH1 0x40 DUP1 MLOAD PUSH1 0x1F RETURNDATASIZE SWAP1 DUP2 ADD PUSH1 0x1F NOT AND DUP3 ADD SWAP1 SWAP3 MSTORE PUSH2 0xB90 SWAP2 DUP2 ADD SWAP1 PUSH2 0x12A5 JUMP JUMPDEST PUSH1 0x1 JUMPDEST PUSH2 0xBFA JUMPI RETURNDATASIZE DUP1 DUP1 ISZERO PUSH2 0xBC0 JUMPI PUSH1 0x40 MLOAD SWAP2 POP PUSH1 0x1F NOT PUSH1 0x3F RETURNDATASIZE ADD AND DUP3 ADD PUSH1 0x40 MSTORE RETURNDATASIZE DUP3 MSTORE RETURNDATASIZE PUSH0 PUSH1 0x20 DUP5 ADD RETURNDATACOPY PUSH2 0xBC5 JUMP JUMPDEST PUSH1 0x60 SWAP2 POP JUMPDEST POP DUP1 MLOAD PUSH0 SUB PUSH2 0xBF2 JUMPI PUSH1 0x40 MLOAD PUSH4 0x2BFA23E7 PUSH1 0xE1 SHL DUP2 MSTORE PUSH1 0x1 PUSH1 0x1 PUSH1 0xA0 SHL SUB DUP7 AND PUSH1 0x4 DUP3 ADD MSTORE PUSH1 0x24 ADD PUSH2 0x345 JUMP JUMPDEST DUP1 MLOAD DUP2 PUSH1 0x20 ADD REVERT JUMPDEST PUSH1 0x1 PUSH1 0x1 PUSH1 0xE0 SHL SUB NOT DUP2 AND PUSH4 0xF23A6E61 PUSH1 0xE0 SHL EQ PUSH2 0x822 JUMPI PUSH1 0x40 MLOAD PUSH4 0x2BFA23E7 PUSH1 0xE1 SHL DUP2 MSTORE PUSH1 0x1 PUSH1 0x1 PUSH1 0xA0 SHL SUB DUP7 AND PUSH1 0x4 DUP3 ADD MSTORE PUSH1 0x24 ADD PUSH2 0x345 JUMP JUMPDEST PUSH1 0x1 PUSH1 0x1 PUSH1 0xA0 SHL SUB DUP5 AND EXTCODESIZE ISZERO PUSH2 0x35B JUMPI PUSH1 0x40 MLOAD PUSH4 0xBC197C81 PUSH1 0xE0 SHL DUP2 MSTORE PUSH1 0x1 PUSH1 0x1 PUSH1 0xA0 SHL SUB DUP6 AND SWAP1 PUSH4 0xBC197C81 SWAP1 PUSH2 0xC7A SWAP1 DUP10 SWAP1 DUP10 SWAP1 DUP9 SWAP1 DUP9 SWAP1 DUP9 SWAP1 PUSH1 0x4 ADD PUSH2 0x12C0 JUMP JUMPDEST PUSH1 0x20 PUSH1 0x40 MLOAD DUP1 DUP4 SUB DUP2 PUSH0 DUP8 GAS CALL SWAP3 POP POP POP DUP1 ISZERO PUSH2 0xCB4 JUMPI POP PUSH1 0x40 DUP1 MLOAD PUSH1 0x1F RETURNDATASIZE SWAP1 DUP2 ADD PUSH1 0x1F NOT AND DUP3 ADD SWAP1 SWAP3 MSTORE PUSH2 0xCB1 SWAP2 DUP2 ADD SWAP1 PUSH2 0x12A5 JUMP JUMPDEST PUSH1 0x1 JUMPDEST PUSH2 0xCE1 JUMPI RETURNDATASIZE DUP1 DUP1 ISZERO PUSH2 0xBC0 JUMPI PUSH1 0x40 MLOAD SWAP2 POP PUSH1 0x1F NOT PUSH1 0x3F RETURNDATASIZE ADD AND DUP3 ADD PUSH1 0x40 MSTORE RETURNDATASIZE DUP3 MSTORE RETURNDATASIZE PUSH0 PUSH1 0x20 DUP5 ADD RETURNDATACOPY PUSH2 0xBC5 JUMP JUMPDEST PUSH1 0x1 PUSH1 0x1 PUSH1 0xE0 SHL SUB NOT DUP2 AND PUSH4 0xBC197C81 PUSH1 0xE0 SHL EQ PUSH2 0x822 JUMPI PUSH1 0x40 MLOAD PUSH4 0x2BFA23E7 PUSH1 0xE1 SHL DUP2 MSTORE PUSH1 0x1 PUSH1 0x1 PUSH1 0xA0 SHL SUB DUP7 AND PUSH1 0x4 DUP3 ADD MSTORE PUSH1 0x24 ADD PUSH2 0x345 JUMP JUMPDEST DUP1 CALLDATALOAD PUSH1 0x1 PUSH1 0x1 PUSH1 0xA0 SHL SUB DUP2 AND DUP2 EQ PUSH2 0xD33 JUMPI PUSH0 DUP1 REVERT JUMPDEST SWAP2 SWAP1 POP JUMP JUMPDEST PUSH0 DUP1 PUSH1 0x40 DUP4 DUP6 SUB SLT ISZERO PUSH2 0xD49 JUMPI PUSH0 DUP1 REVERT JUMPDEST PUSH2 0xD52 DUP4 PUSH2 0xD1D JUMP JUMPDEST SWAP5 PUSH1 0x20 SWAP4 SWAP1 SWAP4 ADD CALLDATALOAD SWAP4 POP POP POP JUMP JUMPDEST PUSH1 0x1 PUSH1 0x1 PUSH1 0xE0 SHL SUB NOT DUP2 AND DUP2 EQ PUSH2 0x60C JUMPI PUSH0 DUP1 REVERT JUMPDEST PUSH0 PUSH1 0x20 DUP3 DUP5 SUB SLT ISZERO PUSH2 0xD85 JUMPI PUSH0 DUP1 REVERT JUMPDEST DUP2 CALLDATALOAD PUSH2 0xD90 DUP2 PUSH2 0xD60 JUMP JUMPDEST SWAP4 SWAP3 POP POP POP JUMP JUMPDEST PUSH0 PUSH1 0x20 DUP3 DUP5 SUB SLT ISZERO PUSH2 0xDA7 JUMPI PUSH0 DUP1 REVERT JUMPDEST POP CALLDATALOAD SWAP2 SWAP1 POP JUMP JUMPDEST PUSH0 DUP2 MLOAD DUP1 DUP5 MSTORE DUP1 PUSH1 0x20 DUP5 ADD PUSH1 0x20 DUP7 ADD MCOPY PUSH0 PUSH1 0x20 DUP3 DUP7 ADD ADD MSTORE PUSH1 0x20 PUSH1 0x1F NOT PUSH1 0x1F DUP4 ADD AND DUP6 ADD ADD SWAP2 POP POP SWAP3 SWAP2 POP POP JUMP JUMPDEST PUSH1 0x20 DUP2 MSTORE PUSH0 PUSH2 0xD90 PUSH1 0x20 DUP4 ADD DUP5 PUSH2 0xDAE JUMP JUMPDEST PUSH4 0x4E487B71 PUSH1 0xE0 SHL PUSH0 MSTORE PUSH1 0x41 PUSH1 0x4 MSTORE PUSH1 0x24 PUSH0 REVERT JUMPDEST PUSH1 0x40 MLOAD PUSH1 0x1F DUP3 ADD PUSH1 0x1F NOT AND DUP2 ADD PUSH8 0xFFFFFFFFFFFFFFFF DUP2 GT DUP3 DUP3 LT OR ISZERO PUSH2 0xE2B JUMPI PUSH2 0xE2B PUSH2 0xDEE JUMP JUMPDEST PUSH1 0x40 MSTORE SWAP2 SWAP1 POP JUMP JUMPDEST PUSH0 PUSH8 0xFFFFFFFFFFFFFFFF DUP3 GT ISZERO PUSH2 0xE4C JUMPI PUSH2 0xE4C PUSH2 0xDEE JUMP JUMPDEST POP PUSH1 0x5 SHL PUSH1 0x20 ADD SWAP1 JUMP JUMPDEST PUSH0 DUP3 PUSH1 0x1F DUP4 ADD SLT PUSH2 0xE65 JUMPI PUSH0 DUP1 REVERT JUMPDEST DUP2 CALLDATALOAD PUSH2 0xE78 PUSH2 0xE73 DUP3 PUSH2 0xE33 JUMP JUMPDEST PUSH2 0xE02 JUMP JUMPDEST DUP1 DUP3 DUP3 MSTORE PUSH1 0x20 DUP3 ADD SWAP2 POP PUSH1 0x20 DUP4 PUSH1 0x5 SHL DUP7 ADD ADD SWAP3 POP DUP6 DUP4 GT ISZERO PUSH2 0xE99 JUMPI PUSH0 DUP1 REVERT JUMPDEST PUSH1 0x20 DUP6 ADD JUMPDEST DUP4 DUP2 LT ISZERO PUSH2 0xEB6 JUMPI DUP1 CALLDATALOAD DUP4 MSTORE PUSH1 0x20 SWAP3 DUP4 ADD SWAP3 ADD PUSH2 0xE9E JUMP JUMPDEST POP SWAP6 SWAP5 POP POP POP POP POP JUMP JUMPDEST PUSH0 DUP3 PUSH1 0x1F DUP4 ADD SLT PUSH2 0xECF JUMPI PUSH0 DUP1 REVERT JUMPDEST DUP2 CALLDATALOAD PUSH8 0xFFFFFFFFFFFFFFFF DUP2 GT ISZERO PUSH2 0xEE9 JUMPI PUSH2 0xEE9 PUSH2 0xDEE JUMP JUMPDEST PUSH2 0xEFC PUSH1 0x1F DUP3 ADD PUSH1 0x1F NOT AND PUSH1 0x20 ADD PUSH2 0xE02 JUMP JUMPDEST DUP2 DUP2 MSTORE DUP5 PUSH1 0x20 DUP4 DUP7 ADD ADD GT ISZERO PUSH2 0xF10 JUMPI PUSH0 DUP1 REVERT JUMPDEST DUP2 PUSH1 0x20 DUP6 ADD PUSH1 0x20 DUP4 ADD CALLDATACOPY PUSH0 SWAP2 DUP2 ADD PUSH1 0x20 ADD SWAP2 SWAP1 SWAP2 MSTORE SWAP4 SWAP3 POP POP POP JUMP JUMPDEST PUSH0 DUP1 PUSH0 DUP1 PUSH0 PUSH1 0xA0 DUP7 DUP9 SUB SLT ISZERO PUSH2 0xF40 JUMPI PUSH0 DUP1 REVERT JUMPDEST PUSH2 0xF49 DUP7 PUSH2 0xD1D JUMP JUMPDEST SWAP5 POP PUSH2 0xF57 PUSH1 0x20 DUP8 ADD PUSH2 0xD1D JUMP JUMPDEST SWAP4 POP PUSH1 0x40 DUP7 ADD CALLDATALOAD PUSH8 0xFFFFFFFFFFFFFFFF DUP2 GT ISZERO PUSH2 0xF72 JUMPI PUSH0 DUP1 REVERT JUMPDEST PUSH2 0xF7E DUP9 DUP3 DUP10 ADD PUSH2 0xE56 JUMP JUMPDEST SWAP4 POP POP PUSH1 0x60 DUP7 ADD CALLDATALOAD PUSH8 0xFFFFFFFFFFFFFFFF DUP2 GT ISZERO PUSH2 0xF9A JUMPI PUSH0 DUP1 REVERT JUMPDEST PUSH2 0xFA6 DUP9 DUP3 DUP10 ADD PUSH2 0xE56 JUMP JUMPDEST SWAP3 POP POP PUSH1 0x80 DUP7 ADD CALLDATALOAD PUSH8 0xFFFFFFFFFFFFFFFF DUP2 GT ISZERO PUSH2 0xFC2 JUMPI PUSH0 DUP1 REVERT JUMPDEST PUSH2 0xFCE DUP9 DUP3 DUP10 ADD PUSH2 0xEC0 JUMP JUMPDEST SWAP2 POP POP SWAP3 SWAP6 POP SWAP3 SWAP6 SWAP1 SWAP4 POP JUMP JUMPDEST PUSH0 DUP1 PUSH1 0x40 DUP4 DUP6 SUB SLT ISZERO PUSH2 0xFEC JUMPI PUSH0 DUP1 REVERT JUMPDEST DUP3 CALLDATALOAD SWAP2 POP PUSH2 0xFFC PUSH1 0x20 DUP5 ADD PUSH2 0xD1D JUMP JUMPDEST SWAP1 POP SWAP3 POP SWAP3 SWAP1 POP JUMP JUMPDEST PUSH0 DUP1 PUSH1 0x40 DUP4 DUP6 SUB SLT ISZERO PUSH2 0x1016 JUMPI PUSH0 DUP1 REVERT JUMPDEST DUP3 CALLDATALOAD PUSH8 0xFFFFFFFFFFFFFFFF DUP2 GT ISZERO PUSH2 0x102C JUMPI PUSH0 DUP1 REVERT JUMPDEST DUP4 ADD PUSH1 0x1F DUP2 ADD DUP6 SGT PUSH2 0x103C JUMPI PUSH0 DUP1 REVERT JUMPDEST DUP1 CALLDATALOAD PUSH2 0x104A PUSH2 0xE73 DUP3 PUSH2 0xE33 JUMP JUMPDEST DUP1 DUP3 DUP3 MSTORE PUSH1 0x20 DUP3 ADD SWAP2 POP PUSH1 0x20 DUP4 PUSH1 0x5 SHL DUP6 ADD ADD SWAP3 POP DUP8 DUP4 GT ISZERO PUSH2 0x106B JUMPI PUSH0 DUP1 REVERT JUMPDEST PUSH1 0x20 DUP5 ADD SWAP4 POP JUMPDEST DUP3 DUP5 LT ISZERO PUSH2 0x1094 JUMPI PUSH2 0x1083 DUP5 PUSH2 0xD1D JUMP JUMPDEST DUP3 MSTORE PUSH1 0x20 SWAP4 DUP5 ADD SWAP4 SWAP1 SWAP2 ADD SWAP1 PUSH2 0x1072 JUMP JUMPDEST SWAP5 POP POP POP POP PUSH1 0x20 DUP4 ADD CALLDATALOAD PUSH8 0xFFFFFFFFFFFFFFFF DUP2 GT ISZERO PUSH2 0x10B2 JUMPI PUSH0 DUP1 REVERT JUMPDEST PUSH2 0x10BE DUP6 DUP3 DUP7 ADD PUSH2 0xE56 JUMP JUMPDEST SWAP2 POP POP SWAP3 POP SWAP3 SWAP1 POP JUMP JUMPDEST PUSH0 DUP2 MLOAD DUP1 DUP5 MSTORE PUSH1 0x20 DUP5 ADD SWAP4 POP PUSH1 0x20 DUP4 ADD PUSH0 JUMPDEST DUP3 DUP2 LT ISZERO PUSH2 0x10F8 JUMPI DUP2 MLOAD DUP7 MSTORE PUSH1 0x20 SWAP6 DUP7 ADD SWAP6 SWAP1 SWAP2 ADD SWAP1 PUSH1 0x1 ADD PUSH2 0x10DA JUMP JUMPDEST POP SWAP4 SWAP5 SWAP4 POP POP POP POP JUMP JUMPDEST PUSH1 0x20 DUP2 MSTORE PUSH0 PUSH2 0xD90 PUSH1 0x20 DUP4 ADD DUP5 PUSH2 0x10C8 JUMP JUMPDEST PUSH0 DUP1 PUSH1 0x40 DUP4 DUP6 SUB SLT ISZERO PUSH2 0x1125 JUMPI PUSH0 DUP1 REVERT JUMPDEST PUSH2 0x112E DUP4 PUSH2 0xD1D JUMP JUMPDEST SWAP2 POP PUSH1 0x20 DUP4 ADD CALLDATALOAD DUP1 ISZERO ISZERO DUP2 EQ PUSH2 0x1142 JUMPI PUSH0 DUP1 REVERT JUMPDEST DUP1 SWAP2 POP POP SWAP3 POP SWAP3 SWAP1 POP JUMP JUMPDEST PUSH0 DUP1 PUSH1 0x40 DUP4 DUP6 SUB SLT ISZERO PUSH2 0x115E JUMPI PUSH0 DUP1 REVERT JUMPDEST PUSH2 0x1167 DUP4 PUSH2 0xD1D JUMP JUMPDEST SWAP2 POP PUSH2 0xFFC PUSH1 0x20 DUP5 ADD PUSH2 0xD1D JUMP JUMPDEST PUSH0 DUP1 PUSH0 DUP1 PUSH0 PUSH1 0xA0 DUP7 DUP9 SUB SLT ISZERO PUSH2 0x1189 JUMPI PUSH0 DUP1 REVERT JUMPDEST PUSH2 0x1192 DUP7 PUSH2 0xD1D JUMP JUMPDEST SWAP5 POP PUSH2 0x11A0 PUSH1 0x20 DUP8 ADD PUSH2 0xD1D JUMP JUMPDEST SWAP4 POP PUSH1 0x40 DUP7 ADD CALLDATALOAD SWAP3 POP PUSH1 0x60 DUP7 ADD CALLDATALOAD SWAP2 POP PUSH1 0x80 DUP7 ADD CALLDATALOAD PUSH8 0xFFFFFFFFFFFFFFFF DUP2 GT ISZERO PUSH2 0xFC2 JUMPI PUSH0 DUP1 REVERT JUMPDEST PUSH1 0x1 DUP2 DUP2 SHR SWAP1 DUP3 AND DUP1 PUSH2 0x11DD JUMPI PUSH1 0x7F DUP3 AND SWAP2 POP JUMPDEST PUSH1 0x20 DUP3 LT DUP2 SUB PUSH2 0x11FB JUMPI PUSH4 0x4E487B71 PUSH1 0xE0 SHL PUSH0 MSTORE PUSH1 0x22 PUSH1 0x4 MSTORE PUSH1 0x24 PUSH0 REVERT JUMPDEST POP SWAP2 SWAP1 POP JUMP JUMPDEST PUSH4 0x4E487B71 PUSH1 0xE0 SHL PUSH0 MSTORE PUSH1 0x32 PUSH1 0x4 MSTORE PUSH1 0x24 PUSH0 REVERT JUMPDEST DUP1 DUP3 ADD DUP1 DUP3 GT ISZERO PUSH2 0x255 JUMPI PUSH4 0x4E487B71 PUSH1 0xE0 SHL PUSH0 MSTORE PUSH1 0x11 PUSH1 0x4 MSTORE PUSH1 0x24 PUSH0 REVERT JUMPDEST PUSH1 0x40 DUP2 MSTORE PUSH0 PUSH2 0x1246 PUSH1 0x40 DUP4 ADD DUP6 PUSH2 0x10C8 JUMP JUMPDEST DUP3 DUP2 SUB PUSH1 0x20 DUP5 ADD MSTORE PUSH2 0x1258 DUP2 DUP6 PUSH2 0x10C8 JUMP JUMPDEST SWAP6 SWAP5 POP POP POP POP POP JUMP JUMPDEST PUSH1 0x1 PUSH1 0x1 PUSH1 0xA0 SHL SUB DUP7 DUP2 AND DUP3 MSTORE DUP6 AND PUSH1 0x20 DUP3 ADD MSTORE PUSH1 0x40 DUP2 ADD DUP5 SWAP1 MSTORE PUSH1 0x60 DUP2 ADD DUP4 SWAP1 MSTORE PUSH1 0xA0 PUSH1 0x80 DUP3 ADD DUP2 SWAP1 MSTORE PUSH0 SWAP1 PUSH2 0x129A SWAP1 DUP4 ADD DUP5 PUSH2 0xDAE JUMP JUMPDEST SWAP8 SWAP7 POP POP POP POP POP POP POP JUMP JUMPDEST PUSH0 PUSH1 0x20 DUP3 DUP5 SUB SLT ISZERO PUSH2 0x12B5 JUMPI PUSH0 DUP1 REVERT JUMPDEST DUP2 MLOAD PUSH2 0xD90 DUP2 PUSH2 0xD60 JUMP JUMPDEST PUSH1 0x1 PUSH1 0x1 PUSH1 0xA0 SHL SUB DUP7 DUP2 AND DUP3 MSTORE DUP6 AND PUSH1 0x20 DUP3 ADD MSTORE PUSH1 0xA0 PUSH1 0x40 DUP3 ADD DUP2 SWAP1 MSTORE PUSH0 SWAP1 PUSH2 0x12EB SWAP1 DUP4 ADD DUP7 PUSH2 0x10C8 JUMP JUMPDEST DUP3 DUP2 SUB PUSH1 0x60 DUP5 ADD MSTORE PUSH2 0x12FD DUP2 DUP7 PUSH2 0x10C8 JUMP JUMPDEST SWAP1 POP DUP3 DUP2 SUB PUSH1 0x80 DUP5 ADD MSTORE PUSH2 0x1311 DUP2 DUP6 PUSH2 0xDAE JUMP JUMPDEST SWAP9 SWAP8 POP POP POP POP POP POP POP POP JUMP INVALID LOG2 PUSH5 0x6970667358 0x22 SLT KECCAK256 PUSH18 0xC66F8918CDC352AA9F5B688E9DFBC0F7C385 PUSH25 0x5A5B0AD0D211B4ABF309536B64736F6C634300081A00330000 "
				},
				"gasEstimates": {
					"creation": {
						"codeDepositCost": "989400",
						"executionCost": "infinite",
						"totalCost": "infinite"
					},
					"external": {
						"DEFAULT_ADMIN_ROLE()": "249",
						"balanceOf(address,uint256)": "2657",
						"balanceOfBatch(address[],uint256[])": "infinite",
						"getRoleAdmin(bytes32)": "2453",
						"grantRole(bytes32,address)": "infinite",
						"hasRole(bytes32,address)": "2707",
						"isApprovedForAll(address,address)": "infinite",
						"renounceRole(bytes32,address)": "29113",
						"revokeRole(bytes32,address)": "infinite",
						"safeBatchTransferFrom(address,address,uint256[],uint256[],bytes)": "infinite",
						"safeTransferFrom(address,address,uint256,uint256,bytes)": "infinite",
						"setApprovalForAll(address,bool)": "26678",
						"supportsInterface(bytes4)": "infinite",
						"uri(uint256)": "infinite"
					}
				},
				"methodIdentifiers": {
					"DEFAULT_ADMIN_ROLE()": "a217fddf",
					"balanceOf(address,uint256)": "00fdd58e",
					"balanceOfBatch(address[],uint256[])": "4e1273f4",
					"getRoleAdmin(bytes32)": "248a9ca3",
					"grantRole(bytes32,address)": "2f2ff15d",
					"hasRole(bytes32,address)": "91d14854",
					"isApprovedForAll(address,address)": "e985e9c5",
					"renounceRole(bytes32,address)": "36568abe",
					"revokeRole(bytes32,address)": "d547741f",
					"safeBatchTransferFrom(address,address,uint256[],uint256[],bytes)": "2eb2c2d6",
					"safeTransferFrom(address,address,uint256,uint256,bytes)": "f242432a",
					"setApprovalForAll(address,bool)": "a22cb465",
					"supportsInterface(bytes4)": "01ffc9a7",
					"uri(uint256)": "0e89341c"
				}
			},
			"storageLayout": {
				"storage": [
					{
						"astId": 557,
						"contract": "contracts/wonderbits/WonderbitsPOAP.sol:WonderbitsPOAP",
						"label": "_balances",
						"offset": 0,
						"slot": "0",
						"type": "t_mapping(t_uint256,t_mapping(t_address,t_uint256))"
					},
					{
						"astId": 563,
						"contract": "contracts/wonderbits/WonderbitsPOAP.sol:WonderbitsPOAP",
						"label": "_operatorApprovals",
						"offset": 0,
						"slot": "1",
						"type": "t_mapping(t_address,t_mapping(t_address,t_bool))"
					},
					{
						"astId": 565,
						"contract": "contracts/wonderbits/WonderbitsPOAP.sol:WonderbitsPOAP",
						"label": "_uri",
						"offset": 0,
						"slot": "2",
						"type": "t_string_storage"
					},
					{
						"astId": 26,
						"contract": "contracts/wonderbits/WonderbitsPOAP.sol:WonderbitsPOAP",
						"label": "_roles",
						"offset": 0,
						"slot": "3",
						"type": "t_mapping(t_bytes32,t_struct(RoleData)21_storage)"
					}
				],
				"types": {
					"t_address": {
						"encoding": "inplace",
						"label": "address",
						"numberOfBytes": "20"
					},
					"t_bool": {
						"encoding": "inplace",
						"label": "bool",
						"numberOfBytes": "1"
					},
					"t_bytes32": {
						"encoding": "inplace",
						"label": "bytes32",
						"numberOfBytes": "32"
					},
					"t_mapping(t_address,t_bool)": {
						"encoding": "mapping",
						"key": "t_address",
						"label": "mapping(address => bool)",
						"numberOfBytes": "32",
						"value": "t_bool"
					},
					"t_mapping(t_address,t_mapping(t_address,t_bool))": {
						"encoding": "mapping",
						"key": "t_address",
						"label": "mapping(address => mapping(address => bool))",
						"numberOfBytes": "32",
						"value": "t_mapping(t_address,t_bool)"
					},
					"t_mapping(t_address,t_uint256)": {
						"encoding": "mapping",
						"key": "t_address",
						"label": "mapping(address => uint256)",
						"numberOfBytes": "32",
						"value": "t_uint256"
					},
					"t_mapping(t_bytes32,t_struct(RoleData)21_storage)": {
						"encoding": "mapping",
						"key": "t_bytes32",
						"label": "mapping(bytes32 => struct AccessControl.RoleData)",
						"numberOfBytes": "32",
						"value": "t_struct(RoleData)21_storage"
					},
					"t_mapping(t_uint256,t_mapping(t_address,t_uint256))": {
						"encoding": "mapping",
						"key": "t_uint256",
						"label": "mapping(uint256 => mapping(address => uint256))",
						"numberOfBytes": "32",
						"value": "t_mapping(t_address,t_uint256)"
					},
					"t_string_storage": {
						"encoding": "bytes",
						"label": "string",
						"numberOfBytes": "32"
					},
					"t_struct(RoleData)21_storage": {
						"encoding": "inplace",
						"label": "struct AccessControl.RoleData",
						"members": [
							{
								"astId": 18,
								"contract": "contracts/wonderbits/WonderbitsPOAP.sol:WonderbitsPOAP",
								"label": "hasRole",
								"offset": 0,
								"slot": "0",
								"type": "t_mapping(t_address,t_bool)"
							},
							{
								"astId": 20,
								"contract": "contracts/wonderbits/WonderbitsPOAP.sol:WonderbitsPOAP",
								"label": "adminRole",
								"offset": 0,
								"slot": "1",
								"type": "t_bytes32"
							}
						],
						"numberOfBytes": "64"
					},
					"t_uint256": {
						"encoding": "inplace",
						"label": "uint256",
						"numberOfBytes": "32"
					}
				}
			},
			"userdoc": {
				"kind": "user",
				"methods": {},
				"version": 1
			}
		}
	}
}